:020000040800F2
:10000000E8ED002035020008CF290008112500087E
:10001000CD290008AF080008B15700080000000013
:100020000000000000000000000000009D0100082A
:10003000E908000800000000E1010008953D000803
:100040004F0200084F0200084F0200084F0200084C
:100050004F0200084F0200084F0200084F0200083C
:100060004F0200084F0200084F0200084F0200082C
:100070004F0200084F0200084F0200084F0200081C
:100080004F0200084F0200084F0200084F0200080C
:100090004F0200084F0200084F0200084F020008FC
:1000A0004F020008293E00084F0200084F020008D6
:1000B0004F0200084F0200084F0200084F020008DC
:1000C0004F0200084F0200084F0200084F020008CC
:1000D0004F0200084F0200084F0200084F020008BC
:1000E0004F0200084F0200084F0200084F020008AC
:1000F0004F0200084F0200084F0200084F0200089C
:100100004F0200084F0200084F0200084F0200088B
:100110004F0200084F0200084F0200084F0200087B
:100120004F0200084F0200084F0200084F0200086B
:100130004F02000800000000000000004F0200080D
:100140004F0200084F0200084F020008D1290008A2
:100150004F0200084F0200084F0200084F0200083B
:100160004F0200084F0200084F0200084F0200082B
:100170004F0200084F0200080000000000000000CD
:100180004F020008DFF810D000F042FB00480047A3
:100190007D7A0008AFF30080E8ED0020224B19685B
:1001A0000868B0E8F00F80F30988BFF36F8F4FF055
:1001B000000080F311884EF00D0E70470000000023
:1001C00006480068006880F3088862B661B6BFF32D
:1001D0004F8FBFF36F8F00DF00BF00BF08ED00E05F
:1001E000EFF30980BFF36F8F0F4B1A6820E9F00F10
:1001F000106008B54FF0500080F31188BFF34F8FA7
:10020000BFF36F8F08F064FD4FF0000080F311889A
:10021000BDE8084019680868B0E8F00F80F3098865
:10022000BFF36F8F704700BF38000020EFF30580E9
:10023000704700000648804706480047FEE7FEE793
:10024000FEE7FEE7FEE7FEE7FEE7FEE7FEE7FEE786
:10025000273E0008850100082DE9F05F05460020D3
:1002600092469B4688460646814640241BE0284627
:1002700041464746224600F0A6F853465A46C01A61
:10028000914110D311461846224600F08DF82D1AE0
:1002900067EB01084F4622460120002100F084F858
:1002A00017EB00094E41201EA4F10104DFDC484693
:1002B00031462A464346BDE8F09F40EA01039B07CA
:1002C00003D009E008C9121F08C0042AFAD203E0CB
:1002D00011F8013B00F8013B521EF9D27047D2B22F
:1002E00001E000F8012B491EFBD270470022F6E71F
:1002F00010B513460A4604461946FFF7F0FF20469C
:1003000010BD70B521F0004303430CD0C1F30A5572
:100310000024D5EB040564EB0403D617AD1AB341F2
:1003200002DB0020014670BD201841EB025170BD78
:100330000EB540F2334102910021CDE900110A4689
:100340000B4600F05FF803B000BDC1F30A5210B5D0
:10035000C1F3130140F2FF3341F480119A4201DAF4
:10036000002010BD40F233439A42A2F2334203DC34
:10037000524200F028F810BD904010BD30B50B4639
:10038000014600202022012409E021FA02F59D42C5
:1003900005D303FA02F5491B04FA02F52844151E99
:1003A000A2F10102F1DC30BD202A04DB203A00FA80
:1003B00002F1002070479140C2F1200320FA03F3BC
:1003C000194390407047202A04DB203A21FA02F0BA
:1003D0000021704721FA02F3D040C2F1200291407F
:1003E00008431946704710B5141E73F1000408DA6B
:1003F000401C41F1000192185B411A4301D120F0E9
:10040000010010BD2DE9F04D92469B4611B1B1FAA5
:1004100081F202E0B0FA80F220329046FFF7C4FF8A
:1004200004460F4640EA0A0041EA0B0153465A4689
:10043000084313D0114653EA010019D0C8F1400215
:100440005046FFF7C0FF05460E4650465946424605
:10045000FFF7AAFF084305D0012004E020463946F3
:10046000BDE8F08D0020054346EAE0762C43374393
:100470000A986305E40AA0EB08000022FD0A44EA9A
:1004800047540A3002D500200146E9E7010510195A
:100490006941DDE9084500196941BDE8F04DA2E771
:1004A0002DE9FE4F804681EA0300C00F0C46009004
:1004B00021F0004123F00045B8EB0200A94105D22C
:1004C0004046214690461C460B46024623F000401B
:1004D000104347D0270DC7F30A00C3F30A51029017
:1004E000401A019040286BDAC3F3130040F4801BDC
:1004F0000098924620B10023D2EB030A63EB0B0B6A
:1005000001985946C0F140025046FFF74DFF06469C
:100510000D4650465946019A00F08CF910EB080040
:100520006141002487EA115284EAE7731A4340D0FC
:10053000009A62B3019A012A4FEA075215DC001BA8
:1005400061EB02014FF0004202EA0752CDE900429E
:10055000001C41F5801132462B46FFF753FF03B0D4
:10056000BDE8F08F40462146F9E7001B61EB020130
:10057000001C41F5801300185B412018A2F50017FC
:1005800047EB030140EAD570B6196D4111E06D08E3
:100590004FEA360645EAC0754FEA0752001B61EB89
:1005A0000201001C41F5801149084FEA3000001992
:1005B000514132462B4603B0BDE8F04FFFF713BF61
:1005C0000098012240000023D0EB020263EBE073AD
:1005D000009821464FEAE074B8EB000061EB04019B
:1005E000E9E783F000435BE781F0004158E72DE93C
:1005F000FE4F81EA030404F0004421F0004100941E
:100600004FF0000B23F0004350EA01045ED052EAA1
:1006100003045BD0C3F30A54C1F30A552C44A4F27B
:10062000F3340194A0FB0254C1F3130141F480118F
:10063000C3F3130343F4801301FB024400FB034E96
:10064000840A970A44EA815447EA8357A4FB07685F
:1006500002958D0A05FB07854FEA932C04FB0C5489
:100660002705029D4FEA065847EA1637B5EB0805FD
:100670006EEB070C870E920E47EA811742EA83124F
:10068000A7FB0201B6EB0B0164EB00042B0D43EA60
:100690000C335E1844EB1C50DA465146E7FB02016E
:1006A000C5F313044FEA0B3343EA14534FEA043201
:1006B000019C43EA0603A4F10C040294009CCDE9DA
:1006C00000B4FFF79FFE03B0BDE8F08F00200146A5
:1006D000F9E72DE9F04D81EA030404F0004B21F025
:1006E000004514464FF0000A23F0004150EA05028D
:1006F00020D054EA01021DD0C5F30A570246C5F3C3
:100700001303C1F31300C1F30A5640F4801543F4F8
:100710008013A7EB0608101BD64608F2FD3873EBD2
:10072000050002D308F1010801E092185B41B8F11D
:10073000000F03DA00200146BDE8F08D00204FF4E1
:100740008011064684460EE0171B73EB050705D3A0
:10075000121B63EB050306434CEA010C49084FEA00
:10076000300092185B4150EA0107EDD152EA0300D4
:1007700012D082EA040083EA0501084305D0101B69
:10078000AB4106D20122002306E000224FF00043D5
:1007900002E06FF0010253101AEB06004CEB085117
:1007A00010EB0A0041EB0B01BDE8F04DFFF71BBE5B
:1007B000C1F30A52C1F3130140F2FF3341F4801137
:1007C0009A4202DA00200146704740F233439A42CF
:1007D000A2F2334202DC5242FFF7F5BDFFF7E4BD5F
:1007E00030B5041E71F1000404DB4FF000444042B8
:1007F00064EB0101141E73F1000405DB1C464FF08D
:100800000043524263EB0403994208BF904230BD5B
:10081000064C074D06E0E06840F0010394E807004D
:1008200098471034AC42F6D3FFF7B0FC1C480308DD
:100830003C480308202A06DBCB17203A41FA02F095
:1008400043EAE07306E041FA02F3D040C2F120022D
:10085000914008431946704770B58C1810F8015B39
:1008600015F0070301D110F8013B2A1106D110F849
:10087000012B03E010F8016B01F8016B5B1EF9D14D
:100880002B0705D40023521E0DD401F8013BFAE7D3
:1008900010F8013BCB1A921C03E013F8015B01F83E
:1008A000015B521EF9D5A142D8D3002070BDFEE7EE
:1008B00004490888401E088003490888401E0880B3
:1008C00070470000E2010020E401002010B5012281
:1008D0001021044800F0DAF9BDE81040012007F0CB
:1008E00059B9000000080240704700000FB4F0B58D
:1008F0008FB00E460746154618AC342101A8FFF705
:10090000F5FC2346322101A8179A04F063FF002F5B
:100910000ADB384600F018F8014601A800902B4683
:10092000324603A004F046FF0FB0F0BC5DF814FBA4
:100930005B252D35735D205B252D313073253464A7
:100940005D202573200D0A0038B1012807D0022848
:1009500007D0032807D005A0704706A0704707A05E
:10096000704708A0704709A070470000554E4C4ED4
:100970004F5700004445425547000000494E464F3E
:10098000000000005741524E000000004552524FF7
:100990005200000072B6FEE7002200F001B800002D
:1009A00030B50E4B054601205C7A012C15D8587ADB
:1009B00000241C54587A03EB800045605D7A03F1F3
:1009C00008002A54587A421C5A72303008703A2073
:1009D00048702F208870CC70002030BDD87D00205A
:1009E00031B500F059F9009C0546601C02D004485E
:1009F0000078044400F050F9401BA042FAD338BDFF
:100A0000280000202DE9F04FDFF85092002309F173
:100A1000040A012603250AF1040B85B00F270BF108
:100A2000040E12E1224606FA03F422407ED091F829
:100A300004C00CF0030CBCF1010F02D0BCF1020F9A
:100A400026D1D0F80880CDF800804FEA430805FA97
:100A500008FCCDF81080DDF8008028EA0C08CDF8FD
:100A60000080D1F80CC0DDF810800CFA08FCDDF82D
:100A700000804CEA080CC0F808C0D0F804C02CEA8A
:100A8000040C0C79C4F300149C4044EA0C04446048
:100A90000C79E443A40712D0C4684FEA430CCDF8A4
:100AA00008C005FA0CFC24EA0C04D1F80880DDF833
:100AB00008C008FA0CF848EA0408C0F80C800C7961
:100AC00004F00304022C16D1DC0800EB840CCDF8F2
:100AD00008C0DCF820C05C074FEAD46807FA08F4C5
:100AE0002CEA040C0C6904FA08F444EA0C04DDF85E
:100AF00008C0CCF8204004684FEA430805FA08FC17
:100B000024EA0C0491F804C00CF0030C0CFA08FC65
:100B10004CEA040CC0F800C04C6814F4403F05D007
:100B20004F4CD4F800C04CF4804C00E08CE0C4F88A
:100B300000C0246823F0030C04F480440094494C62
:100B400064440294D4F808484FEA837C4FEA1C7846
:100B500007FA08FC24EA0C04DFF80CC1604502D156
:100B60004FF0000C39E0DFF804C1604502D14FF0CE
:100B7000010C32E0DFF8F8C0604502D14FF0020C02
:100B80002BE0DFF8F0C0604502D14FF0030C24E009
:100B9000DFF8E4C0604502D14FF0040C1DE0DFF83F
:100BA000DCC0604502D14FF0050C16E0DFF8D0C084
:100BB000604502D14FF0060C0FE0DFF8C8C0604579
:100BC00002D14FF0070C08E0DFF8BCC0604502D14D
:100BD0004FF0080C01E04FF0090C0CFA08FC4CEA4D
:100BE000040C029CC4F808C8D9F80040CC46D1F8DF
:100BF000048094435FEAC83800D51443CCF8004021
:100C0000DAF80040D446D1F8048094435FEA88388B
:100C100000D51443CCF80040DBF80040DC46D1F8A6
:100C2000048094435FEAC82800D51443CCF8004000
:100C3000DEF80040F446D1F8048094435FEA882847
:100C400000D51443CCF800405B1C0A681446DA4017
:100C50007FF4E8AE05B0BDE8F08F0000003C014035
:100C600044380240003001400000024000040240CD
:100C700000080240000C0240001002400014024034
:100C800000180240001C0240002002400AB18161AD
:100C900070470904FBE700000148806870470000C6
:100CA0002800002002488168027811448160704762
:100CB000280000200B4810B5016841F40071016064
:100CC000016841F480610160016841F48071016054
:100CD000032000F08DF8002000F006F800F03EF848
:100CE000002010BD003C024010B5014688B0002233
:100CF000192000F05DF8192000F04CF8134800248A
:100D0000016841F001010160006805A900F00100DF
:100D10000690684600F0B2FD00F0EEFD0C49400080
:100D2000B0FBF1F10C480B4A491E026040F2E73279
:100D3000C0E90324C0E9011401F0FAF910B101205F
:100D400008B010BD044801F021FAF9E74438024028
:100D500040420F00000001405C2300200C4882B09C
:100D6000016841F480410160006800F48040009017
:100D70000748001F016841F08051016000680022AF
:100D800000F0805000900F21901E02B000F010B8CB
:100D900044380240002809DB00F01F020121914085
:100DA0004009800000F1E020C0F800117047000009
:100DB000F0B40E4B1B680C46C3F30223C3F10705C6
:100DC000042D00D90425191D072901D2002300E0B4
:100DD000DB1E012606FA05F1491E214099409E407E
:100DE000761E16403143F0BC04F00EBD0CED00E061
:100DF000064900F0070208684FF6FF03184040EA72
:100E00000220034A10430860704700000CED00E028
:100E10000000FA050068416200207047F0B50368E1
:100E2000586A39B19C6A4FF4827600EB1444002072
:100E30004D1E0AE040EA024098620FE006EB800790
:100E4000DF59401C04EB1744C0B2A842F6D344EA71
:100E500002404FF4807202EB810158500020F0BD37
:100E6000D0F8FC0303F035BBC1EBC10200EB8202FA
:100E7000D0F8FC03926C03F088BAC1EBC10200EB1E
:100E80008202D0F8FC03D2F8082203F0E1BAD0F8CD
:100E9000FC0303F020BB70B504460B0601F00F0005
:100EA000C0EBC00104EB81014FF001024FF00005DF
:100EB00003D581F83D203C3103E081F8FD5101F577
:100EC000FE71087094F8BC03012808D084F8BC2394
:100ED000206803F06DFF84F8BC53002070BD022031
:100EE00070BD70B5044601F00F006268904201D9F0
:100EF000012070BD0B0601F00F01C1EBC10104EB35
:100F000081014FF001024FF0000503D581F83D202B
:100F10003C3103E081F8FD5101F5FE718D700870E0
:100F200094F8BC03012808D084F8BC23206804F09E
:100F300039F984F8BC53002070BD022070BD10B593
:100F4000044690F8BC0301280AD0012084F8BC03B1
:100F5000080607D501F00F01206804F085FA04E0C7
:100F6000022010BD206804F06FFA002084F8BC0352
:100F700010BD01F00F01C1EBC10100EB8100D0F801
:100F8000140270472DE9F04104460F0601F00F00EE
:100F9000C0EBC00104EB81014FF001064FF00005EA
:100FA00003D581F83D603C3103E081F8FD5101F546
:100FB000FE7108708A60CB704A7802B1C880022B3B
:100FC00000D10D7194F8BC03012809D084F8BC63EA
:100FD000206803F04DFE284684F8BC53BDE8F0813C
:100FE0000220FBE770B50C4601F00F05C5EBC5010B
:100FF00000EB8101C1F81032C1F808220023C1F8CA
:10100000143281F8FD3181F8FC51036901F5FE715C
:10101000012B00D10A612207027C006803D004F092
:1010200019F9002070BD04F005F8FAE770B5044620
:101030000D4601F00F006168884201D9012070BDA2
:1010400029064FF000064FF0010207D5C0EBC001A2
:1010500004EB810181F83D203C3107E0C5EBC5017F
:1010600004EB810181F8FD6101F5FE718A70087061
:1010700094F8BC03012807D084F8BC23206804F04E
:10108000BDF8280702D007E0022070BD217C04F5DE
:101090007172206804F05AF884F8BC63002070BDB7
:1010A00070B50C4601F00F05C5EBC50100EB8101E1
:1010B0000B658A6400234B65012381F83D3001F8FC
:1010C0003C5F0369012B00D10A612207027C0068A2
:1010D00003D004F0BFF8002070BD03F0ABFFFAE7C7
:1010E0002DE9FC5F05680446284604F0DCF9002879
:1010F0007ED1206804F003FA002879D0206804F03B
:10110000FEF9800704D52068416901F002014161C0
:10111000206804F0F4F9C10604F57170009034D52C
:101120002068816921F0100181612F6A07F00F00AA
:10113000C0EBC00004EB8006C7F3434006F5FE7623
:10114000022802D0062811D01AE047F6F0700742B4
:1011500016D0C7F30A1217462846F16804F0D3F9EF
:10116000F0683844F060B069384408E00822284646
:10117000009904F0C8F9B069C7F30A110844B061D6
:101180002168886940F010008861206804F0B7F990
:1011900000034FF001094FF0080A4FF0100B5AD529
:1011A0000026206804F08AF9074652E0F8074ED07E
:1011B000F1B2206804F09BF98046C00707D005EB28
:1011C0004611C1F8089B3146204601F007FC5FEA52
:1011D000087024D505EB4611C1F808AB2068026CF5
:1011E00000EB46100192D0F8081BC34B9A4200E076
:1011F0007FE105D9090403D54FF40041C0F8081B6D
:10120000204600F069FABC490198884207D9206954
:10121000012804D120680121009A03F097FF5FEABA
:10122000C86003D505EB4611C1F808BB5FEA8860CA
:1012300004D505EB46112020C1F8080B5FEA884071
:1012400005D505EB46114FF40050C1F8080B7F0897
:10125000761C002FAAD1206804F051F940035BD519
:10126000206804F024F90746002653E0F8074FD021
:10127000F1B2206804F029F98046C00723D006F0B7
:101280000F0209FA02F0D5F834288243C5F8342851
:1012900005EB4610C0F80899206901280FD1C6EB6C
:1012A000C60004EB8000D0E911121144816436B904
:1012B000206D20B920680121009A03F047FFF1B2A8
:1012C0002046FFF7D1FD5FEA087003D505EB461114
:1012D000C1F808A95FEAC86003D505EB4611C1F85B
:1012E00008B95FEA486004D505EB46114020C1F813
:1012F00008095FEA887004D505EB46110220C1F8A1
:1013000008095FEA086003D53146204601F0CCFBAE
:101310007F08761C002FA9D1206804F0F0F800287F
:101320000DDAD5F8040820F00100C5F804082046BD
:1013300000F0B6F92068416901F000414161206880
:1013400004F0DDF800050BD5D5F80808C00702D079
:10135000204600F0DDF92168486900F4006048612A
:10136000206804F0CCF8C00462D5D5F8040820F059
:101370000100C5F804081021206804F075F8002168
:1013800021E000BF05EB41104FF67F32C0F808297D
:10139000D0F8003923F40013C0F80039D0F8003930
:1013A00043F00063C0F80039C0F8082BD0F8002BD8
:1013B00022F40012C0F8002BD0F8002B42F000629B
:1013C000C0F8002B491C60688842DBD8D5F81C089F
:1013D00040F00110C5F81C08206B60B1D5F88408F6
:1013E00040F00B00C5F88408D5F8440840F00B0025
:1013F000C5F844080CE0D5F8140842F22B01084364
:10140000C5F81408D5F8100840F00B00C5F810080E
:10141000D5F8000820F4FE60C5F80008217C20689B
:10142000009A03F093FE2068416901F48051416104
:10143000206804F064F8800415D5206803F058FC97
:10144000206804F023F8E06000F038FA0146227BBF
:10145000206804F0B7F8204600F00CF920684169D4
:1014600001F400514161206804F049F8000707D5F4
:10147000204600F019F92068416901F00801416136
:10148000206804F03CF8C00208D50021204600F096
:1014900035F82068416901F480114161206804F049
:1014A0002EF8800208D50021204600F02BF8206895
:1014B000416901F400114161206804F020F8400006
:1014C00007D52046FFF7CCFC2068416901F0804138
:1014D0004161206804F013F840070AD52068456888
:1014E000680702D52046FFF7D2FC206841682943EF
:1014F0004160BDE8FC9F00000A30544FD0F8FC0367
:1015000003F040B8D0F8FC0303F03EB82DE9F041F9
:101510008AB0040005D094F8BD032668002520B1E8
:1015200008E001200AB0BDE8F08184F8BC532046F1
:1015300000F05EF8032084F8BD03F06BC00500D412
:101540002561206803F070FD04F11001282288460F
:101550006846FEF7B2FE94E80F0003F0D7FB0226C0
:10156000C8BB0021206803F0EDFF002001270EE03A
:10157000C0EBC00104EB810181F83D7001F83C0F24
:10158000C880CD708D60CD60401CC0B24D61616877
:101590008142EDD8002011E0C0EBC00104EB8101D5
:1015A00081F8FD5181F8FC0181F8FF51C1F8045226
:1015B000C1F80852401CC0B2C1F8105261688142A3
:1015C000EAD8282241466846FEF777FE94E80F00E5
:1015D00003F070FC10B184F8BD63A2E784F83850C2
:1015E00084F8BD73206803F057FC00209AE70000E0
:1015F00010B586B0044614216846FEF777FE2068D1
:10160000B0F1A04F2FD119480021026842F0010229
:101610000260006800F0010005904FF4C050009097
:101620000220CDE90101032003900A2004906946BD
:101630000F48FFF7E7F90D48001D016841F08001F0
:1016400001600A481430016841F48041016000687B
:10165000002200F48040059007214320FFF7A8FBFB
:101660004320FFF797FB06B010BD00003038024062
:101670000000024070B50446C068012570B1022820
:1016800001D0FFF787F92946D4F8FC0302F0D1FF17
:10169000D4F8FC03BDE8704002F08DBF0025F2E7EE
:1016A000D0F8FC0302F0AFBFD0F8FC0302F0B5BFE6
:1016B00010B5044690F8BC0301280BD0012084F833
:1016C000BC0384F83810206803F06AFF002084F817
:1016D000BC0310BD022010BDD0F8FC2300F57171D1
:1016E000104602F0B2BF10B5044690F8BC030128C2
:1016F0000CD0012084F8BC03206803F09FFE206812
:1017000003F0BCFB002084F8BC0310BD022010BD18
:1017100010B50446D0F8FC0302F0D6FF2068D0F8DC
:10172000001E41F00101C0F8001E206A002804D00C
:101730000248016841F00601016010BD10ED00E0B3
:101740002DE9F0470E46050063D0DFF81C81D8F87C
:101750000000F7B200F00F00B04207D288F8007026
:10176000D8F8000000F00F00B04252D128683F4C7A
:10177000810712D5400703D5206840F4E05020606F
:101780002878000703D5206840F460402060206876
:10179000A96820F0F000084320602878C0072BD00B
:1017A000324968680839012810D00968022810D029
:1017B000890700292DDA216821F003010143216006
:1017C000FFF76AFA814641F2883A0EE00968890318
:1017D000EFE78901EDE700BFFFF75EFAA0EB090133
:1017E000514502D90320BDE8F0872068696800F000
:1017F0000C00B0EB810FEFD1D8F80010404601F09B
:101800000F01B14207D90770006800F00F00B04225
:1018100001D00120E7E72878400705D52068E9686E
:1018200020F4E050084320602878000706D520689F
:10183000296920F4604040EAC100206000F074F89B
:101840002168F02292FAA2F201F0F001B2FA82F2DB
:10185000D140074A515CC840064908600648006804
:10186000FFF742FA0020BEE7003C02400838024081
:101870008B9A0008340000202C0000200F22026008
:101880000C4A136803F003034360136803F0F0038A
:101890008360136803F4E053C36012684FF4E053AD
:1018A00003EAD20202610448006800F00F000860F9
:1018B0007047000008380240003C024001480068C0
:1018C0007047000034000020084809490068096892
:1018D0004FF4E05292FAA2F201F4E051B2FA82F22D
:1018E000D140044A515CC8407047000034000020D9
:1018F000083802409B9A00080848094900680968AE
:101900004FF4604292FAA2F201F46041B2FA82F21C
:10191000D140044A515CC8407047000034000020A8
:10192000083802409B9A0008154810B5006810F06E
:101930000C02144813D04110042A0FD0082A0ED1EB
:101940000F4C241F2268236802F03F025B0207D578
:101950002068C0F38810A0FB010106E0084610BD16
:101960002168C1F38811A1FB00010023FEF774FC7C
:101970002168C1F30141491C4900B0FBF1F010BDE1
:10198000083802400024F4002DE9F84F04007BD011
:10199000DFF814B32078ABF10406C007A6F1040504
:1019A00036D0DBF800105846C1F38101012907D079
:1019B0000068C0F38100022809D13068400206D5D2
:1019C0002868800324D560680028E0D020E0B6496C
:1019D0002079891F0870606868B1FFF75DF90746D4
:1019E00005E000BFFFF758F9C01B642876D82868C7
:1019F0008003F7D50CE0FFF74FF9074605E000BF7D
:101A0000FFF74AF9C01B6428F0D828688003F7D490
:101A10002078DFF8988280074FF0000944D5DBF882
:101A20000010584611F00C0F4FF0F80A07D000686C
:101A3000C0F38100022809D13068400206D428682A
:101A4000800715D5E06801281ED111E0E068E0B1FB
:101A50000120C8F80000FFF71FF9074605E000BFA6
:101A6000FFF71AF9C01B0228C0D828688007F7D5ED
:101A700028689AFAAAF22169B2FA82F220F0F800F4
:101A80009140084328600FE00AE1C8F80090FFF792
:101A900003F9074605E000BFFFF7FEF8C01B022868
:101AA0001CD828688007F7D42078000727D5DFF8EE
:101AB000F8A17F4861690AF16C0A81B101210160D6
:101AC000FFF7EAF8074604E0FFF7E6F8C01B022834
:101AD00004D8DAF800008007F6D510E082E0C0F8FC
:101AE0000090FFF7D9F8074605E000BFFFF7D4F8EC
:101AF000C01B022876D8DAF800008007F6D42078D8
:101B000040075FD5DFF8A0A100270AF1380ADAF80C
:101B10000000C0000BD4DAF8001041F08051CAF880
:101B20000010DAF80000012700F0805000906148B2
:101B3000016841F4807101600168C90512D401682F
:101B400041F480710160FFF7A7F8009006E000BF44
:101B5000FFF7A2F80099401A02287ED8554800687D
:101B6000C005F5D55049207A68310870A06888B161
:101B7000FFF792F8009007E0FFF78EF80099411AFE
:101B800041F28830814268D8474868300068800751
:101B9000F2D510E0FFF780F8009007E0FFF77CF83F
:101BA0000099411A41F28830814256D83E48683047
:101BB00000688007F2D42FB1DAF8001021F08051CC
:101BC000CAF80010A069B8B3DBF80010C1F38101B6
:101BD000022949D00228C8F8609004D0FFF75CF8C9
:101BE00004463DE039E0FFF757F8074605E000BF3F
:101BF000FFF752F8C01B64282FD828688001F7D45B
:101C0000D4E907010843616A94F82C20890141EA6C
:101C100002610843A16A284A490802EB01410843CE
:101C20003168264A1140084330600120C8F860003E
:101C3000FFF732F8044606E034E000BFFFF72CF867
:101C4000001B642809D828688001F7D52AE000BF66
:101C5000FFF722F8001B642802D90320BDE8F88FA3
:101C600028688001F4D41DE00128F7D03068E269CB
:101C700000F48001914213D1226A00F03F019142A9
:101C80000ED1616AC0F38812914209D1A26A00F4B0
:101C90004031914204D1E16A00F07060884201D085
:101CA0000120DBE70020D9E7083802400000474266
:101CB000800E4742007000400000FFFF0080BCF033
:101CC00070B5040009D0606A002540B125616561E6
:101CD000A56294F8510040B10CE0012070BD60682D
:101CE000B0F5827FF4D0E561F2E784F850502046E9
:101CF00000F044F8022084F851002068016821F0C7
:101D000040010160A088218900F4827001F404413F
:101D10000843A18901F400610843217C01F002011C
:101D20000843217D01F001010843218B01F400717A
:101D30000843217F01F03801084394F8201001F096
:101D400080010843218D01F4005108432168086097
:101D5000A069042101EA104094F8241001F0100158
:101D60000843216848602068C16921F40061C161AD
:101D70006565012084F85100002070BD10B586B063
:101D8000044614216846FEF7B1FA134920688842D8
:101D900020D112480021026842F48052026000689B
:101DA00000F4805005900D481438026842F001029A
:101DB0000260006800F001000590E0200090022021
:101DC000CDE90101032003900520049069460448F1
:101DD000FEF718FE06B010BD003001404438024046
:101DE000000002402DE9F84F044690F8500000270B
:101DF0001D461646894601280DD04FF0010B84F888
:101E000050B0FEF749FF804694F85100BA460128C9
:101E100004D0022793E00220BDE8F88FB9F1000F4B
:101E200073D0002E71D0032084F85100C4F854A060
:101E3000C4F83090A686E686C4F838A0A4F83CA082
:101E4000A4F83EA0C4F844A0C4F840A0A068B0F52F
:101E5000004F09D12068016821F04001016020682D
:101E6000016841F48041016020680168490603D49B
:101E7000016841F040010160E068B0F5006F606802
:101E800003D030B3012E24D041E008B1012E1CD183
:101E9000206B21680088C86006E020688168890797
:101EA00009D5216B0988C160206B801C2063E08EFE
:101EB000401EE08609E0FEF7EFFEA0EB0800A84216
:101EC00002D3681C01D031E07DB3E08E0028E4D15C
:101ED00020E0206B21680078087306E020688168A4
:101EE000890709D5216B09780173206B401C206399
:101EF000E08E401EE0860AE0FEF7CEFEA0EB080072
:101F0000A84203D3681C02D010E017E06DB1E08E48
:101F10000028E3D142462946204601F01FFE08B1C1
:101F200020206065A06818B106E0FFE7032706E0FF
:101F30002068C16880680090606D00B1012784F856
:101F400051B084F850A0384666E72DE9F84F0446B2
:101F500090F8500000270A9E1D4692468B464FF08F
:101F6000010901280ED0012084F85000FEF794FEEC
:101F7000804694F85100616801280CD0B1F5827F49
:101F800007D102E00220BDE8F88FA16809B9042852
:101F900001D00227C2E0BBF1000F27D0BAF1000F39
:101FA00024D01DB394F85100042802D0052084F8F1
:101FB000510000206065C4F838A0E587A587C4F803
:101FC00030B0E586A5862064606420680168490613
:101FD00003D4016841F040010160E068B0F5006F92
:101FE000606805D0E8B3012D46D07FE0012795E079
:101FF00008B1012D39D1206B21680088C860206BA1
:10200000801C2063E08E401EE0862EE02068816800
:1020100089070FD5E18E69B1B9F1010F0AD1216BA2
:102020000988C160206B801C2063E08E401EE08622
:102030004FF0000920688168C9070CD0E18F51B1C9
:10204000C068A16B0880A06B801CA063E08F401E5D
:10205000E0874FF00109FEF71FFEA0EB0800B04239
:1020600000E009E001D3701C50D1E08E0028CDD1F2
:10207000E08F0028CAD13FE0206B21680078087308
:10208000206B401C2063E08E401EE0862EE020681E
:10209000816889070FD5E18E69B1B9F1010F0AD1C5
:1020A000216B09780173206B401C2063E08E401E79
:1020B000E0864FF0000920688168C9070CD0E18FE5
:1020C00051B1C068A16B0870A06B401CA063E08F89
:1020D000401EE0874FF00109FEF7DEFDA0EB08008F
:1020E000B04202D3701C01D010E07EB1E08E002817
:1020F000CDD1E08F0028CAD142463146204601F0BA
:102100002DFD28B101272020606507E0032705E0A9
:10211000A06818B92068C16880680090012084F820
:102120005100002084F8500038462CE77047704773
:1021300010B5040003D094F83D0010B107E0012071
:1021400010BD002084F83C00204600F01EF802205C
:1021500084F83D00211D206801F06CFE012084F808
:10216000460084F83E0084F83F0084F8400084F87C
:10217000410084F8420084F8430084F8440084F865
:10218000450084F83D00002010BD704790F83D10D8
:10219000012901D001207047022180F83D1001681B
:1021A000CA6842F00102CA6000681149884214D02E
:1021B000B0F1804F11D00F4988420ED00E498842AD
:1021C0000BD00E49884208D00D49884205D00D49F0
:1021D000884202D00C49884204D1816801F007018D
:1021E000062903D0016841F0010101600020704719
:1021F000000001400004004000080040000C0040C6
:10220000000401400040014000180040704770B5D4
:102210000446006801694FF00005C943890715D4D9
:10222000C168C943890711D4E91E016101202077E3
:10223000206880698007204602D0FFF7E7FF04E0AE
:1022400000F098F8204600F096F82577206801699C
:10225000C943490717D4C168C943490713D46FF06C
:1022600004010161022020772068806910F4407F1A
:10227000204602D0FFF7CAFF04E000F07BF82046BA
:1022800000F079F8257720680169C943090716D459
:10229000C168C943090712D46FF008010161042025
:1022A00020772068C0698007204602D0FFF7AEFF84
:1022B00004E000F05FF8204600F05DF82577206824
:1022C0000169C943C90617D4C168C943C90613D4F3
:1022D0006FF010010161082020772068C06910F4B8
:1022E000407F204602D0FFF791FF04E000F042F863
:1022F000204600F040F8257720680169C943C907E6
:1023000008D1C168C943C90704D1891E01612046AB
:1023100000F032F820680169C943090609D4C16890
:10232000C943090605D46FF0800101612046FFF71B
:10233000FDFE20680169C943490609D4C168C94343
:10234000490605D46FF040010161204600F01EF8F7
:1023500020680169C94389060BD4C168C94389064D
:1023600007D46FF0200101612046BDE87040FFF7FF
:10237000DEBE70BD7047704700680349884201D1D6
:10238000FEF790BC7047000000000140704770B538
:10239000040004D094F83D00002510B106E00120AF
:1023A00070BD84F83C50204600F022F8242084F8C8
:1023B0003D002068C16821F40051C160204601F051
:1023C0009DFD2068016921F4904101612068416907
:1023D00021F02A0141612068C16841F40051C160C7
:1023E0002564202084F83D0084F83E00002070BD64
:1023F00010B586B0044614216846FDF777FF1449EE
:102400002068884221D113480021026842F010025E
:102410000260006800F0100005900E481438026851
:1024200042F001020260006800F0010005904FF4E4
:10243000C06000900220CDE9010103200390072035
:10244000049069460448FEF7DDFA06B010BD0000AE
:102450000010014044380240000002402DE9F843DA
:10246000044690F83D001F4616460D4620284CD1E4
:10247000C5B1BEB194F83C00012846D0012084F8D3
:102480003C004FF00008C4F84080212084F83D0053
:10249000FEF702FCA6848146E684A068B0F5805F62
:1024A00003D004E00120BDE8F883206928B12E465E
:1024B0005FF0000584F83C800EE00026FAE78021FA
:1024C000204601F0ADFDA0B9AEB116F8010B2168B0
:1024D0004860E08C401EE084E08C4B464FF00002E8
:1024E00000970028EBD14FF04001204601F098FD05
:1024F00030B10320D7E735F8020BC0F30800E6E758
:10250000202084F83D000020CDE70220CBE700002A
:102510004FF47A7403A003F04DF92046FEF760FAF9
:10252000F8E7000057315F486172644661756C746A
:1025300000000000F0B500230A24302537261F468E
:1025400011E000BFB4EB107F02D905EB107C01E075
:1025500006EB107C01F813C001EB430C00015B1C7F
:102560008CF80170DBB29342ECD3F0BD70B5D0F8BB
:10257000B842054694F8180840B9D4F8140828B1B0
:10258000607A18B90121284602F08CF8812128468A
:1025900002F088F8607A022808D104F60C02284676
:1025A000BDE870401F23012101F0FCBF70BD000099
:1025B00070B5D0F8B84205460121D4F81008C4F827
:1025C0003008D4F81408C4F83408284601F097FFFE
:1025D0001F280DD12849D4F80C08884208D194F856
:1025E0001918012904D894F81A0808B1102809D933
:1025F00094F8191820230522284600F0EEFC02204A
:10260000607209E004F61B02284600F0AFFA0028C9
:10261000207A08DA052804D02846BDE87040FFF784
:10262000A5BF012122E0022825D0012823D00328BC
:1026300021D06689CEB1D5F8B812284604F10C0233
:10264000D1F81438B34200D33346D1F834489BB2A2
:10265000A41BC1F83448002481F8384804240C72C3
:10266000BDE87040812102F038B800212846BDE85D
:10267000704000F083B870BD5553424310B5D0F898
:10268000B842627A022A08D009060BD5012A09D07D
:10269000BDE81040012100F071B8812102F002F87C
:1026A0000020607210BD10B5D0F8B8220446107A30
:1026B000022805D0032801D0042810D1002109E008
:1026C00092F81918204602F61B0200F04FFA002873
:1026D00005DA01212046BDE8104000F04FB810BDDA
:1026E00010B5D0F8B8220446107A80B1012813D171
:1026F00092F81918204602F61B0200F037FA00285B
:102700000ADA2046BDE81040012100F037B8204623
:10271000BDE81040FFF74CBF10BDD0F8B802002153
:102720000172704770B5D0F8B84200210546217299
:10273000617284F85D1884F85C18D0F8BC020168F6
:10274000002088470121284601F0D0FE812128463B
:1027500001F0CCFE04F60C022846BDE870401F23B1
:10276000012101F01FBFD0F8B82200211172012110
:1027700051721F2302F60C0201F014BF70B5D0F89D
:10278000B84205460B48C4F82C0884F838180020D5
:1027900020720D2304F62C028121284601F09DFFB2
:1027A00004F60C022846BDE870401F23012101F009
:1027B000F9BE00005553425310B504490448FEF7D2
:1027C000EBF80249491E087010BD0000D901002035
:1027D000C401002010B523489AB000220068199067
:1027E000012119A805F074FA1F4C0121606205F05F
:1027F00081FA1C491422091D6846FDF75EFD00217F
:10280000684605F04DFA174920611422183105A8D1
:10281000FDF753FD002105A805F042FA114960615A
:1028200014222C310AA8FDF748FD00210AA805F062
:1028300037FA0C49A061142240310FA8FDF73DFD85
:1028400000210FA805F02CFA0649E061142254314A
:1028500014A8FDF732FD002114A805F021FA20622A
:102860001AB010BD049A00080000002070B586B0B0
:1028700014216846FDF73AFD1D480025016841F026
:1028800004010160016801F004010591016841F053
:1028900080010160016801F080010591016841F04B
:1028A000010101600068134E00F001004FF4005474
:1028B0000590002221463046FEF7E8F9012210215A
:1028C0003046FEF7E3F9009401246946304601944E
:1028D000CDE90245FEF796F81020CDE9000403206B
:1028E000CDE9024069463046FEF78CF806B070BD6F
:1028F0003038024000080240104810B50E4901600F
:102900004FF48271416000218160C1604FF4007218
:102910000161C0E905122022C0E9072141628162FC
:102920000A21C162FFF7CCF9002803D0BDE81040AE
:10293000FEF730B810BD000000300140C02200207A
:102940000C4810B50A4901604FF4E13141600021A3
:1029500081600C22C160C0E904128161C161FFF78E
:1029600016FD002803D0BDE81040FEF713B810BDD7
:10297000001001401823002010B500220F49104814
:1029800001F0DCFC08B1FEF705F80E490C4801F037
:10299000BBFF08B1FDF7FEFF0B49094801F010FF2E
:1029A00008B1FDF7F7FF064802F004F8002803D04D
:1029B000BDE81040FDF7EEBF10BD0000AC000020E8
:1029C000FC74002020010020FC000020FEE7FEE750
:1029D0000148FEF785BB0000C07900202DE9F041D9
:1029E00003680D4604461E6C03EB4511D1F8080B35
:1029F000D4F810E04FF400474FF0200C04F571724A
:102A0000BEF1010F09D0DFF898E0764539D1020414
:102A100032D500BFC1F8087B3FE0224B5FEA007E61
:102A200004D59E4239D90004F4D436E05FEA806EC2
:102A300002D5C1F808CB30E010F0280F2DD19E420E
:102A400001D90004E6D4C5EBC50004EB8000D1F841
:102A5000101BD0F80432C1F31201591AC0F8141235
:102A6000D0F808121944C0F8081295B9D4F8100229
:102A700078B9012120680AE080060AD5C1F808CBA0
:102A800007E035B9D4F8100218B90021184602F051
:102A90005DFBE9B22046FEF7F0F90020BDE8F081C9
:102AA0000A31544F0A30544F2DE9F84F0E46C1EB0E
:102AB000C60100EB810481460568D4E914103C345A
:102AC000884202D90120BDE8F88F081AA168814226
:102AD00000D20846C01C870805EB46181BE000BF63
:102AE000A0EB010AA068504500D282460AF103001B
:102AF000870899F8100000901FFA8AF3F2B228466E
:102B0000E16802F0D3FDE16801EB0A00E060A16931
:102B100001EB0A00A061D8F8180980B2B84205D3C9
:102B2000D4E90501814201D20028D9D1D4E90501B7
:102B3000884208D806F00F0101208840D5F83418E3
:102B40008143C5F834180020BDE710B5D0F8B8426D
:102B50001A44D4F860389A4206D92123052200F09D
:102B60003CFA4FF0FF3010BD002010BD2DE9F041C0
:102B700013780024232B7DD00DDC1A2B7BD005DCB1
:102B8000EBB1032B39D0122B11D163E01B2B01D0F9
:102B90001E2B0CD18DE02A2B6ED004DC252B6CD0A3
:102BA000282B04D1ABE02F2B68D05A2B67D02023E1
:102BB000052200F012FA4FF0FF30BDE8F081D0F8A6
:102BC000B87205460E46D7F8140828B1202397F8A6
:102BD0001918052228469FE0D5F8BC0281683046C6
:102BE000884740B13A2302223146284600F0F5F9E1
:102BF000052038729BE07C8199E0D0F8B802002172
:102C00004318491CC9B21C731229F9D370210173EE
:102C10000C21C17490F85C1890F85D38994212D07C
:102C200000EBC103491C93F83C58857393F8415855
:102C3000057693F84038C9B2437680F85C180429C9
:102C400001D180F85C4812214181117912296ED896
:102C500041816CE05478D0F8B832E40712D00720F4
:102C600034495881401E0004000C03EB00040A5C48
:102C7000227305E03DE020E044E03DE045E02AE04D
:102C8000F0D154E0D0F8BC0201EBC1011279C06967
:102C900000EB81010879401D824200D8104658811E
:102CA00004E0401E80B21C180A5C22730028F8D190
:102CB0003DE0D0F8B802448139E0D0F8B8120820DD
:102CC0001D4A4881401E0004000C01EB0004135C07
:102CD0002373F7D12BE0D0F8B8020821174A4181BD
:102CE000491E0904090C00EB0104535C2373F7D15E
:102CF0001DE000F03BF91AE000F00DF917E000F0DC
:102D0000BCF814E000F083F911E05278D0F8B85222
:102D1000920704D52423052200F05FF907E005F6A9
:102D200064020CCAFFF711FF002800DB6C81002051
:102D300043E70000C79A0008CE9A0008D69A000818
:102D40002DE9F041D0F8B84206460F46B4F85E08C7
:102D5000D4F868584FF4006145438D4200D30D46C6
:102D6000B5FBF0F083B2D6F8BC0204F10C01D4F844
:102D70006428D0F810C088463846E047002809DAB1
:102D8000112304223946304600F027F94FF0FF3076
:102D9000BDE8F081ABB242468121304601F09DFC96
:102DA000B4F85E08D4F86428B5FBF0F1B5FBF0F098
:102DB0001144C4F86418D4F86818081AC4F86808EC
:102DC000D4F83418A1EB0501C4F8341801D103205C
:102DD00020720020DCE72DE9F047D0F8B842074622
:102DE0004FF40065B4F85E08D4F868688846464336
:102DF000AE4200D32E46B6FBF0F083B2D7F8BC0249
:102E000004F10C01D4F86428D0F814C08946404677
:102E1000E047002809DA032304224146384600F03F
:102E2000DCF84FF0FF30BDE8F087B4F85E18D4F856
:102E30006428B6FBF1F01044C4F86408B6FBF1F066
:102E4000D4F86828101AC4F86808D4F83428A2EB1B
:102E50000602C4F834280BD04843A84200D32846C1
:102E600083B24A460121384601F09CFB0020DAE794
:102E700000213846FFF782FCF8E72DE9F041D0F851
:102E8000B84206461546207A8846D0BB94F8180802
:102E90004FF0FF3700062FD5D6F8BC0281684046B8
:102EA000884730B13A2302224146304600F095F877
:102EB00014E06888297940BA000440EA0122687960
:102EC00041460243C4F86428B5F8070043BA3046C7
:102ED000C4F86838FFF739FE002802DA3846BDE842
:102EE000F08102202072B4F85E18D4F868084843D4
:102EF000D4F81418884205D0202394F81918052214
:102F0000D3E7FFE74FF40060608141463046BDE8FB
:102F1000F041FFF715BF70B505460E46D5E9AE4046
:102F200004F65E024368911C3046984740B13A234C
:102F300002223146284600F050F84FF0FF3070BDB5
:102F4000D4F86008401E010E2173010C6173010A60
:102F5000A173E073002020746074B4F85E08010A65
:102F6000A174E07408206081002070BD2DE9FC414F
:102F70000546D0F8B84200200F4606462118401CEE
:102F800080B20E730C28F9D3D5F8BC026A4601A9A9
:102F900043683846984748B13A23022239462846C2
:102FA00000F01BF84FF0FF30BDE8FC810820E07313
:102FB0000198401E010E2174010C6174010AA17474
:102FC000E074022020756675BDF80000010AA17545
:102FD000E0750C2060810020E6E7D0F8B80290F898
:102FE0005D1800EBC10181F83C2890F85D280021B4
:102FF00000EBC20282F8401890F85D28521CD2B251
:1030000080F85D28042A01D180F85D1870472DE909
:10301000F041D0F8B84206461546207A884620B1DD
:103020003046BDE8F041FFF7D6BE94F818084FF0DF
:10303000FF37000636D4D6F8BC0281684046884780
:1030400028B13A230AE03046FFF7C7FF1EE0D6F862
:10305000BC02C1684046884718B127230222414676
:10306000F1E76888297940BA000440EA01226879CA
:1030700041460243C4F86428B5F8070043BA304615
:10308000C4F86838FFF761FD002802DA3846BDE869
:10309000F081B4F85E18D4F868084843D4F81418DE
:1030A000814204D0202394F819180522CBE74FF46D
:1030B0000061884200D30846012183B2217204F1E5
:1030C0000C02304601F06EFA0020E0E72DE9F041F5
:1030D00001225FA15F4803F099FD044601465EA00E
:1030E00002F068FB24B162A002F064FBFDF752FC21
:1030F00064A002F05FFB674A55A0111D03F0F6FCC7
:1031000020B165A002F056FBFDF744FC67A002F079
:1031100051FB604C216801F5805188698F78801ED1
:103120007843FDF705F94FF0FF363246FDF7E9F831
:10313000FDF70BF9A0606168054607FB01F0FDF79C
:10314000F7F83246FDF7DDF8FDF7FFF80246E060DC
:1031500029465AA002F02EFBE06820B95DA002F0DB
:1031600029FBFDF717FC61A002F024FB132264A1E8
:10317000664803F08FFD50B1132261A1634803F04C
:1031800089FD014662A002F015FBFDF703FC5F49D3
:1031900065A003F087FE5D496EA003F083FE5B49E6
:1031A00072A003F07FFE74A002F004FB574803F006
:1031B00083FC40B1554803F07FFC014673A002F048
:1031C000F9FAFDF7E7FB49A002F0F4FA01224CA15D
:1031D0004E4803F05FFD20B171A002F0EBFAFDF75D
:1031E000D9FB73A002F0E6FA05E000BF02F0E2FAB4
:1031F000012004F0CFFC454A6421724803F0E1FC51
:103200000028704970A0F1D102F0D4FA6FA002F04A
:10321000D1FA59A002F0CEFA3C4803F04DFC20B19F
:103220006DA002F0C7FAFDF7B5FB70A002F0C2FA7C
:10323000012207A1002003F0E9FC002806D00CA021
:1032400002F0B8FABDE8F041FDF7A4BBBDE8F0819B
:1032500000000000FC010020665F6D6F756E742039
:10326000726573756C743A20253032580D0A00006F
:10327000665F6D6F756E74206661696C65640D0ABA
:1032800000000000665F6D6F756E74206F6B0D0A35
:103290000000000000000020665F676574667265CC
:1032A00065206661696C65640D0A0000665F67658C
:1032B0007466726565206F6B0D0A0000746F74612F
:1032C0006C3A25644B422C20667265653A25644B46
:1032D000420D0A00667265655370616365206E6F0A
:1032E0007420656E6F7567680D0A0000665F6F7009
:1032F000656E2066697273742E7478740D0A00000E
:1033000066697273742E74787400000030120020A5
:10331000665F6F70656E206661696C6564203A2037
:1033200025640D0A0000000053544D3332204672CC
:10333000656552544F5320534420436172642049C1
:103340002F4F204578616D706C6520766961205340
:1033500050490A00426C61636B20536865657020B8
:1033600057616C6C2121210A000000003136336561
:103370007772776573323200665F636C6F736520B6
:1033800066697273742E7478740D0A00665F636CDC
:103390006F7365206661696C65643A25640D0A0087
:1033A000665F6F70656E206661696C65640D0A000A
:1033B000665F676574732066697273742E747874BF
:1033C0000D0A00005C220020257300000D0A646FC6
:1033D0006E650D0A00000000665F636C6F73652008
:1033E0006661696C65640D0A00000000665F6D6FC0
:1033F000756E7420756E6D6F756E740D0A00000029
:103400007CB541F6FF74FDF761FA0025FF2000F05E
:10341000D9FB6D1C0A2DF9DB00F092FB40208DF8E2
:10342000000000208DF801008DF802008DF80300E7
:103430008DF8040095208DF805000621684600F0FF
:10344000B3FB00F09BFB012806D0641E00F096FB46
:10345000012801D0002CF8D1FDF738FAFF2000F048
:10346000B1FB0249012048707CBD0000DE01002054
:1034700010B5064C4FF4FA70A4F8060000F07EFB7D
:10348000FF2802D0E1880029F8D110BDDE0100201C
:1034900070B50F4C0546C8200E46A08000F06EFBAC
:1034A000FF2803D0FE2805D0002070BDA08800288A
:1034B000F4D1F9E72C466D1C00F060FB2070761EFD
:1034C000F8D200F05BFB00F059FB012070BD00005A
:1034D000DE01002070B50C460546FFF7C9FFFF2846
:1034E00001D0FF2070BD284600F06CFB200E00F0DC
:1034F00069FBC4F3074000F065FBC4F3072000F04C
:1035000061FBE0B200F05EFB402D07D0482D07D0F4
:10351000012000F057FB4C2D06D007E0952000E07D
:10352000872000F04FFB01E000F028FB5FF00A0469
:1035300000F024FB0106D5D5641E14F0FF04F7D17A
:1035400070BD70B50E4605460024FFF791FFFF28B9
:1035500020D1304600F036FBFD2E17D04FF400711D
:10356000284600F021FB00F009FB00F007FB00F00B
:1035700005FB054600F01F00052803D0641CE4B2DB
:10358000402CF4D900F0FAFA0028FBD005F01F0017
:10359000052801D0002070BD012070BD2DE9F84341
:1035A00010B10120BDE8F8837B4C207880077DD4E2
:1035B000FFF726FF00F0C4FA002578A002F0FAF821
:1035C00000214020FFF786FF012870D176A002F08D
:1035D000F1F84FF4D5714820FFF77CFF4FF47A786B
:1035E000012812D073A002F0E5F8A4F804800021AD
:1035F0007720FFF76FFF012879D800216920FFF7B6
:1036000069FF0128F8D802259EE070A002F0D2F8E8
:1036100000276E4600F0B2FAF0557F1CFFB2042F6F
:10362000F8D39DF802000128CFD19DF80300AA2805
:10363000CBD16CA002F0BEF8A4F804804FF0804912
:1036400000217720FFF746FF074649466920FFF72C
:1036500041FF012F01D800284ED0A0880028EFD1CB
:1036600066A002F0A7F8A4F804804FF0805900216A
:103670007720FFF72FFF074649466920FFF72AFF0B
:10368000012F01D8002837D0A0880028EFD164A0EE
:1036900002F090F8A4F804804FF0806900217720B0
:1036A000FFF718FF07464946692001E072E05AE03B
:1036B000FFF710FF012F00D8F0B1A0880028EDD14E
:1036C0005EA002F077F8A4F80480DFF89081002172
:1036D0007720FFF7FFFE074641466920FFF7FAFE15
:1036E000012F00D840B1A0880028F0D100E024E0EC
:1036F0005BA002F05FF840E05FA002F05BF8002101
:103700007A20FFF7E7FE70BB5FF0000500F036FAA5
:10371000705501465DA002F04DF86D1CEDB2042D10
:10372000F4D39DF80000400601D50C2500E00425E7
:10373000294658A002F03EF81FE0012501E0022DC5
:1037400002D00021412007E000217720FFF7C2FED0
:10375000012804D800216920FFF7BCFE20B1A08811
:103760000028ECD108E008E0A08828B14FF40071EF
:103770005020FFF7AFFE00B10025A570FDF7A6F8B9
:1037800000F0FCF925B1207820F00100207001E064
:1037900000206070207805E7DE0100200D0A434D0F
:1037A00044300D0A00000000434D44382E2E2E20D8
:1037B000000000006661696C65642C20534443205E
:1037C0005631206F72204D4D430D0A0073756363AF
:1037D00065656465642C205344432056322B0D0AE2
:1037E0000000000041434D4434312041434D4434F6
:1037F000315F4843532E2E20000000006661696C43
:1038000065640D0A7472792041434D4434315F532D
:103810004458435F504F5745522E2E2E2000000033
:103820006661696C65640D0A7472792041434D4488
:1038300034315F533138522E2E2E20006661696C70
:1038400065640D0A7472792041434D4434315F56EA
:103850004F4C544147452E2E2E2000000080FF0083
:103860006661696C65642C2073746F702074727962
:10387000696E670D0A0000007375636365656465B2
:10388000640D0A434D44353820000000253032587D
:1038900020000000747970653A253032580D0A0016
:1038A0007FB515460E4610B1042004B070BD01244A
:1038B0004A48052E04D00078C00713D00320F4E74F
:1038C000297829B1012906D0022907D0042482E0F1
:1038D0000021417004E0FFF793FD01E04078507053
:1038E000002478E000F02CF90B2E51D005DCEEB36B
:1038F000012E07D0022E69D141E00C2E4BD00D2EA7
:1039000064D154E000214920FFF7E4FD78BB102189
:103910006846FFF7BDFD50B39DF800100120B0EBE5
:10392000911F09D19DF808209DF8091000EB022095
:1039300008440004800920E09DF805009DF80A1065
:1039400000F00F0000EBD1109DF809109DF8072042
:1039500001F0030100EB41019DF80800800900EB34
:1039600082009DF8062002F0030201E00BE02EE049
:1039700000EB8220401CC91F8840286015E04FF4EE
:103980000070288011E0FFF773FDFF280DD01EE0C6
:103990000021492001E000214A20FFF79BFDB0B93A
:1039A00010212846FFF774FD88B100240FE00021A4
:1039B0007A20FFF78FFD48B95FF0000400F0DEF8D1
:1039C000641CE4B205F8010B042CF7D30424FCF7C3
:1039D0007DFF00F0D3F8204667E70000DE010020FD
:1039E0002DE9F0411C4615460E4638B934B1214840
:1039F0000178C90704D00320BDE8F0810420FBE76B
:103A00008078000700D4550200F09AF84FF4007750
:103A1000012C294604D05220FFF75CFD70B11AE05A
:103A20005120FFF757FDE0B939463046FFF730FD2A
:103A3000B8B1FCF74BFF00F0A1F818E0394630466A
:103A4000FFF726FD18B1641E06F50076F6D10021B9
:103A50004C20FFF73FFDFCF739FF00F08FF824B949
:103A600005E0FCF733FF00F089F80120C4E70020EF
:103A7000C2E70000DE01002008B1012070470148C4
:103A800000787047DE0100202DE9F0411C46164603
:103A90000F4638B934B1294D2878C00704D0032027
:103AA000BDE8F0810420FBE72878400701D502201B
:103AB000F6E7A878000700D4560200F041F8012C80
:103AC00010D0A878800707D500217720FFF702FDE6
:103AD00021465720FFF7FEFC31465920FFF7FAFC3C
:103AE00078B11CE031465820FFF7F4FCF0B9FE2114
:103AF0003846FFF726FDC8B1FCF7E8FE00F03EF8B7
:103B000019E0FC213846FFF71CFD18B1641E07F5CB
:103B10000077F6D1FD210020FFF713FD30B1FCF74F
:103B2000D5FE00F02BF834B10120B9E7FCF7CEFE4A
:103B300000F024F8F8E70020B2E70000DE010020E2
:103B400010B5002210210448FDF7A0F8BDE8104090
:103B5000012004F01FB800000008024038B50B46F1
:103B6000009204460022802100F03CF8002804D096
:103B7000606D40F020006065032038BD0EB5FF2069
:103B80008DF804000748006881688907FCD5642027
:103B90000090012302AA01A90248FEF7D6F99DF878
:103BA00008000EBDC0220020054A126893689B07DA
:103BB000FCD50A46014664230148FEF713B900000C
:103BC000C022002001B50648006881688907FCD53D
:103BD0006423012269460248FEF704F908BD00008B
:103BE000C02200202DE9F8431E469146884604462F
:103BF000089DFDF751F8401B351AFDF74DF80746B3
:103C000025480068C0F3CB30684338E0701C37D0DB
:103C1000FDF742F8C01BA84203D215B1009860B36B
:103C20002CE02068416821F0E00141606068B0F557
:103C3000827F0BD1A068B0F5004F02D0B0F5806F45
:103C400004D12068016821F040010160A06AB0F54C
:103C5000005F09D12068016821F4005101602068EB
:103C6000016841F400510160012084F851000020F6
:103C700084F850000320BDE8F8830025401E009022
:103C80002068816838EA010004D000214945BDD18F
:103C90000020F0E70121F9E7340000204FF48030E4
:103CA0000860C0111080002070470020704700207D
:103CB0007047002070470020704700000846054903
:103CC00010B55B0201EB42211A46FCF7F6FA002020
:103CD00010BD00000080000800207047FEF74CFE79
:103CE000094C4FF40055002229462046FCF7CEFF30
:103CF000642003F04FFF012229462046FCF7C6FF4F
:103D0000642003F047FFEEE70008024009A001F03D
:103D100051FD40F235144FF47A750BA322460D493C
:103D20000120FCF7E3FDFFF7D1F9284603F032FF4D
:103D3000F3E700005350495F53445F5461736B20B5
:103D400053746172740D0A005350495F53445F54B9
:103D500061736B007A9A0008012003F01BFFFBE7F8
:103D6000012003F017FFFBE740F219144FF4FA6546
:103D700004A3224606490120FCF7B8FD284603F0BB
:103D800009FFF5E7556172745461736B0000000020
:103D90006C9A000810B5502080F31188BFF34F8F44
:103DA000BFF36F8F05F018FC18B104494FF0805035
:103DB0000860002080F3118810BD000004ED00E0D1
:103DC00010B592B030216846FCF790FA14210CA887
:103DD000FCF78CFA01200090019002248005CDE9C7
:103DE000064008200890F020CDE9090405200B903A
:103DF0006846FDF7C9FD08B172B6FEE70F20CDE9B0
:103E00000C0400200E904FF4A0500F904FF48050FF
:103E1000109003210CA8FDF793FC002801D072B686
:103E2000FEE712B010BD70470148FEF7F0B9000080
:103E30005C230020F0B50268254C264D264E274F06
:103E4000274B4FF0804CA04209D0604507D0A842D4
:103E500005D0B04203D0B84201D0984204D122F03C
:103E6000700E4A6842EA0E02A0421BD0604519D08B
:103E7000A84217D0B04215D0B84213D0984211D002
:103E8000184DA8420ED0184DA8420BD0174DA8428D
:103E900008D0174DA84205D0164DA84202D0164DA5
:103EA000A84203D122F44075CA682A434D6922F022
:103EB00080022A4302608A68C2620A688262A04263
:103EC00001D0984201D10969016301214161F0BD2E
:103ED000000001400004004000080040000C0040C9
:103EE00000040140004001400044014000480140FE
:103EF00000180040001C0040002000402DE9F04167
:103F0000044600680169E26821F4405111430161EF
:103F10002169A068E2690843616911432268084386
:103F2000D16849F20C6399430143D160206841692B
:103F3000A26921F4407111434161374920688842E8
:103F400002D03649884202D1FDF7D6FC01E0FDF7E8
:103F5000BBFC0246E36964203221B3F5004F02EB5B
:103F6000C20303EB021362682BD09200B3FBF2F59D
:103F7000B5FBF0F5B3FBF2F66FF018077D4306EBE7
:103F80008505B3FBF2F601EB0515B5FBF0F5B6FBC5
:103F9000F0F605F0F00505EB0615B3FBF2F6B3FB02
:103FA000F2F2B2FBF0F27A4306EB820201EB02116D
:103FB000B1FBF0F000F00F00216828448860BDE8F4
:103FC000F0815200B3FBF2F6B6FBF0F6B3FBF2F76A
:103FD000B3FBF2F56FF0180C06FB0CF607EB860648
:103FE00001EBC606B5FBF0F5B6FBF0F62D0106F0C9
:103FF000F80605EB4605B3FBF2F6B3FBF2F2B2FBB3
:10400000F0F202FB0CF206EB820201EBC201B1FB03
:10401000F0F000F00700CFE700100140001401406D
:104020002DE9F041984617460E460446069D1DE0D0
:10403000681C1BD02DB1FCF72FFEA0EB0800A84296
:1040400014D92068C16821F4D071C1602068416929
:1040500021F001014161202084F83D0084F83E00F8
:10406000002084F83C000320BDE8F081206800684F
:1040700036EA000004D00020B842D9D00020F3E78F
:104080000120F9E710B5D0F8B4225268904700201B
:1040900010BD134610B50A46002100F083FA002037
:1040A00010BD134610B50A46002100F016FB002093
:1040B00010BD10B50446802100F0F4FA2046BDE89A
:1040C0001040002100F0EEBA10B505210023C0F821
:1040D00094121A46194600F065FA002010BD10B57A
:1040E0000223C261C0F89432026213460A460021DC
:1040F00000F0F3FA002010BD10B504210023C0F831
:1041000094121A46194600F0E8FA002010BD00008B
:1041100010B50A46024903A000F0E0F8004810BDBF
:10412000C07700204D534320436F6E6669670000DF
:104130001220088000487047CC00002010B50A46C5
:10414000024903A000F0CAF8004810BDC077002063
:104150004D534320496E74657266616365000000CB
:104160000420088000487047C800002010B50A46A7
:10417000024903A000F0B2F8004810BDC07700204B
:1041800053544D6963726F656C656374726F6E69C9
:104190006373000010B50A46024903A000F09EF8C0
:1041A000004810BDC077002053544D3332204D617C
:1041B00073732053746F72616765000010B51A2025
:1041C00008800A480168001D0468001D006808187E
:1041D00009D008220649FEF7ADF90549042210313D
:1041E0002046FEF7A7F90248801E10BD107AFF1F77
:1041F000E2000020F8B504460020ADF80000488831
:104200000D46010A082948D2DFE801F047040917E2
:1042100047473C45D4F8B012207C0A6819E0207C5E
:1042200002260028D4F8B40205D0C16A684688473F
:10423000014646703EE0816AF8E7C0B206282CD2FB
:10424000DFE800F0030A1014181CD4F8B00242682A
:1042500005E0694690471CE0D4F8B0028268E2B1FC
:10426000207CF6E7D4F8B002C268F8E7D4F8B002D0
:104270000269F4E7D4F8B0024269F0E7D4F8B0027A
:104280008269ECE7207C40B9D4F8B402416B6846FF
:10429000884701460EE0207C20B129462046FFF7E2
:1042A00008FFF8BDD4F8B402016B684688470146A0
:1042B00007204870BDF8000048B1EA8852B1824238
:1042C00000D90246ADF800202046FFF708FFE88835
:1042D0000028E6D12046FFF70FFFF8BD70B5002398
:1042E00000281ED00446002502E06D1CEDB2641CBF
:1042F0002678002EF9D1022404EB450414801278AC
:10430000CA545B1C0322CA5400245B1C06E0CA5436
:104310005B1CDAB28C54521CD3B2401C0278002AC7
:10432000F5D170BD01004FF0000004D0012901D08B
:10433000022901D0022070470120704710B580B1DA
:10434000D0F8B43213B10023C0F8B43209B1C0F8C8
:10435000B012012180F89C12027000F0D5F8002004
:1043600010BD022010BD10B5D0F8C002FCF7B9FD99
:10437000BDE81040FFF7D6BF10B5D0F8C002FCF77B
:104380008AFDBDE81040FFF7CDBF2DE9F04117468B
:10439000044651B1D4F8B40242691AB194F89C02AF
:1043A000032851D00220BDE8F081D4F894320025D2
:1043B00004F11400022B03D0042B3AD0C3B33CE029
:1043C000D0E903639E4207D9F11AC1608AB2394627
:1043D0002046FFF766FE12E08068B0FBF3F103FBB6
:1043E000110199B9984211D3D4F8981288420DD28C
:1043F000002211462046FFF754FEC4F898520023CD
:104400001A461946204600F0CDF816E0D4F8B4025A
:10441000C16829B194F89C02032801D1204688473D
:104420008021204600F03EF92046FFF74DFE04E0D3
:10443000FFE78021204600F035F994F8A00201281A
:1044400004D184F8A05201E0204690470020AAE75A
:1044500070B51546044649B1D4F8B40282691AB160
:1044600094F89C02032830D0022070BDD4F8941236
:1044700004F5AA70032902D005291ED027E0D0E94F
:1044800003218A420BD9531AC3600846834200D3E2
:1044900003469AB229462046FFF7FBFD17E0D4F801
:1044A000B402016929B194F89C02032801D1204685
:1044B00088472046FFF720FE09E000200146C4F8A7
:1044C0009402204600F0EEF801E0204690470020DC
:1044D00070BD0020704710B5012180F89C12D0F803
:1044E000B422017952689047002010BD10B5D0F871
:1044F000C002FCF724FDBDE81040FFF713BFD0F861
:10450000C002FCF736BD000010B5017831BB14497C
:104510000222C1F8FC03C0F8C0124FF0A0400860AE
:10452000042048600020C1E90320C1E90620086298
:10453000C86208630846FCF7E9FF08B1FCF72AFAED
:1045400080210748FCF766FC402200210448FCF764
:1045500065FC802201210248FCF760FC002010BDB0
:10456000C07900200A0601F07F01D0F8C002C1EB3B
:10457000C10100EB810002D590F83E00704790F831
:10458000FE017047002070470020704710B51C46A0
:104590001346D0F8C0022246FCF7F4FCBDE81040F8
:1045A000FFF7C0BE10B5D0F8C002FCF71BFDBDE898
:1045B0001040FFF7B7BE70B50022044640231146F5
:1045C000FFF7E4FF40260125C4F86461334600226A
:1045D00080212046C4F85851FFF7D8FF6662A561D4
:1045E00084F89C520020C4F894026060C4F8A402CD
:1045F000D4F8B80228B1D4F8B402002142682046A9
:104600009047002070BD90F89C12042903D190F8C7
:104610009D1280F89C120020704710B590F89C12F3
:10462000032904D1D0F8B412C96901B18847002028
:1046300010BD01740020704710B5D0F8C002FDF71E
:1046400037F8BDE81040FFF76DBE70B5044600F5C1
:104650002A70054600F044F90120C4F89402B4F829
:10466000AE02C4F8980294F8A80210F01F010AD014
:1046700001290DD0022910D000F08001204600F061
:1046800011F8002070BD2946204600F098F9F8E79F
:104690002946204600F0C4FAF3E72946204600F0F8
:1046A00017FAEEE710B5D0F8C002FCF7BFFCBDE882
:1046B0001040FFF737BE10B5D0F8C002FDF713F871
:1046C000BDE81040FFF72EBE90F89C1280F89D12B6
:1046D000042180F89C120020704710B5D0F8C00269
:1046E000FCF7DEFCBDE81040FFF71CBE10B5FDF77F
:1046F000DAFF002010BD10B5FDF7F2FF002010BD5D
:1047000070B504460121FFF737FE002581212046C0
:10471000C4F86C51FFF730FE2046E562FDF7FDFF5F
:10472000D4F8B80218B103F041F8C4F8B852002028
:1047300070BD00000A21018000487047B8010020C8
:10474000202101800048704778010020202101804D
:104750000048704758010020202101800048704720
:104760009801002070B50446007C0125D0B140239B
:10477000022201212046FFF709FF4023C4F86C51B3
:10478000022281212046FFF701FF40F66C00E5621E
:1047900003F09EF9C4F8B80280B12046FDF7C2FFCD
:1047A000002070BD4FF400763346022201212046DE
:1047B000FFF7ECFE3346C4F86C51E1E7022070BD10
:1047C00009B1C0F8BC12002070472DE9F84300265B
:1047D000D0F8B8720546ADF8006008780C46B046CF
:1047E00010F0600120D020293DD16178FE2902D04F
:1047F000FF2938D10EE0618881BBE188012932D1DF
:10480000000630D5D5F8BC028069804701223946C0
:1048100038601FE0618809BBE188F9B9000622D43D
:104820002846FDF7A0FF23E0607830B1012825D0AD
:104830000A2809D00B2816D111E095F89C0203280C
:1048400011D10222694605E095F89C0203280AD19D
:104850000122391D2846FFF742FC09E003E095F8E4
:104860009C02032807D021462846FFF722FC022697
:104870003046BDE8F883A0787860F9E721792846CA
:10488000FFF734FE21792846FFF776FDA0884FF028
:104890000107010600F00F0000EB80004FF40073E9
:1048A00005EB80000BD5C0F81880287C00B14023B0
:1048B000022281212846FFF769FEEF620BE0C0F873
:1048C0005881287C00B14023022201212846FFF7AD
:1048D0005DFEC5F86C7121792846FDF7CFFEC7E76C
:1048E0000A7802704A7842708A78CB7802EB032209
:1048F00042800A794B7902EB032282808A79C97956
:1049000002EB0121C18070470246002011B1C2F8BC
:10491000B41270470220704710B5D0F8B4220224B8
:104920001AB11268904700B90024204610BD00005B
:1049300070B50E461E4D897804462970012931D87C
:1049400094F89C0202280BD003280FD03146204651
:10495000FFF7AFFB29782046BDE87040FFF792BB18
:10496000D9B10320616084F89C0209E071B16068EC
:10497000884212D0C1B22046FFF784FB29786160DB
:104980002046FFF7C9FF02280CD006E0022084F879
:104990009C0220466160FFF775FB2046BDE8704031
:1049A000FFF7AABB31462046BDE87040FFF781BB48
:1049B0001C01002010B5FFF77EFE002010BD2DE980
:1049C000F0410A78002612F0600208D0202A01D0B7
:1049D000402A70D1D0F8B422926890476DE04B78AD
:1049E000002201250A2B66D2DFE803F0405D6557FF
:1049F000650805652C29FFF7FDFB5EE00446888805
:104A0000D8B9C888C8B94888802816D200F07F076E
:104A100094F89C02032810D084F89E7239462046F0
:104A2000FFF70AFE2046FFF767FB1FB1022084F85C
:104A30009C0242E084F89C523FE020463BE0FFF7B6
:104A400077FF3AE0CB88012B35D190F89C32012BCF
:104A500004D0022B02D0032B2DD104E0826001226E
:104A600000F1080116E00122011D13E090F89C22DC
:104A7000012A03D0022A01D0032A1CD1CA88022AA3
:104A800019D1C560D0F8A41209B10321C160022276
:104A900000F10C01FFF723FB0FE0498801290CD13D
:104AA000C0F8A45211E090F89C32012B08D0022BE0
:104AB00006D0032B04D0FFF7FCFA3046BDE8F081A6
:104AC00049880129F9D1C0F8A422FFF715FBF4E7C2
:104AD0002DE9F0410A46044610780027097910F0C4
:104AE00060030AD0202B01D0402B50D1D4F8B4025F
:104AF00011468368204698478FE0C0F34110012893
:104B000006D05078D0B301282AD003283FD107E03F
:104B1000D4F8B402114683682046BDE8F041184736
:104B200094F89C02022802D0032872D10AE071B3E3
:104B300080296ED02046FFF7B5FD80212046FFF783
:104B4000B1FD6AE0508838B931B1802904D0D088ED
:104B500010B92046FFF7A6FD2046FFF7CDFA5CE02E
:104B600094F89C020228E2D0032852D1508898BBC6
:104B70004806F1D02046FFF7F6FBEDE7FFE794F893
:104B80009C020026022803D0032842D112E040E014
:104B900009B180293DD1080601F07F0000EB8000BB
:104BA00004EB800101D5143101E001F5AA71022264
:104BB0000E602AE0080601F00F0000EB800004EB15
:104BC00080000AD5806920B301F07F0000EB8000EF
:104BD00004EB800514350BE01FE0D0F85801C0B19C
:104BE00001F07F0000EB800004EB800505F5AA755D
:104BF00041B1802906D02046FFF7B4FC10B1012056
:104C0000286000E02E60022229462046FFF767FA5E
:104C100003E011462046FFF74CFA3846BDE8F08124
:104C200070B5054608780C4610F0600003D02028C7
:104C300001D0402816D195F89C02012803D0022803
:104C400001D003280ED1207901280BD8D5F8B40261
:104C5000826828469047E188014306D12846FFF73D
:104C60004BFA02E02846FFF724FA002070BD00004E
:104C700070B50A78012302F00F054E78AB401B4C4B
:104C8000D0F81C58012E17D045EA0343C0F81C3851
:104C900000EB4210D0F8002B12040BD4D0F8002BFC
:104CA0000B89C978C3F30A031A4344EA81410A43D2
:104CB000C0F8002B002070BD9BB21D43C0F81C58EB
:104CC00000EB4210D0F800391B04F3D4D0F80039BF
:104CD0000D89C978C5F30A0589042B4341EA82513D
:104CE0000B432343C0F80039E4E7000000800010C4
:104CF000D0F800196FF30A01C0F80019D0F80418B1
:104D000041F48071C0F804180020704770B5044663
:104D10000699049D0D98012915D0E06840F04000E7
:104D2000E060204600F028F8A16B41F48031A163D7
:104D3000012D07D1A16841F00601A160A16841F0F1
:104D40002001A16070BDA16B21F48031A163E168F5
:104D5000084A1140E160E16821F44011E160012856
:104D600003D1E06840F48010E060204600F004F8D1
:104D7000DEE70000BFFFBDFF01220C4902E0521C2C
:104D80008A420BD80369002BF9DA026942F001026A
:104D90000261012204E0521C8A4201D903207047BB
:104DA0000369DB07F7D1002070470000400D0300C6
:104DB00030B54C780A78012300EB4212012C2CD03C
:104DC000D2F8004B002C0BDAD2F8004B44F0006410
:104DD000C2F8004BD2F8004B44F08044C2F8004BBC
:104DE000D0F83C580C7804F00F0403FA04F425EAD8
:104DF0000444C0F83C48D0F81C48097801F00F0181
:104E00008B4024EA0341C0F81C18D2F8000B194962
:104E10000840C2F8000B002030BDD2F80049002C39
:104E20000BDAD2F8004944F00064C2F80049D2F825
:104E3000004944F08044C2F80049D0F83C480D785D
:104E400005F00F0503FA05F5ADB2AC43C0F83C48D8
:104E5000D0F81C48097801F00F018B4099B28C43BF
:104E6000C0F81C48D2F8000903490840C2F80009FC
:104E7000D1E700000078F3EF007833ECD0F8001EA3
:104E800021F00301C0F8001ED0F8041821F002013F
:104E9000C0F8041800207047D0F8001E21F003016C
:104EA000C0F8001ED0F8041841F00201C0F8041840
:104EB000002070472DE9F04F00250E460446DDF82E
:104EC0002CC0DDF824B0109F2846294604EB800250
:104ED000C2F80411401C0F28F8D32046C7B1806BDC
:104EE00020F40012A263A06B40F40022A2630846E3
:104EF0008846C4F8000ED4F800182046C4F80018FC
:104F0000BCF1010F16D0D0F8001841F0030116E0F3
:104F1000D0F8040840F00202C4F80428A06B40F462
:104F20000012A263A06B20F40022A263A06B20F405
:104F30008022DBE7D0F800180BB141F00101C0F886
:104F40000018102100F090FA00B10125204600F071
:104F50007BFA00B101254046C4F81088C4F81488D3
:104F6000C4F81C8800214FF000694FF0904A4FF6BA
:104F70007F3314E004EB4112D2F800C9BCF1000FFA
:104F800006DA11B1C2F800A904E0C4F8009901E002
:104F9000C2F80009C2F81009C2F80839491C8E424B
:104FA000E8D8002115E000BF04EB4112D2F800CB95
:104FB000BCF1000F06DA11B1C2F800AB04E0C4F88E
:104FC000009B01E0C2F8000BC2F8100BC2F8083BCE
:104FD000491C8E42E8D8D4F8101821F48072C4F825
:104FE0001028A0616FF080406061BBF1000F03D119
:104FF000A06940F01000A061A06909490843A061C0
:105000000C9818B1A06940F00800A061012F03D1ED
:10501000A06904490843A0612846BDE8F08F00005C
:1050200000383C8004000040816821F0010181606B
:105030000020704770B50D784E78434CEBB200EB12
:105040004313012E1FD0D3F8100B6FF31200C3F8D7
:10505000100BD3F8100B2040C3F8100B486908B1AF
:1050600088684861D3F8100B40F40020C3F8100B97
:10507000D3F8100B8C68C4F312042043C3F8100B50
:10508000012A55D058E04E69002ED3F8106932D06D
:105090006FF31206C3F81069D3F810692640C3F8FD
:1050A00010694E698C68A64200D94C61D3F810494A
:1050B00044F40024C3F81049D3F810494E69C6F3EC
:1050C00012063443C3F81049012A22D000EB4512DE
:1050D000D2F8003943F00443C2F800394A6932B3C8
:1050E000D0F83428097801F00F03012199400A43D0
:1050F000C0F8342826E02640C3F81069D3F81049D8
:1051000044F40024C3F81049D3F810496FF3120493
:10511000D8E7096919B100EB4512C2F8141900EB80
:105120004510D0F8001941F00441C0F8001909E019
:10513000C86808B1C3F8140BD3F8000B40F0044062
:10514000C3F8000B002070BDFFFF07E010B5036C33
:10515000134CA34203D9D0F8003B002B1EDB0023E5
:10516000C0F8103BD0F8103B43F40023C0F8103BCC
:10517000D0F8103B43F01803C0F8103BD0F8103BB8
:1051800043F0C043C0F8103B012907D1C0F8142BED
:10519000D0F8001B41F08021C0F8001B002010BD9A
:1051A0000A30544F4A780B78012A00EB43100BD099
:1051B000D0F8002B22F40012C0F8002BC978032984
:1051C00014D0022912D017E0D0F8002922F40012DE
:1051D000C0F80029C978032901D002290CD1D0F8E0
:1051E000001941F08051C0F8001905E0D0F8001B0B
:1051F00041F08051C0F8001B002070470A784B78BE
:10520000D1B200EB4110012B12D0D0F8001B0029C5
:1052100006DB2AB1D0F8001B21F08041C0F8001B4A
:10522000D0F8001B41F40011C0F8001B00207047AB
:10523000D0F80019002906DB2AB1D0F8001921F0B6
:105240008041C0F80019D0F8001941F40011C0F8ED
:105250000019EBE7F8B50C784F78774DE3B26FF0B3
:10526000604600EB4313012F26D0D3F8104B6FF3A9
:105270001204C3F8104BD3F8104B2C40C3F8104B5A
:105280004C69002C74D08D682C44641EB4FBF5F47A
:10529000D3F8105BA4B206EAC4463543C3F8105BEA
:1052A000D3F8105B8E686643C6F312042543C3F837
:1052B000105B012A71D0A6E04F691FB3D3F81079B3
:1052C0006FF31207C3F81079D3F810792F40C3F8A1
:1052D00010794F698D682F447F1EB7FBF5F506EAFC
:1052E000C545D3F810693543C3F81059D3F81059A0
:1052F0004E69C6F312063543C3F81059CD78012D17
:1053000010D01BE0D3F810692E40C3F81069D3F811
:10531000105945F40025C3F81059D3F810596FF30C
:10532000120509E0D3F8105925F0C045C3F810590B
:10533000D3F8105945F00055C3F81059012A18D078
:1053400000EB4413D3F8004944F00444C3F8004987
:10535000CC78012C2FD04A6962B3D0F83428097870
:1053600001F00F03012199400A43C0F8342860E09E
:1053700036E00A691AB100EB4413C3F81429C9785E
:1053800001290FD1D0F80818C90500EB4411D1F854
:10539000002903D442F0005202E030E042F0805293
:1053A000C1F8002900EB4410D0F8001941F0044185
:1053B000C0F800193DE0D0F80848E405D3F80049EA
:1053C00002D444F0005401E044F08054C3F8004992
:1053D00000928A8A93B20A78C96800F067F928E0D7
:1053E000D3F8104B8D68C5F312052C43C3F8104B4E
:1053F000D3F8104B44F40024C3F8104B59E7CA68A3
:105400000AB1C3F8142BC97801290CD1D0F80808C7
:10541000C005D3F8000B02D440F0005001E040F08A
:105420008050C3F8000BD3F8000B40F00440C3F8E1
:10543000000B0020F8BD0000FFFF07E0816841F08D
:105440000101816000207047002110220261054A9D
:10545000491C914201D9032070470369DB06F7D448
:1054600000207047400D03000022202343EA8111F1
:1054700001610549521C8A4201D903207047036922
:105480009B06F7D400207047400D0300D0F80808B1
:1054900010F0060004D0022803D0062801D00F2007
:1054A000704702207047406900F001007047D0F853
:1054B0001818D0F81C08084080B27047D0F81818A7
:1054C000D0F81C080840000C704710B5D0F8103810
:1054D000D0F8342801F00F0400EB4110E24002F054
:1054E0000102D0F8080943EAC212104010BD00EBD7
:1054F0004111D1F8081BD0F81408084070474169E1
:1055000080690840704730B503460846940802F0A9
:105510000301002203F5805303E01D6840F8045B9B
:10552000521CA242F9D300290BD01C680022D500DE
:1055300024FA05F3491E521C090400F8013B090C2A
:10554000F5D130BD70B50446C068002520F0C040DC
:10555000E060012901D079B120E0E06840F000501E
:10556000E0600120FBF73CFA60696D1C10F0010F50
:1055700010D1322DF5D30DE0E06840F08040E060BE
:105580000120FBF72DFA60696D1C10F0010F01D0AE
:10559000322DF5D3322D01D0002070BD012070BD19
:1055A000D0F8002822F4FE62C0F80028D0F80028C5
:1055B0004FF4FE6303EA01110A43C0F800280020FB
:1055C00070470000022A3ED1264A274B0A449A42DD
:1055D00001D20F2138E0254A254B0A449A4201D2D4
:1055E0000E2131E0234A244B0A449A4201D20D2174
:1055F0002AE0224A224B0A449A4201D20C2123E09B
:10560000204A214B0A449A4201D20B211CE01F4A36
:105610001F4B0A449A4201D20A2115E01D4A1E4B33
:105620000A449A420FD31D4A1D4B0A449A4201D2A2
:10563000082109E01B4A11441B4A914201D207216B
:1056400002E0062100E00921C26822F47052C26023
:10565000C2684FF4705303EA81210A43C2600020FC
:1056600070470000405327FF00350C00401E1BFF11
:1056700040420F0000DC0BFF804F1200808CF9FECF
:1056800020D6130060B6E5FE60E3160000D3CEFE20
:1056900040771B00C05BB3FEC091210000CA91FEA1
:1056A00020753800E05459FEE09C410010B5029C82
:1056B00074B9DB1C9C0800EB0230002300F580501D
:1056C00004E000BF51F8042B02605B1CA342F9D335
:1056D000002010BD10B5FDF761FF02490870087881
:1056E00010BD0000C201002070B5064614460D46EC
:1056F00007A000F05FF8224629463046FEF7D0F8B2
:105700000446014606A000F055F8204670BD000092
:10571000555345525F696F63746C2E2E2E20000026
:10572000253032580D0A0000FEF75AB910B504466C
:1057300006A000F03FF82046FEF79EF9074C2070C7
:10574000217807A000F036F8207810BD5553455257
:105750005F7374617475732E2E2E2000C2010020B9
:10576000253032580D0A00002DE9F04107461C464D
:1057700015460E4608A000F01DF823462A4631467D
:105780003846FEF781F90446014607A000F012F8FA
:105790002046BDE8F0810000555345525F7772699D
:1057A00074652E2E2E200000253032580D0A000080
:1057B000FEE700000FB4054B10B503A9044A029898
:1057C00000F004F910BC5DF814FB000095770008A8
:1057D000F00100207CB50C001D461646014601D0A4
:1057E000601E00E00020CDE90010064B6A46294605
:1057F000304600F0EBF8002C02D0009A0021117026
:105800007CBD0000D36000080907090E002804DBF6
:1058100000F1E02080F80014704700F00F0000F164
:10582000E02080F8141D704702E008C8121F08C16C
:10583000002AFAD170477047002001E001C1121F11
:10584000002AFBD1704700002DE9FF5F82B00021E4
:10585000DDE90430020DDDF840B0034318D044F612
:105860001050A2F2FF3242431514119801281FD0A4
:10587000A5EB0B00401C5FEA000A4FF000064E4FFC
:10588000DFF83891B046504615D5CAF1000413E050
:10589000119801244AA3012801D16FEA0B01029853
:1058A000119AC0E90031C0E9024206B0BDE8F09F9C
:1058B000CBF10000DFE704460021404A491842EBE3
:1058C0000450CDE9001012E0E00707D032463B4615
:1058D00040464946FAF78BFE8046894632463B46AB
:1058E00010461946FAF783FE06460F466410002C50
:1058F000EAD1DDE90401DDE90023BAF1000F06DA9F
:10590000FAF775FE42464B46FAF771FE05E0FAF7E4
:10591000E0FE42464B46FAF7DCFE04460E46002205
:10592000284BFAF75DFF03D84FF0FF30014607E040
:105930000022254B20463146FAF7B2FDFAF738FF30
:10594000102409E0002C0ADB0A220023FAF784FC69
:10595000039B30321A55641E50EA0102F2D1641CD6
:10596000039AC4F111031444119A012A03D00122AD
:1059700008430DD10AE0084304D000204FF0110B7A
:10598000119072E7A3EB0B056D1E0DE05B4504DD86
:105990004FF0000205F1010504E003DA4FF00002C8
:1059A000A5F10105002AECD002981199C0E9023155
:1059B000C0E9004579E70000000014400000F03F16
:1059C000300000000000F0430000E03F2DE9FF4FF1
:1059D00095B09A46884606460025EEE1252877D1FF
:1059E00000242746F94A0121039400E0044316F8F5
:1059F000013F203B01FA03F01042F7D130782A280A
:105A000011D06FF02F033078A0F13002092A16D898
:105A1000039A44F0020402EB820203EB42021044B8
:105A2000761C0390EFE758F8042B0392002A03DA60
:105A3000504244F40054039044F00204761C307841
:105A40002E2816D116F8010F44F004042A280DD090
:105A50006FF02F023078A0F13003092B09D807EB43
:105A6000870302EB4303C718761CF3E758F8047B5F
:105A7000761C30786C280FD006DC4C2817D06828AC
:105A80000DD06A2814D104E0742810D07A280FD1E0
:105A90000DE044F400140AE044F4801401E044F4FE
:105AA00040147278824202D104F58014761C761C70
:105AB000307866280BD013DC582877D009DC002812
:105AC00075D04528F6D04628F4D047281AD193E15E
:105AD00018E0632835D0642879D0652812D18BE18D
