:020000040800F2
:1000000080470020350200086F2900086D2600088F
:100010006D290008E9090008993000080000000077
:100020000000000000000000000000009D0100082A
:10003000CD0A000800000000E1010008D12A0008F4
:100040004F0200084F0200084F0200084F0200084C
:100050004F0200084F0200084F0200084F0200083C
:100060004F0200084F0200084F0200084F0200082C
:100070004F0200084F0200084F0200084F0200081C
:10008000ED090008F9090008A50800084F0200085A
:100090004F0200084F0200084F020008790B0008C9
:1000A0004F0200084F0200084F0200084F020008EC
:1000B000692B00084F0200084F0200084F02000899
:1000C0004F0200084F0200084F0200084F020008CC
:1000D0004F020008353000088D3000084F0200083C
:1000E0004F0200084F0200084F0200084F020008AC
:1000F0004F0200084F0200084F0200084F0200089C
:100100004F0200084F0200084F0200084F0200088B
:100110004F0200084F0200084F0200084F0200087B
:10012000050A00084F020008110A00084F020008E3
:100130004F02000800000000000000004F0200080D
:100140004F0200084F0200084F0200084F0200084B
:100150004F0200084F0200081D0A00084F02000865
:100160004F0200084F0200084F0200084F0200082B
:100170004F0200084F0200080000000000000000CD
:100180004F020008DFF810D000F032FB00480047B3
:10019000E9390008AFF3008080470020224B19683E
:1001A0000868B0E8F00F80F30988BFF36F8F4FF055
:1001B000000080F311884EF00D0E70470000000023
:1001C00006480068006880F3088862B661B6BFF32D
:1001D0004F8FBFF36F8F00DF00BF00BF08ED00E05F
:1001E000EFF30980BFF36F8F0F4B1A6820E9F00F10
:1001F000106008B54FF0500080F31188BFF34F8FA7
:10020000BFF36F8F04F0A2F84FF0000080F3118865
:10021000BDE8084019680868B0E8F00F80F3098865
:10022000BFF36F8F704700BF50000020EFF30580D1
:10023000704700000648804706480047FEE7FEE793
:10024000FEE7FEE7FEE7FEE7FEE7FEE7FEE7FEE786
:10025000652B0008850100082DE9F05F05460020A8
:1002600092469B4688460646814640241BE0284627
:1002700041464746224600F00CFA53465A46C01AF9
:10028000914110D311461846224600F0F3F92D1A79
:1002900067EB01084F4622460120002100F0EAF9F1
:1002A00017EB00094E41201EA4F10104DFDC484693
:1002B00031462A464346BDE8F09F40EA01039B07CA
:1002C00003D009E008C9121F08C0042AFAD203E0CB
:1002D00011F8013B00F8013B521EF9D27047D2B22F
:1002E00001E000F8012B491EFBD270470022F6E71F
:1002F00010B513460A4604461946FFF7F0FF20469C
:1003000010BD10B5002200E0521C835C8C5CA3423F
:1003100001D1002BF8D1D8B2E1B2401A10BD2DE9BD
:10032000FE4F804681EA0300C00F0C46009021F08A
:10033000004123F00045B8EB0200A94105D2404638
:10034000214690461C460B46024623F000401043CF
:1003500047D0270DC7F30A00C3F30A510290401A91
:10036000019040286BDAC3F3130040F4801B00981F
:10037000924620B10023D2EB030A63EB0B0B0198EA
:100380005946C0F14002504600F074F906460D4649
:1003900050465946019A00F08CF910EB0800614173
:1003A000002487EA115284EAE7731A4340D0009A86
:1003B00062B3019A012A4FEA075215DC001B61EB78
:1003C00002014FF0004202EA0752CDE90042001C50
:1003D00041F5801132462B4600F08CF903B0BDE8A0
:1003E000F08F40462146F9E7001B61EB0201001C3B
:1003F00041F5801300185B412018A2F5001747EB68
:10040000030140EAD570B6196D4111E06D084FEA5D
:10041000360645EAC0754FEA0752001B61EB020140
:10042000001C41F5801149084FEA30000019514184
:1004300032462B4603B0BDE8F04F00F04CB90098AF
:10044000012240000023D0EB020263EBE07300982E
:1004500021464FEAE074B8EB000061EB0401E9E7E4
:1004600083F000435BE781F0004158E72DE9FE4F40
:1004700081EA030404F0004421F0004100944FF0AD
:10048000000B23F0004350EA01045ED052EA03045B
:100490005BD0C3F30A54C1F30A552C44A4F2F334DD
:1004A0000194A0FB0254C1F3130141F48011C3F382
:1004B000130343F4801301FB024400FB034E840A40
:1004C000970A44EA815447EA8357A4FB07680295D8
:1004D0008D0A05FB07854FEA932C04FB0C54270576
:1004E000029D4FEA065847EA1637B5EB08056EEB52
:1004F000070C870E920E47EA811742EA8312A7FB88
:100500000201B6EB0B0164EB00042B0D43EA0C3344
:100510005E1844EB1C50DA465146E7FB0201C5F376
:1005200013044FEA0B3343EA14534FEA0432019C9D
:1005300043EA0603A4F10C040294009CCDE900B444
:1005400000F0D8F803B0BDE8F08F00200146F9E7CD
:100550002DE9F04D81EA030404F0004B21F0004541
:1005600014464FF0000A23F0004150EA050220D063
:1005700054EA01021DD0C5F30A570246C5F313031E
:10058000C1F31300C1F30A5640F4801543F48013FD
:10059000A7EB0608101BD64608F2FD3873EB0500E2
:1005A00002D308F1010801E092185B41B8F1000F95
:1005B00003DA00200146BDE8F08D00204FF48011E1
:1005C000064684460EE0171B73EB050705D3121B86
:1005D00063EB050306434CEA010C49084FEA30007F
:1005E00092185B4150EA0107EDD152EA030012D0A4
:1005F00082EA040083EA0501084305D0101BAB41E1
:1006000006D20122002306E000224FF0004302E060
:100610006FF0010253101AEB06004CEB085110EB7F
:100620000A0041EB0B01BDE8F04D00F054B80EB5E7
:1006300040F2334102910021CDE900110A460B46F8
:1006400000F058F803B000BD30B50B46014600205D
:100650002022012409E021FA02F59D4205D303FA84
:1006600002F5491B04FA02F52844151EA2F1010205
:10067000F1DC30BD202A04DB203A00FA02F1002030
:1006800070479140C2F1200320FA03F319439040D0
:100690007047202A04DB203A21FA02F0002170473B
:1006A00021FA02F3D040C2F12002914008431946DA
:1006B0007047202A06DBCB17203A41FA02F043EAC2
:1006C000E07306E041FA02F3D040C2F1200291400B
:1006D00008431946704710B5141E73F1000408DA78
:1006E000401C41F1000192185B411A4301D120F0F6
:1006F000010010BD2DE9F04D92469B4611B1B1FAB3
:1007000081F202E0B0FA80F220329046FFF7B2FFA9
:1007100004460F4640EA0A0041EA0B0153465A4696
:10072000084313D0114653EA010019D0C8F1400222
:100730005046FFF7AEFF05460E4650465946424624
:10074000FFF798FF084305D0012004E02046394612
:10075000BDE8F08D0020054346EAE0762C433743A0
:100760000A986305E40AA0EB08000022FD0A44EAA7
:1007700047540A3002D500200146E9E70105101967
:100780006941DDE9084500196941BDE8F04DA2E77E
:10079000C1F30A52C1F3130140F2FF3341F4801157
:1007A0009A4202DA00200146704740F233439A42EF
:1007B000A2F2334202DC5242FFF76BBFFFF75ABF8F
:1007C00030B5041E71F1000404DB4FF000444042D8
:1007D00064EB0101141E73F1000405DB1C464FF0AD
:1007E0000043524263EB0403994208BF904230BD7C
:1007F000064C074D06E0E06840F0010394E807006E
:1008000098471034AC42F6D3FFF7C0FC7C4900088F
:100810009C49000810B50146806B026C12F0500F25
:1008200005D0026CD20626D500F081FA10BD016C0D
:1008300041F40071016401688A6812F0405F17D1C9
:10084000027EAAB9CA6A12F4700F02D08A685205F1
:100850000ED44A6822F020024A60016C21F48071B3
:100860000164016CC90403D4016C41F0010101640D
:1008700000F050FA10BD806BC26CBDE81040084615
:10088000104710B5806B40210164416C41F00401B8
:10089000416400F04CFA10BD10B5806B00F046FAD0
:1008A00010BD0000014800F043BA0000180300200A
:1008B0004B4910B5D1F8042322F44032C1F8042387
:1008C000D1F8042343681A43C1F8042301684A6835
:1008D00022F480724A6001684A68036942EA03228E
:1008E0004A6001684A6822F040724A6001684A68BA
:1008F00083681A434A6001688A6822F400628A6049
:1009000001688A68C3681A438A60816A6FF07062FE
:10091000D14201688A6822F070628A6001688A6840
:100920000CD0836A1A438A6001688A6822F04052B8
:100930008A6001688A68C36A1A4301E022F0405263
:100940008A6001688A6822F002028A6001688A6807
:10095000037E42EA43028A6090F820100029016871
:100960004A6815D042F400624A6001684A6822F47D
:1009700060424A6001684B684FF46044426A94FAEE
:10098000A4F4B4FA84F4521EA24013434B6002E074
:1009900022F400624A600168CA6A22F47002CA62E4
:1009A0000168CA6A838B0F4C04EB03531A43CA6273
:1009B00001688A6822F400728A6001688A6890F887
:1009C000303042EA43228A6001688A6822F48062F9
:1009D0008A6001688A68406942EA8020886010BDA8
:1009E000002001400000F0FFFEE70000014800F099
:1009F000A1BB000008050020014800F09BBB0000DF
:100A000068050020014800F095BB0000600300204D
:100A1000014800F08FBB000048040020014800F0AE
:100A200089BB0000A804002001681823CAB2103A4C
:100A3000B2FBF3F2054B6FF30901032A9B5CC3651C
:100A400000D9091D81650846704700002349000848
:100A500010B5014600208B698A6A4FF0C07453B10B
:100A6000B3F5005F15D072B1012A0CD0022A0AD06A
:100A7000032A09D104E01AB1012A06D0022A03D1BF
:100A8000C96AC90100D5012010BDC96AA142FAD0C6
:100A900010BD002AF7D0012AF2D0022AF3D0032A8F
:100AA000F3D010BD30B50468256825F48025256095
:100AB000046863608368402B036803D09960006812
:100AC000C26030BD9A600068C16030BD70470000F0
:100AD0000FB4F0B58FB00E460746154618AC34215A
:100AE00001A8FFF703FC2346322101A8179A02F060
:100AF000E5FA002F0ADB384600F018F8014601A895
:100B000000902B46324603A002F0C8FA0FB0F0BCAA
:100B10005DF814FB5B252D35735D205B252D313091
:100B2000732534645D202573200D0A0038B1012837
:100B300007D0022807D0032807D005A0704706A0D9
:100B4000704707A0704708A0704709A070470000D1
:100B5000554E4C4E4F57000044454255470000004B
:100B6000494E464F000000005741524E0000000021
:100B70004552524F520000004FF4807000F084BC88
:100B800072B6FEE72DE9F041054680890E46C0F3B6
:100B90000B00FFF74CFD074635F826000C46C0F366
:100BA0000B00FFF744FD0022044BFFF75FFC3A46C1
:100BB0002346BDE8F041FFF7CBBC000000C09240E7
:100BC0007047000078B50024009490F83C20012A7A
:100BD00019D0012280F83C200A6807230568092AF9
:100BE00013D9EE680A3A02EB420293409E43EE604C
:100BF0000B788A680A3B03EB43039A400368DD687D
:100C00002A43DA6010E0022078BD2E6902EB42022E
:100C100093409E432E610A788B6802EB4202934018
:100C2000026815692B4313614A681F23072A13D2F0
:100C300005686E6B521E02EB820293409E436E6308
:100C40000B790A885B1E92B203EB83039A40036818
:100C50005D6B2A435A6327E005680D2A12D22E6B7A
:100C6000D21F02EB820293409E432E630B790A88C7
:100C7000DB1F92B203EB83039A4003681D6B2A4388
:100C80001A6311E0EE6A0D3A02EB820293409E4332
:100C9000EE620B790A880D3B92B203EB83039A4014
:100CA0000368DD6A2A43DA62174A0368934208D16F
:100CB0000B68122B05D1D2F8043343F48003C2F839
:100CC0000433036893421AD10B68102B01D0112B07
:100CD00015D1D2F8043343F40003C2F80433096891
:100CE00010290CD109490A4A0968B1FBF2F101EB5C
:100CF0008101490000E0491E00910029FBD180F8E4
:100D00003C40002078BD0000002001404C00002045
:100D100040420F000349884203D103480168491C3F
:100D200001607047180300203800002070477047AA
:100D300070B50446006801684268C1F34001C2F31F
:100D4000401251B34AB3216CC90603D4216C41F45B
:100D500000712164816811F0405F17D1217EA9B92B
:100D6000C16A11F4700F02D0816849050ED4416840
:100D700021F020014160206C20F480702064206C00
:100D8000C00403D4206C40F0010020642046FFF72B
:100D9000C1FF21686FF01200086020680168426896
:100DA000C1F38001C2F3C01289B382B3216CC906BA
:100DB00003D4216C41F400512164816811F4401F77
:100DC0001ED1816B11F4401F02D08168490517D4F0
:100DD0004168490514D4816811F0405F10D1217E2B
:100DE00071B9416821F080014160206C20F480508D
:100DF0002064206CC00503D4206C40F00100206406
:100E00002046FFF7DDFE21686FF00C0008602068C7
:100E10000168426811F0010FC2F380120ED06AB16E
:100E20000068C0070AD0206C40F48030206420465F
:100E300000F046F821686FF0010008602068016842
:100E40004268C1F34011C2F3806200290DD0002A2C
:100E50000BD0616C41F0020161646FF02005056008
:100E60002046FFF764FF2068056070BD70B5040080
:100E70004FF0000503D0206C002610B107E00120E0
:100E800070BD204600F01EF8666484F83C60206C5B
:100E9000C00610D4206C20F4885040F0020020647A
:100EA0002046FFF705FD6664206C20F0020040F04C
:100EB0000100206400E0012584F83C60284670BDF4
:100EC0007047000070B586B0064614216846FFF7EB
:100ED0000DFA2149306888423BD12048002501683D
:100EE00041F480710160006800F4807005901B4837
:100EF0001438016841F0010101600068694600F0A2
:100F00000100059003200090CDE90105144800F090
:100F1000C7FA154C1348C4E900050015A560C4E9DB
:100F20000350800060618000A0618011C4E9070562
:100F30002046656200F0CEF908B1FFF721FEB463E8
:100F4000002205211220A66300F08CFC122000F084
:100F50007BFC06B070BD0000002001404438024018
:100F6000000002401064024060030020F8B50D4606
:100F700000210446009190F83C00012807D0012090
:100F800084F83C0020688368DB0702D011E002206F
:100F9000F8BD836843F0010383603248324B006838
:100FA000B0FBF3F000EB400000E0401E0090002892
:100FB000FBD120688368DB0749D0236C40F20166CF
:100FC000B34343F4807323644068400505D5206C27
:100FD00020F4005040F480502064206CC00404D5FC
:100FE000606C20F00600606400E0616484F83C10EE
:100FF000A16B1E48C863A16B1D480864A16B1D4806
:10100000C86421686FF0220008602068416841F0E0
:10101000806141602068816841F48071816021684D
:1010200013462A464C31A06B00F0BEF91249D1F8A4
:101030000403C006206801D0884210D1816811F0F5
:10104000405F0CD1816841F08041816007E0206CF5
:1010500040F010002064606C40F0010060640020EB
:10106000F8BD00004C00002040420F0015080008A9
:101070009908000883080008002001402DE9F0418C
:101080000446876D00F062FB064694F835000025A3
:10109000022806D08020606584F834500120BDE825
:1010A000F0812068016821F0160101602068416923
:1010B00021F080014161206C08B9A06C20B120684A
:1010C000016821F0080101602068016821F0010138
:1010D00001600CE000F03AFB801B052807D92020B6
:1010E0006065032084F8350084F83450D7E7206821
:1010F0000068C007EED194F85C103F208840B860CB
:10110000012084F8350084F834500020C7E790F8B7
:101110003510022903D08021416501207047052147
:1011200080F835100068016821F00101016000209D
:10113000704700002DE9F84304464FF00009CDF850
:10114000009063484FF41651A56D0068B0FBF1F7AD
:101150002E6894F85C10082000FA01F131420FD09B
:1011600021680A6852070BD50A6822F004020A6057
:1011700094F85C108840A860606D40F001006065E4
:1011800094F85C104FF0010808FA01F0304208D0E2
:1011900021684969090604D5A860606D40F0020025
:1011A000606594F85C1004208840304208D02168C3
:1011B0000968890704D5A860606D40F00400606587
:1011C00094F85C1010208840304218D021680968DB
:1011D000090714D5A86020680168490304D5006890
:1011E000000308D5A16C07E00168C90503D40168B4
:1011F00021F008010160216C09B12046884794F86C
:101200005C1020208840304231D021680968C9062E
:101210002DD5A86094F8350005282068016806D00F
:10122000490347D5006800031DD4616C1CE021F020
:10123000160101602068416921F080014161206C44
:1012400008B9A06C20B12068016821F00801016094
:1012500094F85C103F208840A86084F8358084F8BA
:101260003490216D1FE0E16B09B120468847606D25
:1012700000282BD0606DC00714D0052084F83500FD
:101280002068016821F0010101600098401C009075
:10129000B84203D820680068C007F6D184F83580CA
:1012A00084F83490E16C002910D001B02046BDE8EC
:1012B000F04308470168C905D5D4016821F0100141
:1012C000016084F8358084F83490CCE7BDE8F88379
:1012D0004C0000202DE9F041044600F037FA0646A4
:1012E0005CB1022084F83500002584F83450206871
:1012F000016821F0010101600DE00120BDE8F081ED
:1013000000F024FA801B052805D920206065032001
:1013100084F83500F2E720680068C007F0D1226841
:10132000116820480140D4E901031843D4E9033689
:101330003343184363691843A3691843E3691843A7
:10134000236A18430843616A042903D1D4E90B13C3
:1013500019430843106020684069666A20F007015D
:1013600030460E43012704280CD1A06A0643E06AE8
:1013700040B12046FFF76CFB20B14020606584F847
:101380003570BAE7206846612046FFF74DFB94F8B8
:101390005C203F2191408160656584F835700020B4
:1013A000ACE700003F8010F02DE9F0410446866D67
:1013B00090F83400002501280DD0012084F8340075
:1013C00094F835700020012F07D084F834000225EE
:1013D0002846BDE8F0810220FBE7022784F835703B
:1013E00060652046FFF75EFB94F85C103F20884064
:1013F000B0602068016841F016010160206C20B1E6
:101400002068016841F0080101602068016841F02E
:1014100001010160DCE7000031B500F097F9009CA4
:101420000546601C02D004480078044400F08EF9A0
:10143000401BA042FAD338BD4000002070B54FF4E5
:101440008074A0421AD10E4D2146284600F06CF956
:10145000002813D10120FFF7DFFF21462E46284642
:1014600000F062F9074D40B10120FFF7D5FF21469A
:10147000304600F059F9012800D1287070BD0000F5
:101480000000024004000020044910B50A6802422E
:1014900002D00860FFF7D2FF10BD0000143C0140ED
:1014A0002DE9F04FDFF85092002309F1040A0126DC
:1014B00003250AF1040B85B00F270BF1040E12E18E
:1014C000224606FA03F422407ED091F804C00CF0C4
:1014D000030CBCF1010F02D0BCF1020F26D1D0F8F1
:1014E0000880CDF800804FEA430805FA08FCCDF8E3
:1014F0001080DDF8008028EA0C08CDF80080D1F8D3
:101500000CC0DDF810800CFA08FCDDF800804CEA15
:10151000080CC0F808C0D0F804C02CEA040C0C7900
:10152000C4F300149C4044EA0C0444600C79E44386
:10153000A40712D0C4684FEA430CCDF808C005FADE
:101540000CFC24EA0C04D1F80880DDF808C008FA85
:101550000CF848EA0408C0F80C800C7904F0030485
:10156000022C16D1DC0800EB840CCDF808C0DCF8A6
:1015700020C05C074FEAD46807FA08F42CEA040C90
:101580000C6904FA08F444EA0C04DDF808C0CCF84D
:10159000204004684FEA430805FA08FC24EA0C04DA
:1015A00091F804C00CF0030C0CFA08FC4CEA040C93
:1015B000C0F800C04C6814F4403F05D04F4CD4F83C
:1015C00000C04CF4804C00E08CE0C4F800C02468FB
:1015D00023F0030C04F480440094494C64440294C6
:1015E000D4F808484FEA837C4FEA1C7807FA08FCD5
:1015F00024EA0C04DFF80CC1604502D14FF0000C66
:1016000039E0DFF804C1604502D14FF0010C32E04F
:10161000DFF8F8C0604502D14FF0020C2BE0DFF894
:10162000F0C0604502D14FF0030C24E0DFF8E4C0C5
:10163000604502D14FF0040C1DE0DFF8DCC06045CE
:1016400002D14FF0050C16E0DFF8D0C0604502D1A2
:101650004FF0060C0FE0DFF8C8C0604502D14FF034
:10166000070C08E0DFF8BCC0604502D14FF0080C61
:1016700001E04FF0090C0CFA08FC4CEA040C029C47
:10168000C4F808C8D9F80040CC46D1F80480944387
:101690005FEAC83800D51443CCF80040DAF80040BF
:1016A000D446D1F8048094435FEA883800D51443C7
:1016B000CCF80040DBF80040DC46D1F804809443CD
:1016C0005FEAC82800D51443CCF80040DEF800409B
:1016D000F446D1F8048094435FEA882800D5144387
:1016E000CCF800405B1C0A681446DA407FF4E8AE90
:1016F00005B0BDE8F08F0000003C014044380240D6
:101700000030014000000240000402400008024096
:10171000000C024000100240001402400018024079
:10172000001C0240002002400069084000D0012057
:101730007047426921EA02030A4043EA024181619B
:1017400070470AB1816170470904FBE7014880686E
:101750007047000040000020024881680278114470
:1017600081607047400000200B4810B5016841F4CB
:1017700000710160016841F480610160016841F419
:1017800080710160032000F08DF8002000F006F861
:1017900000F03EF8002010BD003C024010B50146AC
:1017A00088B000221C2000F05DF81C2000F04CF8EE
:1017B00014480024016841F001010160006805A996
:1017C00000F001000690684600F01CF900F03AF9BC
:1017D0000D494000B0FBF1F10C484FF08042491E2A
:1017E000026040F2E732C0E90324C0E9011400F0CE
:1017F00027FB10B1012008B010BD044800F04EFBDB
:10180000F9E700004038024040420F00480600203F
:101810000C4882B0016841F480410160006800F426
:10182000804000900748001F016841F0805101602E
:101830000068002200F0805000900F21901E02B03E
:1018400000F010B844380240002809DB00F01F0205
:10185000012191404009800000F1E020C0F8001112
:1018600070470000F0B40E4B1B680C46C3F3022314
:10187000C3F10705042D00D90425191D072901D23C
:10188000002300E0DB1E012606FA05F1491E214077
:1018900099409E40761E16403143F0BC01F028BCB2
:1018A0000CED00E0064900F0070208684FF6FF0360
:1018B000184040EA0220034A1043086070470000C5
:1018C0000CED00E00000FA052DE9F0470E4605009A
:1018D00063D0DFF81C81D8F80000F7B200F00F00E9
:1018E000B04207D288F80070D8F8000000F00F006E
:1018F000B04252D128683F4C810712D5400703D52A
:10190000206840F4E05020602878000703D5206864
:1019100040F4604020602068A96820F0F00008438F
:1019200020602878C0072BD0324968680839012820
:1019300010D00968022810D0890700292DDA216803
:1019400021F0030101432160FFF700FF814641F2CE
:10195000883A0EE009688903EFE78901EDE700BFE7
:10196000FFF7F4FEA0EB0901514502D90320BDE8C1
:10197000F0872068696800F00C00B0EB810FEFD1B0
:10198000D8F80010404601F00F01B14207D90770A6
:10199000006800F00F00B04201D00120E7E728788E
:1019A000400705D52068E96820F4E050084320602E
:1019B0002878000706D52068296920F4604040EAAD
:1019C000C100206000F06EF82168F02292FAA2F2C5
:1019D00001F0F001B2FA82F2D140074A515CC840EE
:1019E0000649086006480068FFF7D8FE0020BEE7F9
:1019F000003C0240083802402B4900084C000020FF
:101A0000440000200F2202600C4A136803F0030315
:101A10004360136803F0F0038360136803F4E0533A
:101A2000C36012684FF4E05303EAD2020261044833
:101A3000006800F00F00086070470000083802409E
:101A4000003C024008480949006809684FF4E05228
:101A500092FAA2F201F4E051B2FA82F2D140044AC1
:101A6000515CC840704700004C000020083802401C
:101A70003B49000808480949006809684FF460427A
:101A800092FAA2F201F46041B2FA82F2D140044A21
:101A9000515CC840704700004C00002008380240EC
:101AA0003B490008154810B5006810F00C021448B6
:101AB00013D04110042A0FD0082A0ED10F4C241F36
:101AC0002268236802F03F025B0207D52068C0F35A
:101AD0008810A0FB010106E0084610BD2168C1F393
:101AE0008811A1FB00010023FEF7B6FB2168C1F3BA
:101AF0000141491C4900B0FBF1F010BD083802401B
:101B00000024F4002DE9F84F04007BD0DFF814B373
:101B10002078ABF10406C007A6F1040536D0DBF847
:101B200000105846C1F38101012907D00068C0F3B5
:101B30008100022809D13068400206D52868800358
:101B400024D560680028E0D020E0B6492079891FBC
:101B50000870606868B1FFF7F9FD074605E000BF4F
:101B6000FFF7F4FDC01B642876D828688003F7D5FA
:101B70000CE0FFF7EBFD074605E000BFFFF7E6FDD1
:101B8000C01B6428F0D828688003F7D42078DFF8D9
:101B9000988280074FF0000944D5DBF800105846C2
:101BA00011F00C0F4FF0F80A07D00068C0F3810065
:101BB000022809D13068400206D42868800715D56C
:101BC000E06801281ED111E0E068E0B10120C8F80A
:101BD0000000FFF7BBFD074605E000BFFFF7B6FDBD
:101BE000C01B0228C0D828688007F7D528689AFA51
:101BF000AAF22169B2FA82F220F0F800914008437B
:101C000028600FE00AE1C8F80090FFF79FFD074643
:101C100005E000BFFFF79AFDC01B02281CD828680A
:101C20008007F7D42078000727D5DFF8F8A17F4890
:101C300061690AF16C0A81B101210160FFF786FD3B
:101C4000074604E0FFF782FDC01B022804D8DAF83B
:101C500000008007F6D510E082E0C0F80090FFF7A2
:101C600075FD074605E000BFFFF770FDC01B0228A9
:101C700076D8DAF800008007F6D4207840075FD5E0
:101C8000DFF8A0A100270AF1380ADAF80000C00046
:101C90000BD4DAF8001041F08051CAF80010DAF8DD
:101CA0000000012700F0805000906148016841F475
:101CB000807101600168C90512D4016841F4807126
:101CC0000160FFF743FD009006E000BFFFF73EFD17
:101CD0000099401A02287ED855480068C005F5D5FD
:101CE0005049207A68310870A06888B1FFF72EFD4E
:101CF000009007E0FFF72AFD0099411A41F2883071
:101D0000814268D84748683000688007F2D510E003
:101D1000FFF71CFD009007E0FFF718FD0099411A3E
:101D200041F28830814256D83E48683000688007CA
:101D3000F2D42FB1DAF8001021F08051CAF8001067
:101D4000A069B8B3DBF80010C1F38101022949D0C2
:101D50000228C8F8609004D0FFF7F8FC04463DE084
:101D600039E0FFF7F3FC074605E000BFFFF7EEFCA4
:101D7000C01B64282FD828688001F7D4D4E9070154
:101D80000843616A94F82C20890141EA0261084302
:101D9000A16A284A490802EB014108433168264AF2
:101DA0001140084330600120C8F86000FFF7CEFC06
:101DB000044606E034E000BFFFF7C8FC001B6428BF
:101DC00009D828688001F7D52AE000BFFFF7BEFCDC
:101DD000001B642802D90320BDE8F88F2868800121
:101DE000F4D41DE00128F7D03068E26900F48001E6
:101DF000914213D1226A00F03F0191420ED1616AF3
:101E0000C0F38812914209D1A26A00F44031914294
:101E100004D1E16A00F07060884201D00120DBE764
:101E20000020D9E70838024000004742800E4742B0
:101E3000007000400000FFFF0080BCF0704770475A
:101E400010B5040003D094F83D0010B107E0012064
:101E500010BD002084F83C00204600F01EF802204F
:101E600084F83D00211D206800F084FE012084F8E4
:101E7000460084F83E0084F83F0084F8400084F86F
:101E8000410084F8420084F8430084F8440084F858
:101E9000450084F83D00002010BD704790F83D10CB
:101EA000012901D001207047022180F83D1001680E
:101EB000CA6842F00102CA6000681149884214D021
:101EC000B0F1804F11D00F4988420ED00E498842A0
:101ED0000BD00E49884208D00D49884205D00D49E3
:101EE000884202D00C49884204D1816801F0070180
:101EF000062903D0016841F001010160002070470C
:101F0000000001400004004000080040000C0040B8
:101F1000000401400040014000180040704770B5C7
:101F20000446006801694FF00005C943890715D4CC
:101F3000C168C943890711D4E91E016101202077D6
:101F4000206880698007204602D0FFF7E7FF04E0A1
:101F500000F098F8204600F096F82577206801698F
:101F6000C943490717D4C168C943490713D46FF05F
:101F700004010161022020772068806910F4407F0D
:101F8000204602D0FFF7CAFF04E000F07BF82046AD
:101F900000F079F8257720680169C943090716D44C
:101FA000C168C943090712D46FF008010161042018
:101FB00020772068C0698007204602D0FFF7AEFF77
:101FC00004E000F05FF8204600F05DF82577206817
:101FD0000169C943C90617D4C168C943C90613D4E6
:101FE0006FF010010161082020772068C06910F4AB
:101FF000407F204602D0FFF791FF04E000F042F856
:10200000204600F040F8257720680169C943C907D8
:1020100008D1C168C943C90704D1891E016120469E
:1020200000F032F820680169C943090609D4C16883
:10203000C943090605D46FF0800101612046FFF70E
:10204000FDFE20680169C943490609D4C168C94336
:10205000490605D46FF040010161204600F01BF8ED
:1020600020680169C94389060BD4C168C943890640
:1020700007D46FF0200101612046BDE87040FFF7F2
:10208000DEBE70BD704770470068B0F1804F01D16F
:10209000FFF762BB70477047704710B50446006891
:1020A000416994F83D20C1F3C011212A0BD151B1EF
:1020B000416921F080014161606B08B1FEF7DEFFEC
:1020C000204600F056FE2068416994F83E20C1F396
:1020D0008011222A0BD151B1416921F040014161A7
:1020E000A06B08B1FEF7CAFF204600F02AFE0020D0
:1020F00010BD7047F8B5026804461068D16853698E
:1021000010F00F0F4FF0000553D003F0010601F45B
:10211000907737435FD0C20705D0CA0503D5226C3C
:1021200042F001022264420705D5DA0703D0226C8F
:1021300042F002022264820705D5DA0703D0226C3E
:1021400042F004022264020707D501F02002324364
:1021500003D0226C42F008022264226C002A34D0A0
:10216000800604D5880602D5204600F00BFE2068C4
:102170004069216CC0F38010090700D430B32046B9
:1021800000F0DFFD2068416949061BD5416921F057
:1021900040014161A06BA8B159490165A06BFEF7F0
:1021A000B6FF002811D0A06B016D01B0BDE8F04072
:1021B000084783060FD58B060DD52046BDE8F840AD
:1021C00000F0E0BD2046FFF794FFF8BD2046FFF782
:1021D00090FF2564F8BD266B2023012E53D1C6063F
:1021E00051D5CE064FD51068506800905069400612
:1021F0002BD5A16B086840680004000CEAD0A68DBE
:102200008642E7D9E085C869B0F5807F18D0D068EC
:1022100020F48070D0602068416921F001014161A3
:102220002068416921F04001416184F83E30256316
:102230002068C16821F01001C160A06BFEF71EFF8D
:10224000A08DE18D401A81B219E0A08DE18D401A78
:1022500081B2E08D0028BDD00029BBD0D06820F429
:102260009070D0602068426922F00102426184F8D7
:102270003E3025632068C26822F01002C26020460A
:10228000FFF70AFFF8BD05062BD50D0629D594F8F2
:102290003D002128F6D1A068B0F5805F01D120690A
:1022A000B0B1206A411C2162216800784860E08C4E
:1022B000401E0004000CE084E4D12068C16821F0D5
:1022C0008001C1602068C16841F04001C160F8BD73
:1022D000206A0088C0F308005060206A801C2062D9
:1022E000E5E74006F3D54806F1D5D168204621F050
:1022F0004001D16084F83D3000F0B6F9F8BD00002F
:102300003D2C000870B5040004D094F83D00002571
:1023100010B106E0012070BD84F83C50204600F06A
:1023200023F8242084F83D002068C16821F400517E
:10233000C160204600F082FD2068016921F49041CF
:1023400001612068416921F02A0141612068C1686A
:1023500041F40051C1602564202084F83D0084F8D8
:102360003E00002070BD00002DE9F04786B0044615
:1023700014216846FDF7BAFFDFF868C1022126681C
:10238000594803220723DFF8648100258F064FF0A8
:10239000400A4FF4806966454DD1534E1436D6F845
:1023A00000C04CF0100CC6F800C0366806F01006ED
:1023B0000596066846F001060660006800F0010018
:1023C000059050028DE8230069464046CDE903237D
:1023D000FFF766F8474E4648C8463060C6E90175C3
:1023E000C6E903597561B561F561356230467562BC
:1023F000FEF770FF08B1FEF7C3FBA663B4633D4E62
:102400003B4860367830C6E903587561B561F561BF
:102410003562756286E881043046FEF75BFF08B1DD
:10242000FEF7AEFB6663002205212520B463FFF7AB
:1024300019FA252051E0DFF8C0C066454FD12A4E79
:102440001036D6F800C04CF4003CC6F800C0366820
:1024500006F400360596066846F001060660006838
:1024600000F0010005900C208DE8230069464046ED
:10247000CDE90323FFF714F81E4E2048C036B846B6
:102480003060C6E90175C6E903597561B561F5614A
:1024900035624F4630467562FEF71CFF08B1FEF705
:1024A0006FFBA663B463164E1448C6E90357756103
:1024B000B561F56135621830756286E80105304610
:1024C000FEF708FF08B1FEF75BFB666300220521FB
:1024D0002620B463FFF7C6F92620FFF7B5F906B04A
:1024E000BDE8F08700100140303802400000024093
:1024F00040640240480400200044004088600240DC
:102500006805002090F83E30202B0ED159B152B111
:1025100090F83C30012B08D0012380F83C30002398
:10252000036300F01DBD0120704702207047704713
:10253000704700002DE9F843044690F83D001F461F
:1025400016460D4620284CD1C5B1BEB194F83C00CA
:10255000012846D0012084F83C004FF00008C4F860
:102560004080212084F83D00FFF7F0F8A6848146E2
:10257000E684A068B0F5805F03D004E00120BDE8E8
:10258000F883206928B12E465FF0000584F83C806E
:102590000EE00026FAE78021204600F019FDA0B9E0
:1025A000AEB116F8010B21684860E08C401EE08453
:1025B000E08C4B464FF0000200970028EBD14FF023
:1025C0004001204600F004FD30B10320D7E735F884
:1025D000020BC0F30800E6E7202084F83D0000204D
:1025E000CDE70220CBE7000070B5044690F83D002F
:1025F000202830D169B362B394F83C0001282AD076
:10260000012084F83C002162A284E2840025256434
:10261000212084F83D00636B1048D863636B104839
:102620001864636B0F48D864606B134605652668B1
:10263000606B321DFEF7B8FE21686FF04000086045
:1026400084F83C502068416941F0800141610020DC
:1026500070BD012070BD022070BD00000B2D000870
:10266000392D00084D2C000870477047FEE7000028
:102670000D4C0E4D02264FF47A77207810B10128C8
:1026800007D00DE0686801F0FBFD686901F0F8FD16
:1026900005E0686801F080FD686901F07DFD267045
:1026A000384601F001FAE8E70400002008000020A5
:1026B0007FB500252548009501950295224903958F
:1026C000016001244FF480310461C0E901150476F2
:1026D00080F820501E49C0E90A150426C661C5606D
:1026E00080F830404461FEF7C1FB08B1FEF748FABC
:1026F000CDE900540325694614480295FEF762FAB5
:1027000008B1FEF73DFA0220CDE9004069460F48C6
:10271000FEF758FA08B1FEF733FA1020CDE90005AC
:1027200069460A48FEF74EFA08B1FEF729FA112069
:10273000CDE9000669460548FEF744FA002801D0B5
:10274000FEF71EFA7FBD00000020014018030020A4
:102750000100000F1D4808B5016841F480010160C7
:10276000016801F480010091016841F400110160E9
:102770000068002200F40010009005211020FFF7EF
:1027800071F81020FFF760F8002205211120FFF7F3
:1027900069F81120FFF758F8002205213820FFF7CB
:1027A00061F83820FFF750F8002205213A20FFF7A2
:1027B00059F83A20FFF748F8002205214620FFF794
:1027C00051F8BDE808404620FFF73EB830380240D7
:1027D00010B5224BA8B023AC0FCB84E80F0000212A
:1027E00023A801F06DF91E4C1C491C22A061103178
:1027F0006846FDF762FD0021684601F074F917494B
:1028000060601C222C3107A8FDF757FD002107A8A6
:1028100001F069F91149A0601C2248310EA8FDF7AA
:102820004CFD00210EA801F05EF90C49E0601C226D
:10283000643115A8FDF741FD002115A801F053F9F9
:10284000064920611C2280311CA8FDF736FD0021BD
:102850001CA801F048F9606128B010BD404800088C
:102860000800002070B586B014216846FDF73EFDD3
:102870001F480025016841F004010160016801F072
:1028800004010591016841F080010160016801F0D7
:1028900080010591016841F0010101600068154E59
:1028A00000F001004FF4005405900022214630460C
:1028B000FEF747FF00940124694630460194CDE9B4
:1028C0000245FEF7EDFD200200904FF44410CDE9E3
:1028D000010469460848FEF7E3FD002205211720A0
:1028E000FEF7C0FF1720FEF7AFFF06B070BD000077
:1028F0003038024000080240000002400C4810B589
:102900000A4901604FF4E1314160002181600C22ED
:10291000C160C0E904128161C161FFF7F3FC0028C6
:1029200003D0BDE81040FEF72BB910BD00100140E8
:10293000C00300200C4810B50A4901604FF4E13192
:102940004160002181600C22C160C0E904128161F4
:10295000C161FFF7D7FC002803D0BDE81040FEF7A7
:102960000FB910BD0044004004040020FEE7FEE75C
:10297000144C154E002500211448FEF703F9C4E954
:10298000080102460B46D4E90A01FDF7C8FCC4E978
:102990000A012268521C2260642A0ED100220C4BCC
:1029A000FDF7D6FDC4E9080102460B4609A000F078
:1029B00075FB00212560C4E90A110A20356001F089
:1029C00073F8D8E708000020380000200803002032
:1029D00000005940494E3020B5E7D1B9203D2025AF
:1029E0002E336620206D560A00000000064D4FF47D
:1029F00000544FF47A7621462846FEF79AFE304678
:102A000001F052F8F7E700000008024008B5164E42
:102A1000164C4FF4867700252088000420D51249F3
:102A200013A0FDF76EFC28B10F4913A0FDF769FC58
:102A300058B10DE013A000F031FB13A33A4614493E
:102A400000200096FEF744F802E012A000F026FBFA
:102A500020880549C0F30E021148FFF7C5FD258007
:102A6000642001F021F8D7E7C80500203C000020D1
:102A700041540D0A0000000041542B4F50454E0DAB
:102A80000A0000004F4B0A00CAD5B5BD25730A00E5
:102A90000E4900084F50454E204144430A000000B3
:102AA000C00300208EB0342207496846FDF705FCBC
:102AB0004FF47A74322269460448FFF795FD2046A8
:102AC00000F0F2FFF6E70000DC48000804040020F4
:102AD00010B5502080F31188BFF34F8FBFF36F8F75
:102AE00001F0AAFD18B104494FF0805008600020A1
:102AF00080F3118810BD000004ED00E030B591B006
:102B000030216846FDF7F2FB14210CA8FDF7EEFB1F
:102B100001200390022410200490009400250694C4
:102B20000D20CDE90750C320CDE9090404200B9006
:102B30006846FEF7E7FF08B172B6FEE70CA90F2062
:102B400081E831004FF4A0500F904FF48050109066
:102B500003210CA8FEF7B8FE002801D072B6FEE7EC
:102B600011B030BD704700000148FFF7D8B9000030
:102B700048060020F0B50268254C264D264E274F0A
:102B8000274B4FF0804CA04209D0604507D0A842A7
:102B900005D0B04203D0B84201D0984204D122F00F
:102BA000700E4A6842EA0E02A0421BD0604519D05E
:102BB000A84217D0B04215D0B84213D0984211D0D5
:102BC000184DA8420ED0184DA8420BD0174DA84260
:102BD00008D0174DA84205D0164DA84202D0164D78
:102BE000A84203D122F44075CA682A434D6922F0F5
:102BF00080022A4302608A68C2620A688262A04236
:102C000001D0984201D10969016301214161F0BD00
:102C1000000001400004004000080040000C00409B
:102C200000040140004001400044014000480140D0
:102C300000180040001C00400020004010B5806BD0
:102C40000021C185C184FFF754FA10BD70B5846BB3
:102C50002068406994F83D10C0F3C0100025212978
:102C600004D118B1E584204600F083F8206840695B
:102C700094F83E10C0F38010222904D118B1E585E4
:102C8000204600F05EF8206C40F0100020642046E2
:102C9000FFF72FFA70BD10B50146806B096809680F
:102CA000C9051BD40021C1850168CA6822F480725D
:102CB000CA6001684A6922F001024A6101684A69F2
:102CC00022F040024A61202180F83E10016B012968
:102CD00004D10168CA6822F01002CA60016B0129A0
:102CE00002D0FFF724FC10BD818DFFF7D5F910BD90
:102CF00010B5806B016B012902D0FFF719FC10BDE4
:102D0000818D4908FFF7C8F910BD10B50146806BE9
:102D100009680968C9050CD40021C18401684A69A1
:102D200022F080024A610068C16841F04001C16040
:102D300010BDFFF799FC10BD10B5806BFFF795FC37
:102D400010BD0168CA6822F49072CA6001684A69BD
:102D500022F001024A61016B012904D10168CA68AD
:102D600022F01002CA60202180F83E100021016389
:102D700070470168CA6822F0C002CA60202180F84A
:102D80003D10704708B590F83E10222901D002206E
:102D900008BD82684FF480539A4201D1016921B184
:102DA000816A9A421BD04AB10AE00268816A52687D
:102DB000C2F308020A80816A891C08E0026972B1C4
:102DC0000268526802F07F020A70816A491C8162BF
:102DD000C18D491E0904090CC18503D019E00268A0
:102DE0005268F1E70168CA6822F02002CA600168EF
:102DF000CA6822F48072CA6001684A6922F001023E
:102E00004A61202180F83E10016B012903D0FFF7B1
:102E10008EFB002008BD002101630168CA6822F012
:102E20001002CA6001680A68D20602D50A684968B9
:102E30000091818DFFF730F9EBE700002DE9F041BB
:102E4000044600680169E26821F4405111430161C0
:102E50002169A068E2690843616911432268084357
:102E6000D16849F20C6399430143D16020684169FC
:102E7000A26921F4407111434161374920688842B9
:102E800002D03649884202D1FEF7F4FD01E0FEF798
:102E9000D9FD0246E36964203221B3F5004F02EB0D
:102EA000C20303EB021362682BD09200B3FBF2F56E
:102EB000B5FBF0F5B3FBF2F66FF018077D4306EBB8
:102EC0008505B3FBF2F601EB0515B5FBF0F5B6FB96
:102ED000F0F605F0F00505EB0615B3FBF2F6B3FBD3
:102EE000F2F2B2FBF0F27A4306EB820201EB02113E
:102EF000B1FBF0F000F00F00216828448860BDE8C5
:102F0000F0815200B3FBF2F6B6FBF0F6B3FBF2F73A
:102F1000B3FBF2F56FF0180C06FB0CF607EB860618
:102F200001EBC606B5FBF0F5B6FBF0F62D0106F099
:102F3000F80605EB4605B3FBF2F6B3FBF2F2B2FB83
:102F4000F0F202FB0CF206EB820201EBC201B1FBD4
:102F5000F0F000F00700CFE700100140001401403E
:102F600038B5816282850025134604460564222017
:102F700084F83E00A26B1348D063A26B1248106421
:102F8000A26B1248D064A06B0A4605652168A06B4D
:102F9000091DFEF709FA206801684168009184F86C
:102FA0003C50C16841F48071C1602068416941F0C2
:102FB000010141612068416941F040014161002007
:102FC00038BD0000972C0008F12C00084D2C00089B
:102FD0002DE9F041984617460E460446069D1DE031
:102FE000681C1BD02DB1FEF7B1FBA0EB0800A84276
:102FF00014D92068C16821F4D071C160206841698A
:1030000021F001014161202084F83D0084F83E0058
:10301000002084F83C000320BDE8F08120680068AF
:1030200036EA000004D00020B842D9D00020F3E7EF
:103030000120F9E738B5124C20680168C943C90678
:1030400019D401680025406800902046FFF725F854
:10305000A06B00684068C0F180010A4801800A49FD
:1030600002888D54018841F4004101808022064984
:103070002046FFF747FABDE838400148FFF73AB865
:10308000C00300203C000020C80500200148FFF7D5
:1030900031B8000004040020FEE700000FB4054B27
:1030A00010B503A9044A029800F004F910BC5DF8B9
:1030B00014FB0000D1390008B00000207CB50C00E2
:1030C0001D461646014601D0601E00E00020CDE9F5
:1030D0000010064B6A462946304600F0EBF8002CFB
:1030E00002D0009A002111707CBD0000BB3900089D
:1030F0000907090E002804DB00F1E02080F8001425
:10310000704700F00F0000F1E02080F8141D7047B8
:1031100002E008C8121F08C1002AFAD170477047A0
:10312000002001E001C1121F002AFBD170470000FE
:103130002DE9FF5F82B00021DDE90430020DDDF8EA
:1031400040B0034318D044F61050A2F2FF3242437D
:103150001514119801281FD0A5EB0B00401C5FEA45
:10316000000A4FF000064E4FDFF83891B046504647
:1031700015D5CAF1000413E0119801244AA30128CF
:1031800001D16FEA0B010298119AC0E90031C0E940
:10319000024206B0BDE8F09FCBF10000DFE7044635
:1031A0000021404A491842EB0450CDE9001012E0DA
:1031B000E00707D032463B4640464946FDF756F900
:1031C0008046894632463B4610461946FDF74EF981
:1031D00006460F466410002CEAD1DDE90401DDE962
:1031E0000023BAF1000F06DAFDF740F942464B46DC
:1031F000FDF73CF905E0FDF7ABF942464B46FDF71C
:10320000A7F904460E460022284BFDF7D9FA03D849
:103210004FF0FF30014607E00022254B20463146A3
:10322000FDF77DF8FDF7B4FA102409E0002C0ADB65
:103230000A220023FDF710F8039B30321A55641E52
:1032400050EA0102F2D1641C039AC4F11103144440
:10325000119A012A03D0012208430DD10AE0084344
:1032600004D000204FF0110B119072E7A3EB0B0577
:103270006D1E0DE05B4504DD4FF0000205F1010518
:1032800004E003DA4FF00002A5F10105002AECD0BA
:1032900002981199C0E90231C0E9004579E70000C0
:1032A000000014400000F03F300000000000F04338
:1032B0000000E03F2DE9FF4F95B09A46884606464C
:1032C0000025EEE1252877D100242746F94A01217F
:1032D000039400E0044316F8013F203B01FA03F099
:1032E0001042F7D130782A2811D06FF02F033078B0
:1032F000A0F13002092A16D8039A44F0020402EB26
:10330000820203EB42021044761C0390EFE758F868
:10331000042B0392002A03DA504244F40054039031
:1033200044F00204761C30782E2816D116F8010FCE
:1033300044F004042A280DD06FF02F023078A0F159
:103340003003092B09D807EB870302EB4303C718A7
:10335000761CF3E758F8047B761C30786C280FD085
:1033600006DC4C2817D068280DD06A2814D104E058
:10337000742810D07A280FD10DE044F400140AE02C
:1033800044F4801401E044F440147278824202D183
:1033900004F58014761C761C307866280BD013DC7C
:1033A000582877D009DC002875D04528F6D0462863
:1033B000F4D047281AD193E118E0632835D0642867
:1033C00079D0652812D18BE1702873D008DC67288A
:1033D000F1D069286FD06E280DD06F2806D1ACE0EF
:1033E00073282CD0752874D0782853D0524617995A
:1033F00090476D1C54E1C4F30250022809D0032801
:103400000DD0D8F8001004280DD00D6008F1040884
:1034100046E1D8F80010EA17C1E90052F6E7D8F8FB
:1034200000100D80F2E70D70F0E718F8041B8DF81E
:10343000001000208DF80100EB46012003E058F851
:1034400004BB4FF0FF3061074FF0000102D40DE0E4
:1034500009F101018946B9420FDA8145F8DB1BF811
:1034600009100029F4D108E009F1010189468142DF
:10347000FADB1BF809100029F6D103985346A0EB9C
:10348000090721463846179A00F080FA284400EBD5
:10349000090507E044E008E10DE01BF8010B524686
:1034A00017999047B9F10109F7D25346214638469A
:1034B000179AF2E039E00A21C4F302524FF0000BF0
:1034C0000091022A06D058F8040BC117032A09D02C
:1034D0000AE023E008F1070020F00702F2E8020109
:1034E000904605E000B2C117042A01D140B2C117CD
:1034F000002906DA0A460021404261EB02012D2232
:1035000002E0220504D52B228DF80420012203E0DD
:10351000E20701D02022F7E7914657E00A2100E0B8
:1035200010214FF0000B00910BE010214FF0000B29
:1035300044F004040827009103E008204FF0000B3A
:103540000090C4F30252022A05D058F8040B00215F
:10355000032A08D008E008F1070020F00702F2E88B
:103560000201904603E080B2042A00D1C0B24FF0BD
:10357000000922072AD53278702A07D0DDF800C06A
:103580008CF0100C5CEA0B0C05D00EE040228DF89C
:103590000420012208E050EA010306D030238DF810
:1035A00004308DF8052002229146009B83F0080329
:1035B00053EA0B030AD150EA010201D1620705D593
:1035C00030228DF804204FF001097F1E3278582AEE
:1035D00004D039A20C920CAA02920BE03BA2F9E7AC
:1035E0005B46009AFCF738FE0C9B9B5C029A521ECD
:1035F0000292137050EA0102F2D1029804A9081A4B
:1036000000F1200B600702D524F4803400E001278C
:103610005F4502DDA7EB0B0000E0002000EB0B0193
:10362000009003984944401A0390E00306D453469F
:103630002146179A039800F0A9F90544002706E0EF
:1036400001A85246C05D179990476D1C7F1C4F45DD
:10365000F6DBE0030CD553462146179A039800F099
:1036600095F9054404E030205246179990476D1CA7
:103670000099481E00900029F5DC08E002980299A4
:1036800052460078491C0291179990476D1CBBF176
:103690000001ABF1010BF1DC5BE100F065F90544E1
:1036A000761C307800287FF40DAE19B02846BDE8AE
:1036B000F08F0000092801003031323334353637BD
:1036C000383961626364656600000000303132336E
:1036D000343536373839414243444546000000000E
:1036E000600700D4062708F1070020F00700F0E883
:1036F0000223804603F0004C5FEA0C0001D097A043
:1037000009E0200501D596A005E0E00701D095A0CD
:1037100001E0AFF24C001390307823F000436528AD
:103720000CD006DC452809D046281DD047287FD17B
:103730003BE0662818D067287AD136E00021112FA7
:1037400001DB112000E0781CCDE9000104A90CA8E0
:10375000FFF7EEFCDDE90D010C9A4FF0000B07F1CD
:103760000109109200914EE04FF000400097CDE922
:10377000011004A90CA8FFF7DBFCDDE90D020C9B8E
:103780000F994FF0000B91461093009211B9791CDC
:1037900000EB0109B7EB090003D4C0F1FF3B07F1CF
:1037A0000109A9EB0700019042E0012F00DA01278F
:1037B0000021112F01DD112000E03846CDE9000184
:1037C00004A90CA8FFF7B4FCDDE90D010C9A0091E7
:1037D0004FF0000BB946109221070FD4009A4A45CA
:1037E00003DA914601E0A9F10109B9F1010F05DD04
:1037F000109AA9F10101515C3029F4D0B84202DAE3
:1038000010F1040F03DA0121CDE9011010E00028C6
:1038100003DC8344A9EB000102E0411C494500DDC3
:103820008946A0EB0B00401C01904FF00040029035
:10383000200705D40198484502DB4FF0FF30019086
:1038400000208DF84B0002980DF14B07B0F1004FAE
:1038500025D002200C902B200D90029800280CDA25
:10386000404202902D200D9007E00A210298FCF7BB
:10387000EBFE3031029007F8011D0C99481E0C90A8
:103880000029F2DC02980028EFD1791E0D9808700B
:10389000307800F0200040F0450007F8020D11A834
:1038A000C01BC01D02901398007800B1012000EBEE
:1038B0000901019801EBE071029801440398401A54
:1038C000401E0390E00306D453462146179A0398FE
:1038D00000F05CF805441398007818B15246179927
:1038E00090476D1CE00323D553462146179A039851
:1038F00000F04CF805441BE0BBF1000F07DB00981B
:10390000584504DD1098179910F80B0001E017993D
:1039100030205246904701980BF1010B401E05F1F3
:103920000105019004D12E205246179990476D1C35
:10393000B9F10001A9F10109DEDC05E017F8010B7E
:103940005246179990476D1C0299481E0290002913
:10395000F4DC53462146179A03989EE62D0000009A
:103960002B000000200000002DE9F0410446002556
:103970001E461746880404D405E039462020B04787
:103980006D1C641EF9D52846BDE8F0812DE9F04193
:10399000044600251E469046C80301D5302700E0A6
:1039A0002027880404D505E041463846B0476D1C01
:1039B000641EF9D52846BDE8F0814A68002A06D081
:1039C0000A68531C0B6010704868401E48607047BE
:1039D00013B50223012269460248FEF7ABFD0098A9
:1039E0001CBD0000C003002008B5FDF7BDFEFFF7B9
:1039F00085F8FEF737FFFEF7ADFEFEF77FFFFEF717
:103A000057FEFEF797FF042219491A48FDF7AEFA50
:103A1000802219491948FEF775FD18480068C168E9
:103A200041F01001C160802213491548FEF76AFD7C
:103A300013480068C16841F01001C16003220021F1
:103A4000012000F005FD0F490FA3772208601149FE
:103A50000020FDF73DF8084800900FA378220D499B
:103A60000020FDF735F8FEF7B3FE00F024F8FEE77E
:103A70000803002018030020C8050020C003002010
:103A80000404002000000020B3F5CABCBBAFCDEA9F
:103A9000B3C9000038480008257300000146002023
:103AA000842900D0C81C704710B500B9012000F06F
:103AB0004DFB002010BD10B500F0ACFB002010BD88
:103AC00038B5D0E9011204683AB1C3682BB10020BF
:103AD0000090204600F0E0FC38BD2046BDE83840AC
:103AE000002200F0B5BC7FB50D4604464169B0F92F
:103AF000080081B1A16971B1FFF7D0FFD4E90512C7
:103B00008DE80700D4E900102B46226900F069FD1A
:103B1000039004B070BDFFF7C1FF03A9CDE9000118
:103B2000208A2B4682B2D4E9001000F02DFD012836
:103B300001D00020EDE70398EBE700002DE9F0410C
:103B4000184C0F46054666692068001D00F03AFAD9
:103B500038B9206890F82C1001208840A169814371
:103B6000A161681C07D137B12168BDE8F0410E485A
:103B7000091D00F06BBA20683544B54245602168E4
:103B800005D2A068BDE8F041091D00F047BA6068A1
:103B9000091D00F043FA206B854200D22563BDE881
:103BA000F0810000500000206C0700202DE9F0415A
:103BB000054600F057FA2E4C2069401C2061206811
:103BC0002C4F10B1E06940B32DE025602069012839
:103BD00029D1002606EB860007EB800000F010FAE2
:103BE000761C072EF6D323488C3000F009FA2148C2
:103BF000A03000F005FA1F48B43000F001FA1D486B
:103C0000C83000F0FDF91B48DC3000F0F9F9194824
:103C10008C3060601430A06005E02068E96AC06AFA
:103C2000884200D82560E06A401CE062E96A012011
:103C3000A26988401043A06101EB810007EB80007E
:103C4000291D00F003FA00F02DFAE06900280CD0DD
:103C50002068E96AC06A884207D207494FF080505D
:103C60000860BFF34F8FBFF36F8FBDE8F081000096
:103C7000500000209006002004ED00E010B504463E
:103C800090F8510058B101280CD002280FD05020D4
:103C900080F31188BFF34F8FBFF36F8FFEE7206B68
:103CA00000F014FA2046BDE8104000F00FBA10BD35
:103CB00010484FF47051420706D0C01D0D4920F046
:103CC0000700411AC1F570510B4A00230144C2E9B3
:103CD00000030839103A21F0070111604B600B60B6
:103CE0000B1AC0E9001393604FF000405360D0609E
:103CF00070470000800700209C000020144E154CE7
:103D0000A6F1C8074FF08058DFF84C9012E000BFD2
:103D100000F0A8F9F068C568281D00F053F9206983
:103D2000401E2061E068401EE06000F0BBF92846BC
:103D3000FFF7A4FFE0680028EAD138680128F9D924
:103D4000C9F80080BFF34F8FBFF36F8FF2E7000019
:103D5000580700205000002004ED00E003460098C2
:103D600029B10260C0E90F31012100F0C9BB006038
:103D7000F8E72DE9F0479A46DDE9098481466FF0BE
:103D80000303206B03EB82021044089D20F007061A
:103D9000700707D0502080F31188BFF34F8FBFF317
:103DA0006F8FFEE723180A5C83F834200A5C12B197
:103DB000401C1028F6D3002784F84370072D00D349
:103DC0000625E562C4E91157201D00F024F904F12D
:103DD000180000F020F92461C5F107006462A061B9
:103DE000E76484F8507052464946304600F0D8F8EF
:103DF0002060B8F1000F01D0C8F80040BDE8F0879E
:103E000030B5114900E011460A688242FBD34B6885
:103E10005C18844203D140681844486008464368EF
:103E20001C18944209D1084C103C2468A24209D0C5
:103E300052681A4442600A6812680260814200D0E7
:103E4000086030BD0460F9E79C0000200648416826
:103E5000096829B14168C968C96849680163704740
:103E60004FF0FF31FAE7000050000020084840689A
:103E7000401C4FF0500080F3118804D0BFF34F8FE7
:103E8000BFF36F8FFEE7BFF34F8FBFF36F8FFEE778
:103E9000A4000020002150B10A4B42699A420FD180
:103EA000806AA3F1280290420AD040B108E0502075
:103EB00080F31188BFF34F8FBFF36F8FFEE70121AF
:103EC000084670476C0700202DE9F04105460027A1
:103ED00000F034FA314E306808B9FFF7E9FEF068B7
:103EE00005424BD1C5B3083568070ED005F0070071
:103EF000C0F108000544680707D0502080F31188FE
:103F0000BFF34F8FBFF36F8FFEE72DB3706885420D
:103F100034D82248103001460C6801E020460C4697
:103F20006168A94202D221680029F7D131688C4228
:103F300024D007682168016060680837411B102998
:103F40000FD96019420708D0502080F31188BFF3C1
:103F50004F8FBFF36F8FFEE710E041606560FFF7A2
:103F60004FFF61687068401A7060B268904200D27A
:103F7000B060F06801430020C4E9000100F0FAFBE2
:103F8000780707D0502080F31188BFF34F8FBFF31D
:103F90006F8FFEE73846BDE8F08100008C000020FE
:103FA00010B5031F4FF080741C601B1F21F001012E
:103FB0001960191F024B0B60143940380A6010BD9C
:103FC0006D3E0008D0E9013201699A60D0E9012311
:103FD0005A604A68824201D182684A6000220261C6
:103FE0000868401E0860086870470000034B0360C3
:103FF00003F154000860802010607047B400002076
:1040000000F108014FF0FF32C0E90112C160016107
:1040100000210160704700210161704730B50B68D5
:104020005A1C02D000F1080202E0026904E02246B4
:10403000546825689D42FAD953684B6099608A603C
:10404000516008610168491C016030BD42684A60E6
:1040500093688B6093685960916008610168491C9E
:1040600001607047502080F31188BFF34F8FBFF37A
:104070006F8F0A494868401C486001280CD10848E5
:10408000006810F0FF0F07D0502080F31188BFF3B5
:104090004F8FBFF36F8FFEE770470000A400002032
:1040A00004ED00E00849486828B1401E486001D18D
:1040B00080F311887047502080F31188BFF34F8F31
:1040C000BFF36F8FFEE70000A400002070B500284A
:1040D00027D0144DA0F108046168E868014207D1B7
:1040E000502080F31188BFF34F8FBFF36F8FFEE72F
:1040F00022683AB1502080F31188BFF34F8FBFF38D
:104100006F8FFEE78143616000F018F960686968AD
:10411000084468602046FFF773FEBDE8704000F079
:1041200029BB70BD8C0000204FF0E0200021016110
:10413000816105494FF47A720968B1FBF2F1491EB9
:1041400041610721016170474C00002010B5020059
:1041500014D00F48806B38B1502080F31188BFF322
:104160004F8FBFF36F8FFEE700F0E8F80021104695
:10417000FFF7E4FC00F0FEFA002807D105494FF0F4
:1041800080500860BFF34F8FBFF36F8F10BD0000EA
:104190005000002004ED00E070B504002BD01A4D53
:1041A000286884422FD0FFF75DFF2046FFF772FE9C
:1041B000E8B1201DFFF706FFE06A0121AA698140EE
:1041C0001143A961114900EB800001EB8000211D22
:1041D000FFF73CFFE06A2968C96A884207D30C49A7
:1041E0004FF080500860BFF34F8FBFF36F8FBDE873
:1041F0007040FFF757BF502080F31188BFF34F8FF7
:10420000BFF36F8FFEE770BD5000002090060020C6
:1042100004ED00E010B586B00024039405AA04A9BB
:1042200003A80494FFF7E2FEDDE903010094CDE961
:10423000011000230EA11048059A00F0D2F90F4991
:104240000028486311D0502080F31188BFF34F8FAE
:10425000BFF36F8F4FF0FF3008630120C8614C61DE
:1042600006B0BDE8104000F09FB806B010BD0000D9
:1042700049444C4500000000FD3C0008500000206F
:1042800070B50446FFF7EEFE294D04B92C68201DD9
:10429000FFF798FE58B9E06A264A00EB800152F811
:1042A000211021B901218140A8698843A861A06A31
:1042B00018B104F11800FFF785FE1E48211DDC30FF
:1042C000FFF7C4FE94F850000026012801D184F8BD
:1042D0005060FFF7E7FEE86928B1FFF7C3FEFFF77C
:1042E000B5FDFFF7DFFE2868844213D1E86990B17D
:1042F000A86B38B1502080F31188BFF34F8FBFF304
:104300006F8FFEE70C494FF080500860BFF34F8F6E
:10431000BFF36F8F70BD0748DC30006829698842A1
:1043200001D12E6070BDBDE8704000F00FB80000F4
:10433000500000209006002004ED00E00248816B50
:10434000491C816370470000500000201448816BB5
:1043500011B1012141627047002141628169B1FAC6
:1043600081F1C1F11F0101EB81020E4951F82230A8
:104370006BB101EB820101F108034A6852684A609F
:104380009A4201D152684A60D1680160704750205A
:1043900080F31188BFF34F8FBFF36F8FFEE70000EC
:1043A00050000020900600201CB526490878019096
:1043B000FF20087008788DF800009DF800009DF837
:1043C000002000F0F000904207D0502080F31188C8
:1043D000BFF34F8FBFF36F8FFEE79DF800001A4BBE
:1043E00000F0500018700720986005E09DF800204C
:1043F00052008DF80020401E9DF800201206F5D4D2
:104400009860032807D0502080F31188BFF34F8FA6
:10441000BFF36F8FFEE74FF440709860019808700B
:104420000A48016841F470010160016841F070417F
:104430000160FFF779FE00205860FBF7C1FE002005
:104440001CBD000000E400E0A400002020ED00E01E
:10445000F8B517460E46050014D0DEB105FB06F090
:104460004830FFF731FD04000AD0002084F84600F0
:1044700004F148023B46314628460094FFF76EFCA3
:104480002046F8BD502080F31188BFF34F8FBFF353
:104490006F8FFEE70020E3E738B5049D18B153B1F4
:1044A000CAB181B120E0502080F31188BFF34F8F53
:1044B000BFF36F8FFEE7502080F31188BFF34F8F5B
:1044C000BFF36F8FFEE7502080F31188BFF34F8F4B
:1044D000BFF36F8FFEE739B1502080F31188BFF32F
:1044E0004F8FBFF36F8FFEE748241C46012384F8EB
:1044F00046302B460094FFF731FC204638BD0000C3
:1045000070B50D46040025D0FFF7ACFDD4E90F20AF
:10451000216802FB001161600021A1632168A16094
:104520000A46D4E90F01401E00FB0121E16021464B
:104530004FF0FF3001F8440F487004F110008DB1C6
:10454000FFF75EFD04F12400FFF75AFDFFF7AAFD17
:10455000012070BD502080F31188BFF34F8FBFF34F
:104560006F8FFEE721690029F0D000F0C9F800281C
:10457000ECD004494FF080500860BFF34F8FBFF379
:104580006F8FE3E704ED00E02DE9FF5F8346DDE98F
:104590000E87994616468A469000FFF795FC05005F
:1045A0001CD05420FFF790FC040014D00020256399
:1045B00084F85100CDE90240CDE900874B463246F0
:1045C00051465846FFF7D5FB2046FFF7EFFA01208A
:1045D00004B0BDE8F09F2846FFF778FD4FF0FF30AC
:1045E000F6E7F0B585B0DDE90B640A9DA6B1DCB154
:1045F000542700972663022684F85160002604AFF2
:10460000CDE90246CDE90057FFF7B3FB2046FFF79F
:10461000CDFA049805B0F0BD502080F31188BFF3A7
:104620004F8FBFF36F8FFEE7502080F31188BFF3E9
:104630004F8FBFF36F8FFEE72DE9F0412E4C00271F
:10464000A06B40B1206A401C2062606A00B1012763
:104650003846BDE8F0816669761C666113D16068F2
:10466000006838B1502080F31188BFF34F8FBFF33B
:104670006F8FFEE76068A1686160A060A06A401C5F
:10468000A062FFF7E3FB206BDFF87080864209D35E
:104690006068006880B16068C068C5686868864204
:1046A0000DD220632068C06A00EB800158F8210019
:1046B0000128CAD90127C8E74FF0FF30F1E7281DCC
:1046C000FFF780FCA86A18B105F11800FFF77AFC23
:1046D000E86A0121A26981401143A16100EB8001D8
:1046E00008EB8100291DFFF7B1FCE86A2168C96A5F
:1046F0008842CDD30127CBE7500000209006002050
:104700002DE9F041C068C468ACB104F11800074657
:10471000FFF758FC154DA86B0126A0B13946144887
:10472000FFF794FCE06A2968C96A88421CD9012015
:104730006E62BDE8F081502080F31188BFF34F8F87
:10474000BFF36F8FFEE7201DFFF73CFCE16AAA690B
:1047500006FA01F01043A86101EB81000449B43965
:1047600001EB8000211DDBE70020E2E75000002084
:10477000440700202DE9F0472C4D00242746A86B64
:1047800038B1FFF76FFCA86B401EA863A86B40B15F
:1047900046E0502080F31188BFF34F8FBFF36F8F37
:1047A000FEE72969224E0120D1B3A6F1B409804663
:1047B0003068E8B1F068C46804F11800FFF702FC43
:1047C000201DFFF7FFFBE06AAA6908FA00F1114318
:1047D000A96100EB800109EB8100211DFFF736FC88
:1047E000E06A2968C96A8842E2D3C5F82480DFE715
:1047F0000CB1FFF72BFB2C6A44B14646FFF71CFFB8
:1048000000B16E62641EF9D100202862686A38B176
:104810000849012738070860BFF34F8FBFF36F8F38
:10482000FFF740FC3846BDE8F0870000500000204C
:104830004407002004ED00E06D61696E0000000097
:104840001000000002000000000000000000000056
:104850004C490008ED290008FEFF000000000000A0
:104860008000000000000000000000005449000823
:10487000A52A0008000000000000000080000000E1
:1048800000000000000000007449000871260008C4
:104890000100000000000000800000000000000097
:1048A00000000000644900080D2A00080200000012
:1048B0000000000080000000000000000000000078
:1048C00044490008712900080000000000000000B1
:1048D00080000000000000000000000041542B5543
:1048E000504441544554494D453D312C74696D65E2
:1048F0002E77696E646F77732E636F6D2C31302C59
:10490000224538222C300D0A0000000000005374AC
:10491000617274556172745265636569766554613C
:10492000736B000006101600061016000000000051
:10493000000000010203040607080900000000014E
:104940000203040047657441444300004C4544544D
:1049500061736B005561727453656E645461736B5F
:104960000000000055617274526563656976655494
:1049700061736B004B65795461736B009C4900084F
:1049800000000020B400000010310008504A000868
:10499000B4000020CC4600002031000800000000D8
:1049A0000200000000000000000000000000000005
:1049B00000000000000000000000000000000000F7
:1049C00000000000000000000000000000000000E7
:1049D00000000000000000000000000001000000D6
:1049E00010000000000000000024F400000000009F
:1049F00000000000000000000000000000000000B7
:104A000000000000000000000000000000000000A6
:104A10000000000000000000000000000000000096
:104A20000000000000000000000000000000000086
:104A30000000000000000000000000000000000076
:104A400000000000AAAAAAAA0000000000000000BE
:040000050800018569
:00000001FF
