:020000040800F2
:10000000A046002035020008DF160008F71500089A
:10001000DD160008DF0700083D1A00080000000098
:100020000000000000000000000000009D0100082A
:10003000E107000800000000E1010008491700087E
:100040004F0200084F0200084F0200084F0200084C
:100050004F0200084F0200084F0200084F0200083C
:100060004F0200084F0200084F0200084F0200082C
:100070004F0200084F0200084F0200084F0200081C
:100080004F0200084F0200084F0200084F0200080C
:100090004F0200084F0200084F0200084F020008FC
:1000A0004F020008E11700084F0200084F02000845
:1000B0004F0200084F0200084F0200084F020008DC
:1000C0004F0200084F0200084F0200084F020008CC
:1000D0004F0200084F0200084F0200084F020008BC
:1000E0004F0200084F0200084F0200084F020008AC
:1000F0004F0200084F0200084F0200084F0200089C
:100100004F0200084F0200084F0200084F0200088B
:100110004F0200084F0200084F0200084F0200087B
:100120004F0200084F0200084F0200084F0200086B
:100130004F02000800000000000000004F0200080D
:100140004F0200084F0200084F0200084F0200084B
:100150004F0200084F0200084F0200084F0200083B
:100160004F0200084F0200084F0200084F0200082B
:100170004F0200084F0200080000000000000000CD
:100180004F020008DFF810D000F0A8FA004800473E
:100190008D230008AFF30080A0460020224B196891
:1001A0000868B0E8F00F80F30988BFF36F8F4FF055
:1001B000000080F311884EF00D0E70470000000023
:1001C00006480068006880F3088862B661B6BFF32D
:1001D0004F8FBFF36F8F00DF00BF00BF08ED00E05F
:1001E000EFF30980BFF36F8F0F4B1A6820E9F00F10
:1001F000106008B54FF0500080F31188BFF34F8FA7
:10020000BFF36F8F02F054FC4FF0000080F31188B1
:10021000BDE8084019680868B0E8F00F80F3098865
:10022000BFF36F8F704700BF18000020EFF3058009
:10023000704700000648804706480047FEE7FEE793
:10024000FEE7FEE7FEE7FEE7FEE7FEE7FEE7FEE786
:10025000DD170008850100082DE9F05F0546002044
:1002600092469B4688460646814640241BE0284627
:1002700041464746224600F069F853465A46C01A9E
:10028000914110D311461846224600F050F82D1A1D
:1002900067EB01084F4622460120002100F047F895
:1002A00017EB00094E41201EA4F10104DFDC484693
:1002B00031462A464346BDE8F09F40EA01039B07CA
:1002C00003D009E008C9121F08C0042AFAD203E0CB
:1002D00011F8013B00F8013B521EF9D27047D2B22F
:1002E00001E000F8012B491EFBD270470022F6E71F
:1002F00010B513460A4604461946FFF7F0FF20469C
:1003000010BD30B50B46014600202022012409E033
:1003100021FA02F59D4205D303FA02F5491B04FABE
:1003200002F52844151EA2F10102F1DC30BD202A9D
:1003300004DB203A00FA02F1002070479140C2F13C
:10034000200320FA03F3194390407047202A04DB6E
:10035000203A21FA02F00021704721FA02F3D0403E
:10036000C2F1200291400843194670472DE9FE4F23
:10037000804681EA0300C00F0C46009021F0004146
:1003800023F00045B8EB0200A94105D240462146C2
:1003900090461C460B46024623F00040104347D0CF
:1003A000270DC7F30A00C3F30A510290401A0190C7
:1003B00040286BDAC3F3130040F4801B0098924688
:1003C00020B10023D2EB030A63EB0B0B01985946D3
:1003D000C0F140025046FFF7AAFF06460D465046C0
:1003E0005946019A00F08CF910EB08006141002495
:1003F00087EA115284EAE7731A4340D0009A62B345
:10040000019A012A4FEA075215DC001B61EB020139
:100410004FF0004202EA0752CDE90042001C41F5CC
:10042000801132462B4600F08CF903B0BDE8F08F06
:1004300040462146F9E7001B61EB0201001C41F533
:10044000801300185B412018A2F5001747EB030149
:1004500040EAD570B6196D4111E06D084FEA3606D5
:1004600045EAC0754FEA0752001B61EB0201001C10
:1004700041F5801149084FEA3000001951413246D8
:100480002B4603B0BDE8F04F00F04CB900980122B4
:1004900040000023D0EB020263EBE073009821469A
:1004A0004FEAE074B8EB000061EB0401E9E783F088
:1004B00000435BE781F0004158E72DE9FE4F81EAF8
:1004C000030404F0004421F0004100944FF0000BBD
:1004D00023F0004350EA01045ED052EA03045BD0EB
:1004E000C3F30A54C1F30A552C44A4F2F334019423
:1004F000A0FB0254C1F3130141F48011C3F31303B1
:1005000043F4801301FB024400FB034E840A970A64
:1005100044EA815447EA8357A4FB076802958D0A91
:1005200005FB07854FEA932C04FB0C542705029D1D
:100530004FEA065847EA1637B5EB08056EEB070C8D
:10054000870E920E47EA811742EA8312A7FB020147
:10055000B6EB0B0164EB00042B0D43EA0C335E1881
:1005600044EB1C50DA465146E7FB0201C5F3130485
:100570004FEA0B3343EA14534FEA0432019C43EA37
:100580000603A4F10C040294009CCDE900B400F031
:10059000D8F803B0BDE8F08F00200146F9E72DE957
:1005A000F04D81EA030404F0004B21F000451446AD
:1005B0004FF0000A23F0004150EA050220D054EA2F
:1005C00001021DD0C5F30A570246C5F31303C1F358
:1005D0001300C1F30A5640F4801543F48013A7EBCF
:1005E0000608101BD64608F2FD3873EB050002D34F
:1005F00008F1010801E092185B41B8F1000F03DA3D
:1006000000200146BDE8F08D00204FF48011064621
:1006100084460EE0171B73EB050705D3121B63EB33
:10062000050306434CEA010C49084FEA30009218D2
:100630005B4150EA0107EDD152EA030012D082EA91
:10064000040083EA0501084305D0101BAB4106D224
:100650000122002306E000224FF0004302E06FF089
:10066000010253101AEB06004CEB085110EB0A0084
:1006700041EB0B01BDE8F04D00F054B8C1F30A5254
:10068000C1F3130140F2FF3341F480119A4202DAC0
:1006900000200146704740F233439A42A2F23342AF
:1006A00002DC5242FFF752BEFFF741BE30B5041ED6
:1006B00071F1000404DB4FF00044404264EB01019F
:1006C000141E73F1000405DB1C464FF00043524238
:1006D00063EB0403994208BF904230BD064C074DBE
:1006E00006E0E06840F0010394E807009847103402
:1006F000AC42F6D3FFF74AFD682E0008882E0008AA
:10070000202A06DBCB17203A41FA02F043EAE073D5
:1007100006E041FA02F3D040C2F1200291400843C2
:100720001946704710B5141E73F1000408DA401C16
:1007300041F1000192185B411A4301D120F0010000
:1007400010BD2DE9F04D92469B4611B1B1FA81F2F0
:1007500002E0B0FA80F220329046FFF7E8FD04464E
:100760000F4640EA0A0041EA0B0153465A46084345
:1007700013D0114653EA010019D0C8F14002504687
:10078000FFF7E4FD05460E46504659464246FFF740
:10079000CEFD084305D0012004E020463946BDE8DF
:1007A000F08D0020054346EAE0762C4337430A9853
:1007B0006305E40AA0EB08000022FD0A44EA47545E
:1007C0000A3002D500200146E9E701051019694108
:1007D000DDE9084500196941BDE8F04DA2E7FEE7F3
:1007E000704700000FB4F0B58FB00E4607461546AF
:1007F00018AC342101A8FFF779FD2346322101A866
:10080000179A01F02DF9002F0ADB384600F018F88E
:10081000014601A800902B46324603A001F010F9D2
:100820000FB0F0BC5DF814FB5B252D35735D205BCC
:10083000252D3130732534645D202573200D0A0089
:1008400038B1012807D0022807D0032807D005A017
:10085000704706A0704707A0704708A0704709A01E
:1008600070470000554E4C4E4F57000044454255CE
:1008700047000000494E464F000000005741524ECD
:10088000000000004552524F5200000072B6FEE7D1
:100890002DE9F04FDFF85092002309F1040A0126F8
:1008A00003250AF1040B85B00F270BF1040E12E1AA
:1008B000224606FA03F422407ED091F804C00CF0E0
:1008C000030CBCF1010F02D0BCF1020F26D1D0F80D
:1008D0000880CDF800804FEA430805FA08FCCDF8FF
:1008E0001080DDF8008028EA0C08CDF80080D1F8EF
:1008F0000CC0DDF810800CFA08FCDDF800804CEA32
:10090000080CC0F808C0D0F804C02CEA040C0C791C
:10091000C4F300149C4044EA0C0444600C79E443A2
:10092000A40712D0C4684FEA430CCDF808C005FAFA
:100930000CFC24EA0C04D1F80880DDF808C008FAA1
:100940000CF848EA0408C0F80C800C7904F00304A1
:10095000022C16D1DC0800EB840CCDF808C0DCF8C2
:1009600020C05C074FEAD46807FA08F42CEA040CAC
:100970000C6904FA08F444EA0C04DDF808C0CCF869
:10098000204004684FEA430805FA08FC24EA0C04F6
:1009900091F804C00CF0030C0CFA08FC4CEA040CAF
:1009A000C0F800C04C6814F4403F05D04F4CD4F858
:1009B00000C04CF4804C00E08CE0C4F800C0246817
:1009C00023F0030C04F480440094494C64440294E2
:1009D000D4F808484FEA837C4FEA1C7807FA08FCF1
:1009E00024EA0C04DFF80CC1604502D14FF0000C82
:1009F00039E0DFF804C1604502D14FF0010C32E06C
:100A0000DFF8F8C0604502D14FF0020C2BE0DFF8B0
:100A1000F0C0604502D14FF0030C24E0DFF8E4C0E1
:100A2000604502D14FF0040C1DE0DFF8DCC06045EA
:100A300002D14FF0050C16E0DFF8D0C0604502D1BE
:100A40004FF0060C0FE0DFF8C8C0604502D14FF050
:100A5000070C08E0DFF8BCC0604502D14FF0080C7D
:100A600001E04FF0090C0CFA08FC4CEA040C029C63
:100A7000C4F808C8D9F80040CC46D1F804809443A3
:100A80005FEAC83800D51443CCF80040DAF80040DB
:100A9000D446D1F8048094435FEA883800D51443E3
:100AA000CCF80040DBF80040DC46D1F804809443E9
:100AB0005FEAC82800D51443CCF80040DEF80040B7
:100AC000F446D1F8048094435FEA882800D51443A3
:100AD000CCF800405B1C0A681446DA407FF4E8AEAC
:100AE00005B0BDE8F08F0000003C014044380240F2
:100AF00000300140000002400004024000080240B3
:100B0000000C024000100240001402400018024095
:100B1000001C0240002002400AB1816170470904B4
:100B2000FBE70000014880687047000008000020D3
:100B300002488168027811448160704708000020F3
:100B40000B4810B5016841F400710160016841F47F
:100B500080610160016841F480710160032000F050
:100B60008DF8002000F006F800F03EF8002010BDDF
:100B7000003C024010B5014688B00022192000F068
:100B80005DF8192000F04CF813480024016841F08A
:100B900001010160006805A900F0010006906846A7
:100BA00000F01CF900F052F90C494000B0FBF1F1E3
:100BB0000C480B4A491E026040F2E732C0E90324A8
:100BC000C0E9011400F028FB10B1012008B010BDED
:100BD000044800F04FFBF9E74438024040420F0060
:100BE00000000140680500200C4882B0016841F413
:100BF00080410160006800F4804000900748001FB9
:100C0000016841F0805101600068002200F08050CE
:100C100000900F21901E02B000F010B8443802403E
:100C2000002809DB00F01F020121914040098000EB
:100C300000F1E020C0F8001170470000F0B40E4B46
:100C40001B680C46C3F30223C3F10705042D00D92A
:100C50000425191D072901D2002300E0DB1E01260F
:100C600006FA05F1491E214099409E40761E164025
:100C70003143F0BC00F00EBF0CED00E0064900F07F
:100C8000070208684FF6FF03184040EA0220034AB3
:100C900010430860704700000CED00E00000FA050A
:100CA0002DE9F0470E46050063D0DFF81C81D8F827
:100CB0000000F7B200F00F00B04207D288F80070D1
:100CC000D8F8000000F00F00B04252D128683F4C25
:100CD000810712D5400703D5206840F4E05020601A
:100CE0002878000703D5206840F460402060206821
:100CF000A96820F0F000084320602878C0072BD0B6
:100D0000324968680839012810D00968022810D0D3
:100D1000890700292DDA216821F0030101432160B0
:100D2000FFF700FF814641F2883A0EE00968890327
:100D3000EFE78901EDE700BFFFF7F4FEA0EB090143
:100D4000514502D90320BDE8F0872068696800F0AA
:100D50000C00B0EB810FEFD1D8F80010404601F045
:100D60000F01B14207D90770006800F00F00B042D0
:100D700001D00120E7E72878400705D52068E96819
:100D800020F4E050084320602878000706D520684A
:100D9000296920F4604040EAC100206000F06EF84C
:100DA0002168F02292FAA2F201F0F001B2FA82F286
:100DB000D140074A515CC8400649086006480068AF
:100DC000FFF7D8FE0020BEE7003C02400838024092
:100DD000362E0008140000200C0000200F220260B4
:100DE0000C4A136803F003034360136803F0F00335
:100DF0008360136803F4E053C36012684FF4E05358
:100E000003EAD20202610448006800F00F000860A3
:100E10007047000008380240003C02400848094979
:100E2000006809684FF4E05292FAA2F201F4E0512E
:100E3000B2FA82F2D140044A515CC84070470000C7
:100E40001400002008380240462E000808480949CE
:100E5000006809684FF4604292FAA2F201F460411E
:100E6000B2FA82F2D140044A515CC8407047000097
:100E70001400002008380240462E0008154810B51E
:100E8000006810F00C02144813D04110042A0FD04F
:100E9000082A0ED10F4C241F2268236802F03F025B
:100EA0005B0207D52068C0F38810A0FB010106E0B3
:100EB000084610BD2168C1F38811A1FB0001002381
:100EC000FFF7CAF92168C1F30141491C4900B0FB91
:100ED000F1F010BD083802400024F4002DE9F84F6D
:100EE00004007BD0DFF814B32078ABF10406C00710
:100EF000A6F1040536D0DBF800105846C1F3810195
:100F0000012907D00068C0F38100022809D13068A8
:100F1000400206D52868800324D560680028E0D008
:100F200020E0B6492079891F0870606868B1FFF732
:100F3000F9FD074605E000BFFFF7F4FDC01B64287C
:100F400076D828688003F7D50CE0FFF7EBFD07465D
:100F500005E000BFFFF7E6FDC01B6428F0D8286855
:100F60008003F7D42078DFF8988280074FF00009DB
:100F700044D5DBF80010584611F00C0F4FF0F80A7A
:100F800007D00068C0F38100022809D13068400210
:100F900006D42868800715D5E06801281ED111E025
:100FA000E068E0B10120C8F80000FFF7BBFD07468C
:100FB00005E000BFFFF7B6FDC01B0228C0D82868B7
:100FC0008007F7D528689AFAAAF22169B2FA82F264
:100FD00020F0F8009140084328600FE00AE1C8F8CB
:100FE0000090FFF79FFD074605E000BFFFF79AFD61
:100FF000C01B02281CD828688007F7D42078000777
:1010000027D5DFF8F8A17F4861690AF16C0A81B140
:1010100001210160FFF786FD074604E0FFF782FD2E
:10102000C01B022804D8DAF800008007F6D510E0CB
:1010300082E0C0F80090FFF775FD074605E000BFAD
:10104000FFF770FDC01B022876D8DAF80000800791
:10105000F6D4207840075FD5DFF8A0A100270AF179
:10106000380ADAF80000C0000BD4DAF8001041F0BA
:101070008051CAF80010DAF80000012700F0805013
:1010800000906148016841F4807101600168C90500
:1010900012D4016841F480710160FFF743FD0090B4
:1010A00006E000BFFFF73EFD0099401A02287ED8F7
:1010B00055480068C005F5D55049207A6831087058
:1010C000A06888B1FFF72EFD009007E0FFF72AFD2A
:1010D0000099411A41F28830814268D84748683007
:1010E00000688007F2D510E0FFF71CFD009007E0D4
:1010F000FFF718FD0099411A41F28830814256D815
:101100003E48683000688007F2D42FB1DAF800104A
:1011100021F08051CAF80010A069B8B3DBF80010C4
:10112000C1F38101022949D00228C8F8609004D097
:10113000FFF7F8FC04463DE039E0FFF7F3FC074613
:1011400005E000BFFFF7EEFCC01B64282FD828681D
:101150008001F7D4D4E907010843616A94F82C2090
:10116000890141EA02610843A16A284A490802EB61
:10117000014108433168264A11400843306001208C
:10118000C8F86000FFF7CEFC044606E034E000BF7C
:10119000FFF7C8FC001B642809D828688001F7D530
:1011A0002AE000BFFFF7BEFC001B642802D9032021
:1011B000BDE8F88F28688001F4D41DE00128F7D03D
:1011C0003068E26900F48001914213D1226A00F094
:1011D0003F0191420ED1616AC0F38812914209D158
:1011E000A26A00F44031914204D1E16A00F07060DB
:1011F000884201D00120DBE70020D9E7083802400F
:1012000000004742800E4742007000400000FFFF90
:101210000080BCF07047704710B5040003D094F80C
:101220003D0010B107E0012010BD002084F83C0013
:10123000204600F01EF8022084F83D00211D2068A1
:1012400000F0D4FA012084F8460084F83E0084F8C7
:101250003F0084F8400084F8410084F8420084F89C
:10126000430084F8440084F8450084F83D000020E1
:1012700010BD704790F83D10012901D00120704742
:10128000022180F83D100168CA6842F00102CA607C
:1012900000681149884214D0B0F1804F11D00F4935
:1012A00088420ED00E4988420BD00E49884208D0A1
:1012B0000D49884205D00D49884202D00C49884228
:1012C00004D1816801F00701062903D0016841F0CB
:1012D000010101600020704700000140000400404F
:1012E00000080040000C00400004014000400140A4
:1012F00000180040704770B50446006801694FF05F
:101300000005C943890715D4C168C943890711D4A9
:10131000E91E01610120207720688069800720464E
:1013200002D0FFF7E7FF04E000F098F8204600F055
:1013300096F8257720680169C943490717D4C16821
:10134000C943490713D46FF00401016102202077DB
:101350002068806910F4407F204602D0FFF7CAFF62
:1013600004E000F07BF8204600F079F8257720684B
:101370000169C943090716D4C168C943090712D4D2
:101380006FF008010161042020772068C0698007A0
:10139000204602D0FFF7AEFF04E000F05FF82046E1
:1013A00000F05DF8257720680169C943C90617D4A4
:1013B000C168C943C90613D46FF010010161082048
:1013C00020772068C06910F4407F204602D0FFF7E4
:1013D00091FF04E000F042F8204600F040F8257745
:1013E00020680169C943C90708D1C168C943C90751
:1013F00004D1891E0161204600F032F8206801699D
:10140000C943090609D4C168C943090605D46FF068
:10141000800101612046FFF7FDFE20680169C94394
:10142000490609D4C168C943490605D46FF0400193
:101430000161204600F01EF820680169C943890651
:101440000BD4C168C943890607D46FF0200101613C
:101450002046BDE87040FFF7DEBE70BD70477047A4
:1014600000680349884201D1FFF762BB7047000062
:1014700000000140704770B5040004D094F83D00AE
:10148000002510B106E0012070BD84F83C502046D4
:1014900000F022F8242084F83D002068C16821F47F
:1014A0000051C160204600F005FA2068016921F46E
:1014B000904101612068416921F02A014161206861
:1014C000C16841F40051C1602564202084F83D00CA
:1014D00084F83E00002070BD10B586B0044614218B
:1014E0006846FEF703FF14492068884221D113485B
:1014F0000021026842F010020260006800F0100053
:1015000005900E481438026842F00102026000683B
:1015100000F0010005904FF4C06000900220CDE97A
:101520000101032003900720049069460448FFF757
:10153000AFF906B010BD0000001001404438024071
:10154000000002402DE9F843044690F83D001F4694
:1015500016460D4620284CD1C5B1BEB194F83C00CA
:10156000012846D0012084F83C004FF00008C4F860
:101570004080212084F83D00FFF7D4FAA6848146FC
:10158000E684A068B0F5805F03D004E00120BDE8E8
:10159000F883206928B12E465FF0000584F83C806E
:1015A0000EE00026FAE78021204600F015FAA0B9E7
:1015B000AEB116F8010B21684860E08C401EE08453
:1015C000E08C4B464FF0000200970028EBD14FF023
:1015D0004001204600F000FA30B10320D7E735F88B
:1015E000020BC0F30800E6E7202084F83D0000204D
:1015F000CDE70220CBE7FEE710B58EB01C220B49E9
:101600006846FEF75AFE0021684600F0DEFE084CF0
:1016100006491C2220601C3107A8FEF74EFE00215F
:1016200007A800F0D2FE60600EB010BDF02D0008DB
:101630000000002070B586B014216846FEF756FE03
:1016400016480025016841F004010160016801F0BD
:1016500004010591016841F080010160016801F019
:1016600080010591016841F00101016000680C4EA4
:1016700000F001004FF4005405900022214630464E
:10168000FFF74AFA0121CDE90041CDE9021569468B
:101690003046FFF7FDF806B070BD0000303802405C
:1016A000000802400C4810B50A4901604FF4E131CE
:1016B0004160002181600C22C160C0E90412816197
:1016C000C161FFF7D8FE002803D0BDE81040FFF746
:1016D000DDB810BD0010014024050020FEE7FEE744
:1016E000094C4FF40055002229462046FFF714FA12
:1016F000642000F05EFE012229462046FFF70CFA26
:10170000642000F056FEEEE7000802404FF47A74C1
:1017100006A000F095F909A3A0220A490120FFF7CD
:1017200061F8204600F045FEF2E700005561727452
:101730005461736B2020200D0000000074657374E9
:1017400000000000282E000810B5502080F31188FA
:10175000BFF34F8FBFF36F8F01F084FA18B10449C4
:101760004FF080500860002080F3118810BD000009
:1017700004ED00E030B591B030216846FEF7B6FDCB
:1017800014210CA8FEF7B2FD0120039002241020C2
:1017900004900094002506940D20CDE90750C32045
:1017A000CDE9090404200B906846FFF797FB08B1C8
:1017B00072B6FEE70CA90F2081E831004FF4A0506B
:1017C0000F904FF48050109003210CA8FFF768FA97
:1017D000002801D072B6FEE711B030BD704700009E
:1017E0000148FFF788BD000068050020F0B50268D9
:1017F000254C264D264E274F274B4FF0804CA042BC
:1018000009D0604507D0A84205D0B04203D0B84205
:1018100001D0984204D122F0700E4A6842EA0E02CA
:10182000A0421BD0604519D0A84217D0B04215D0B5
:10183000B84213D0984211D0184DA8420ED0184D7E
:10184000A8420BD0174DA84208D0174DA84205D08A
:10185000164DA84202D0164DA84203D122F440757D
:10186000CA682A434D6922F080022A4302608A68CE
:10187000C2620A688262A04201D0984201D109691D
:10188000016301214161F0BD0000014000040040FE
:1018900000080040000C00400004014000400140EE
:1018A000004401400048014000180040001C004076
:1018B000002000402DE9F041044600680169E2681B
:1018C00021F44051114301612169A068E269084394
:1018D0006169114322680843D16849F20C63994356
:1018E0000143D16020684169A26921F4407111432C
:1018F000416137492068884202D03649884202D186
:10190000FFF7A4FA01E0FFF789FA0246E3696420D1
:101910003221B3F5004F02EBC20303EB02136268FE
:101920002BD09200B3FBF2F5B5FBF0F5B3FBF2F66A
:101930006FF018077D4306EB8505B3FBF2F601EB6C
:101940000515B5FBF0F5B6FBF0F605F0F00505EB77
:101950000615B3FBF2F6B3FBF2F2B2FBF0F27A43F8
:1019600006EB820201EB0211B1FBF0F000F00F0078
:10197000216828448860BDE8F0815200B3FBF2F68C
:10198000B6FBF0F6B3FBF2F7B3FBF2F56FF0180C11
:1019900006FB0CF607EB860601EBC606B5FBF0F579
:1019A000B6FBF0F62D0106F0F80605EB4605B3FB95
:1019B000F2F6B3FBF2F2B2FBF0F202FB0CF206EB32
:1019C000820201EBC201B1FBF0F000F00700CFE7AB
:1019D00000100140001401402DE9F04198461746DF
:1019E0000E460446069D1DE0681C1BD02DB1FFF776
:1019F00099F8A0EB0800A84214D92068C16821F426
:101A0000D071C1602068416921F00101416120204D
:101A100084F83D0084F83E00002084F83C00032058
:101A2000BDE8F0812068006836EA000004D000209C
:101A3000B842D9D00020F3E70120F9E7FEE7000023
:101A40000FB4054B10B503A9044A029800F004F93D
:101A500010BC5DF814FB000075230008780000201E
:101A60007CB50C001D461646014601D0601E00E004
:101A70000020CDE90010064B6A462946304600F0AA
:101A8000EBF8002C02D0009A002111707CBD000000
:101A90005F2300080907090E002804DB00F1E0209D
:101AA00080F80014704700F00F0000F1E02080F88B
:101AB000141D704702E008C8121F08C1002AFAD19D
:101AC00070477047002001E001C1121F002AFBD1BE
:101AD000704700002DE9FF5F82B00021DDE904308E
:101AE000020DDDF840B0034318D044F61050A2F2C6
:101AF000FF3242431514119801281FD0A5EB0B00AB
:101B0000401C5FEA000A4FF000064E4FDFF83891A4
:101B1000B046504615D5CAF1000413E011980124CF
:101B20004AA3012801D16FEA0B010298119AC0E97A
:101B30000031C0E9024206B0BDE8F09FCBF10000E1
:101B4000DFE704460021404A491842EB0450CDE942
:101B5000001012E0E00707D032463B4640464946B7
:101B6000FEF7ABFC8046894632463B461046194696
:101B7000FEF7A3FC06460F466410002CEAD1DDE90F
:101B80000401DDE90023BAF1000F06DAFEF795FC47
:101B900042464B46FEF791FC05E0FEF700FD42464B
:101BA0004B46FEF7FCFC04460E460022284BFEF78F
:101BB0007DFD03D84FF0FF30014607E00022254BA2
:101BC00020463146FEF7D2FBFEF758FD102409E00F
:101BD000002C0ADB0A220023FEF73EFB039B303277
:101BE0001A55641E50EA0102F2D1641C039AC4F132
:101BF00011031444119A012A03D0012208430DD184
:101C00000AE0084304D000204FF0110B119072E756
:101C1000A3EB0B056D1E0DE05B4504DD4FF00002EC
:101C200005F1010504E003DA4FF00002A5F101051A
:101C3000002AECD002981199C0E90231C0E90045B0
:101C400079E70000000014400000F03F3000000081
:101C50000000F0430000E03F2DE9FF4F95B09A46A9
:101C6000884606460025EEE1252877D10024274640
:101C7000F94A0121039400E0044316F8013F203B98
:101C800001FA03F01042F7D130782A2811D06FF012
:101C90002F033078A0F13002092A16D8039A44F0B5
:101CA000020402EB820203EB42021044761C039012
:101CB000EFE758F8042B0392002A03DA504244F469
:101CC0000054039044F00204761C30782E2816D17C
:101CD00016F8010F44F004042A280DD06FF02F02EB
:101CE0003078A0F13003092B09D807EB870302EB0A
:101CF0004303C718761CF3E758F8047B761C30784A
:101D00006C280FD006DC4C2817D068280DD06A2824
:101D100014D104E0742810D07A280FD10DE044F4D7
:101D200000140AE044F4801401E044F44014727892
:101D3000824202D104F58014761C761C3078662825
:101D40000BD013DC582877D009DC002875D0452843
:101D5000F6D04628F4D047281AD193E118E063283A
:101D600035D0642879D0652812D18BE1702873D0E2
:101D700008DC6728F1D069286FD06E280DD06F2855
:101D800006D1ACE073282CD0752874D0782853D0B5
:101D90005246179990476D1C54E1C4F30250022833
:101DA00009D003280DD0D8F8001004280DD00D60FC
:101DB00008F1040846E1D8F80010EA17C1E900521A
:101DC000F6E7D8F800100D80F2E70D70F0E718F88C
:101DD000041B8DF8001000208DF80100EB46012057
:101DE00003E058F804BB4FF0FF3061074FF00001EB
:101DF00002D40DE009F101018946B9420FDA8145AB
:101E0000F8DB1BF809100029F4D108E009F1010101
:101E100089468142FADB1BF809100029F6D10398A4
:101E20005346A0EB090721463846179A00F080FA7E
:101E3000284400EB090507E044E008E10DE01BF849
:101E4000010B524617999047B9F10109F7D2534651
:101E500021463846179AF2E039E00A21C4F30252CB
:101E60004FF0000B0091022A06D058F8040BC1175E
:101E7000032A09D00AE023E008F1070020F0070256
:101E8000F2E80201904605E000B2C117042A01D130
:101E900040B2C117002906DA0A460021404261EB30
:101EA00002012D2202E0220504D52B228DF8042008
:101EB000012203E0E20701D02022F7E7914657E034
:101EC0000A2100E010214FF0000B00910BE01021DF
:101ED0004FF0000B44F004040827009103E00820B1
:101EE0004FF0000B0090C4F30252022A05D058F8BC
:101EF000040B0021032A08D008E008F1070020F0B5
:101F00000702F2E80201904603E080B2042A00D101
:101F1000C0B24FF0000922072AD53278702A07D0C4
:101F2000DDF800C08CF0100C5CEA0B0C05D00EE064
:101F300040228DF80420012208E050EA010306D077
:101F400030238DF804308DF8052002229146009B45
:101F500083F0080353EA0B030AD150EA010201D1CE
:101F6000620705D530228DF804204FF001097F1E4D
:101F70003278582A04D039A20C920CAA02920BE0B3
:101F80003BA2F9E75B46009AFEF766F90C9B9B5C67
:101F9000029A521E0292137050EA0102F2D1029884
:101FA00004A9081A00F1200B600702D524F480343C
:101FB00000E001275F4502DDA7EB0B0000E00020F9
:101FC00000EB0B01009003984944401A0390E00392
:101FD00006D453462146179A039800F0A9F9054400
:101FE000002706E001A85246C05D179990476D1C76
:101FF0007F1C4F45F6DBE0030CD553462146179A6C
:10200000039800F095F9054404E0302052461799F2
:1020100090476D1C0099481E00900029F5DC08E0EF
:102020000298029952460078491C029117999047EC
:102030006D1CBBF10001ABF1010BF1DC5BE100F0C9
:1020400065F90544761C307800287FF40DAE19B090
:102050002846BDE8F08F00000928010030313233F6
:1020600034353637383961626364656600000000D4
:1020700030313233343536373839414243444546BE
:1020800000000000600700D4062708F1070020F0D8
:102090000700F0E80223804603F0004C5FEA0C00E2
:1020A00001D097A009E0200501D596A005E0E00742
:1020B00001D095A001E0AFF24C001390307823F0EE
:1020C000004365280CD006DC452809D046281DD0E1
:1020D00047287FD13BE0662818D067287AD136E0C0
:1020E0000021112F01DB112000E0781CCDE9000157
:1020F00004A90CA8FFF7EEFCDDE90D010C9A4FF0E6
:10210000000B07F10109109200914EE04FF00040E2
:102110000097CDE9011004A90CA8FFF7DBFCDDE96D
:102120000D020C9B0F994FF0000B914610930092FB
:1021300011B9791C00EB0109B7EB090003D4C0F118
:10214000FF3B07F10109A9EB0700019042E0012FD5
:1021500000DA01270021112F01DD112000E03846AF
:10216000CDE9000104A90CA8FFF7B4FCDDE90D01DD
:102170000C9A00914FF0000BB946109221070FD432
:10218000009A4A4503DA914601E0A9F10109B9F143
:10219000010F05DD109AA9F10101515C3029F4D03D
:1021A000B84202DA10F1040F03DA0121CDE901107F
:1021B00010E0002803DC8344A9EB000102E0411C8D
:1021C000494500DD8946A0EB0B00401C01904FF013
:1021D00000400290200705D40198484502DB4FF0EB
:1021E000FF30019000208DF84B0002980DF14B0755
:1021F000B0F1004F25D002200C902B200D900298BA
:1022000000280CDA404202902D200D9007E00A21B0
:102210000298FEF776F83031029007F8011D0C990C
:10222000481E0C900029F2DC02980028EFD1791E9C
:102230000D980870307800F0200040F0450007F855
:10224000020D11A8C01BC01D02901398007800B1A8
:10225000012000EB0901019801EBE07102980144B3
:102260000398401A401E0390E00306D453462146CB
:10227000179A039800F05CF805441398007818B199
:102280005246179990476D1CE00323D553462146CB
:10229000179A039800F04CF805441BE0BBF1000FBF
:1022A00007DB0098584504DD1098179910F80B00CB
:1022B00001E0179930205246904701980BF1010B2D
:1022C000401E05F10105019004D12E2052461799B8
:1022D00090476D1CB9F10001A9F10109DEDC05E0B0
:1022E00017F8010B5246179990476D1C0299481E2A
:1022F00002900029F4DC53462146179A03989EE683
:102300002D0000002B000000200000002DE9F0410E
:10231000044600251E461746880404D405E03946C5
:102320002020B0476D1C641EF9D52846BDE8F08119
:102330002DE9F041044600251E469046C80301D50C
:10234000302700E02027880404D505E041463846C0
:10235000B0476D1C641EF9D52846BDE8F0814A6877
:10236000002A06D00A68531C0B6010704868401E93
:102370004860704713B50223012269460248FFF7FF
:10238000E1F800981CBD000024050020FEF7D8FBF2
:10239000FFF7F0F9FFF74EF9FFF784F9FFF72CF993
:1023A00000F00EF8FEE701460020842900D0C81C8A
:1023B000704710B500B9012000F016FB002010BDD9
:1023C00010B500F037FB002010BD7FB50D46044668
:1023D0004169B0F9080081B1A16971B1FFF7E3FF6C
:1023E000D4E905128DE80700D4E900102B462269D4
:1023F00000F00DFC039004B070BDFFF7D4FF03A9FB
:10240000CDE90001208A2B4682B2D4E9001000F009
:10241000D1FB012801D00020EDE70398EBE7000095
:102420002DE9F041184C0F46054666692068001DED
:1024300000F016FA38B9206890F82C100120884076
:10244000A1698143A161681C07D137B12168BDE84A
:10245000F0410E48091D00F047BA20683544B542E6
:102460004560216805D2A068BDE8F041091D00F073
:1024700023BA6068091D00F01FFA206B854200D264
:102480002563BDE8F0810000180000208C060020C4
:102490002DE9F041054600F033FA2E4C2069401C2E
:1024A000206120682C4F10B1E06940B32DE0256019
:1024B0002069012829D1002606EB860007EB800061
:1024C00000F0ECF9761C072EF6D323488C3000F090
:1024D000E5F92148A03000F0E1F91F48B43000F0E0
:1024E000DDF91D48C83000F0D9F91B48DC3000F098
:1024F000D5F919488C3060601430A06005E0206880
:10250000E96AC06A884200D82560E06A401CE0623F
:10251000E96A0120A26988401043A06101EB8100B3
:1025200007EB8000291D00F0DFF900F009FAE069EF
:1025300000280CD02068E96AC06A884207D207499F
:102540004FF080500860BFF34F8FBFF36F8FBDE82F
:10255000F081000018000020B005002004ED00E02C
:1025600010B5044690F8510058B101280CD002284B
:102570000FD0502080F31188BFF34F8FBFF36F8FC0
:10258000FEE7206B00F0F0F92046BDE8104000F0B7
:10259000EBB910BD10484FF47051420706D0C01D72
:1025A0000D4920F00700411AC1F570510B4A002374
:1025B0000144C2E900030839103A21F00701116013
:1025C0004B600B600B1AC0E9001393604FF00040A2
:1025D0005360D06070470000A00600206400002017
:1025E000144E154CA6F1C8074FF08058DFF84C90F8
:1025F00012E000BF00F084F9F068C568281D00F003
:102600002FF92069401E2061E068401EE06000F064
:1026100097F92846FFF7A4FFE0680028EAD1386858
:102620000128F9D9C9F80080BFF34F8FBFF36F8F2E
:10263000F2E70000780600201800002004ED00E01A
:102640002DE9F0479A46DDE9098481466FF00303DE
:10265000206B03EB82021044089D20F007067007F0
:1026600007D0502080F31188BFF34F8FBFF36F8FD7
:10267000FEE723180A5C83F834200A5C12B1401C80
:102680001028F6D3002784F84370072D00D30625C1
:10269000E562C4E91157201D00F00BF904F11800A0
:1026A00000F007F92461C5F107006462A061E764E6
:1026B00084F8507052464946304600F0BFF820601A
:1026C000B8F1000F01D0C8F80040BDE8F087000065
:1026D00030B5114900E011460A688242FBD34B68CD
:1026E0005C18844203D14068184448600846436837
:1026F0001C18944209D1084C103C2468A24209D00D
:1027000052681A4442600A6812680260814200D02E
:10271000086030BD0460F9E76400002006484168A5
:10272000096829B14168C968C96849680163704787
:102730004FF0FF31FAE70000180000200848406819
:10274000401C4FF0500080F3118804D0BFF34F8F2E
:10275000BFF36F8FFEE7BFF34F8FBFF36F8FFEE7BF
:102760006C0000202DE9F0410546002700F098F9A3
:10277000314E306808B9FFF70DFFF06805424BD1C4
:10278000C5B3083568070ED005F00700C0F1080092
:102790000544680707D0502080F31188BFF34F8F9E
:1027A000BFF36F8FFEE72DB37068854234D822489F
:1027B000103001460C6801E020460C466168A942D1
:1027C00002D221680029F7D131688C4224D00768F1
:1027D0002168016060680837411B10290FD9601912
:1027E000420708D0502080F31188BFF34F8FBFF30A
:1027F0006F8FFEE710E041606560FFF769FF616879
:102800007068401A7060B268904200D2B060F068A0
:1028100001430020C4E9000100F088FA780707D0DE
:10282000502080F31188BFF34F8FBFF36F8FFEE707
:102830003846BDE8F08100005400002010B5031FA9
:102840004FF080741C601B1F21F001011960191FDB
:10285000024B0B60143940380A6010BD3D27000858
:10286000D0E9013201699A60D0E901235A604A68CF
:10287000824201D182684A60002202610868401EDB
:102880000860086870470000034B036003F15400C0
:102890000860802010607047D002002000F108011D
:1028A0004FF0FF32C0E90112C160016100210160F7
:1028B000704700210161704730B50B685A1C02D087
:1028C00000F1080202E0026904E02246546825682B
:1028D0009D42FAD953684B6099608A6051600861E3
:1028E0000168491C016030BD42684A6093688B6092
:1028F00093685960916008610168491C01607047E4
:10290000502080F31188BFF34F8FBFF36F8F0A49B8
:102910004868401C486001280CD10848006810F045
:10292000FF0F07D0502080F31188BFF34F8FBFF304
:102930006F8FFEE7704700006C00002004ED00E0A0
:102940000849486828B1401E486001D180F31188C9
:102950007047502080F31188BFF34F8FBFF36F8F04
:10296000FEE700006C00002070B5002827D0144D51
:10297000A0F108046168E868014207D1502080F3A3
:102980001188BFF34F8FBFF36F8FFEE722683AB114
:10299000502080F31188BFF34F8FBFF36F8FFEE796
:1029A0008143616000F07CF8606869680844686091
:1029B0002046FFF78DFEBDE8704000F0B7B970BD4E
:1029C000540000204FF0E0200021016181610549A1
:1029D0004FF47A720968B1FBF2F1491E4161072197
:1029E000016170471400002010B5020014D00F4898
:1029F000806B38B1502080F31188BFF34F8FBFF345
:102A00006F8FFEE700F04CF800211046FFF708FD3D
:102A100000F08CF9002807D105494FF0805008607C
:102A2000BFF34F8FBFF36F8F10BD00001800002061
:102A300004ED00E010B586B00024039405AA04A9B3
:102A400003A80494FFF720FFDDE903010094CDE91A
:102A5000011000230EA11048059A00F0D8F80F4984
:102A60000028486311D0502080F31188BFF34F8FA6
:102A7000BFF36F8F4FF0FF3008630120C8614C61D6
:102A800006B0BDE8104000F041B806B010BD00002F
:102A900049444C4500000000E125000818000020D2
:102AA0000248816B491C81637047000018000020B8
:102AB0001448816B11B101214162704700214162CC
:102AC0008169B1FA81F1C1F11F0101EB81020E4967
:102AD00051F822306BB101EB820101F108034A6821
:102AE00052684A609A4201D152684A60D1680160D6
:102AF0007047502080F31188BFF34F8FBFF36F8F63
:102B0000FEE7000018000020B00500201CB5264993
:102B100008780190FF20087008788DF800009DF873
:102B200000009DF8002000F0F000904207D05020F7
:102B300080F31188BFF34F8FBFF36F8FFEE79DF8CF
:102B400000001A4B00F0500018700720986005E054
:102B50009DF8002052008DF80020401E9DF80020B6
:102B60001206F5D49860032807D0502080F311880E
:102B7000BFF34F8FBFF36F8FFEE74FF44070986045
:102B8000019808700A48016841F470010160016809
:102B900041F070410160FFF715FF00205860FDF71C
:102BA0000FFB00201CBD000000E400E06C000020D2
:102BB00020ED00E02DE9FF5F8346DDE90E879946B1
:102BC00016468A469000FFF7CDFD05001CD0542024
:102BD000FFF7C8FD040014D00020256384F85100DD
:102BE000CDE90240CDE900874B4632465146584672
:102BF000FFF726FD2046FFF74BFC012004B0BDE89F
:102C0000F09F2846FFF7B0FE4FF0FF30F6E7F0B533
:102C100085B0DDE90B640A9DA6B1DCB154270097AD
:102C20002663022684F85160002604AFCDE90246EF
:102C3000CDE90057FFF704FD2046FFF729FC049873
:102C400005B0F0BD502080F31188BFF34F8FBFF364
:102C50006F8FFEE7502080F31188BFF34F8FBFF3D3
:102C60006F8FFEE72DE9F0412E4C0027A06B40B19D
:102C7000206A401C2062606A00B101273846BDE826
:102C8000F0816669761C666113D16068006838B1AE
:102C9000502080F31188BFF34F8FBFF36F8FFEE793
:102CA0006068A1686160A060A06A401CA062FFF734
:102CB00035FD206BDFF87080864209D360680068BC
:102CC00080B16068C068C568686886420DD22063BC
:102CD0002068C06A00EB800158F821000128CAD999
:102CE0000127C8E74FF0FF30F1E7281DFFF7B8FDD7
:102CF000A86A18B105F11800FFF7B2FDE86A0121D2
:102D0000A26981401143A16100EB800108EB8100C1
:102D1000291DFFF7E9FDE86A2168C96A8842CDD319
:102D20000127CBE718000020B00500202DE9F0476F
:102D30002C4D00242746A86B38B1FFF7E1FDA86BA6
:102D4000401EA863A86B40B146E0502080F3118874
:102D5000BFF34F8FBFF36F8FFEE72969224E01202B
:102D6000D1B3A6F1B40980463068E8B1F068C46810
:102D700004F11800FFF774FD201DFFF771FDE06AF4
:102D8000AA6908FA00F11143A96100EB800109EB7F
:102D90008100211DFFF7A8FDE06A2968C96A884201
:102DA000E2D3C5F82480DFE70CB1FFF7B7FC2C6A4B
:102DB00044B14646FFF756FF00B16E62641EF9D17A
:102DC00000202862686A38B108490127380708607E
:102DD000BFF34F8FBFF36F8FFFF7B2FD3846BDE8EB
:102DE000F0870000180000206406002004ED00E0D9
:102DF000502E0008E116000800000000000000004E
:102E00008000000000000000000000005C2E0008B0
:102E10000D170008FDFF000000000000800000000A
:102E20007C0000207C020020537461727455617232
:102E3000745461736B000000000000000000010288
:102E40000304060708090000000001020304000053
:102E500064656661756C745461736B00556172745E
:102E60005461736B00000000882E000800000020F1
:102E70007C000000B41A0008042F00087C00002029
:102E800024460000C41A00080000000000000000F2
:102E90000100000010000000000000000024F40009
:102EA0000000000000000000000000000000000022
:102EB0000000000000000000000000000000000012
:102EC0000000000000000000000000000000000002
:102ED00000000000000000000000000000000000F2
:102EE00000000000000000000000000000000000E2
:102EF0000000000000000000AAAAAAAA000000002A
:042F000000000000CD
:040000050800018569
:00000001FF
