:020000040800F2
:10000000B86B00209D010008272100083B1D000857
:1000100025210008570400081D4A000800000000C0
:10002000000000000000000000000000D9300008BF
:100030007504000800000000A3220008DD3000085D
:10004000B7010008B7010008B7010008B7010008B0
:10005000B7010008B7010008B7010008B7010008A0
:10006000B7010008B7010008B7010008B701000890
:10007000B7010008B7010008B7010008B701000880
:10008000B7010008B7010008B7010008B701000870
:10009000B7010008B7010008B7010008B701000860
:1000A000B7010008B7010008B7010008B701000850
:1000B000B7010008B7010008B7010008B701000840
:1000C000B7010008B7010008B7010008B701000830
:1000D000B7010008B7010008B7010008B701000820
:1000E000B7010008B7010008B7010008B701000810
:1000F000B7010008B7010008B7010008B701000800
:10010000B7010008B7010008B7010008B7010008EF
:10011000B7010008B7010008B7010008B7010008DF
:10012000B7010008B7010008B7010008B7010008CF
:10013000B70100080000000000000000B70100083F
:10014000B7010008B7010008B7010008292100081D
:10015000B7010008B7010008B7010008B70100089F
:10016000B7010008B7010008B7010008B70100088F
:10017000B7010008B70100080000000000000000FF
:10018000B7010008DFF810D000F028F90048004758
:1001900019670008AFF30080B86B0020064880475D
:1001A00006480047FEE7FEE7FEE7FEE7FEE7FEE75C
:1001B000FEE7FEE7FEE7FEE765310008850100087F
:1001C0002DE9F05F0546002092469B46884606468C
:1001D000814640241BE0284641464746224600F01F
:1001E00090F853465A46C01A914110D3114618460A
:1001F000224600F077F82D1A67EB01084F46224699
:100200000120002100F06EF817EB00094E41201E7E
:10021000A4F10104DFDC484631462A464346BDE8E6
:10022000F09F40EA01039B0703D009E008C9121FB1
:1002300008C0042AFAD203E011F8013B00F8013BA0
:10024000521EF9D27047D2B201E000F8012B491ECC
:10025000FBD270470022F6E710B513460A46044663
:100260001946FFF7F0FF204610BD70B521F000439E
:1002700003430CD0C1F30A550024D5EB040564EB0D
:100280000403D617AD1AB34102DB0020014670BD4E
:10029000201841EB025170BD0EB540F2334102917E
:1002A0000021CDE900110A460B4600F049F803B0E1
:1002B00000BDC1F30A5210B5C1F3130140F2FF3380
:1002C00041F480119A4201DA002010BD40F233431C
:1002D0009A42A2F2334203DC524200F012F810BDFF
:1002E000904010BD202A04DB203A00FA02F10020E1
:1002F00070479140C2F1200320FA03F31943904064
:100300007047202A04DB203A21FA02F000217047CE
:1003100021FA02F3D040C2F120029140084319466D
:10032000704710B5141E73F1000408DA401C41F147
:10033000000192185B411A4301D120F0010010BD69
:100340002DE9F04D92469B4611B1B1FA81F202E0DF
:10035000B0FA80F220329046FFF7C4FF04460F4601
:1003600040EA0A0041EA0B0153465A46084313D0BB
:10037000114653EA010019D0C8F140025046FFF778
:10038000C0FF05460E46504659464246FFF7AAFFB3
:10039000084305D0012004E020463946BDE8F08D31
:1003A0000020054346EAE0762C4337430A9863056C
:1003B000E40AA0EB08000022FD0A44EA47540A3090
:1003C00002D500200146E9E7010510196941DDE980
:1003D000084500196941BDE8F04DA2E7064C074DFC
:1003E00006E0E06840F0010394E807009847103405
:1003F000AC42F6D3FFF7CAFEB01B0308D01B0308BC
:1004000070B58C1810F8015B15F0070301D110F8D6
:10041000013B2A1106D110F8012B03E010F8016B03
:1004200001F8016B5B1EF9D12B0705D40023521E86
:100430000DD401F8013BFAE710F8013BCB1A921CEE
:1004400003E013F8015B01F8015B521EF9D5A142EC
:10045000D8D3002070BDFEE710B50122102104485A
:1004600000F084F9BDE81040012000F029B8000038
:1004700000080240704772B6FEE70022AFF300802A
:1004800030B50E4B054601205C7A012C15D8587A00
:1004900000241C54587A03EB800045605D7A03F118
:1004A00008002A54587A421C5A72303008703A2098
:1004B00048702F208870CC70002030BDE8220020CA
:1004C00031B500F059F9009C0546601C02D0044883
:1004D0000078044400F050F9401BA042FAD338BD24
:1004E000380000202DE9F04FDFF85092002309F189
:1004F000040A012603250AF1040B85B00F270BF12E
:10050000040E12E1224606FA03F422407ED091F84E
:1005100004C00CF0030CBCF1010F02D0BCF1020FBF
:1005200026D1D0F80880CDF800804FEA430805FABC
:1005300008FCCDF81080DDF8008028EA0C08CDF822
:100540000080D1F80CC0DDF810800CFA08FCDDF852
:1005500000804CEA080CC0F808C0D0F804C02CEAAF
:10056000040C0C79C4F300149C4044EA0C0444606D
:100570000C79E443A40712D0C4684FEA430CCDF8C9
:1005800008C005FA0CFC24EA0C04D1F80880DDF858
:1005900008C008FA0CF848EA0408C0F80C800C7986
:1005A00004F00304022C16D1DC0800EB840CCDF817
:1005B00008C0DCF820C05C074FEAD46807FA08F4EA
:1005C0002CEA040C0C6904FA08F444EA0C04DDF883
:1005D00008C0CCF8204004684FEA430805FA08FC3C
:1005E00024EA0C0491F804C00CF0030C0CFA08FC8B
:1005F0004CEA040CC0F800C04C6814F4403F05D02D
:100600004F4CD4F800C04CF4804C00E08CE0C4F8AF
:1006100000C0246823F0030C04F480440094494C87
:1006200064440294D4F808484FEA837C4FEA1C786B
:1006300007FA08FC24EA0C04DFF80CC1604502D17B
:100640004FF0000C39E0DFF804C1604502D14FF0F3
:10065000010C32E0DFF8F8C0604502D14FF0020C27
:100660002BE0DFF8F0C0604502D14FF0030C24E02E
:10067000DFF8E4C0604502D14FF0040C1DE0DFF864
:10068000DCC0604502D14FF0050C16E0DFF8D0C0A9
:10069000604502D14FF0060C0FE0DFF8C8C060459E
:1006A00002D14FF0070C08E0DFF8BCC0604502D172
:1006B0004FF0080C01E04FF0090C0CFA08FC4CEA72
:1006C000040C029CC4F808C8D9F80040CC46D1F804
:1006D000048094435FEAC83800D51443CCF8004046
:1006E000DAF80040D446D1F8048094435FEA8838B1
:1006F00000D51443CCF80040DBF80040DC46D1F8CC
:10070000048094435FEAC82800D51443CCF8004025
:10071000DEF80040F446D1F8048094435FEA88286C
:1007200000D51443CCF800405B1C0A681446DA403C
:100730007FF4E8AE05B0BDE8F08F0000003C01405A
:1007400044380240003001400000024000040240F2
:1007500000080240000C0240001002400014024059
:1007600000180240001C0240002002400AB18161D2
:1007700070470904FBE700000148806870470000EB
:100780003800002002488168027811448160704777
:10079000380000200B4810B5016841F40071016079
:1007A000016841F480610160016841F48071016079
:1007B000032000F06FF8002000F006F800F024F8A5
:1007C000002010BD003C024070B50D4D04464FF4B2
:1007D0007A712878B1FBF0F00A490968B1FBF0F0B2
:1007E00001F0D6F948B9102C07D200222146501E3C
:1007F00000F030F800206C6070BD012070BD00007A
:1008000038000020440000200A4808B5016841F47F
:1008100080410160006800F4804000900548001F9E
:10082000016841F080510160006800F08050009044
:1008300008BD000044380240002809DB00F01F0218
:10084000012191404009800000F1E020C0F8001132
:1008500070470000F0B40E4B1B680C46C3F3022334
:10086000C3F10705042D00D90425191D072901D25C
:10087000002300E0DB1E012606FA05F1491E214097
:1008800099409E40761E16403143F0BC04F0D8B823
:100890000CED00E0064900F0070208684FF6FF0380
:1008A000184040EA0220034A1043086070470000E5
:1008B0000CED00E00000FA0500684162002070477E
:1008C000F0B50368586A39B19C6A4FF4827600EB40
:1008D000144400204D1E0AE040EA024098620FE0F6
:1008E00006EB8007DF59401C04EB1744C0B2A84256
:1008F000F6D344EA02404FF4807202EB8101585073
:100900000020F0BDD0F8FC0302F019BFC1EBC1021A
:1009100000EB8202D0F8FC03926C02F06CBEC1EBDB
:10092000C10200EB8202D0F8FC03D2F8082202F0E8
:10093000C5BED0F8FC0302F004BF70B504460B0638
:1009400001F00F00C0EBC00104EB81014FF0010288
:100950004FF0000503D581F83D203C3103E081F8DC
:10096000FD5101F5FE71087094F8BC03012808D010
:1009700084F8BC23206803F051FB84F8BC530020AA
:1009800070BD022070BD70B5044601F00F006268B2
:10099000904201D9012070BD0B0601F00F01C1EB9F
:1009A000C10104EB81014FF001024FF0000503D5B6
:1009B00081F83D203C3103E081F8FD5101F5FE71E5
:1009C0008D70087094F8BC03012808D084F8BC230B
:1009D000206803F01DFD84F8BC53002070BD022088
:1009E00070BD10B5044690F8BC0301280AD0012060
:1009F00084F8BC03080607D501F00F01206803F056
:100A000069FE04E0022010BD206803F053FE0020C0
:100A100084F8BC0310BD01F00F01C1EBC10100EB74
:100A20008100D0F8140270472DE9F04104460F060A
:100A300001F00F00C0EBC00104EB81014FF0010693
:100A40004FF0000503D581F83D603C3103E081F8AB
:100A5000FD5101F5FE7108708A60CB704A7802B1D1
:100A6000C880022B00D10D7194F8BC03012809D075
:100A700084F8BC63206803F031FA284684F8BC533C
:100A8000BDE8F0810220FBE770B50C4601F00F05D0
:100A9000C5EBC50100EB8101C1F81032C1F8082295
:100AA0000023C1F8143281F8FD3181F8FC5103694B
:100AB00001F5FE71012B00D10A612207027C00685A
:100AC00003D003F0FDFC002070BD03F0E9FBFAE762
:100AD00070B504460D4601F00F006168884201D9E7
:100AE000012070BD29064FF000064FF0010207D526
:100AF000C0EBC00104EB810181F83D203C3107E0EF
:100B0000C5EBC50104EB810181F8FD6101F5FE71C2
:100B10008A70087094F8BC03012807D084F8BC23BD
:100B2000206803F0A1FC280702D007E0022070BD76
:100B3000217C04F57172206803F03EFC84F8BC63EC
:100B4000002070BD70B50C4601F00F05C5EBC50166
:100B500000EB81010B658A6400234B65012381F85A
:100B60003D3001F83C5F0369012B00D10A61220787
:100B7000027C006803D003F0A3FC002070BD03F0EA
:100B80008FFBFAE72DE9FC5F05680446284603F071
:100B9000C0FD00287ED1206803F0E7FD002879D051
:100BA000206803F0E2FD800704D52068416901F068
:100BB00002014161206803F0D8FDC10604F571709F
:100BC000009034D52068816921F0100181612F6A7D
:100BD00007F00F00C0EBC00004EB8006C7F34340F2
:100BE00006F5FE76022802D0062811D01AE047F654
:100BF000F070074216D0C7F30A1217462846F1686C
:100C000003F0B7FDF0683844F060B069384408E09C
:100C100008222846009903F0ACFDB069C7F30A1119
:100C20000844B0612168886940F01000886120683C
:100C300003F09BFD00034FF001094FF0080A4FF04D
:100C4000100B5AD50026206803F06EFD074652E0CF
:100C5000F8074ED0F1B2206803F07FFD8046C00750
:100C600007D005EB4611C1F8089B3146204601F03C
:100C700061FA5FEA087024D505EB4611C1F808ABAC
:100C80002068026C00EB46100192D0F8081BC34BA1
:100C90009A4200E07FE105D9090403D54FF40041F1
:100CA000C0F8081B204600F069FABC490198884248
:100CB00007D92069012804D120680121009A03F096
:100CC0007BFB5FEAC86003D505EB4611C1F808BBA2
:100CD0005FEA886004D505EB46112020C1F8080BB7
:100CE0005FEA884005D505EB46114FF40050C1F886
:100CF000080B7F08761C002FAAD1206803F035FD71
:100D000040035BD5206803F008FD0746002653E04A
:100D1000F8074FD0F1B2206803F00DFD8046C00700
:100D200023D006F00F0209FA02F0D5F834288243E6
:100D3000C5F8342805EB4610C0F808992069012849
:100D40000FD1C6EBC60004EB8000D0E911121144AC
:100D5000816436B9206D20B920680121009A03F022
:100D60002BFBF1B22046FFF7D1FD5FEA087003D5F7
:100D700005EB4611C1F808A95FEAC86003D505EB89
:100D80004611C1F808B95FEA486004D505EB461181
:100D90004020C1F808095FEA887004D505EB4611C8
:100DA0000220C1F808095FEA086003D531462046F1
:100DB00001F026FA7F08761C002FA9D1206803F0E5
:100DC000D4FC00280DDAD5F8040820F00100C5F89D
:100DD0000408204600F0B6F92068416901F000419E
:100DE0004161206803F0C1FC00050BD5D5F8080867
:100DF000C00702D0204600F0DDF92168486900F400
:100E000000604861206803F0B0FCC00462D5D5F8EA
:100E1000040820F00100C5F804081021206803F040
:100E200059FC002121E000BF05EB41104FF67F3255
:100E3000C0F80829D0F8003923F40013C0F80039AD
:100E4000D0F8003943F00063C0F80039C0F8082B2F
:100E5000D0F8002B22F40012C0F8002BD0F8002BA1
:100E600042F00062C0F8002B491C60688842DBD861
:100E7000D5F81C0840F00110C5F81C08206B60B1C3
:100E8000D5F8840840F00B00C5F88408D5F844086C
:100E900040F00B00C5F844080CE0D5F8140842F205
:100EA0002B010843C5F81408D5F8100840F00B00D2
:100EB000C5F81008D5F8000820F4FE60C5F8000851
:100EC000217C2068009A03F077FA2068416901F4D8
:100ED00080514161206803F048FC800415D52068EA
:100EE00003F03CF8206803F007FCE06000F018FA1B
:100EF0000146227B206803F09BFC204600F00CF9A1
:100F00002068416901F400514161206803F02DFC23
:100F1000000707D5204600F019F92068416901F063
:100F200008014161206803F020FCC00208D50021BF
:100F3000204600F035F82068416901F480114161D4
:100F4000206803F012FC800208D50021204600F042
:100F50002BF82068416901F400114161206803F019
:100F600004FC400007D52046FFF7CCFC206841690F
:100F700001F080414161206803F0F7FB40070AD58A
:100F800020684568680702D52046FFF7D2FC206834
:100F9000416829434160BDE8FC9F00000A30544F7E
:100FA000D0F8FC0302F024BCD0F8FC0302F022BC11
:100FB0002DE9F0418AB0040005D094F8BD032668FD
:100FC000002520B108E001200AB0BDE8F08184F8D6
:100FD000BC53204600F05EF8032084F8BD03F06B9C
:100FE000C00500D42561206803F054F904F1100114
:100FF000282288466846FFF714F994E80F0002F0AB
:10100000BBFF0226C8BB0021206803F0D1FB0020F3
:1010100001270EE0C0EBC00104EB810181F83D70B7
:1010200001F83C0FC880CD708D60CD60401CC0B20F
:101030004D6161688142EDD8002011E0C0EBC00134
:1010400004EB810181F8FD5181F8FC0181F8FF5129
:10105000C1F80452C1F80852401CC0B2C1F8105285
:1010600061688142EAD8282241466846FFF7D9F8EC
:1010700094E80F0003F054F810B184F8BD63A2E7C0
:1010800084F8385084F8BD73206803F03BF80020E2
:101090009AE7000010B586B0044614216846FFF7B1
:1010A000D9F82068B0F1A04F2FD11948002102686B
:1010B00042F001020260006800F0010005904FF468
:1010C000C05000900220CDE90101032003900A20C6
:1010D000049069460F48FFF705FA0D48001D0168A6
:1010E00041F0800101600A481430016841F48041F8
:1010F00001600068002200F4804005901146432002
:10110000FFF7A8FB4320FFF797FB06B010BD0000D8
:10111000303802400000024070B50446C068012526
:1011200070B1022801D0FFF7A6F92946D4F8FC03D4
:1011300002F0B5FBD4F8FC03BDE8704002F071BBCF
:101140000025F2E7D0F8FC0302F093BBD0F8FC03D3
:1011500002F099BB10B5044690F8BC0301280BD0EF
:10116000012084F8BC0384F83810206803F04EFB9B
:10117000002084F8BC0310BD022010BDD0F8FC2371
:1011800000F57171104602F096BB10B5044690F858
:10119000BC0301280CD0012084F8BC03206803F0B4
:1011A00083FA206802F0A0FF002084F8BC0310BD81
:1011B000022010BD10B50446D0F8FC0302F0BAFBC3
:1011C0002068D0F8001E41F00101C0F8001E206A1E
:1011D000002804D00248016841F00601016010BDFA
:1011E00010ED00E02DE9F0470E46050063D0DFF872
:1011F0001C81D8F80000F7B200F00F00B04207D20F
:1012000088F80070D8F8000000F00F00B04252D10A
:1012100028683F4C810712D5400703D5206840F469
:10122000E05020602878000703D5206840F4604033
:1012300020602068A96820F0F0000843206028782A
:10124000C0072BD0324968680839012810D00968D6
:10125000022810D0890700292DDA216821F0030126
:1012600001432160FFF788FA814641F2883A0EE097
:1012700009688903EFE78901EDE700BFFFF77CFA12
:10128000A0EB0901514502D90320BDE8F087206891
:10129000696800F00C00B0EB810FEFD1D8F80010B6
:1012A000404601F00F01B14207D90770006800F015
:1012B0000F00B04201D00120E7E72878400705D5AC
:1012C0002068E96820F4E05008432060287800078F
:1012D00006D52068296920F4604040EAC1002060FA
:1012E00000F054F82168F02292FAA2F201F0F00125
:1012F000B2FA82F2D140074A515CC8400649086000
:1013000006480068FFF760FA0020BEE7003C024094
:10131000083802405A6E0008440000203C000020BB
:10132000014800687047000044000020084809494F
:10133000006809684FF4E05292FAA2F201F4E05119
:10134000B2FA82F2D140044A515CC84070470000B2
:1013500044000020083802406A6E00080848094925
:10136000006809684FF4604292FAA2F201F4604109
:10137000B2FA82F2D140044A515CC8407047000082
:1013800044000020083802406A6E0008154810B575
:10139000006810F00C02144813D04110042A0FD03A
:1013A000082A0ED10F4C241F2268236802F03F0246
:1013B0005B0207D52068C0F38810A0FB010106E09E
:1013C000084610BD2168C1F38811A1FB000100236C
:1013D000FEF7F6FE2168C1F30141491C4900B0FB4C
:1013E000F1F010BD083802400024F4002DE9F84F58
:1013F00004007BD0DFF814B32078ABF10406C007FB
:10140000A6F1040536D0DBF800105846C1F381017F
:10141000012907D00068C0F38100022809D1306893
:10142000400206D52868800324D560680028E0D0F3
:1014300020E0B6492079891F0870606868B1FFF71D
:101440009BF9074605E000BFFFF796F9C01B64282B
:1014500076D828688003F7D50CE0FFF78DF90746AA
:1014600005E000BFFFF788F9C01B6428F0D82868A2
:101470008003F7D42078DFF8988280074FF00009C6
:1014800044D5DBF80010584611F00C0F4FF0F80A65
:1014900007D00068C0F38100022809D130684002FB
:1014A00006D42868800715D5E06801281ED111E010
:1014B000E068E0B10120C8F80000FFF75DF90746D9
:1014C00005E000BFFFF758F9C01B0228C0D8286804
:1014D0008007F7D528689AFAAAF22169B2FA82F24F
:1014E00020F0F8009140084328600FE00AE1C8F8B6
:1014F0000090FFF741F9074605E000BFFFF73CF910
:10150000C01B02281CD828688007F7D42078000761
:1015100027D5DFF8F8A17F4861690AF16C0A81B12B
:1015200001210160FFF728F9074604E0FFF724F9DD
:10153000C01B022804D8DAF800008007F6D510E0B6
:1015400082E0C0F80090FFF717F9074605E000BFFA
:10155000FFF712F9C01B022876D8DAF800008007DE
:10156000F6D4207840075FD5DFF8A0A100270AF164
:10157000380ADAF80000C0000BD4DAF8001041F0A5
:101580008051CAF80010DAF80000012700F08050FE
:1015900000906148016841F4807101600168C905EB
:1015A00012D4016841F480710160FFF7E5F8009002
:1015B00006E000BFFFF7E0F80099401A02287ED845
:1015C00055480068C005F5D55049207A6831087043
:1015D000A06888B1FFF7D0F8009007E0FFF7CCF8DB
:1015E0000099411A41F28830814268D847486830F2
:1015F00000688007F2D510E0FFF7BEF8009007E022
:10160000FFF7BAF80099411A41F28830814256D862
:101610003E48683000688007F2D42FB1DAF8001035
:1016200021F08051CAF80010A069B8B3DBF80010AF
:10163000C1F38101022949D00228C8F8609004D082
:10164000FFF79AF804463DE039E0FFF795F80746C2
:1016500005E000BFFFF790F8C01B64282FD828686A
:101660008001F7D4D4E907010843616A94F82C207B
:10167000890141EA02610843A16A284A490802EB4C
:10168000014108433168264A114008433060012077
:10169000C8F86000FFF770F8044606E034E000BFC9
:1016A000FFF76AF8001B642809D828688001F7D57D
:1016B0002AE000BFFFF760F8001B642802D903206E
:1016C000BDE8F88F28688001F4D41DE00128F7D028
:1016D0003068E26900F48001914213D1226A00F07F
:1016E0003F0191420ED1616AC0F38812914209D143
:1016F000A26A00F44031914204D1E16A00F07060C6
:10170000884201D00120DBE70020D9E708380240F9
:1017100000004742800E4742007000400000FFFF7B
:101720000080BCF070B5040009D0606A002540B1AB
:1017300025616561A56294F8510040B10CE001207B
:1017400070BD6068B0F5827FF4D0E561F2E784F89F
:101750005050204600F044F8022084F851002068E0
:10176000016821F040010160A088218900F48270A5
:1017700001F404410843A18901F400610843217C7C
:1017800001F002010843217D01F001010843218B92
:1017900001F400710843217F01F03801084394F8F7
:1017A000201001F080010843218D01F4005108430D
:1017B00021680860A069042101EA104094F824100F
:1017C00001F010010843216848602068C16921F4D4
:1017D0000061C1616565012084F85100002070BD81
:1017E00010B586B0044614216846FEF733FD134950
:1017F0002068884220D112480021026842F48052B9
:101800000260006800F4805005900D4814380268AA
:1018100042F001020260006800F001000590E02043
:1018200000900220CDE901010320039005200490DF
:1018300069460448FEF756FE06B010BD0030014070
:1018400044380240000002402DE9F84F044690F869
:10185000500000271D461646894601280DD04FF03E
:10186000010B84F850B0FEF787FF804694F85100D2
:10187000BA46012804D0022793E00220BDE8F88F81
:10188000B9F1000F73D0002E71D0032084F85100FD
:10189000C4F854A0C4F83090A686E686C4F838A0F0
:1018A000A4F83CA0A4F83EA0C4F844A0C4F840A00A
:1018B000A068B0F5004F09D12068016821F040010F
:1018C00001602068016841F480410160206801687E
:1018D000490603D4016841F040010160E068B0F5B9
:1018E000006F606803D030B3012E24D041E008B10E
:1018F000012E1CD1206B21680088C86006E020689A
:101900008168890709D5216B0988C160206B801C1B
:101910002063E08E401EE08609E0FEF72DFFA0EB7D
:101920000800A84202D3681C01D031E07DB3E08EEC
:101930000028E4D120E0206B21680078087306E0DD
:1019400020688168890709D5216B09780173206BAC
:10195000401C2063E08E401EE0860AE0FEF70CFF8C
:10196000A0EB0800A84203D3681C02D010E017E0E7
:101970006DB1E08E0028E3D142462946204601F0B1
:10198000F9FA08B120206065A06818B106E0FFE709
:10199000032706E02068C16880680090606D00B190
:1019A000012784F851B084F850A0384666E72DE945
:1019B000F84F044690F8500000270A9E1D469246B4
:1019C0008B464FF0010901280ED0012084F8500009
:1019D000FEF7D2FE804694F85100616801280CD0D1
:1019E000B1F5827F07D102E00220BDE8F88FA1683F
:1019F00009B9042801D00227C2E0BBF1000F27D0AB
:101A0000BAF1000F24D01DB394F85100042802D07D
:101A1000052084F8510000206065C4F838A0E587EF
:101A2000A587C4F830B0E586A58620646064206888
:101A30000168490603D4016841F040010160E06893
:101A4000B0F5006F606805D0E8B3012D46D07FE0A7
:101A5000012795E008B1012D39D1206B216800885C
:101A6000C860206B801C2063E08E401EE0862EE064
:101A70002068816889070FD5E18E69B1B9F1010F3E
:101A80000AD1216B0988C160206B801C2063E08E25
:101A9000401EE0864FF0000920688168C9070CD01D
:101AA000E18F51B1C068A16B0880A06B801CA0635E
:101AB000E08F401EE0874FF00109FEF75DFEA0EBCE
:101AC0000800B04200E009E001D3701C50D1E08E64
:101AD0000028CDD1E08F0028CAD13FE0206B2168DB
:101AE00000780873206B401C2063E08E401EE08667
:101AF0002EE02068816889070FD5E18E69B1B9F1C0
:101B0000010F0AD1216B09780173206B401C2063FF
:101B1000E08E401EE0864FF0000920688168C9070A
:101B20000CD0E18F51B1C068A16B0870A06B401C54
:101B3000A063E08F401EE0874FF00109FEF71CFE16
:101B4000A0EB0800B04202D3701C01D010E07EB1BF
:101B5000E08E0028CDD1E08F0028CAD14246314620
:101B6000204601F007FA28B101272020606507E030
:101B7000032705E0A06818B92068C1688068009054
:101B8000012084F85100002084F8500038462CE7EA
:101B900010B5401EB0F1807F01D3012010BD4FF081
:101BA000E02460610F21601702F04AFF0020A0616D
:101BB00007202061002010BD70B5040004D094F807
:101BC0003D00002510B106E0012070BD84F83C50B6
:101BD000204600F023F8242084F83D002068C168E6
:101BE00021F40051C160204601F0BEFA206801696D
:101BF00021F4904101612068416921F02A0141618D
:101C00002068C16841F40051C1602564202084F837
:101C10003D0084F83E00002070BD000010B586B085
:101C2000044614216846FEF715FB144920688842D3
:101C300021D113480021026842F0100202600068BE
:101C400000F0100005900E481438026842F00102BE
:101C50000260006800F0010005904FF4C060009041
:101C60000220CDE90101032003900720049069467A
:101C70000448FEF737FC06B010BD0000001001401C
:101C800044380240000002402DE9F843044690F831
:101C90003D001F4616460D4620284CD1C5B1BEB1A9
:101CA00094F83C00012846D0012084F83C004FF015
:101CB0000008C4F84080212084F83D00FEF75CFD58
:101CC000A6848146E684A068B0F5805F03D004E076
:101CD0000120BDE8F883206928B12E465FF0000599
:101CE00084F83C800EE00026FAE78021204601F0CF
:101CF000CDFAA0B9AEB116F8010B21684860E08CAE
:101D0000401EE084E08C4B464FF000020097002814
:101D1000EBD14FF04001204601F0B8FA30B103207A
:101D2000D7E735F8020BC0F30800E6E7202084F877
:101D30003D000020CDE70220CBE7FEE7F0B5002311
:101D40000A24302537261F4611E000BFB4EB107F70
:101D500002D905EB107C01E006EB107C01F813C002
:101D600001EB430C00015B1C8CF80170DBB2934269
:101D7000ECD3F0BD70B5D0F8B842054604F58051FB
:101D8000087E38B9486928B1607A18B90121284617
:101D900001F0BEFD8121284601F0BAFD607A0228DB
:101DA00009D141F20C0022182846BDE870401F23DB
:101DB000012101F02DBD70BD70B5D0F8B8420646C6
:101DC00004F58055012128692863686968633046F5
:101DD00001F0CBFC1F280AD12649E868884206D1C9
:101DE000697E012903D8A87E08B1102808D9697E28
:101DF00020230522304600F094FC022060720AE0A5
:101E000041F21B002218304600F05EFA0028207ACA
:101E100008DA052804D03046BDE87040FFF7AABFB5
:101E2000012121E0022824D0012822D0032820D03B
:101E30006589C5B104F10C02D6F8B842304604F504
:101E400080514B69AB4200D32B464E6B9BB2751B46
:101E50004D63002581F8385004212172BDE870409F
:101E6000812101F070BD00213046BDE8704000F0D6
:101E70008BB870BD5553424310B5D0F8B842627A62
:101E8000022A08D009060BD5012A09D0BDE8104066
:101E9000012100F079B8812101F03AFD0020607243
:101EA00010BD10B5D0F8B8220446107A022805D02B
:101EB000032801D0042811D100210AE041F21900C1
:101EC000815C801C0244204600F0FEF9002805DAFF
:101ED00001212046BDE8104000F056B810BD10B5F5
:101EE000D0F8B8220446107A88B1012814D141F202
:101EF0001900815C801C0244204600F0E5F90028AE
:101F00000ADA2046BDE81040012100F03DB8204625
:101F1000BDE81040FFF750BF10BDD0F8B802002157
:101F20000172704770B5D0F8B842054600212172A1
:101F300004F58050617280F85D1080F85C10D5F86F
:101F4000BC020168002088470121284601F004FCFA
:101F50008121284601F000FC41F20C00221828469D
:101F6000BDE870401F23012101F052BCD0F8B81227
:101F700000221F230A7201224A7241F20C020A4413
:101F8000012101F045BC000070B5D0F8B84205460B
:101F900004F580520B48D06282F83810002020727D
:101FA00041F22C0022180D238121284601F0CBFCA0
:101FB00041F20C0022182846BDE870401F23012181
:101FC00001F026BC5553425310B504490448FEF7AE
:101FD00054FA0249491E087010BD0000310000206B
:101FE0001400002010B586B014216846FEF732F9BF
:101FF0001548016841F080010160016801F080012D
:102000000591016841F001010160016801F00101E1
:102010000591016841F00401016000680B4C00F07B
:1020200004000590012210212046FEF79FFB10209E
:102030000121CDE900010320CDE9021069462046C7
:10204000FEF750FA06B010BD3038024000080240DA
:10205000104810B50E4901604FF4827141600021B3
:102060008160C1604FF400720161C0E90512202255
:10207000C0E90721416281620A21C162FFF752FB78
:10208000002803D0BDE81040FEF7F5B910BD0000F0
:1020900000300140342200200C4810B50A4901608C
:1020A0004FF4E1314160002181600C22C160C0E940
:1020B00004128161C161FFF77FFD002803D0BDE8F4
:1020C0001040FEF7D8B910BD001001408C2200204E
:1020D00010B500220F49104801F066FA08B1FEF76A
:1020E000CAF90E490C4801F045FD08B1FEF7C3F9E5
:1020F0000B49094801F09AFC08B1FEF7BCF9064803
:1021000001F08EFD002803D0BDE81040FEF7B3B902
:1021100010BD000050000020F4220020C400002068
:10212000A0000020FEE7FEE70148FEF72BBD0000FF
:10213000B82700202DE9F04103680D4604461E6CC7
:1021400003EB4511D1F8080BD4F810E04FF4004729
:102150004FF0200C04F57172BEF1010F09D0DFF8C9
:1021600098E0764539D1020432D500BFC1F8087B2A
:102170003FE0224B5FEA007E04D59E4239D900043D
:10218000F4D436E05FEA806E02D5C1F808CB30E0C7
:1021900010F0280F2DD19E4201D90004E6D4C5EBE2
:1021A000C50004EB8000D1F8101BD0F80432C1F355
:1021B0001201591AC0F81412D0F808121944C0F8C4
:1021C000081295B9D4F8100278B9012120680AE004
:1021D00080060AD5C1F808CB07E035B9D4F810025B
:1021E00018B90021184602F0E7F8E9B22046FEF7D8
:1021F00096FB0020BDE8F0810A31544F0A30544F5D
:102200002DE9F84F0E46C1EBC60100EB8104814673
:102210000568D4E914103C34884202D90120BDE895
:10222000F88F081AA168814200D20846C01C8708AE
:1022300005EB46181BE000BFA0EB010AA068504563
:1022400000D282460AF10300870899F81000009036
:102250001FFA8AF3F2B22846E16802F05DFBE168FA
:1022600001EB0A00E060A16901EB0A00A061D8F867
:10227000180980B2B84205D3D4E90501814201D2E0
:102280000028D9D1D4E90501884208D806F00F0109
:1022900001208840D5F834188143C5F8341800204F
:1022A000BDE7704710B5D0F8B8421A4404F5805421
:1022B000236E9A4206D92123052200F032FA4FF00C
:1022C000FF3010BD002010BD2DE9F041137800242F
:1022D000232B70D00DDC1A2B6ED005DCEBB1032B59
:1022E00039D0122B11D168E01B2B01D01E2B0CD141
:1022F0008FE02A2B72D004DC252B70D0282B04D140
:10230000ADE02F2B6CD05A2B6BD02023052200F090
:1023100008FA4FF0FF30BDE8F081D0F8B8720546FA
:1023200007F580500E46416921B1417E20230522E8
:102330002846A1E0D5F8BC0281683046884740B104
:102340003A2302223146284600F0EBF90520387284
:102350009FE07C819DE0D0F8B80200214318491C21
:10236000C9B21C731229F9D3702101730C21C174F5
:1023700000F5805191F85C5091F85D309D4213D08A
:1023800000EBC503A3F6C47303F500536D1C1E7860
:1023900086735E7906761B794376EBB281F85C3002
:1023A000042B01D181F85C4012214181117912295D
:1023B0006FD841816DE04CE02FE05478D0F8B8320E
:1023C000E4070FD0072034495881401E0004000C58
:1023D00003EB00040A5C2273F7D15AE042E03BE0D1
:1023E00043E028E0D0F8BC0201EBC1011279C069DA
:1023F00000EB81010879401D824200D810465881C7
:1024000004E0401E80B21C180A5C22730028F8D138
:102410003FE0D0F8B80244813BE0D0F8B812082081
:102420001E4A4881401E0004000C01EB0004135CAE
:102430002373F7D12DE0D0F8B8020821184A418162
:10244000491E0904090C00EB0104535C2373F7D106
:102450001FE000F02FF91CE000F0FEF819E000F09A
:10246000B1F816E000F07DF913E05278D0F8B852D8
:10247000920704D52423052200F053F909E0A5F6BC
:102480009C7202F500520CCAFFF70CFF002800DB1B
:102490006C8100203FE70000981B03089F1B030886
:1024A000A71B03082DE9F047D0F8B862074606F5E8
:1024B00080548846B4F85E00A56E4FF480514543C1
:1024C0008D4200D30D46B5FBF0F083B2D7F8BC02C5
:1024D00006F10C01626ED0F810C089464046E04714
:1024E000002809DA112304224146384600F019F980
:1024F0004FF0FF30BDE8F087ABB24A468121384645
:1025000001F021FAB4F85E00626EB5FBF0F1B5FBA4
:10251000F0F011446166A16E081AA066616BA1EB30
:102520000501616301D1032030720020E2E72DE94B
:10253000F0478846D0F8B812074601F580544FF4AA
:102540008055B4F85E00A66E4643AE4200D32E46D8
:10255000B6FBF0F083B2D7F8BC020C31626ED0F853
:1025600014C089464046E047002809DA03230422C4
:102570004146384600F0D5F84FF0FF30BDE8F0870F
:10258000B4F85E10626EB6FBF1F010446066B6FB04
:10259000F1F0A26E101AA066626BA2EB06026263F3
:1025A0000BD04843A84200D20546ABB24A460121AF
:1025B000384601F02DF90020E0E700213846FFF70A
:1025C000E3FCF8E72DE9F047D0F8B8520746164685
:1025D000287A8946B0BB05F580544FF0FF38207E3D
:1025E00000062BD5D7F8BC0281684846884730B131
:1025F0003A2302224946384600F093F812E07088E8
:10260000317940BA000440EA012270794946024318
:102610006266B6F8070043BA3846A366FFF742FE83
:10262000002802DA4046BDE8F08702202872B4F89C
:102630005E10A06E48436169884204D02023617E09
:102640000522D8E7FFE74FF48050688149463846B5
:10265000BDE8F047FFF726BF70B505460E46D5E941
:10266000AE4004F58351436841F25E0022183046C3
:10267000984740B13A2302223146284600F051F8EB
:102680004FF0FF3070BD04F58051086E401E020E01
:102690002273020C6273020AA273E073002020749A
:1026A0006074B1F85E00010AA174E07408206081D2
:1026B000002070BD2DE9FC410546D0F8B84200204D
:1026C0000F4606462118401C80B20E730C28F9D321
:1026D000D5F8BC026A4601A943683846984748B114
:1026E0003A2302223946284600F01BF84FF0FF300B
:1026F000BDE8FC810820E0730198401E010E2174A2
:10270000010C6174010AA174E074022020756675E1
:10271000BDF80000010AA175E0750C206081002061
:10272000E6E7D0F8B81201F5805090F85D3001EB83
:10273000C30303F5805383F83C2090F85D300022FA
:1027400001EBC30101F5805181F8402090F85D1044
:10275000491CC9B280F85D10042901D180F85D20C0
:1027600070472DE9F047D0F8B85207461646287A48
:10277000894620B13846BDE8F047FFF7D8BE05F5D9
:1027800080544FF0FF38207E000632D4D7F8BC02C8
:1027900081684846884728B13A230AE03846FFF75F
:1027A000C0FF1CE0D7F8BC02C1684846884718B192
:1027B000272302224946F1E77088317940BA0004A4
:1027C00040EA01227079494602436266B6F8070082
:1027D00043BA3846A366FFF765FD002802DA404693
:1027E000BDE8F087B4F85E10A06E4843616981428D
:1027F00003D02023617E0522D0E74FF48051884228
:1028000000D30846012183B2297205F10C02384633
:1028100000F0FEFF0020E3E77CB541F6FF74FDF712
:102820001BFE0025FF2000F0D9FB6D1C0A2DF9DBF3
:1028300000F092FB40208DF8000000208DF8010090
:102840008DF802008DF803008DF8040095208DF8B6
:1028500005000621684600F0B3FB00F09BFB012851
:1028600006D0641E00F096FB012801D0002CF8D1A0
:10287000FDF7F2FDFF2000F0B1FB02490120487096
:102880007CBD00002800002010B5064C4FF4FA7003
:10289000A4F8060000F07EFBFF2802D0E1880029A2
:1028A000F8D110BD2800002070B50F4C0546C82097
:1028B0000E46A08000F06EFBFF2803D0FE2805D056
:1028C000002070BDA0880028F4D1F9E72C466D1CCB
:1028D00000F060FB2070761EF8D200F05BFB00F089
:1028E00059FB012070BD00002800002070B50C4687
:1028F0000546FFF7C9FFFF2801D0FF2070BD28461D
:1029000000F06CFB200E00F069FBC4F3074000F000
:1029100065FBC4F3072000F061FBE0B200F05EFB52
:10292000402D07D0482D07D0012000F057FB4C2D3B
:1029300006D007E0952000E0872000F04FFB01E083
:1029400000F028FB5FF00A0400F024FB0106D5D557
:10295000641E14F0FF04F7D170BD70B50E46054635
:102960000024FFF791FFFF2820D1304600F036FB0E
:10297000FD2E17D04FF40071284600F021FB00F027
:1029800009FB00F007FB00F005FB054600F01F0007
:10299000052803D0641CE4B2402CF4D900F0FAFA04
:1029A0000028FBD005F01F00052801D0002070BDD5
:1029B000012070BD2DE9F84310B10120BDE8F88376
:1029C0007B4C207880077DD4FFF726FF00F0C4FA07
:1029D000002578A002F024F800214020FFF786FFB0
:1029E000012870D176A002F01BF84FF4D571482071
:1029F000FFF77CFF4FF47A78012812D073A002F021
:102A00000FF8A4F8048000217720FFF76FFF01285A
:102A100079D800216920FFF769FF0128F8D802253D
:102A20009EE070A001F0FCFF00276E4600F0B2FAB5
:102A3000F0557F1CFFB2042FF8D39DF80200012847
:102A4000CFD19DF80300AA28CBD16CA001F0E8FFFC
:102A5000A4F804804FF0804900217720FFF746FF5B
:102A6000074649466920FFF741FF012F01D800289A
:102A70004ED0A0880028EFD166A001F0D1FFA4F8C5
:102A800004804FF0805900217720FFF72FFF074681
:102A900049466920FFF72AFF012F01D8002837D0C7
:102AA000A0880028EFD164A001F0BAFFA4F8048048
:102AB0004FF0806900217720FFF718FF074649464D
:102AC000692001E072E05AE0FFF710FF012F00D803
:102AD000F0B1A0880028EDD15EA001F0A1FFA4F81C
:102AE0000480DFF8908100217720FFF7FFFE074682
:102AF00041466920FFF7FAFE012F00D840B1A088B7
:102B00000028F0D100E024E05BA001F089FF40E064
:102B10005FA001F085FF00217A20FFF7E7FE70BB80
:102B20005FF0000500F036FA705501465DA001F037
:102B300077FF6D1CEDB2042DF4D39DF80000400624
:102B400001D50C2500E00425294658A001F068FFB6
:102B50001FE0012501E0022D02D00021412007E005
:102B600000217720FFF7C2FE012804D80021692048
:102B7000FFF7BCFE20B1A0880028ECD108E008E0F7
:102B8000A08828B14FF400715020FFF7AFFE00B1CC
:102B90000025A570FDF760FC00F0FCF925B1207858
:102BA00020F00100207001E000206070207805E72F
:102BB000280000200D0A434D44300D0A000000009B
:102BC000434D44382E2E2E20000000006661696CB3
:102BD00065642C20534443205631206F72204D4DA4
:102BE000430D0A007375636365656465642C205347
:102BF00044432056322B0D0A0000000041434D444F
:102C000034312041434D4434315F4843532E2E200C
:102C1000000000006661696C65640D0A74727920B9
:102C200041434D4434315F534458435F504F5745FF
:102C3000522E2E2E200000006661696C65640D0A1C
:102C40007472792041434D4434315F533138522EF0
:102C50002E2E20006661696C65640D0A74727920FD
:102C600041434D4434315F564F4C544147452E2E1D
:102C70002E2000000080FF006661696C65642C20D6
:102C800073746F7020747279696E670D0A000000AA
:102C90007375636365656465640D0A434D44353837
:102CA0002000000025303258200000007479706543
:102CB0003A253032580D0A007FB515460E4610B140
:102CC000042004B070BD01244A48052E04D00078C9
:102CD000C00713D00320F4E7297829B1012906D0D1
:102CE000022907D0042482E00021417004E0FFF7AC
:102CF00093FD01E040785070002478E000F02CF95A
:102D00000B2E51D005DCEEB3012E07D0022E69D177
:102D100041E00C2E4BD00D2E64D154E0002149200F
:102D2000FFF7E4FD78BB10216846FFF7BDFD50B307
:102D30009DF800100120B0EB911F09D19DF80820EB
:102D40009DF8091000EB022008440004800920E0EF
:102D50009DF805009DF80A1000F00F0000EBD1105F
:102D60009DF809109DF8072001F0030100EB4101D7
:102D70009DF80800800900EB82009DF8062002F013
:102D8000030201E00BE02EE000EB8220401CC91F93
:102D90008840286015E04FF40070288011E0FFF7AC
:102DA00073FDFF280DD01EE00021492001E0002125
:102DB0004A20FFF79BFDB0B910212846FFF774FDAC
:102DC00088B100240FE000217A20FFF78FFD48B979
:102DD0005FF0000400F0DEF8641CE4B205F8010BBB
:102DE000042CF7D30424FDF737FB00F0D3F820467A
:102DF00067E70000280000202DE9F0411C46154639
:102E00000E4638B934B121480178C90704D00320EF
:102E1000BDE8F0810420FBE78078000700D455026C
:102E200000F09AF84FF40077012C294604D0522084
:102E3000FFF75CFD70B11AE05120FFF757FDE0B9D4
:102E400039463046FFF730FDB8B1FDF705FB00F01D
:102E5000A1F818E039463046FFF726FD18B1641E88
:102E600006F50076F6D100214C20FFF73FFDFDF777
:102E7000F3FA00F08FF824B905E0FDF7EDFA00F061
:102E800089F80120C4E70020C2E7000028000020E4
:102E900008B10120704701480078704728000020E1
:102EA0002DE9F0411C4616460F4638B934B1294D7C
:102EB0002878C00704D00320BDE8F0810420FBE798
:102EC0002878400701D50220F6E7A878000700D44B
:102ED000560200F041F8012C10D0A878800707D5E1
:102EE00000217720FFF702FD21465720FFF7FEFC67
:102EF00031465920FFF7FAFC78B11CE031465820E2
:102F0000FFF7F4FCF0B9FE213846FFF726FDC8B103
:102F1000FDF7A2FA00F03EF819E0FC213846FFF771
:102F20001CFD18B1641E07F50077F6D1FD210020C5
:102F3000FFF713FD30B1FDF78FFA00F02BF834B135
:102F40000120B9E7FDF788FA00F024F8F8E700203F
:102F5000B2E700002800002010B50022102104482C
:102F6000FDF704FCBDE810400120FDF7A9BA000000
:102F70000008024038B50B4600920446002280212A
:102F800000F03CF8002804D0606D40F0200060653F
:102F9000032038BD0EB5FF208DF8040007480068F7
:102FA00081688907FCD564200090012302AA01A949
:102FB0000248FEF7FCFC9DF808000EBD34220020FC
:102FC000054A126893689B07FCD50A4601466423AC
:102FD0000148FEF739BC00003422002001B5064844
:102FE000006881688907FCD564230122694602488C
:102FF000FEF72AFC08BD0000342200202DE9F8432A
:103000001E46914688460446089DFDF7B5FB401BC9
:10301000351AFDF7B1FB074625480068C0F3CB30F1
:10302000684338E0701C37D0FDF7A6FBC01BA842F0
:1030300003D215B1009860B32CE02068416821F0FC
:10304000E00141606068B0F5827F0BD1A068B0F507
:10305000004F02D0B0F5806F04D12068016821F0E4
:1030600040010160A06AB0F5005F09D120680168E5
:1030700021F4005101602068016841F400510160B1
:10308000012084F85100002084F850000320BDE89E
:10309000F8830025401E00902068816838EA01000E
:1030A00004D000214945BDD10020F0E70121F9E716
:1030B000440000204FF480500860108000207047CA
:1030C00000207047002070470020704700207047A4
:1030D00000207047002070477047000005490888AD
:1030E00008B1401E08800449088808B1401E0880C5
:1030F000FDF748BB2C0000202E00002030B591B019
:1031000030216846FDF7A6F814210CA8FDF7A2F8B7
:1031100001200390022410200490009400250694BE
:103120000D20CDE90750C320CDE9090405200B90FF
:103130006846FEF75BF908B172B6FEE70CA90F20EE
:1031400081E831004FF4A0500F904FF48050109060
:1031500003210CA8FEF746F8002801D072B6FEE75E
:1031600011B030BD704700002DE9F0410446006801
:103170000169E26821F44051114301612169A068AD
:10318000E26908436169114322680843D16849F242
:103190000C6399430143D16020684169A26921F41D
:1031A00040711143416137492068884202D0364955
:1031B000884202D1FEF7D2F801E0FEF7B7F80246E6
:1031C000E36964203221B3F5004F02EBC20303EB45
:1031D000021362682BD09200B3FBF2F5B5FBF0F559
:1031E000B3FBF2F66FF018077D4306EB8505B3FBE2
:1031F000F2F601EB0515B5FBF0F5B6FBF0F605F0C0
:10320000F00505EB0615B3FBF2F6B3FBF2F2B2FBE9
:10321000F0F27A4306EB820201EB0211B1FBF0F00F
:1032200000F00F00216828448860BDE8F08152005A
:10323000B3FBF2F6B6FBF0F6B3FBF2F7B3FBF2F535
:103240006FF0180C06FB0CF607EB860601EBC606C2
:10325000B5FBF0F5B6FBF0F62D0106F0F80605EB30
:103260004605B3FBF2F6B3FBF2F2B2FBF0F202FB5F
:103270000CF206EB820201EBC201B1FBF0F000F0B0
:103280000700CFE700100140001401402DE9F04194
:10329000984617460E460446069D1DE0681C1BD046
:1032A0002DB1FDF769FAA0EB0800A84214D92068F7
:1032B000C16821F4D071C1602068416921F0010129
:1032C0004161202084F83D0084F83E00002084F80D
:1032D0003C000320BDE8F0812068006836EA000069
:1032E00004D00020B842D9D00020F3E70120F9E74C
:1032F00010B5D0F8B42252689047002010BD134694
:1033000010B50A46002100F083FA002010BD1346D4
:1033100010B50A46002100F016FB002010BD10B5C4
:103320000446802100F0F4FA2046BDE81040002158
:1033300000F0EEBA10B505210023C0F894121A4629
:10334000194600F065FA002010BD10B50223C261D5
:10335000C0F89432026213460A46002100F0F3FAE4
:10336000002010BD10B504210023C0F894121A46A5
:10337000194600F0E8FA002010BD000010B50A461A
:10338000024903A000F0E0F8004810BDB825002075
:103390004D534320436F6E6669670000122008801A
:1033A000004870477000002010B50A46024903A08B
:1033B00000F0CAF8004810BDB82500204D53432046
:1033C000496E7465726661636500000004200880C0
:1033D000004870476C00002010B50A46024903A05F
:1033E00000F0B2F8004810BDB825002053544D69D4
:1033F00063726F656C656374726F6E6963730000EE
:1034000010B50A46024903A000F09EF8004810BD1E
:10341000B825002053544D3332204D61737320532F
:10342000746F72616765000010B51A2008800A4841
:103430000168001D0468001D0068081809D00822F2
:103440000649FEF77BFC0549042210312046FEF7B1
:1034500075FC0248801E10BD107AFF1F86000020F8
:10346000F8B504460020ADF8000048880D46010A72
:10347000082948D2DFE801F04704091747473C45CF
:10348000D4F8B012207C0A6819E0207C02260028BB
:10349000D4F8B40205D0C16A684688470146467030
:1034A0003EE0816AF8E7C0B206282CD2DFE800F0DF
:1034B000030A1014181CD4F8B002426805E06946EB
:1034C00090471CE0D4F8B0028268E2B1207CF6E7B5
:1034D000D4F8B002C268F8E7D4F8B0020269F4E7A1
:1034E000D4F8B0024269F0E7D4F8B0028269ECE7A0
:1034F000207C40B9D4F8B402416B68468847014645
:103500000EE0207C20B129462046FFF708FFF8BDD9
:10351000D4F8B402016B684688470146072048701A
:10352000BDF8000048B1EA8852B1824200D9024693
:10353000ADF800202046FFF708FFE8880028E6D114
:103540002046FFF70FFFF8BD70B5002300281ED0FE
:103550000446002502E06D1CEDB2641C2678002EA6
:10356000F9D1022404EB450414801278CA545B1C80
:103570000322CA5400245B1C06E0CA545B1CDAB266
:103580008C54521CD3B2401C0278002AF5D170BD75
:1035900001004FF0000004D0012901D0022901D020
:1035A000022070470120704710B580B1D0F8B432C6
:1035B00013B10023C0F8B43209B1C0F8B012012130
:1035C00080F89C12027000F0D5F8002010BD022097
:1035D00010BD10B5D0F8C002FDF7D5F9BDE8104018
:1035E000FFF7D6BF10B5D0F8C002FDF7A6F9BDE8C9
:1035F0001040FFF7CDBF2DE9F0411746044651B109
:10360000D4F8B40242691AB194F89C02032851D04C
:103610000220BDE8F081D4F89432002504F11400B2
:10362000022B03D0042B3AD0C3B33CE0D0E90363B0
:103630009E4207D9F11AC1608AB239462046FFF787
:1036400066FE12E08068B0FBF3F103FB110199B94B
:10365000984211D3D4F8981288420DD20022114614
:103660002046FFF754FEC4F8985200231A46194624
:10367000204600F0CDF816E0D4F8B402C16829B1B4
:1036800094F89C02032801D12046884780212046D7
:1036900000F03EF92046FFF74DFE04E0FFE78021F1
:1036A000204600F035F994F8A002012804D184F8EE
:1036B000A05201E0204690470020AAE770B51546C9
:1036C000044649B1D4F8B40282691AB194F89C0254
:1036D000032830D0022070BDD4F8941204F5AA70EB
:1036E000032902D005291ED027E0D0E903218A4210
:1036F0000BD9531AC3600846834200D303469AB2DB
:1037000029462046FFF7FBFD17E0D4F8B402016913
:1037100029B194F89C02032801D12046884720460D
:10372000FFF720FE09E000200146C4F8940220467D
:1037300000F0EEF801E020469047002070BD002028
:10374000704710B5012180F89C12D0F8B42201799D
:1037500052689047002010BD10B5D0F8C002FDF7A8
:1037600040F9BDE81040FFF713BFD0F8C002FDF7E5
:1037700052B9000010B5017831BB14490222C1F8DA
:10378000FC03C0F8C0124FF0A0400860042048605D
:103790000020C1E90320C1E906200862C86208636D
:1037A0000846FDF705FC08B1FCF765FE80210748D7
:1037B000FDF782F8402200210448FDF781F88022BD
:1037C00001210248FDF77CF8002010BDB827002039
:1037D0000A0601F07F01D0F8C002C1EBC10100EB85
:1037E000810002D590F83E00704790F8FE017047C6
:1037F000002070470020704710B51C461346D0F8D3
:10380000C0022246FDF710F9BDE81040FFF7C0BE28
:1038100010B5D0F8C002FDF737F9BDE81040FFF74A
:10382000B7BE70B50022044640231146FFF7E4FFFF
:1038300040260125C4F864613346002280212046D9
:10384000C4F85851FFF7D8FF6662A56184F89C520E
:103850000020C4F894026060C4F8A402D4F8B8024E
:1038600028B1D4F8B40200214268204690470020D5
:1038700070BD90F89C12042903D190F89D1280F835
:103880009C120020704710B590F89C12032904D1B7
:10389000D0F8B412C96901B18847002010BD017485
:1038A0000020704710B5D0F8C002FDF753FCBDE80A
:1038B0001040FFF76DBE70B5044600F52A7005464E
:1038C00000F044F90120C4F89402B4F8AE02C4F840
:1038D000980294F8A80210F01F010AD001290DD017
:1038E000022910D000F08001204600F011F80020DD
:1038F00070BD2946204600F098F9F8E72946204691
:1039000000F0C4FAF3E72946204600F017FAEEE784
:1039100010B5D0F8C002FDF7DBF8BDE81040FFF7A6
:1039200037BE10B5D0F8C002FDF72FFCBDE810403F
:10393000FFF72EBE90F89C1280F89D12042180F8AB
:103940009C120020704710B5D0F8C002FDF7FAF8BD
:10395000BDE81040FFF71CBE10B5FEF7A2FA00202C
:1039600010BD10B5FEF7BBFA002010BD70B50446BF
:103970000121FFF737FE002581212046C4F86C5154
:10398000FFF730FE2046E562FEF7C7FAD4F8B8022A
:1039900018B102F063FDC4F8B852002070BD0000F9
:1039A0000A210180004870475C010020202101802D
:1039B000004870471C01002020210180004870470A
:1039C000FC00002020210180004870473C010020BD
:1039D00070B50446007C0125D0B1402302220121AC
:1039E0002046FFF709FF4023C4F86C5102228121D1
:1039F0002046FFF701FF41F26C00E56203F040F85A
:103A0000C4F8B80280B12046FEF78CFA002070BDE1
:103A10004FF400763346022201212046FFF7ECFEE8
:103A20003346C4F86C51E1E7022070BD09B1C0F81B
:103A3000BC12002070472DE9F8430026D0F8B87278
:103A40000546ADF8006008780C46B04610F06001FD
:103A500020D020293DD16178FE2902D0FF2938D11C
:103A60000EE0618881BBE188012932D1000630D5A2
:103A7000D5F8BC02806980470122394638601FE0D2
:103A8000618809BBE188F9B9000622D42846FEF70F
:103A90006DFA23E0607830B1012825D00A2809D0DA
:103AA0000B2816D111E095F89C02032811D10222AF
:103AB000694605E095F89C0203280AD10122391DC8
:103AC0002846FFF742FC09E003E095F89C02032832
:103AD00007D021462846FFF722FC02263046BDE8E3
:103AE000F883A0787860F9E721792846FFF734FE5B
:103AF00021792846FFF776FDA0884FF001070106DF
:103B000000F00F0000EB80004FF4007305EB800025
:103B10000BD5C0F81880287C00B1402302228121F7
:103B20002846FFF769FEEF620BE0C0F85881287C59
:103B300000B14023022201212846FFF75DFEC5F8AF
:103B40006C7121792846FEF797F9C7E70A78027069
:103B50004A7842708A78CB7802EB032242800A7955
:103B60004B7902EB032282808A79C97902EB012129
:103B7000C18070470246002011B1C2F8B4127047EC
:103B80000220704710B5D0F8B42202241AB112688E
:103B9000904700B90024204610BD000070B50E46C5
:103BA0001E4D897804462970012931D894F89C0269
:103BB00002280BD003280FD031462046FFF7AFFB79
:103BC00029782046BDE87040FFF792BBD9B10320A9
:103BD000616084F89C0209E071B16068884212D08B
:103BE000C1B22046FFF784FB297861602046FFF7C9
:103BF000C9FF02280CD006E0022084F89C0220466F
:103C00006160FFF775FB2046BDE87040FFF7AABB77
:103C100031462046BDE87040FFF781BBC000002060
:103C200010B5FFF77EFE002010BD2DE9F0410A78A7
:103C3000002612F0600208D0202A01D0402A70D15C
:103C4000D0F8B422926890476DE04B7800220125AD
:103C50000A2B66D2DFE803F0405D6557650805650D
:103C60002C29FFF7FDFB5EE004468888D8B9C88898
:103C7000C8B94888802816D200F07F0794F89C02C3
:103C8000032810D084F89E7239462046FFF70AFEBA
:103C90002046FFF767FB1FB1022084F89C0242E038
:103CA00084F89C523FE020463BE0FFF777FF3AE084
:103CB000CB88012B35D190F89C32012B04D0022BFC
:103CC00002D0032B2DD104E08260012200F1080113
:103CD00016E00122011D13E090F89C22012A03D076
:103CE000022A01D0032A1CD1CA88022A19D1C56030
:103CF000D0F8A41209B10321C160022200F10C0125
:103D0000FFF723FB0FE0498801290CD1C0F8A4522A
:103D100011E090F89C32012B08D0022B06D0032B27
:103D200004D0FFF7FCFA3046BDE8F081498801294C
:103D3000F9D1C0F8A422FFF715FBF4E72DE9F04113
:103D40000A46044610780027097910F060030AD06B
:103D5000202B01D0402B50D1D4F8B40211468368F7
:103D6000204698478FE0C0F34110012806D05078D4
:103D7000D0B301282AD003283FD107E0D4F8B402F9
:103D8000114683682046BDE8F041184794F89C022C
:103D9000022802D0032872D10AE071B380296ED0C4
:103DA0002046FFF7B5FD80212046FFF7B1FD6AE010
:103DB000508838B931B1802904D0D08810B9204654
:103DC000FFF7A6FD2046FFF7CDFA5CE094F89C02D1
:103DD0000228E2D0032852D1508898BB4806F1D07F
:103DE0002046FFF7F6FBEDE7FFE794F89C0200267C
:103DF000022803D0032842D112E040E009B1802913
:103E00003DD1080601F07F0000EB800004EB80014B
:103E100001D5143101E001F5AA7102220E602AE0F9
:103E2000080601F00F0000EB800004EB80000AD5CB
:103E3000806920B301F07F0000EB800004EB800577
:103E400014350BE01FE0D0F85801C0B101F07F003D
:103E500000EB800004EB800505F5AA7541B18029CF
:103E600006D02046FFF7B4FC10B10120286000E026
:103E70002E60022229462046FFF767FA03E011462A
:103E80002046FFF74CFA3846BDE8F08170B505468C
:103E900008780C4610F0600003D0202801D040289C
:103EA00016D195F89C02012803D0022801D00328DE
:103EB0000ED1207901280BD8D5F8B40282682846A3
:103EC0009047E188014306D12846FFF74BFA02E00C
:103ED0002846FFF724FA002070BD000070B50A786C
:103EE000012302F00F054E78AB401B4CD0F81C5854
:103EF000012E17D045EA0343C0F81C3800EB4210EE
:103F0000D0F8002B12040BD4D0F8002B0B89C97801
:103F1000C3F30A031A4344EA81410A43C0F8002B61
:103F2000002070BD9BB21D43C0F81C5800EB42102E
:103F3000D0F800391B04F3D4D0F800390D89C978C2
:103F4000C5F30A0589042B4341EA82510B432343FD
:103F5000C0F80039E4E7000000800010D0F8001934
:103F60006FF30A01C0F80019D0F8041841F4807109
:103F7000C0F804180020704770B504460699049DE7
:103F80000D98012915D0E06840F04000E06020461F
:103F900000F028F8A16B41F48031A163012D07D115
:103FA000A16841F00601A160A16841F02001A16073
:103FB00070BDA16B21F48031A163E168084A114012
:103FC000E160E16821F44011E160012803D1E0687B
:103FD00040F48010E060204600F004F8DEE70000C6
:103FE000BFFFBDFF01220C4902E0521C8A420BD8E0
:103FF0000369002BF9DA026942F001020261012231
:1040000004E0521C8A4201D9032070470369DB0790
:10401000F7D1002070470000400D030030B54C7808
:104020000A78012300EB4212012C2CD0D2F8004B6D
:10403000002C0BDAD2F8004B44F00064C2F8004BBD
:10404000D2F8004B44F08044C2F8004BD0F83C5802
:104050000C7804F00F0403FA04F425EA0444C0F8D1
:104060003C48D0F81C48097801F00F018B4024EA45
:104070000341C0F81C18D2F8000B19490840C2F8D7
:10408000000B002030BDD2F80049002C0BDAD2F82A
:10409000004944F00064C2F80049D2F8004944F0F5
:1040A0008044C2F80049D0F83C480D7805F00F056F
:1040B00003FA05F5ADB2AC43C0F83C48D0F81C4853
:1040C000097801F00F018B4099B28C43C0F81C486D
:1040D000D2F8000903490840C2F80009D1E70000FE
:1040E0000078F3EF007833ECD0F8001E21F00301E4
:1040F000C0F8001ED0F8041821F00201C0F804181E
:1041000000207047D0F8001E21F00301C0F8001E07
:10411000D0F8041841F00201C0F8041800207047DC
:104120002DE9F04F00250E460446DDF82CC0DDF8E1
:1041300024B0109F2846294604EB8002C2F80411DF
:10414000401C0F28F8D32046C7B1806B20F4001222
:10415000A263A06B40F40022A26308468846C4F81C
:10416000000ED4F800182046C4F80018BCF1010F66
:1041700016D0D0F8001841F0030116E0D0F804087A
:1041800040F00202C4F80428A06B40F40012A263BD
:10419000A06B20F40022A263A06B20F48022DBE756
:1041A000D0F800180BB141F00101C0F8001810213F
:1041B00000F090FA00B10125204600F07BFA00B132
:1041C00001254046C4F81088C4F81488C4F81C8837
:1041D00000214FF000694FF0904A4FF67F3314E012
:1041E00004EB4112D2F800C9BCF1000F06DA11B19C
:1041F000C2F800A904E0C4F8009901E0C2F800097F
:10420000C2F81009C2F80839491C8E42E8D80021CA
:1042100015E000BF04EB4112D2F800CBBCF1000F57
:1042200006DA11B1C2F800AB04E0C4F8009B01E06B
:10423000C2F8000BC2F8100BC2F8083B491C8E42B2
:10424000E8D8D4F8101821F48072C4F81028A061BE
:104250006FF080406061BBF1000F03D1A06940F0B6
:104260001000A061A06909490843A0610C9818B129
:10427000A06940F00800A061012F03D1A0690449A2
:104280000843A0612846BDE8F08F000000383C805C
:1042900004000040816821F0010181600020704726
:1042A00070B50D784E78434CEBB200EB4313012E02
:1042B0001FD0D3F8100B6FF31200C3F8100BD3F814
:1042C000100B2040C3F8100B486908B1886848619A
:1042D000D3F8100B40F40020C3F8100BD3F8100BE8
:1042E0008C68C4F312042043C3F8100B012A55D084
:1042F00058E04E69002ED3F8106932D06FF31206E1
:10430000C3F81069D3F810692640C3F810694E69E4
:104310008C68A64200D94C61D3F8104944F40024BB
:10432000C3F81049D3F810494E69C6F31206344356
:10433000C3F81049012A22D000EB4512D2F8003907
:1043400043F00443C2F800394A6932B3D0F8342844
:10435000097801F00F03012199400A43C0F834287D
:1043600026E02640C3F81069D3F8104944F400242D
:10437000C3F81049D3F810496FF31204D8E709695C
:1043800019B100EB4512C2F8141900EB4510D0F832
:10439000001941F00441C0F8001909E0C86808B1EB
:1043A000C3F8140BD3F8000B40F00440C3F8000B23
:1043B000002070BDFFFF07E010B5036C134CA34253
:1043C00003D9D0F8003B002B1EDB0023C0F8103BC4
:1043D000D0F8103B43F40023C0F8103BD0F8103B5A
:1043E00043F01803C0F8103BD0F8103B43F0C04333
:1043F000C0F8103B012907D1C0F8142BD0F8001BDE
:1044000041F08021C0F8001B002010BD0A30544F3D
:104410004A780B78012A00EB43100BD0D0F8002B20
:1044200022F40012C0F8002BC978032914D0022905
:1044300012D017E0D0F8002922F40012C0F80029A9
:10444000C978032901D002290CD1D0F8001941F014
:104450008051C0F8001905E0D0F8001B41F08051F0
:10446000C0F8001B002070470A784B78D1B200EBEF
:104470004110012B12D0D0F8001B002906DB2AB115
:10448000D0F8001B21F08041C0F8001BD0F8001BC1
:1044900041F40011C0F8001B00207047D0F800194B
:1044A000002906DB2AB1D0F8001921F08041C0F8BC
:1044B0000019D0F8001941F40011C0F80019EBE719
:1044C000F8B50C784F78774DE3B26FF0604600EBAB
:1044D0004313012F26D0D3F8104B6FF31204C3F807
:1044E000104BD3F8104B2C40C3F8104B4C69002CE8
:1044F00074D08D682C44641EB4FBF5F4D3F8105BC3
:10450000A4B206EAC4463543C3F8105BD3F8105B87
:104510008E686643C6F312042543C3F8105B012A74
:1045200071D0A6E04F691FB3D3F810796FF312076B
:10453000C3F81079D3F810792F40C3F810794F6978
:104540008D682F447F1EB7FBF5F506EAC545D3F805
:1045500010693543C3F81059D3F810594E69C6F3A2
:1045600012063543C3F81059CD78012D10D01BE049
:10457000D3F810692E40C3F81069D3F8105945F4E8
:104580000025C3F81059D3F810596FF3120509E04C
:10459000D3F8105925F0C045C3F81059D3F8105975
:1045A00045F00055C3F81059012A18D000EB441308
:1045B000D3F8004944F00444C3F80049CC78012CF6
:1045C0002FD04A6962B3D0F83428097801F00F037C
:1045D000012199400A43C0F8342860E036E00A69B6
:1045E0001AB100EB4413C3F81429C97801290FD17B
:1045F000D0F80818C90500EB4411D1F8002903D4FC
:1046000042F0005202E030E042F08052C1F800294E
:1046100000EB4410D0F8001941F00441C0F8001933
:104620003DE0D0F80848E405D3F8004902D444F04E
:10463000005401E044F08054C3F8004900928A8A93
:1046400093B20A78C96800F067F928E0D3F8104BF4
:104650008D68C5F312052C43C3F8104BD3F8104BEB
:1046600044F40024C3F8104B59E7CA680AB1C3F8F0
:10467000142BC97801290CD1D0F80808C005D3F84B
:10468000000B02D440F0005001E040F08050C3F82D
:10469000000BD3F8000B40F00440C3F8000B0020DF
:1046A000F8BD0000FFFF07E0816841F00101816073
:1046B00000207047002110220261054A491C9142E6
:1046C00001D9032070470369DB06F7D40020704747
:1046D000400D03000022202343EA811101610549B6
:1046E000521C8A4201D90320704703699B06F7D404
:1046F00000207047400D0300D0F8080810F00600B5
:1047000004D0022803D0062801D00F2070470220D1
:104710007047406900F001007047D0F81818D0F8D1
:104720001C08084080B27047D0F81818D0F81C0850
:104730000840000C704710B5D0F81038D0F8342875
:1047400001F00F0400EB4110E24002F00102D0F84A
:10475000080943EAC212104010BD00EB4111D1F824
:10476000081BD0F814080840704741698069084068
:10477000704730B503460846940802F00301002252
:1047800003F5805303E01D6840F8045B521CA2420D
:10479000F9D300290BD01C680022D50024FA05F3B8
:1047A000491E521C090400F8013B090CF5D130BD2B
:1047B00070B50446C068002520F0C040E0600129C3
:1047C00001D079B120E0E06840F00050E0600120C5
:1047D000FBF776FE60696D1C10F0010F10D1322DD1
:1047E000F5D30DE0E06840F08040E0600120FBF789
:1047F00067FE60696D1C10F0010F01D0322DF5D3FA
:10480000322D01D0002070BD012070BDD0F80028ED
:1048100022F4FE62C0F80028D0F800284FF4FE63AE
:1048200003EA01110A43C0F8002800207047000085
:10483000022A3ED1264A274B0A449A4201D20F212E
:1048400038E0254A254B0A449A4201D20E2131E034
:10485000234A244B0A449A4201D20D212AE0224ADB
:10486000224B0A449A4201D20C2123E0204A214BD8
:104870000A449A4201D20B211CE01F4A1F4B0A44F2
:104880009A4201D20A2115E01D4A1E4B0A449A425F
:104890000FD31D4A1D4B0A449A4201D2082109E058
:1048A0001B4A11441B4A914201D2072102E0062112
:1048B00000E00921C26822F47052C260C2684FF45D
:1048C000705303EA81210A43C26000207047000050
:1048D000405327FF00350C00401E1BFF40420F00D5
:1048E00000DC0BFF804F1200808CF9FE20D61300F5
:1048F00060B6E5FE60E3160000D3CEFE40771B00F5
:10490000C05BB3FEC091210000CA91FE2075380043
:10491000E05459FEE09C410010B5029C74B9DB1CC8
:104920009C0800EB0230002300F5805004E000BF3B
:1049300051F8042B02605B1CA342F9D3002010BD88
:1049400010B5FEF737F802490870087810BD00006E
:104950001000002070B5064614460D4607A000F072
:104960005FF8224629463046FEF7A6F9044601467E
:1049700006A000F055F8204670BD00005553455282
:104980005F696F63746C2E2E2E2000002530325824
:104990000D0A0000FEF730BA10B5044606A000F07C
:1049A0003FF82046FEF774FA074C2070217807A0E4
:1049B00000F036F8207810BD555345525F7374618E
:1049C0007475732E2E2E20001000002025303258D2
:1049D0000D0A00002DE9F04107461C4615460E461B
:1049E00008A000F01DF823462A4631463846FEF757
:1049F00057FA0446014607A000F012F82046BDE829
:104A0000F0810000555345525F77726974652E2E10
:104A10002E200000253032580D0A0000FEE700006D
:104A20000FB4054B10B503A9044A029800F028F80A
:104A300010BC5DF814FB000045640008680100200C
:104A40000907090E002804DB00F1E02080F80014BB
:104A5000704700F00F0000F1E02080F8141D70474F
:104A600002E008C8121F08C1002AFAD17047704737
:104A7000002001E001C1121F002AFBD17047000095
:104A80002DE9FF4F8DB00F460546002606E025288C
:104A90000BD0DDE90F1290476D1C761C287800289A
:104AA000F5D111B03046BDE8F08F0024A246A146F2
:104AB0000122E94900E0044315F8013F203B02FAD6
:104AC00003F00842F7D128782A2810D06FF02F027F
:104AD0002878A0F13001092914D80AEB8A0102EBE9
:104AE000410144F0020400EB010A6D1CF0E701CF24
:104AF0005FEA000A03D544F40054CAF1000A44F006
:104B000002046D1C28782E2817D115F8010F44F0E7
:104B100004042A280ED06FF02F022878A0F130016B
:104B200009290AD809EB890102EB410100EB0109CF
:104B30006D1CF2E757F8049B6D1C28786C280FD089
:104B400006DC4C2817D068280DD06A2814D104E060
:104B5000742810D07A280FD10DE044F400140AE034
:104B600044F4801401E044F440146978814202D195
:104B700004F580146D1C6D1C28786E281ED00CDC8A
:104B8000632830D004DC00288BD0582811D19FE056
:104B9000642867D069280CD164E073282DD004DC28
:104BA0006F2872D0702804D194E075286ED07828D0
:104BB0006DD0DDE90F129047761C4BE1C4F3025033
:104BC000022806D0032809D0042801CF09D00660A6
:104BD00040E101CFF117C0E900613BE101CF068060
:104BE00038E1067036E117F8040B8DF8000000205C
:104BF0008DF80100EB46012003E057F804BB4FF0AD
:104C0000FF3061074FF0000102D40DE008F101010F
:104C1000884649450FDA8045F8DB1BF80810002963
:104C2000F4D108E008F1010188468142FADB1BF863
:104C300008100029F6D1DDE90F23AAEB0800814610
:104C4000214600F031F9304400EB080604E0DDE9CC
:104C50000F121BF8010B9047B8F10108F7D221465B
:104C60004846F2E00A21C4F302524FF0000B0891CB
:104C7000022A04D001CFC117032A09D00AE0FF1D80
:104C800027F00707F7E8020108E02CE01EE01FE02C
:104C900000B2C117042A01D140B2C117021E71F13E
:104CA000000206DA0023D0EB030063EB01012D22A2
:104CB00002E0220504D52B228DF82420012203E0F6
:104CC000E20701D02022F7E7904653E00A210BE0EB
:104CD000102109E010214FF0000B44F004044FF0C4
:104CE0000809089103E008214FF0000B0891C4F374
:104CF0000252022A04D001CF0021032A06D006E086
:104D0000FF1D27F00707F7E8020103E080B2042A3D
:104D100000D1C0B24FF0000822072BD52A78702AA4
:104D200007D0DDF820C08CF0100C5CEA0B0C05D02D
:104D30000EE040228DF82420012208E050EA010311
:104D400006D030238DF824308DF82520022290469D
:104D5000089B83F0080353EA0B030BD150EA0102CE
:104D600001D1620706D530228DF824204FF00108CA
:104D7000A9F101092A78582A04D038A20B9208AA6E
:104D80000A920BE03AA2F9E75B46089AFBF718FA99
:104D90000B9B9B5C0A9A521E0A92137050EA010206
:104DA000F2D10A98ADEB000000F1200B600702D5AC
:104DB00024F4803401E04FF00109D94502DDA9EB6C
:104DC0000B0000E0002000EB0B0141440890AAEB2F
:104DD000010AE00306D4DDE90F232146504600F026
:104DE00063F806444FF0000908E009A911F809002A
:104DF000DDE90F12904709F10109761CC145F4DB8A
:104E0000E0030CD5DDE90F232146504600F04CF8B5
:104E1000064404E0DDE90F1230209047761C089923
:104E2000481E08900029F5DC08E00A980A990078E5
:104E3000491C0A91DDE90F129047761CBBF1000175
:104E4000ABF1010BF1DC21465046DDE90F2300F008
:104E500019F806446D1C21E609280100303132336F
:104E600034353637383961626364656600000000A6
:104E70003031323334353637383941424344454690
:104E8000000000002DE9F041044600251E461746AB
:104E9000880404D405E039462020B0476D1C641E08
:104EA000F9D52846BDE8F0812DE9F04104460025FA
:104EB0001E469046C80301D5302700E0202788040D
:104EC00004D505E041463846B0476D1C641EF9D54F
:104ED0002846BDE8F081000010B5044600F580507A
:104EE00000220271521EC262204601F00FFE08B17C
:104EF000032010BDB4F8FE01A0F52A41553901D0B8
:104F0000022010BD94F8360094F8391094F8372038
:104F100040EA016194F83800000440EA02200143AD
:104F20000A48B0EB012F0DD014F8521FE2786378D5
:104F300041EA0261A278120442EA03221143B0EB73
:104F4000012F01D1002010BD012010BD00464154A9
:104F500000E0401C02780AB18A42FAD1D0B2704710
:104F6000F0B50022174B144600F5805002EB4206C4
:104F700053F826506DB10768BD420BD103EB86058F
:104F800087686E68BE4205D12D89C688B54204D0B7
:104F900000E00124521C022AE8D3022A01D079B988
:104FA00004E05CB9022909D01220F0BD02EB4200F6
:104FB00003EB80004089B0F5807F01D00020F0BD78
:104FC0001020F0BDD022002030B50021064A0C464A
:104FD00001EB410352F82350854201D142F82340AE
:104FE000491C0229F4D330BDD022002000F58050A6
:104FF000426A006800F58050438980784343B1FBE2
:10500000F3F0121D02CA19B1884203D3401AF8E71F
:105010000020704711680844704700F58050891ED1
:105020004269921E8A4201D800207047826A8078C5
:1050300001FB002070472DE9F04180460F0000F58C
:10504000805407D0404601F077FA022809D20120A7
:10505000BDE8F081E66816B16069B04207D8012664
:1050600005E0411CF4D061698142F1D83E463546E5
:1050700060696D1CA84202D80225022E0AD3294677
:10508000404601F059FA38B1411CE1D00128DFD087
:10509000B542EDD10020DBE76FF070422946404673
:1050A00001F050FD30B957B12A463946404601F06B
:1050B00049FD20B101280DD001252846C8E7E5604B
:1050C0002069411CF9D0401E2061607940F0010048
:1050D0006071F2E74FF0FF35EFE700002DE9F84F80
:1050E00088460F6800E07F1C39782F29FBD05C29A7
:1050F000F9D000F5805A0024DAF820602546785D62
:105100006D1C202827D32F2825D05C2823D0FF2CE6
:1051100041D2A0F181017D290BD8795D6D1C01EB95
:105120000020A1F1400280B23F2A02D380397F29BA
:1051300031D2012100F0AAFF5FEA00092BD0B9F1BA
:10514000800F04D2014671A0FFF702FF18BB26F8BA
:105150001490641CD3E77A19C8F80020202801D2E3
:10516000042516E0002514E006EB440030F8020C9C
:1051700020280DD02E280BD06CB1002026F814006A
:105180000B222021DAF8180001F0B9FC002706E014
:10519000641E002CE8D10620BDE8F88F7F1C36F88D
:1051A00017002028FAD02E28F8D01FB145F00305AB
:1051B00000E0641E2CB106EB440030F8020C2E28EF
:1051C000F7D1002081464FF0080B009036F8170009
:1051D00007F101075FEA000824D0B8F1200F04D0DE
:1051E000B8F12E0F04D1A74202D045F00305EDE738
:1051F0000098584501D2A7421AD1BBF10B0F0FD02E
:10520000A74201D045F003050CD84FF008000090EC
:105210004FEA896027464FF00B0B4FEA1069D5E73C
:1052200045F00305DAF818000178E52949D04AE08D
:105230004046B8F1800F07D300F04EFF002100F088
:1052400025FF804645F00205B8F1FF0F13D90099FC
:10525000ABF10100814204D345F00305CDF800B065
:10526000B4E7DAF8182000984FEA18211154009892
:10527000401C00901CE0B8F1000F04D0014626A0AD
:10528000FFF766FE20B14FF05F0845F003050FE021
:10529000A8F14100192802D849F0020908E0A8F154
:1052A0006100192804D8413049F001091FFA80F83B
:1052B000DAF81820009902F801800098401C00904C
:1052C00084E705210170BBF1080F03D14FEA896023
:1052D0004FEA1069C9F38100032803D06FEA09017E
:1052E000890701D145F00205A90709D409F0030196
:1052F000012901D145F01005012801D145F008052B
:10530000DAF81800C572002046E70000222A3A3C6D
:105310003E3F7C7F000000002B2C3B3D5B5D00008E
:10532000401E022815D20C4B00EB400203EB820119
:105330004889B0F5807F05D008B1401E80B2488111
:1053400010B104E00020FAE7002043F8220000201A
:105350007047022070470000D02200202DE9F14F55
:1053600082B00021029800F007FA00287AD1029D4D
:10537000FF2005F580554FF6FF7A00908146A5F88D
:1053800024A02969286801F0C1FB06000DD16C69D1
:10539000207848B1E17AE52801F03F016DD00A0795
:1053A00004D50F2969D107E0042671E00F2903D045
:1053B000B9F1000F4AD04FE0296A89B3420606D5F9
:1053C000627B009220F04000EA888146AA8448452A
:1053D00035D1627B0098824231D101912078A0467C
:1053E00020F04000401E00EB80010027DFF8A8B04D
:1053F00001EBC006012400BF1BF8071001EB0800F9
:10540000008874B100F068FE0446FF2E17D20198A0
:1054100030F81600761C00F05FFEA0420FD102E0CB
:105420002FE050450BD17F1C0D2FE5D398F80000DD
:10543000400608D53CB1019830F8160018B1FF209D
:1054400000F0FF091DE0A9F10100F9E7204601F095
:1054500065FC009988421BD0A869C17AC9070CD1A4
:105460000A2102E015E0491E06D314F8012B10F8BA
:10547000013BD21AF7D000E052B14FF0FF09A5F876
:1054800024A00021029800F009F806003FF479AF4B
:105490003046BDE8FE8F0000726E00082DE9F04135
:1054A00000F580540F46E688761C3004000C38D096
:1054B000216991B3206800F5805253895B09B6FBDE
:1054C000F3F503FB1563002B67D1491C2161E168EB
:1054D00021B3538992785B09B6FBF3F3521E134252
:1054E0005BD101F029F8054601281FD9681C39D085
:1054F000206841F214010958A94248D86FB1E16807
:10550000FFF799FD05000FD0012D0FD0681C29D0A1
:10551000206801F064FC28BB0AE002E01089B04278
:105520003BD80420BDE8F0810720FBE70220F9E723
:1055300041F20A0120680A5A002101F0E0FA2946E6
:105540002068FFF76AFD2168002701F580514FF0C0
:105550000108C8620FE000BF80F80480206801F0F5
:105560003EFC08B10120DDE7206800F58050C16AEB
:10557000491C7F1CC162206800F580508178B942C7
:10558000EAD8216801F58051C96AC91BC162E5608A
:1055900029462068FFF741FD2061E68041F20A01BB
:1055A0002068095A4909B6FBF1F201FB126100EBD0
:1055B000411060610020B5E72DE9F14F84B00C2265
:1055C000049C684604F58054A769266A394601F0B0
:1055D0008DFA9DF80B00C00718D00020F872012545
:1055E00020622B4632466946384600F05FFF049839
:1055F000FFF7B4FE10B96D1C642DF2D3642D0BD0EF
:1056000004280AD19DF80B00F87226629DF80B0061
:1056100080070FD5002004E0072005B0BDE8F08F1B
:10562000401C36F810100029FAD10D211930B0FBBA
:10563000F1F600E00126049D0021284600F09CF8C8
:10564000A8B94FF0000805F580573969386801F0AE
:105650005DFA60B978690078E5280BD050B14FF059
:10566000000801212846FFF719FF0028EDD0042883
:1056700012D012E008F101083046B045F1D1461EC3
:105680005FEA060A59D0E1880498A1EB0A0100F00C
:1056900073F8050003D06BE00720054668E0A069B9
:1056A00001F03CFB03902169206801F02FFA05000E
:1056B0005ED16169D4F82090039848730F20C872B6
:1056C0000020087388760AF0FF0BC876ABF1010062
:1056D00000EB800202EBC00500234FF6FF7E254E53
:1056E0004A1C01E0604503D039F81500F4466D1CF2
:1056F000F75CC85516F80380070A08F8027000B96D
:1057000060465B1C0D2BEDD3704502D039F81500B7
:1057100008B94BF0400B81F800B02168012001F579
:105720008051087100210498FFF7B8FE05001FD1D1
:10573000AAF101005FEA000AB5D12169206801F0F1
:10574000E5F9050014D120220021606901F0D7F9A4
:10575000D4E905010B2201F0C9F9A0696169C07A99
:1057600000F0180008732168012001F580510871CC
:10577000284652E7726E000870B500F580540D4659
:10578000E180A368012B42D0206800F58050416978
:1057900099423CD923B90178032906D1436A23B140
:1057A000418980784E09464312E00189A9422ED9E9
:1057B000406A13E000F0C0FE0346401C25D0022BD7
:1057C00025D3206800F58050406998421FD9AD1B51
:1057D0002068B5421946EDD2FFF71FFCE360B0B177
:1057E00021680A4601F580514B895B09B5FBF3F34B
:1057F0001844206148894009B5FBF0F100FB1150C5
:1058000002EB40106061002070BD012070BD0220DD
:1058100070BD0000084910B50B5C002253B901228D
:105820000A540A1801EB8000127A40680168104699
:1058300088470246104610BDE822002030B4054CCF
:10584000231804EB80001B7A406804691846A446BC
:1058500030BC6047E822002030B4054D2C1805EB21
:105860008000247A406885682046AC4630BC60479A
:10587000E8220020044A111802EB8000097A4068EF
:105880004268084610470000E822002030B4054D69
:105890002C1805EB8000247A4068C5682046AC4689
:1058A00030BC6047E822002010B5044600F0BAFA88
:1058B00000280DD1204601F0BBFA002808D104F5DC
:1058C0008054A06AFFF72CFD002801D1002121603F
:1058D00010BD2DE9F74F14468B460022694620463D
:1058E00000F00CFCD4F800A05FEA000855D10AF5DE
:1058F0008054D4E90407B91E884202D8CBF80000CE
:105900004BE094F800900025B9F1010F01D0266A10
:1059100016E002263146504600F00EFE411C03D030
:10592000012803D028B105E0012000E002208046D4
:105930002CE06D1C6069761C8642EBD326E049B9E9
:105940003146761C504601F0E1F85FEA00081DD1AF
:1059500061895046B9F1020F0DD00278C37890F8F2
:1059600001C042EA036283781B0443EA0C231A4312
:10597000120106D006E0028802B96D1C801C891E47
:1059800002E06D1C001D091F7F1ED8D125616079C2
:1059900040F001006071CBF800504046BDE8FE8F3A
:1059A0002DE9FC4100259046074604464E1E11E0B5
:1059B00001AB01226946404600F06DF901980128CB
:1059C0000AD19DF800000D2804D06D1C04F8010BCD
:1059D0000A2801D0B542EBDB0020207015B1384613
:1059E000BDE8FC810020FBE72DE9F74181B090463E
:1059F00002980090684600F019FE040003D50B20C1
:105A000004B0BDE8F081104E002756F824502DB1A7
:105A10002846FFF7D9FA05F580552F700198002820
:105A200003D000BF4FF480510F5446F8240002D039
:105A3000B8F1010F01D00020E2E7002202A901A87D
:105A400000F05CFBDCE700004C0000202DE9F74F84
:105A5000ADF5925D98B100F580564FF0000802F068
:105A60001F0741F2442127F0010269440DF58050DF
:105A7000C6F8008000F042FB040007D0E1E00920F6
:105A80000DF5137D0DF5805DBDE8F08F41F22C2101
:105A90000DF580506944816100F12C010162EB46F3
:105AA000D0F84412584600F097FC04000DF58050E1
:105AB00045690BD11DB1780803D0012102E006240D
:105AC00004E000215846FFF74BFA044617F01C0F7C
:105AD00074D04FF0010AE4B1042C13D100205B49CB
