:020000040800F2
:10000000D85100209D0100087B1400086F130008E0
:1000100079140008DD03000811200008000000002A
:100020000000000000000000000000001D1D00088E
:10003000FD030008000000007D140008211D0008D9
:10004000B7010008B7010008B7010008B7010008B0
:10005000B7010008B7010008B7010008B7010008A0
:10006000B7010008B7010008B7010008B701000890
:10007000B7010008B7010008B7010008B701000880
:10008000B7010008B7010008B7010008B701000870
:10009000B7010008B7010008B7010008B701000860
:1000A000B7010008B7010008B7010008B701000850
:1000B000B7010008B7010008B7010008B701000840
:1000C000B7010008B7010008B7010008B701000830
:1000D000B7010008B7010008B7010008B701000820
:1000E000B7010008B7010008B7010008B701000810
:1000F000B7010008B7010008B7010008B701000800
:10010000B7010008B7010008B7010008B7010008EF
:10011000B7010008B7010008B7010008B7010008DF
:10012000B7010008B7010008B7010008B7010008CF
:10013000B70100080000000000000000B70100083F
:10014000B7010008B7010008B7010008B7010008AF
:10015000B7010008B7010008B7010008B70100089F
:10016000B7010008B7010008B7010008B70100088F
:10017000B7010008B70100080000000000000000FF
:10018000B7010008DFF810D000F016F9004800476A
:10019000B53D0008AFF30080D851002006488047E5
:1001A00006480047FEE7FEE7FEE7FEE7FEE7FEE75C
:1001B000FEE7FEE7FEE7FEE7A91D0008850100084F
:1001C0002DE9F05F0546002092469B46884606468C
:1001D000814640241BE0284641464746224600F01F
:1001E0007EF853465A46C01A914110D3114618461C
:1001F000224600F065F82D1A67EB01084F462246AB
:100200000120002100F05CF817EB00094E41201E90
:10021000A4F10104DFDC484631462A464346BDE8E6
:10022000F09FD2B201E000F8012B491EFBD27047CB
:100230000022F6E710B513460A4604461946FFF7B2
:10024000F0FF204610BD70B521F0004303430CD0F1
:10025000C1F30A550024D5EB040564EB0403D6175B
:10026000AD1AB34102DB0020014670BD201841EBFE
:10027000025170BD0EB540F2334102910021CDE92B
:1002800000110A460B4600F049F803B000BDC1F367
:100290000A5210B5C1F3130140F2FF3341F480114B
:1002A0009A4201DA002010BD40F233439A42A2F292
:1002B000334203DC524200F012F810BD904010BDF2
:1002C000202A04DB203A00FA02F100207047914016
:1002D000C2F1200320FA03F3194390407047202A0B
:1002E00004DB203A21FA02F00021704721FA02F3E0
:1002F000D040C2F12002914008431946704710B522
:10030000141E73F1000408DA401C41F10001921838
:100310005B411A4301D120F0010010BD2DE9F04DE1
:1003200092469B4611B1B1FA81F202E0B0FA80F236
:1003300020329046FFF7C4FF04460F4640EA0A0009
:1003400041EA0B0153465A46084313D0114653EA7B
:10035000010019D0C8F140025046FFF7C0FF054622
:100360000E46504659464246FFF7AAFF084305D0BD
:10037000012004E020463946BDE8F08D0020054309
:1003800046EAE0762C4337430A986305E40AA0EB7B
:1003900008000022FD0A44EA47540A3002D5002032
:1003A0000146E9E7010510196941DDE90845001931
:1003B0006941BDE8F04DA2E7064C074D06E0E06854
:1003C00040F0010394E8070098471034AC42F6D39C
:1003D000FFF7DCFEA0F10208C0F10208FEE7000012
:1003E00010B501221146044800F084F9BDE8104020
:1003F000012000F029B8000000040240704772B6E6
:10040000FEE70022AFF3008030B50E4B0546012019
:100410005C7A012C15D8587A00241C54587A03EBC6
:10042000800045605D7A03F108002A54587A421C26
:100430005A72303008703A2048702F208870CC7083
:10044000002030BDC821002031B500F059F9009CD2
:100450000546601C02D004480078044400F050F9BE
:10046000401BA042FAD338BD380000202DE9F04FE0
:10047000DFF85092002309F1040A012603250AF14E
:10048000040B85B00F270BF1040E12E1224606FA89
:1004900003F422407ED091F804C00CF0030CBCF1B0
:1004A000010F02D0BCF1020F26D1D0F80880CDF8A0
:1004B00000804FEA430805FA08FCCDF81080DDF80B
:1004C000008028EA0C08CDF80080D1F80CC0DDF8D7
:1004D00010800CFA08FCDDF800804CEA080CC0F82B
:1004E00008C0D0F804C02CEA040C0C79C4F3001442
:1004F0009C4044EA0C0444600C79E443A40712D005
:10050000C4684FEA430CCDF808C005FA0CFC24EA95
:100510000C04D1F80880DDF808C008FA0CF848EAA5
:100520000408C0F80C800C7904F00304022C16D1E6
:10053000DC0800EB840CCDF808C0DCF820C05C07B8
:100540004FEAD46807FA08F42CEA040C0C6904FAA0
:1005500008F444EA0C04DDF808C0CCF82040046834
:100560004FEA430805FA08FC24EA0C0491F804C099
:100570000CF0030C0CFA08FC4CEA040CC0F800C0A8
:100580004C6814F4403F05D04F4CD4F800C04CF4F4
:10059000804C00E08CE0C4F800C0246823F0030C19
:1005A00004F480440094494C64440294D4F808480C
:1005B0004FEA837C4FEA1C7807FA08FC24EA0C0413
:1005C000DFF80CC1604502D14FF0000C39E0DFF8D4
:1005D00004C1604502D14FF0010C32E0DFF8F8C0F1
:1005E000604502D14FF0020C2BE0DFF8F0C060450F
:1005F00002D14FF0030C24E0DFF8E4C0604502D1E3
:100600004FF0040C1DE0DFF8DCC0604502D14FF074
:10061000050C16E0DFF8D0C0604502D14FF0060CA3
:100620000FE0DFF8C8C0604502D14FF0070C08E0CA
:10063000DFF8BCC0604502D14FF0080C01E04FF07C
:10064000090C0CFA08FC4CEA040C029CC4F808C81B
:10065000D9F80040CC46D1F8048094435FEAC8380A
:1006600000D51443CCF80040DAF80040D446D1F865
:10067000048094435FEA883800D51443CCF80040E6
:10068000DBF80040DC46D1F8048094435FEAC828D8
:1006900000D51443CCF80040DEF80040F446D1F811
:1006A000048094435FEA882800D51443CCF80040C6
:1006B0005B1C0A681446DA407FF4E8AE05B0BDE87A
:1006C000F08F0000003C01404438024000300140FF
:1006D000000002400004024000080240000C0240FA
:1006E000001002400014024000180240001C0240AA
:1006F000002002400AB1816170470904FBE7000055
:100700000148806870470000380000200248816876
:100710000278114481607047380000200B4810B502
:10072000016841F400710160016841F48061016079
:10073000016841F480710160032000F061F800203D
:1007400000F006F800F024F8002010BD003C024044
:1007500070B50D4D04464FF47A712878B1FBF0F076
:100760000A490968B1FBF0F000F02CFD48B9102CE3
:1007700007D200222146501E00F022F800206C60B3
:1007800070BD012070BD0000380000204400002032
:100790000A4808B5016841F480410160006800F42E
:1007A000804000900548001F016841F080510160C1
:1007B000006800F08050009008BD000044380240FE
:1007C000F0B40E4B1B680C46C3F30223C3F10705BC
:1007D000042D00D90425191D072901D2002300E0AA
:1007E000DB1E012606FA05F1491E214099409E4074
:1007F000761E16403143F0BC01F01CBC0CED00E04D
:10080000064900F0070208684FF6FF03184040EA67
:100810000220034A10430860704700000CED00E01E
:100820000000FA052DE9F0470E46050063D0DFF819
:100830001C81D8F80000F7B200F00F00B04207D2D8
:1008400088F80070D8F8000000F00F00B04252D1D4
:1008500028683F4C810712D5400703D5206840F433
:10086000E05020602878000703D5206840F46040FD
:1008700020602068A96820F0F000084320602878F4
:10088000C0072BD0324968680839012810D00968A0
:10089000022810D0890700292DDA216821F00301F0
:1008A00001432160FFF72CFF814641F2883A0EE0B8
:1008B00009688903EFE78901EDE700BFFFF720FF33
:1008C000A0EB0901514502D90320BDE8F08720685B
:1008D000696800F00C00B0EB810FEFD1D8F8001080
:1008E000404601F00F01B14207D90770006800F0DF
:1008F0000F00B04201D00120E7E72878400705D576
:100900002068E96820F4E050084320602878000758
:1009100006D52068296920F4604040EAC1002060C3
:1009200000F04EF82168F02292FAA2F201F0F001F4
:10093000B2FA82F2D140074A515CC84006490860C9
:1009400006480068FFF704FF0020BEE7003C0240B5
:100950000838024086440008440000203C00002083
:1009600008480949006809684FF4E05292FAA2F277
:1009700001F4E051B2FA82F2D140044A515CC8401D
:1009800070470000440000200838024096440008E8
:1009900008480949006809684FF4604292FAA2F2D7
:1009A00001F46041B2FA82F2D140044A515CC8407D
:1009B00070470000440000200838024096440008B8
:1009C000154810B5006810F00C02144813D04110FF
:1009D000042A0FD0082A0ED10F4C241F2268236846
:1009E00002F03F025B0207D52068C0F38810A0FB2D
:1009F000010106E0084610BD2168C1F38811A1FB82
:100A000000010023FFF7DCFB2168C1F30141491C11
:100A10004900B0FBF1F010BD083802400024F4009A
:100A20002DE9F84F04007BD0DFF814B32078ABF148
:100A30000406C007A6F1040536D0DBF800105846BE
:100A4000C1F38101012907D00068C0F381000228A9
:100A500009D13068400206D52868800324D5606833
:100A60000028E0D020E0B6492079891F087060682E
:100A700068B1FFF745FE074605E000BFFFF740FEFF
:100A8000C01B642876D828688003F7D50CE0FFF7F0
:100A900037FE074605E000BFFFF732FEC01B6428A3
:100AA000F0D828688003F7D42078DFF89882800790
:100AB0004FF0000944D5DBF80010584611F00C0F38
:100AC0004FF0F80A07D00068C0F38100022809D16E
:100AD0003068400206D42868800715D5E0680128F0
:100AE0001ED111E0E068E0B10120C8F80000FFF776
:100AF00007FE074605E000BFFFF702FEC01B022805
:100B0000C0D828688007F7D528689AFAAAF2216920
:100B1000B2FA82F220F0F8009140084328600FE01A
:100B20000AE1C8F80090FFF7EBFD074605E000BFBB
:100B3000FFF7E6FDC01B02281CD828688007F7D401
:100B40002078000727D5DFF8F8A17F4861690AF10E
:100B50006C0A81B101210160FFF7D2FD074604E074
:100B6000FFF7CEFDC01B022804D8DAF8000080078A
:100B7000F6D510E082E0C0F80090FFF7C1FD07460F
:100B800005E000BFFFF7BCFDC01B022876D8DAF8ED
:100B900000008007F6D4207840075FD5DFF8A0A1D9
:100BA00000270AF1380ADAF80000C0000BD4DAF89E
:100BB000001041F08051CAF80010DAF80000012757
:100BC00000F0805000906148016841F4807101603C
:100BD0000168C90512D4016841F480710160FFF712
:100BE0008FFD009006E000BFFFF78AFD0099401AD4
:100BF00002287ED855480068C005F5D55049207AAE
:100C000068310870A06888B1FFF77AFD009007E0AE
:100C1000FFF776FD0099411A41F28830814268D889
:100C20004748683000688007F2D510E0FFF768FD9C
:100C3000009007E0FFF764FD0099411A41F2883007
:100C4000814256D83E48683000688007F2D42FB100
:100C5000DAF8001021F08051CAF80010A069B8B38A
:100C6000DBF80010C1F38101022949D00228C8F83D
:100C7000609004D0FFF744FD04463DE039E0FFF703
:100C80003FFD074605E000BFFFF73AFDC01B6428A3
:100C90002FD828688001F7D4D4E907010843616A96
:100CA00094F82C20890141EA02610843A16A284A8C
:100CB000490802EB014108433168264A11400843C4
:100CC00030600120C8F86000FFF71AFD044606E016
:100CD00034E000BFFFF714FD001B642809D8286822
:100CE0008001F7D52AE000BFFFF70AFD001B64284A
:100CF00002D90320BDE8F88F28688001F4D41DE0F4
:100D00000128F7D03068E26900F48001914213D1E4
:100D1000226A00F03F0191420ED1616AC0F388124D
:100D2000914209D1A26A00F44031914204D1E16AB2
:100D300000F07060884201D00120DBE70020D9E795
:100D40000838024000004742800E474200700040D1
:100D50000000FFFF0080BCF070B5040009D0606A9D
:100D6000002540B125616561A56294F8510040B14C
:100D70000CE0012070BD6068B0F5827FF4D0E561C1
:100D8000F2E784F85050204600F044F8022084F83E
:100D900051002068016821F040010160A08821898C
:100DA00000F4827001F404410843A18901F4006158
:100DB0000843217C01F002010843217D01F001017B
:100DC0000843218B01F400710843217F01F03801B1
:100DD000084394F8201001F080010843218D01F4AC
:100DE0000051084321680860A069042101EA10400D
:100DF00094F8241001F0100108432168486020682D
:100E0000C16921F40061C1616565012084F8510068
:100E1000002070BD10B586B0044614216846FFF767
:100E200007FA13492068884220D11248002102683D
:100E300042F480520260006800F4805005900D4832
:100E40001438026842F001020260006800F00100FC
:100E50000590E02000900220CDE9010103200390DD
:100E60000520049069460448FFF700FB06B010BD5A
:100E70000030014044380240000002402DE9F84FA4
:100E8000044690F8500000271D4616468946012862
:100E90000DD04FF0010B84F850B0FFF731FC8046C5
:100EA00094F85100BA46012804D0022793E00220AA
:100EB000BDE8F88FB9F1000F73D0002E71D0032078
:100EC00084F85100C4F854A0C4F83090A686E68691
:100ED000C4F838A0A4F83CA0A4F83EA0C4F844A0EC
:100EE000C4F840A0A068B0F5004F09D1206801689F
:100EF00021F0400101602068016841F480410160F7
:100F000020680168490603D4016841F0400101608E
:100F1000E068B0F5006F606803D030B3012E24D0D4
:100F200041E008B1012E1CD1206B21680088C86007
:100F300006E020688168890709D5216B0988C160AE
:100F4000206B801C2063E08E401EE08609E0FFF7E6
:100F5000D7FBA0EB0800A84202D3681C01D031E007
:100F60007DB3E08E0028E4D120E0206B216800787A
:100F7000087306E020688168890709D5216B097824
:100F80000173206B401C2063E08E401EE0860AE067
:100F9000FFF7B6FBA0EB0800A84203D3681C02D001
:100FA00010E017E06DB1E08E0028E3D142462946FB
:100FB000204600F013FE08B120206065A06818B13B
:100FC00006E0FFE7032706E02068C168806800901C
:100FD000606D00B1012784F851B084F850A0384604
:100FE00066E72DE9F84F044690F8500000270A9E66
:100FF0001D4692468B464FF0010901280ED0012074
:1010000084F85000FFF77CFB804694F8510061683B
:1010100001280CD0B1F5827F07D102E00220BDE8A3
:10102000F88FA16809B9042801D00227C2E0BBF1FA
:10103000000F27D0BAF1000F24D01DB394F851004F
:10104000042802D0052084F8510000206065C4F80F
:1010500038A0E587A587C4F830B0E586A58620646A
:10106000606420680168490603D4016841F04001CA
:101070000160E068B0F5006F606805D0E8B3012D4D
:1010800046D07FE0012795E008B1012D39D1206BD2
:1010900021680088C860206B801C2063E08E401EA1
:1010A000E0862EE02068816889070FD5E18E69B15E
:1010B000B9F1010F0AD1216B0988C160206B801C36
:1010C0002063E08E401EE0864FF0000920688168B2
:1010D000C9070CD0E18F51B1C068A16B0880A06B2B
:1010E000801CA063E08F401EE0874FF00109FFF7EE
:1010F00007FBA0EB0800B04200E009E001D3701C40
:1011000050D1E08E0028CDD1E08F0028CAD13FE039
:10111000206B216800780873206B401C2063E08EF0
:10112000401EE0862EE02068816889070FD5E18E99
:1011300069B1B9F1010F0AD1216B09780173206BF4
:10114000401C2063E08E401EE0864FF000092068BE
:101150008168C9070CD0E18F51B1C068A16B0870DC
:10116000A06B401CA063E08F401EE0874FF0010998
:10117000FFF7C6FAA0EB0800B04202D3701C01D002
:1011800010E07EB1E08E0028CDD1E08F0028CAD1DA
:1011900042463146204600F021FD28B1012720209B
:1011A000606507E0032705E0A06818B92068C168FA
:1011B00080680090012084F85100002084F85000DD
:1011C00038462CE710B5401EB0F1807F01D30120D6
:1011D00010BD4FF0E02460610F21601700F02AFF7E
:1011E0000020A06107202061002010BD70B5040020
:1011F00004D094F83D00002510B106E0012070BD38
:1012000084F83C50204600F023F8242084F83D0068
:101210002068C16821F40051C160204600F0C6FD7D
:101220002068016921F4904101612068416921F041
:101230002A0141612068C16841F40051C160256400
:10124000202084F83D0084F83E00002070BD00009E
:1012500010B586B0044614216846FEF7E9FF14492C
:101260002068884221D113480021026842F0100210
:101270000260006800F0100005900E481438026803
:1012800042F001020260006800F0010005904FF496
:10129000C06000900220CDE90101032003900720E7
:1012A000049069460448FFF7E1F806B010BD00005D
:1012B0000010014044380240000002402DE9F8438C
:1012C000044690F83D001F4616460D4620284CD196
:1012D000C5B1BEB194F83C00012846D0012084F885
:1012E0003C004FF00008C4F84080212084F83D0005
:1012F000FFF706FAA6848146E684A068B0F5805F11
:1013000003D004E00120BDE8F883206928B12E460F
:101310005FF0000584F83C800EE00026FAE78021AB
:10132000204600F0D5FDA0B9AEB116F8010B21683A
:101330004860E08C401EE084E08C4B464FF0000299
:1013400000970028EBD14FF04001204600F0C0FD8F
:1013500030B10320D7E735F8020BC0F30800E6E709
:10136000202084F83D000020CDE70220CBE7FEE7F7
:1013700010B504490448FFF744F80249491E0870B3
:1013800010BD0000290000201400002010B586B018
:1013900014216846FEF74CFF1548016841F08001B2
:1013A0000160016801F080010591016841F00101CF
:1013B0000160016801F001010591016841F002013D
:1013C000016000680B4C00F00200012205901146FC
:1013D0002046FFF78FF901210320CDE9021000918B
:1013E000019169462046FFF741F806B010BD0000A4
:1013F0003038024000040240104810B50E49016028
:101400004FF48271416000218160C1604FF400722D
:101410000161C0E905122022C0E907214162816211
:101420000A21C162FFF798FC002803D0BDE81040F4
:10143000FEF7E5BF10BD0000003001401421002080
:101440000C4810B50A4901604FF4E13141600021B8
:1014500081600C22C160C0E904128161C161FFF7A3
:10146000C5FE002803D0BDE81040FEF7C8BF10BD80
:10147000001001406C210020FEE7FEE770470000ED
:101480007CB541F6FF74FEF7ABFF0025FF2000F0AE
:10149000D9FB6D1C0A2DF9DB00F092FB40208DF882
:1014A000000000208DF801008DF802008DF8030087
:1014B0008DF8040095208DF805000621684600F09F
:1014C000B3FB00F09BFB012806D0641E00F096FBE6
:1014D000012801D0002CF8D1FEF782FFFF2000F098
:1014E000B1FB0249012048707CBD00002E000020A5
:1014F00010B5064C4FF4FA70A4F8060000F07EFB1D
:10150000FF2802D0E1880029F8D110BD2E0000206C
:1015100070B50F4C0546C8200E46A08000F06EFB4B
:10152000FF2803D0FE2805D0002070BDA088002829
:10153000F4D1F9E72C466D1C00F060FB2070761E9C
:10154000F8D200F05BFB00F059FB012070BD0000F9
:101550002E00002070B50C460546FFF7C9FFFF2896
:1015600001D0FF2070BD284600F06CFB200E00F07B
:1015700069FBC4F3074000F065FBC4F3072000F0EB
:1015800061FBE0B200F05EFB402D07D0482D07D094
:10159000012000F057FB4C2D06D007E0952000E01D
:1015A000872000F04FFB01E000F028FB5FF00A0409
:1015B00000F024FB0106D5D5641E14F0FF04F7D11A
:1015C00070BD70B50E4605460024FFF791FFFF2859
:1015D00020D1304600F036FBFD2E17D04FF40071BD
:1015E000284600F021FB00F009FB00F007FB00F0AB
:1015F00005FB054600F01F00052803D0641CE4B27B
:10160000402CF4D900F0FAFA0028FBD005F01F00B6
:10161000052801D0002070BD012070BD2DE9F843E0
:1016200010B10120BDE8F8837B4C207880077DD481
:10163000FFF726FF00F0C4FA002578A000F0EAFCCE
:1016400000214020FFF786FF012870D176A000F02E
:10165000E1FC4FF4D5714820FFF77CFF4FF47A7816
:10166000012812D073A000F0D5FCA4F8048000215A
:101670007720FFF76FFF012879D800216920FFF755
:1016800069FF0128F8D802259EE070A000F0C2FC96
:1016900000276E4600F0B2FAF0557F1CFFB2042F0F
:1016A000F8D39DF802000128CFD19DF80300AA28A5
:1016B000CBD16CA000F0AEFCA4F804804FF08049C0
:1016C00000217720FFF746FF074649466920FFF7CC
:1016D00041FF012F01D800284ED0A0880028EFD16B
:1016E00066A000F097FCA4F804804FF08059002118
:1016F0007720FFF72FFF074649466920FFF72AFFAB
:10170000012F01D8002837D0A0880028EFD164A08D
:1017100000F080FCA4F804804FF08069002177205D
:10172000FFF718FF07464946692001E072E05AE0DA
:10173000FFF710FF012F00D8F0B1A0880028EDD1ED
:101740005EA000F067FCA4F80480DFF8908100211F
:101750007720FFF7FFFE074641466920FFF7FAFEB4
:10176000012F00D840B1A0880028F0D100E024E08B
:101770005BA000F04FFC40E05FA000F04BFC0021BC
:101780007A20FFF7E7FE70BB5FF0000500F036FA45
:10179000705501465DA000F03DFC6D1CEDB2042DBE
:1017A000F4D39DF80000400601D50C2500E0042587
:1017B000294658A000F02EFC1FE0012501E0022D73
:1017C00002D00021412007E000217720FFF7C2FE70
:1017D000012804D800216920FFF7BCFE20B1A088B1
:1017E0000028ECD108E008E0A08828B14FF400718F
:1017F0005020FFF7AFFE00B10025A570FEF7F0FD09
:1018000000F0FCF925B1207820F00100207001E003
:1018100000206070207805E72E0000200D0A434D5F
:1018200044300D0A00000000434D44382E2E2E2077
:10183000000000006661696C65642C2053444320FD
:101840005631206F72204D4D430D0A00737563634E
:1018500065656465642C205344432056322B0D0A81
:101860000000000041434D4434312041434D443495
:10187000315F4843532E2E20000000006661696CE2
:1018800065640D0A7472792041434D4434315F53CD
:101890004458435F504F5745522E2E2E20000000D3
:1018A0006661696C65640D0A7472792041434D4428
:1018B00034315F533138522E2E2E20006661696C10
:1018C00065640D0A7472792041434D4434315F568A
:1018D0004F4C544147452E2E2E2000000080FF0023
:1018E0006661696C65642C2073746F702074727902
:1018F000696E670D0A000000737563636565646552
:10190000640D0A434D44353820000000253032581C
:1019100020000000747970653A253032580D0A00B5
:101920007FB515460E4610B1042004B070BD0124E9
:101930004A48052E04D00078C00713D00320F4E7EE
:10194000297829B1012906D0022907D0042482E090
:101950000021417004E0FFF793FD01E040785070F2
:10196000002478E000F02CF90B2E51D005DCEEB30A
:10197000012E07D0022E69D141E00C2E4BD00D2E46
:1019800064D154E000214920FFF7E4FD78BB102129
:101990006846FFF7BDFD50B39DF800100120B0EB85
:1019A000911F09D19DF808209DF8091000EB022035
:1019B00008440004800920E09DF805009DF80A1005
:1019C00000F00F0000EBD1109DF809109DF80720E2
:1019D00001F0030100EB41019DF80800800900EBD4
:1019E00082009DF8062002F0030201E00BE02EE0E9
:1019F00000EB8220401CC91F8840286015E04FF48E
:101A00000070288011E0FFF773FDFF280DD01EE065
:101A10000021492001E000214A20FFF79BFDB0B9D9
:101A200010212846FFF774FD88B100240FE0002143
:101A30007A20FFF78FFD48B95FF0000400F0DEF870
:101A4000641CE4B205F8010B042CF7D30424FEF760
:101A5000C7FC00F0D3F8204667E700002E00002006
:101A60002DE9F0411C4615460E4638B934B12148DF
:101A70000178C90704D00320BDE8F0810420FBE70A
:101A80008078000700D4550200F09AF84FF40077F0
:101A9000012C294604D05220FFF75CFD70B11AE0FA
:101AA0005120FFF757FDE0B939463046FFF730FDCA
:101AB000B8B1FEF795FC00F0A1F818E039463046C1
:101AC000FFF726FD18B1641E06F50076F6D1002159
:101AD0004C20FFF73FFDFEF783FC00F08FF824B9A0
:101AE00005E0FEF77DFC00F089F80120C4E7002046
:101AF000C2E700002E00002008B101207047014815
:101B0000007870472E0000202DE9F0411C46164653
:101B10000F4638B934B1294D2878C00704D00320C6
:101B2000BDE8F0810420FBE72878400701D50220BA
:101B3000F6E7A878000700D4560200F041F8012C1F
:101B400010D0A878800707D500217720FFF702FD85
:101B500021465720FFF7FEFC31465920FFF7FAFCDB
:101B600078B11CE031465820FFF7F4FCF0B9FE21B3
:101B70003846FFF726FDC8B1FEF732FC00F03EF80C
:101B800019E0FC213846FFF71CFD18B1641E07F56B
:101B90000077F6D1FD210020FFF713FD30B1FEF7ED
:101BA0001FFC00F02BF834B10120B9E7FEF718FC58
:101BB00000F024F8F8E70020B2E700002E00002033
:101BC00010B5002201210448FEF794FDBDE8104045
:101BD0000120FEF739BC00000004024038B50B4676
:101BE000009204460022802100F03CF8002804D036
:101BF000606D40F020006065032038BD0EB5FF2009
:101C00008DF804000748006881688907FCD56420C6
:101C10000090012302AA01A90248FFF7E2F99DF80A
:101C200008000EBD14210020054A126893689B0726
:101C3000FCD50A46014664230148FFF71FB900009E
:101C40001421002001B50648006881688907FCD589
:101C50006423012269460248FFF710F908BD00001D
:101C6000142100202DE9F8431E469146884604467B
:101C7000089DFEF745FD401B351AFEF741FD07465E
:101C800025480068C0F3CB30684338E0701C37D07B
:101C9000FEF736FDC01BA84203D215B1009860B311
:101CA0002CE02068416821F0E00141606068B0F5F7
:101CB000827F0BD1A068B0F5004F02D0B0F5806FE5
:101CC00004D12068016821F040010160A06AB0F5EC
:101CD000005F09D12068016821F40051016020688B
:101CE000016841F400510160012084F85100002096
:101CF00084F850000320BDE8F8830025401E0090C2
:101D00002068816838EA010004D000214945BDD12E
:101D10000020F0E70121F9E74400002070470000AF
:101D20000549088808B1401E08800449088808B1A0
:101D3000401E0880FEF7EABC32000020340000207C
:101D400030B591B030216846FEF772FA14210CA824
:101D5000FEF76EFA012003900224102004900094F4
:101D6000002506940D20CDE90750C320CDE90904D4
:101D700004200B906846FEF753FE08B172B6FEE7EA
:101D80000CA90F2081E831004FF4A0500F904FF4C0
:101D90008050109003210CA8FEF744FD002801D0CC
:101DA00072B6FEE711B030BD704700002DE9F0417A
:101DB000044600680169E26821F440511143016161
:101DC0002169A068E26908436169114322680843F8
:101DD000D16849F20C6399430143D160206841699D
:101DE000A26921F44071114341613749206888425A
:101DF00002D03649884202D1FEF7CAFD01E0FEF763
:101E0000AFFD0246E36964203221B3F5004F02EBD7
:101E1000C20303EB021362682BD09200B3FBF2F50E
:101E2000B5FBF0F5B3FBF2F66FF018077D4306EB58
:101E30008505B3FBF2F601EB0515B5FBF0F5B6FB36
:101E4000F0F605F0F00505EB0615B3FBF2F6B3FB73
:101E5000F2F2B2FBF0F27A4306EB820201EB0211DE
:101E6000B1FBF0F000F00F00216828448860BDE865
:101E7000F0815200B3FBF2F6B6FBF0F6B3FBF2F7DB
:101E8000B3FBF2F56FF0180C06FB0CF607EB8606B9
:101E900001EBC606B5FBF0F5B6FBF0F62D0106F03A
:101EA000F80605EB4605B3FBF2F6B3FBF2F2B2FB24
:101EB000F0F202FB0CF206EB820201EBC201B1FB75
:101EC000F0F000F00700CFE70010014000140140DF
:101ED0002DE9F041984617460E460446069D1DE042
:101EE000681C1BD02DB1FEF70BFCA0EB0800A8422C
:101EF00014D92068C16821F4D071C160206841699B
:101F000021F001014161202084F83D0084F83E0069
:101F1000002084F83C000320BDE8F08120680068C0
:101F200036EA000004D00020B842D9D00020F3E700
:101F30000120F9E710B5FFF771FB02490870087836
:101F400010BD00001000002070B5064614460D4676
:101F500007A000F05FF8224629463046FFF7E0FC74
:101F60000446014606A000F055F8204670BD00006A
:101F7000555345525F696F63746C2E2E2E200000FE
:101F8000253032580D0A0000FFF76ABD10B504462F
:101F900006A000F03FF82046FFF7AEFD074C20708A
:101FA000217807A000F036F8207810BD555345522F
:101FB0005F7374617475732E2E2E20001000002044
:101FC000253032580D0A00002DE9F04107461C4625
:101FD00015460E4608A000F01DF823462A46314655
:101FE0003846FFF791FD0446014607A000F012F8BD
:101FF0002046BDE8F0810000555345525F77726975
:1020000074652E2E2E200000253032580D0A000057
:10201000FEE700000FB4054B10B503A9044A02986F
:1020200000F028F810BC5DF814FB0000313B0008FC
:10203000500000200907090E002804DB00F1E02011
:1020400080F80014704700F00F0000F1E02080F8E5
:10205000141D704702E008C8121F08C1002AFAD1F7
:1020600070477047002001E001C1121F002AFBD118
:10207000704700002DE9FF4F8DB00F460546002642
:1020800006E025280BD0DDE90F1290476D1C761C69
:1020900028780028F5D111B03046BDE8F08F002433
:1020A000A246A1460122E94900E0044315F8013F98
:1020B000203B02FA03F00842F7D128782A2810D0F2
:1020C0006FF02F022878A0F13001092914D80AEB0B
:1020D0008A0102EB410144F0020400EB010A6D1C8D
:1020E000F0E701CF5FEA000A03D544F40054CAF1D7
:1020F000000A44F002046D1C28782E2817D115F828
:10210000010F44F004042A280ED06FF02F02287823
:10211000A0F1300109290AD809EB890102EB41013C
:1021200000EB01096D1CF2E757F8049B6D1C287841
:102130006C280FD006DC4C2817D068280DD06A28F0
:1021400014D104E0742810D07A280FD10DE044F4A3
:1021500000140AE044F4801401E044F44014697867
:10216000814202D104F580146D1C6D1C28786E2804
:102170001ED00CDC632830D004DC00288BD058281B
:1021800011D19FE0642867D069280CD164E07328DE
:102190002DD004DC6F2872D0702804D194E075280B
:1021A0006ED078286DD0DDE90F129047761C4BE198
:1021B000C4F30250022806D0032809D0042801CF16
:1021C00009D0066040E101CFF117C0E900613BE1B1
:1021D00001CF068038E1067036E117F8040B8DF860
:1021E000000000208DF80100EB46012003E057F8C5
:1021F00004BB4FF0FF3061074FF0000102D40DE047
:1022000008F10101884649450FDA8045F8DB1BF8E3
:1022100008100029F4D108E008F101018846814244
:10222000FADB1BF808100029F6D1DDE90F23AAEB31
:1022300008008146214600F031F9304400EB0806E1
:1022400004E0DDE90F121BF8010B9047B8F101081B
:10225000F7D221464846F2E00A21C4F302524FF079
:10226000000B0891022A04D001CFC117032A09D01C
:102270000AE0FF1D27F00707F7E8020108E02CE05D
:102280001EE01FE000B2C117042A01D140B2C117FD
:10229000021E71F1000206DA0023D0EB030063EBAB
:1022A00001012D2202E0220504D52B228DF82420E5
:1022B000012203E0E20701D02022F7E7904653E035
:1022C0000A210BE0102109E010214FF0000B44F02F
:1022D00004044FF00809089103E008214FF0000BB7
:1022E0000891C4F30252022A04D001CF0021032A2C
:1022F00006D006E0FF1D27F00707F7E8020103E01C
:1023000080B2042A00D1C0B24FF0000822072BD5BA
:102310002A78702A07D0DDF820C08CF0100C5CEA17
:102320000B0C05D00EE040228DF82420012208E09D
:1023300050EA010306D030238DF824308DF8252093
:1023400002229046089B83F0080353EA0B030BD14B
:1023500050EA010201D1620706D530228DF824200F
:102360004FF00108A9F101092A78582A04D038A2AF
:102370000B9208AA0A920BE03AA2F9E75B46089A88
:10238000FDF71EFF0B9B9B5C0A9A521E0A9213706C
:1023900050EA0102F2D10A98ADEB000000F1200BE7
:1023A000600702D524F4803401E04FF00109D945DB
:1023B00002DDA9EB0B0000E0002000EB0B01414423
:1023C0000890AAEB010AE00306D4DDE90F232146B9
:1023D000504600F063F806444FF0000908E009A9F0
:1023E00011F80900DDE90F12904709F10109761C87
:1023F000C145F4DBE0030CD5DDE90F23214650464F
:1024000000F04CF8064404E0DDE90F12302090475C
:10241000761C0899481E08900029F5DC08E00A9807
:102420000A990078491C0A91DDE90F129047761C41
:10243000BBF10001ABF1010BF1DC21465046DDE9B7
:102440000F2300F019F806446D1C21E6092801004D
:10245000303132333435363738396162636465661A
:1024600000000000303132333435363738394142DC
:1024700043444546000000002DE9F0410446002594
:102480001E461746880404D405E039462020B0478C
:102490006D1C641EF9D52846BDE8F0812DE9F04198
:1024A000044600251E469046C80301D5302700E0AB
:1024B0002027880404D505E041463846B0476D1C06
:1024C000641EF9D52846BDE8F081000010B5044629
:1024D00000F5805000220271521EC262204601F0B7
:1024E0002BFE08B1032010BDB4F8FE01A0F52A416F
:1024F000553901D0022010BD94F8360094F83910F7
:1025000094F8372040EA016194F83800000440EA6A
:10251000022001430A48B0EB012F0DD014F8521FDE
:10252000E278637841EA0261A278120442EA032267
:102530001143B0EB012F01D1002010BD012010BDCF
:102540000046415400E0401C02780AB18A42FAD1A8
:10255000D0B27047F0B50022174B144600F58050FA
:1025600002EB420653F826506DB10768BD420BD10D
:1025700003EB860587686E68BE4205D12D89C68843
:10258000B54204D000E00124521C022AE8D3022AFA
:1025900001D079B904E05CB9022909D01220F0BD5C
:1025A00002EB420003EB80004089B0F5807F01D050
:1025B0000020F0BD1020F0BDB021002030B500217A
:1025C000064A0C4601EB410352F82350854201D1E3
:1025D00042F82340491C0229F4D330BDB021002029
:1025E00000F58050426A006800F580504389807889
:1025F0004343B1FBF3F0121D02CA19B1884203D361
:10260000401AF8E70020704711680844704700F549
:102610008050891E4269921E8A4201D8002070476C
:10262000826A807801FB002070472DE9F0418046E6
:102630000F0000F5805407D0404601F0CBFA022885
:1026400009D20120BDE8F081E66816B16069B042A8
:1026500007D8012605E0411CF4D061698142F1D818
:102660003E46354660696D1CA84202D80225022EFE
:102670000AD32946404601F0ADFA38B1411CE1D0F9
:102680000128DFD0B542EDD10020DBE76FF07042CA
:102690002946404601F06CFD30B957B12A4639460B
:1026A000404601F065FD20B101280DD001252846E6
:1026B000C8E7E5602069411CF9D0401E20616079BF
:1026C00040F001006071F2E74FF0FF35EFE70000E6
:1026D0002DE9F84F88460F6800E07F1C39782F29D4
:1026E000FBD05C29F9D000F5805A0024DAF820608C
:1026F0002546785D6D1C202827D32F2825D05C28FF
:1027000023D0FF2C41D2A0F181017D290BD8795D26
:102710006D1C01EB0020A1F1400280B23F2A02D3E0
:1027200080397F2931D2012100F0EAFF5FEA0009F8
:102730002BD0B9F1800F04D2014671A0FFF702FF40
:1027400018BB26F81490641CD3E77A19C8F8002047
:10275000202801D2042516E0002514E006EB4400F1
:1027600030F8020C20280DD02E280BD06CB10020A0
:1027700026F814000B222021DAF8180001F0D5FC0D
:10278000002706E0641E002CE8D10620BDE8F88F83
:102790007F1C36F817002028FAD02E28F8D01FB159
:1027A00045F0030500E0641E2CB106EB440030F850
:1027B000020C2E28F7D1002081464FF0080B009024
:1027C00036F8170007F101075FEA000824D0B8F1D6
:1027D000200F04D0B8F12E0F04D1A74202D045F04B
:1027E0000305EDE70098584501D2A7421AD1BBF185
:1027F0000B0F0FD0A74201D045F003050CD84FF0C6
:10280000080000904FEA896027464FF00B0B4FEA13
:102810001069D5E745F00305DAF818000178E529D5
:1028200049D04AE04046B8F1800F07D300F08EFF50
:10283000002100F065FF804645F00205B8F1FF0F6A
:1028400013D90099ABF10100814204D345F003058F
:10285000CDF800B0B4E7DAF8182000984FEA182154
:1028600011540098401C00901CE0B8F1000F04D0F7
:10287000014626A0FFF766FE20B14FF05F0845F045
:1028800003050FE0A8F14100192802D849F0020918
:1028900008E0A8F16100192804D8413049F0010985
:1028A0001FFA80F8DAF81820009902F801800098E1
:1028B000401C009084E705210170BBF1080F03D193
:1028C0004FEA89604FEA1069C9F38100032803D0F9
:1028D0006FEA0901890701D145F00205A90709D46A
:1028E00009F00301012901D145F01005012801D1AA
:1028F00045F00805DAF81800C572002046E7000028
:10290000222A3A3C3E3F7C7F000000002B2C3B3DBE
:102910005B5D0000401E022815D20C4B00EB40020C
:1029200003EB82014889B0F5807F05D008B1401ED5
:1029300080B2488110B104E00020FAE7002043F89B
:10294000220000207047022070470000B0210020C4
:102950002DE9F14F82B00021029800F007FA00281B
:102960007AD1029DFF2005F580554FF6FF7A009041
:102970008146A5F824A02969286801F0DDFB06003E
:102980000DD16C69207848B1E17AE52801F03F016A
:102990006DD00A0704D50F2969D107E0042671E03C
:1029A0000F2903D0B9F1000F4AD04FE0296A89B34B
:1029B000420606D5627B009220F04000EA888146FC
:1029C000AA84484535D1627B0098824231D1019179
:1029D0002078A04620F04000401E00EB8001002738
:1029E000DFF8A8B001EBC006012400BF1BF80710F8
:1029F00001EB0800008874B100F0A8FE0446FF2E29
:102A000017D2019830F81600761C00F09FFEA04205
:102A10000FD102E02FE050450BD17F1C0D2FE5D3E5
:102A200098F80000400608D53CB1019830F816002F
:102A300018B1FF2000F0FF091DE0A9F10100F9E73E
:102A4000204601F081FC009988421BD0A869C17A18
:102A5000C9070CD10A2102E015E0491E06D314F87B
:102A6000012B10F8013BD21AF7D000E052B14FF021
:102A7000FF09A5F824A00021029800F009F806003B
:102A80003FF479AF3046BDE8FE8F00009E44000859
:102A90002DE9F04100F580540F46E688761C30049D
:102AA000000C38D0216991B3206800F58052538919
:102AB0005B09B6FBF3F503FB1563002B67D1491CDB
:102AC0002161E16821B3538992785B09B6FBF3F386
:102AD000521E13425BD101F07DF8054601281FD933
:102AE000681C39D0206841F214010958A94248D81D
:102AF0006FB1E168FFF799FD05000FD0012D0FD0F0
:102B0000681C29D0206801F080FC28BB0AE002E0A4
:102B10001089B0423BD80420BDE8F0810720FBE7D4
:102B20000220F9E741F20A0120680A5A002101F067
:102B3000FCFA29462068FFF76AFD2168002701F5A5
:102B400080514FF00108C8620FE000BF80F8048098
:102B5000206801F05AFC08B10120DDE7206800F58B
:102B60008050C16A491C7F1CC162206800F58050FA
:102B70008178B942EAD8216801F58051C96AC91B38
:102B8000C162E56029462068FFF741FD2061E680CB
:102B900041F20A012068095A4909B6FBF1F201FB2A
:102BA000126100EB411060610020B5E72DE9F14FA3
:102BB00084B00C22049C684604F58054A769266AF8
:102BC000394601F0A9FA9DF80B00C00718D0002083
:102BD000F872012520622B4632466946384600F0DD
:102BE000B3FF0498FFF7B4FE10B96D1C642DF2D347
:102BF000642D0BD004280AD19DF80B00F8722662D0
:102C00009DF80B0080070FD5002004E0072005B0D9
:102C1000BDE8F08F401C36F810100029FAD10D21C4
:102C20001930B0FBF1F600E00126049D0021284692
:102C300000F09CF8A8B94FF0000805F580573969F5
:102C4000386801F079FA60B978690078E5280BD026
:102C500050B14FF0000801212846FFF719FF002866
:102C6000EDD0042812D012E008F101083046B0453A
:102C7000F1D1461E5FEA060A59D0E1880498A1EB1B
:102C80000A0100F073F8050003D06BE00720054649
:102C900068E0A06901F058FB03902169206801F009
:102CA0004BFA05005ED16169D4F82090039848730F
:102CB0000F20C8720020087388760AF0FF0BC876D0
:102CC000ABF1010000EB800202EBC00500234FF6E0
:102CD000FF7E254E4A1C01E0604503D039F81500FF
:102CE000F4466D1CF75CC85516F80380070A08F80F
:102CF000027000B960465B1C0D2BEDD3704502D00D
:102D000039F8150008B94BF0400B81F800B0216884
:102D1000012001F58051087100210498FFF7B8FEE9
:102D200005001FD1AAF101005FEA000AB5D12169AF
:102D3000206801F001FA050014D120220021606909
:102D400001F0F3F9D4E905010B2201F0E5F9A069DE
:102D50006169C07A00F0180008732168012001F54C
:102D600080510871284652E79E44000870B500F56E
:102D700080540D46E180A368012B42D0206800F505
:102D80008050416999423CD923B90178032906D181
:102D9000436A23B1418980784E09464312E0018994
:102DA000A9422ED9406A13E000F014FF0346401CEC
:102DB00025D0022B25D3206800F580504069984229
:102DC0001FD9AD1B2068B5421946EDD2FFF71FFC95
:102DD000E360B0B121680A4601F580514B895B0977
:102DE000B5FBF3F31844206148894009B5FBF0F1C5
:102DF00000FB115002EB40106061002070BD01200B
:102E000070BD022070BD0000084910B50B5C0022A7
:102E100053B901220A540A1801EB8000127A406863
:102E20000168104688470246104610BDC8210020A0
:102E300030B4054C231804EB80001B7A4068046909
:102E40001846A44630BC6047C821002030B4054D68
:102E50002C1805EB8000247A406885682046AC4633
:102E600030BC6047C8210020044A111802EB8000E2
:102E7000097A40684268084610470000C8210020CF
:102E800030B4054D2C1805EB8000247A4068C568E5
:102E90002046AC4630BC6047C821002010B504462F
:102EA00000F0FAFA00280DD1204601F0D7FA0028E8
:102EB00008D104F58054A06AFFF72CFD002801D149
:102EC0000021216010BD2DE9F74F14468B460022EA
:102ED0006946204600F04CFCD4F800A05FEA0008E8
:102EE00055D10AF58054D4E90407B91E884202D8A6
:102EF000CBF800004BE094F800900025B9F1010FE9
:102F000001D0266A16E002263146504600F062FEE5
:102F1000411C03D0012803D028B105E0012000E0C6
:102F2000022080462CE06D1C6069761C8642EBD343
:102F300026E049B93146761C504601F0FDF85FEABB
:102F400000081DD161895046B9F1020F0DD00278F9
:102F5000C37890F801C042EA036283781B0443EA15
:102F60000C231A43120106D006E0028802B96D1C38
:102F7000801C891E02E06D1C001D091F7F1ED8D118
:102F80002561607940F001006071CBF80050404647
:102F9000BDE8FE8F2DE9FC4100259046074604461A
:102FA0004E1E11E001AB01226946404600F0ADF92A
:102FB000019801280AD19DF800000D2804D06D1C4D
:102FC00004F8010B0A2801D0B542EBDB0020207089
:102FD00015B13846BDE8FC810020FBE72DE9F7413B
:102FE00081B0904602980090684600F06DFE0400A3
:102FF00003D50B2004B0BDE8F081104E002756F831
:1030000024502DB12846FFF7D9FA05F580552F70C9
:103010000198002803D000BF4FF480510F5446F8A8
:10302000240002D0B8F1010F01D00020E2E7002215
:1030300002A901A800F09CFBDCE700004C00002086
:103040002DE9F74FADF5925DB8B100F580564FF020
:10305000000802F01F0741F2442127F001026944F1
:103060000DF58050C6F8008000F082FB0446014652
:103070007BA0FEF7CFFF3CB1EDE009200DF5137DFD
:103080000DF5805DBDE8F08F41F22C210DF58050EB
:103090006944816100F12C010162EB46D0F84412D1
:1030A000584600F0D3FC0446014673A0FEF7B2FF79
:1030B0000DF5805045697CB91DB1780803D0012118
:1030C00002E0062404E000215846FFF743FA0446D4
:1030D00021466FA0FEF79EFF17F01C0F78D04FF02F
:1030E000010A04B3042C13D100206F4902E0401CF4
:1030F000022805D200EB400251F82220002AF6D126
:10310000022804D05846FFF751FD044600E012247F
:10311000214666A0FEF77EFF0DF5805047F00807B8
:10312000456954B197E0E87A10F0110F01D00724F7
:1031300091E0780701D508248DE0380756D500F0D6
:10314000C1FDA873010AE973010C2974000E6874AB
:1031500085F80B8085F81C8085F81D8085F81E8019
:103160000DF5805085F81F800068294600F016FE96
:1031700081460021284601F0DFF80DF58050B9F1B5
:10318000000F006800F5805080F804A02CD00DF5E9
:1031900080504946006800F58050D0F82CA00DF50D
:1031A0008050006801F095F8040054D10DF580506E
:1031B000A9F10101006800F58050C1600DF5805053
:1031C0005146006800F0B8FF04000BD043E0FFE771
:1031D000F4BBE87AC10601D504243CE0B90701D567
:1031E000C007A4D1380701D547F020070DF580505E
:1031F000006800F58050C06AC6E90705780801D06C
:10320000012100E00021584600F07CFDB06220B3AF
:10321000B7710DF5805086F807804746006829464B
:1032200000F0BCFD3061287FE97F6A7F40EA0160E1
:10323000A97F090441EA02210843C6E90270B76187
:103240000DF5805077620068306000F5805000E036
:1032500001E0C088B080204610E70224FBE70000B0
:103260000D0A665F6F70656E2072657331203D20B8
:1032700025640D0A000000000D0A665F6F70656E20
:103280002072657332203D2025640D0A0000000085
:103290000D0A665F6F70656E2072657333203D2086
:1032A00025640D0A00000000B02100200D0A665FB1
:1032B0006F70656E2072657334203D2025640D0AA1
:1032C0000000000010B596B004460020CDE90210C1
:1032D000049003E002A8641C00F0D8FF21780029C4
:1032E000F8D1039800280DDB024601AB05A902982E
:1032F00000F023F930B901990398884202D104986B
:1033000016B010BD4FF0FF30FAE72DE9F04F8846B8
:1033100087B00021994615468346196001F09EF852
:10332000002812D10BF58054E07900280DD1A07946
:10333000C00709D0D4E90201081A01274FF0020A98
:10334000854200D90546A2E0072007B0BDE8F08F0E
:103350002068A16800F580535E89B1FBF6F206FB98
:103360001212002A73D1B1FBF6F29B785B1E1A4051
:1033700012F0FF0610D129B1626A2AB15846FFF750
:103380002FF904E0206902E0616900F023FC0228C3
:103390001FD3411C55D0606161692068FFF737F980
:1033A000B8B130440090206800F580504189B5FBE9
:1033B000F1F1039151B3721881788A4201D9891BC6
:1033C000039140784146039B009AFFF73FFDC0BB45
:1033D00003E084F807A00220B7E7A07940060ED5E5
:1033E000A1690098081A0399884208D2216801F55A
:1033F00080514A89594600FB028000F08DFE20680A
:1034000000F5805046890398464336E0A26900994A
:103410008A421AD0A179490609D540780123594634
:10342000FFF72EFD68B9A07920F04000A071206858
:10343000012300F5805059464078009AFFF706FDB9
:1034400018B1E771012080E701E00098A0612068D1
:10345000A16800F580504089B1FBF0F200FB121228
:10346000861AAE4200D92E46B1FBF0F200FB1211D3
:1034700059443246404600F04FFEA068B044304404
:10348000A060D9F800008119AD1BC9F80010002D0B
:103490007FF45EAF002058E770B5054600F0DEFF10
:1034A000002811D105F58054A1798A060CD548066B
:1034B0000FD52068012300F5805029464078A26985
:1034C000FFF7DEFC08B1012070BDA07920F04000BC
:1034D000A071E169206800F02FFE0028F4D1256A70
:1034E000E87A40F02000E872207B2877A089000A63
:1034F0006877E068000CA877E068000EE877284657
:10350000216900F019FF00F0DDFBA875010AE975DB
:10351000010C2976000E68760020A874E874A07962
:10352000012120F02000A071206800F58050017179
:103530002068BDE8704000F014BF2DE9FC5F8846AC
:103540000021994615468346196000F087FF002840
:1035500008D10BF58054E079002803D1A0798007C9
:1035600002D40720BDE8FC9FA068012741194FF055
:10357000020A81427AD3B5E02068A168024600F5CC
:1035800080504389B1FBF3F603FB1616002E6ED173
:10359000B1FBF3F38078401E034013F0FF0618D10F
:1035A00029B1606A38B15846FFF71AF807E0206978
:1035B00038B9002100E061691046FFF736F80028AD
:1035C00054D0012833D0411C62D06061216901B917
:1035D0002061A07940060DD52068012300F58050B8
:1035E00059464078A269FFF74BFCF0BBA07920F068
:1035F0004000A07161692068FFF709F8B8B1304454
:103600000190206800F580504189B5FBF1F10091EF
:1036100071B3721881788A4201D9891B0091DDE962
:10362000003240784146FFF72BFCF0B903E084F804
:1036300007A0022096E7A1690198081A009988421C
:103640000CD2216801F580514A8900FB028158465D
:1036500000F062FDA07920F04000A071206800F524
:10366000805046890098464332E011E03DE014E086
:10367000FFE7A169019A91420DD0D4E9021291426B
:1036800009D2407801235946019AFFF7DFFB10B1B8
:10369000E771012066E70198A0612068A16800F544
:1036A00080504089B1FBF0F200FB1212861AAE4244
:1036B00000D92E46B1FBF0F200FB121101EB0B001A
:1036C0003246414600F028FDA07940F04000A0714C
:1036D000A068B0443044A060D9F80000AD1B30446D
:1036E000C9F80000002D7FF447AFD4E902018842F9
:1036F00000D9E060A07940F02000A071002031E7FF
:1037000070B580281BD345F2205309B10D4D00E060
:103710000D4D002110245A1A02EBD27201EB620205
:1037200035F82260864206D001D2114600E01346E9
:10373000641EF0D104E01CB105EB8200408870BD2E
:10374000002070BD5C990108D84400080021064B98
:1037500000E0491C33F81120002A04D08242F8D13D
:10376000024830F811007047E0ED0208C0EF02088F
:103770002DE9FF5F4FF0000B0546C0F800B017467B
:10378000084600F0A1FA060003D50B2004B0BDE8FE
:10379000F09FAB4850F826409CB12C6004F5805552
:1037A000287820B16878FFF75FFBC1070BD085F858
:1037B00000B0F0B26870FFF727FBC10708D0032004
:1037C000E4E70C20E2E70FB1400704D40020DDE776
:1037D0001FB1400701D50A20D8E741F20A0162185B
:1037E00068780221FFF724FB88BB6889B0F5007F69
:1037F00036D3B0F5805F33D8002631462046FEF739
:1038000065FE012828D100214FEA0D0204EB0110CA
:1038100090F8C23100F5DF704BB1037AC67A43EA03
:103820000663867A407A360446EA0020034342F86B
:103830002130491C0429E9D30027904658F8276015
:1038400036B131462046FEF741FE10B90AE007E0E6
:1038500002207F1C042FF1D3032801D0F0BB01E02C
:10386000012093E7B4F80B00B5F80AC060456FD1AA
:10387000E08A68B994F8240094F8271094F8252079
:1038800040EA016094F82610090441EA0221084345
:10389000A861217C8246E970012901D0022957D113
:1038A00001FB00F9607BA870C0B1411E08424FD1F6
:1038B000B4F811104FEA5C12B1FBF2F302FB1313E0
:1038C00029815BB9B4F813707FB994F8203094F86B
:1038D000237043EA076794F8223000E038E094F858
:1038E00021801B0443EA08231F43E38983B3B1FB10
:1038F000F2F803EB09024244974229D3BF1AB7FBFF
:10390000F0F028B3012740F6F678404500D30227AF
:103910004FF6F678404500D30327801C3244AA6254
:1039200033446861C5E90763032F13D081B103EB0A
:1039300009016962022F20D000F0010100EB400074
:1039400001EB5000401E6044B0FBFCF1514516D91C
:103950000D201BE70029FBD194F82C1094F82F20A0
:1039600094F82D3041EA026194F82E20120442EAC4
:103970000322114380006962E4E74000E2E74FF070
:10398000FF302861E86080206871032F4DD1208EC0
:1039900001284AD12046711C00F0CEFBF0BB85F80F
:1039A00005B0B4F8FE01A0F52A4155393DD1207883
:1039B000E178627840EA0160A178090441EA0221D5
:1039C00008432049884230D194F8E40194F8E71183
:1039D00094F8E52140EA016094F8E611090441EA0F
:1039E00002210843184988421FD194F8E80194F84D
:1039F000EB1194F8E92140EA016094F8EA11090416
:103A000041EA02210843286194F8EC0194F8EF118F
:103A100040EA016094F8EE11090400E005E094F832
:103A2000ED2141EA02210843E86005492F70091F92
:103A30000888401C0880E8802046FEF7BFFDC5E6E8
:103A40004C00002052526141727241612DE9F341F4
:103A50000646019801782F2901D05C2901D1401C2C
:103A6000019006F580550027AF6001980078202866
:103A700006D200213046FFF779F904466F6125E050
:103A800001A93046FEF724FE0446014613A0FEF7C6
:103A9000C1FADCB93046FEF75BFF0446014616A0CA
:103AA000FEF7B8FAA869C07A4CB1042C02D14007DD
:103AB00000D40524214617A0FEF7ACFA06E0400723
:103AC00004D46969C87AC00603D405242046BDE839
:103AD000FC81286800F062F9A860D1E70D0A206631
:103AE0006F6C6C6F775F70617468207265733120E2
:103AF0003D2025640D0A00000D0A20666F6C6C6F76
:103B0000775F706174682072657332203D20256490
:103B10000D0A00000D0A20666F6C6C6F775F706194
:103B200074682072657333203D2025640D0A0000FF
:103B300013B50223012269460248FDF7BFFB009836
:103B40001CBD00006C2100207CB516461C460546B5
:103B50000B2200F0E1FA052C11D91D4A0CE00021DE
:103B6000B61C2346044663F35F044008E30300D514
:103B70005440491C1029F4D330880028EFD1072184
:103B80004FEA0D0304F00F003030392800D9C01D72
:103B90005854491E2409F5D17E20002258544C1E49
:103BA00006E081387D2802D8A24206D0521C521C61
:103BB0008A4202D2A85C2028F3D1082902D2585C9C
:103BC000491C00E02020A854521C082AF5D37CBDD3
:103BD000211001002DE9F0470D46074602290DD3BB
:103BE00007F580546069A84208D920784FF0FF3665
:103BF000012807D0022832D0032844D001263046BD
:103C0000BDE8F087618905EB5508B8FBF1F0216A42
:103C10000144384600F090FA0028F0D16189B8FBE1
:103C2000F1F201FB128008F1010817F80090B8FBCF
:103C3000F1F0216A0144384600F07EFA0028DED116
:103C40006189B8FBF1F201FB1280395C49EA01207D
:103C5000E90701D00609D2E7C0F30B06CFE7608978
:103C6000216A4008B5FBF0F00144384600F064FAE0
:103C70000028C4D161896800B0FBF1F201FB120099
:103C800038440688BBE76089216A8008B5FBF0F0FC
:103C90000144384600F050FA0028B0D16189A800EC
:103CA000B0FBF1F201FB120038440178C27841EA1E
:103CB000026182784078120442EA0020014321F038
:103CC00070469CE70020704710B504464FF0FF3067
:103CD0002268002A13D0114600E0491C0B78202BE3
:103CE0000ED33A2BF9D112F8013B303B0A2B06D206
:103CF0008A4204D1002B02D1491C1846216010BD14
:103D0000002010BDF0B500F5805323481C68002248
:103D100002EB420550F82560A64209D100EB85056B
:103D20009F686E68BE4203D12D89DE88B54202D0FD
:103D3000521C022AECD3022A18D1002202E0521CA3
:103D4000022A05D202EB420550F82550002DF6D18B
:103D5000022A13D002EB420540F8254000EB85040F
:103D60009E686660DB88238100236381002902EB63
:103D7000420100EB8101498902D019B10020F0BD58
:103D8000491C01E04FF4807102EB420300EB830019
:103D90004181501CF0BD0000B0210020024602F518
:103DA0008052488B1278032A02D1898A40EA014066
:103DB00070470000FCF7B2FCFDF7C2FFFDF7E6FA22
:103DC000FDF71AFBFDF73CFBFDF7D2FA4FF4FA7052
:103DD000FCF73AFB012265A16548FFF7FFF80446AE
:103DE000014664A0FEF716F924B168A0FEF712F9A7
:103DF00072B6FEE76AA0FEF70DF96D4A5BA0111DD1
:103E0000FFF761F820B16BA0FEF704F972B6FEE788
:103E10006DA0FEF7FFF8664C206800F58050416900
:103E20008778891E01FB07F0FCF724FA4FF0FF3674
:103E30003246FCF708FAFCF72AFAA06061680546EA
:103E400007FB01F0FCF716FA3246FCF7FCF9FCF729
:103E50001EFA0246E06029465FA0FEF7DBF8E06844
:103E6000002823D062A0FEF7D5F8132265A1684888
:103E7000FFF7E6F8014667A0FEF7CCF864496AA0B0
:103E8000FFF720FA624971A0FFF71CFA74A0FEF751
:103E9000C1F85F48FFF702F868B15D48FEF7FEFF22
:103EA000014674A0FEF7B6F872B6FEE776A0FEF7FC
:103EB000B1F872B6FEE74EA0FEF7ACF8012251A1B0
:103EC0005348FFF7BDF820B175A0FEF7A3F872B60E
:103ED000FEE777A0FEF79EF806E07A497AA0FEF7A3
:103EE00099F87A48002000BF494A64217548FFF7D5
:103EF00051F80028F1D176A0FEF78CF858A0FEF713
:103F000089F84348FEF7CAFF20B174A0FEF782F893
:103F100072B6FEE776A0FEF77DF8012213A100201D
:103F2000FFF75CF820B119A0FEF774F872B6FEE74F
:103F300001220EA10E48FFF751F8132271A1344857
:103F4000FFF77EF8324972A0FFF7BCF930493FA075
:103F5000FFF7B8F92E48FEF7A1FF012203A10020C8
:103F6000FFF73CF82A48FEF799FFFEE70000000043
:103F700054000020665F6D6F756E742072657375F6
:103F80006C743A20253032580D0A0000665F6D6F60
:103F9000756E74206661696C65640D0A000000002E
:103FA000665F6D6F756E74206F6B0D0A0000000008
:103FB00000000020665F6765746672656520666153
:103FC000696C65640D0A0000665F676574667265FA
:103FD00065206F6B0D0A0000746F74616C3A256484
:103FE0004B422C20667265653A25644B420D0A00EF
:103FF000665F6F70656E2066697273742E74787474
:104000000D0A000066697273742E747874000000E3
:1040100084100020665F6F70656E20207265747575
:10402000726E3A25640A000053544D3332205344D3
:10403000204361726420492F4F204578616D706C78
:104040006520766961205350490A0000426C616323
:104050006B2053686565702057616C6C21212100CD
:10406000665F636C6F73652066697273742E747813
:10407000740D0A00665F636C6F7365206661696C1E
:1040800065643A25640D0A00667265655370616364
:1040900065206E6F7420656E6F7567680D0A00008D
:1040A000665F6F70656E206661696C65640D0A00FD
:1040B000665F676574732066697273742E747874B2
:1040C0000D0A0000B02000202573000050000020E1
:1040D0000D0A646F6E650D0A00000000665F636C78
:1040E0006F7365206661696C65640D0A00000000ED
:1040F000665F6D6F756E7420756E6D6F756E740D85
:104100000A000000746573742E7478740000000057
:1041100031353A31380A000004E000BF11F8013BA4
:1041200000F8013B521EF9D27047C9B201E000F815
:10413000011B521EFBD270472DE9F04100F580545F
:104140000746E06A0E460025B0420ED0384600F021
:104150005CF9050009D16078012332463946FEF743
:1041600075FE08B16E1E0125E6622846BDE8F081A5
:104170002DE9F04717460D460646022904D306F5F9
:1041800080546069A84202D80220BDE8F0872178F7
:1041900007F0FF094FF0010A012923D002295CD062
:1041A0000329F1D16089216A8008B5FBF0F0014450
:1041B0003046FFF7C1FF0028E7D16289A900B1FBB3
:1041C000F2F302FB13118A194FF07043D17803EA1E
:1041D0000161394311700B0A53700B0C9370090E77
:1041E000D17050E0618905EB5508B8FBF1F0216A08
:1041F00001443046FFF7A0FF0028C6D16189B8FB13
:10420000F1F201FB1280304408F10108E90703D004
:10421000017869F31F1100E03946017084F804A0A9
:104220006189B8FBF1F0216A01443046FFF784FF51
:104230000028AAD16289B8FBF2F302FB1381314452
:10424000EA0702D0C7F3071205E00A78C7F3032391
:1042500002F0F0021A430A7015E06089216A4008F2
:10426000B5FBF0F001443046FFF766FF00288CD123
:1042700062896900B1FBF2F302FB131131443A0A7F
:1042800081F800904A7084F804A07EE7F8B50E46E5
:1042900004460A2902D10D21FFF7F8FF6568002DB9
:1042A00016DB60196D1C06733D2D0DDB6B462A462F
:1042B00004F10C012068FFF740F90098A84201D1F1
:1042C000002501E04FF0FF356560A068401CA0604C
:1042D000F8BD2DE9F0410F468046022918D308F5B4
:1042E00080556869B84213D900261FE03946404618
:1042F000FFF770FC04001CD0012C09D0601C09D011
:10430000002239464046FFF733FF060011D103E093
:1043100002260EE001260CE02869411C05D0401C55
:104320002861687940F00100687127466869B842E1
:10433000DCD83046BDE8F08181760A0AC2760A0CE4
:104340000275090E41757047014600200B22430893
:1043500003EBC01011F8013B521E1844C0B2F6D155
:10436000704770B5044600F050F806004BD104F5D4
:104370008055287803283FD1687901283CD16A8983
:1043800000212046FFF7D1FE552084F8FE01AA2027
:1043900084F8FF015220207060706120A0704121DC
:1043A000E170722284F8E42184F8E52184F8E611B2
:1043B00084F8E701286984F8E801010A84F8E91122
:1043C000010C84F8EA11000E84F8EB01E86884F827
:1043D000EC01010A84F8ED11010C84F8EE11000ED5
:1043E00084F8EF01EA690123521CEA6268782146E9
:1043F000FEF746FD00206871002268781146FEF73E
:1044000017FD00B10126304670BD2DE9F04100F5E1
:104410008054804620790027E8B1E56A607801235E
:104420002A464146FEF72CFD08B1012713E0002083
:104430002071206AA169281A88420CD2E67808E027
:10444000A0690123054460782A464146FEF718FD1D
:10445000761E022EF4D23846BDE8F08110B580B148
:1044600000F58050016861B101F580510A7842B1D0
:10447000CA888088824204D14878FEF7F5FCC007DC
:1044800000D0092010BD0000000000000000010263
:1044900003040607080900000000010203040103E9
:1044A0000507090E10121416181C1E000004000245
:1044B00000018000400020001000080004000200FD
:1044C0000000008000400020001000080040002094
:1044D0000010000800040002A400E8A1A700ECA15D
:1044E000A800A7A1B000E3A1B100C0A1B700A4A19A
:1044F000D700C1A1E000A4A8E100A2A8E800A8A8F4
:10450000E900A6A8EA00BAA8EC00ACA8ED00AAA8A9
:10451000F200B0A8F300AEA8F700C2A1F900B4A859
:10452000FA00B2A8FC00B9A80101A1A81301A5A82E
:104530001B01A7A82B01A9A84401BDA84801BEA83A
:104540004D01ADA86B01B1A8CE01A3A8D001ABA8C5
:10455000D201AFA8D401B3A8D601B5A8D801B6A896
:10456000DA01B7A8DC01B8A85102BBA86102C0A853
:10457000C702A6A1C902A5A1CA0240A8CB0241A8B0
:10458000D90242A89103A1A69203A2A69303A3A6CF
:104590009403A4A69503A5A69603A6A69703A7A68B
:1045A0009803A8A69903A9A69A03AAA69B03ABA65B
:1045B0009C03ACA69D03ADA69E03AEA69F03AFA62B
:1045C000A003B0A6A103B1A6A303B2A6A403B3A6F9
:1045D000A503B4A6A603B5A6A703B6A6A803B7A6C7
:1045E000A903B8A6B103C1A6B203C2A6B303C3A66A
:1045F000B403C4A6B503C5A6B603C6A6B703C7A62B
:10460000B803C8A6B903C9A6BA03CAA6BB03CBA6FA
:10461000BC03CCA6BD03CDA6BE03CEA6BF03CFA6CA
:10462000C003D0A6C103D1A6C303D2A6C403D3A698
:10463000C503D4A6C603D5A6C703D6A6C803D7A666
:10464000C903D8A60104A7A71004A1A71104A2A713
:104650001204A3A71304A4A71404A5A71504A6A7CE
:104660001604A8A71704A9A71804AAA71904ABA79A
:104670001A04ACA71B04ADA71C04AEA71D04AFA76A
:104680001E04B0A71F04B1A72004B2A72104B3A73A
:104690002204B4A72304B5A72404B6A72504B7A70A
:1046A0002604B8A72704B9A72804BAA72904BBA7DA
:1046B0002A04BCA72B04BDA72C04BEA72D04BFA7AA
:1046C0002E04C0A72F04C1A73004D1A73104D2A75C
:1046D0003204D3A73304D4A73404D5A73504D6A70E
:1046E0003604D8A73704D9A73804DAA73904DBA7DA
:1046F0003A04DCA73B04DDA73C04DEA73D04DFA7AA
:104700003E04E0A73F04E1A74004E2A74104E3A779
:104710004204E4A74304E5A74404E6A74504E7A749
:104720004604E8A74704E9A74804EAA74904EBA719
:104730004A04ECA74B04EDA74C04EEA74D04EFA7E9
:104740004E04F0A74F04F1A75104D7A710205CA98D
:10475000132043A81420AAA1152044A81620ACA118
:104760001820AEA11920AFA11C20B0A11D20B1A11D
:10477000252045A82620ADA13020EBA13220E4A1C0
:104780003320E5A1352046A83B20F9A1AC208000CC
:104790000321E6A1052147A8092148A81621EDA17A
:1047A000212159A96021F1A26121F2A26221F3A283
:1047B0006321F4A26421F5A26521F6A26621F7A285
:1047C0006721F8A26821F9A26921FAA26A21FBA255
:1047D0006B21FCA27021A1A27121A2A27221A3A22D
:1047E0007321A4A27421A5A27521A6A27621A7A255
:1047F0007721A8A27821A9A27921AAA29021FBA1C0
:104800009121FCA19221FAA19321FDA1962149A811
:1048100097214AA898214BA899214CA80822CAA1FF
:104820000F22C7A11122C6A115224DA81A22CCA180
:104830001D22D8A11E22DEA11F224EA82022CFA118
:1048400023224FA82522CEA12722C4A12822C5A118
:104850002922C9A12A22C8A12B22D2A12E22D3A16A
:104860003422E0A13522DFA13622C3A13722CBA119
:104870003D22D7A14822D6A14C22D5A1522250A830
:104880006022D9A16122D4A16422DCA16522DDA12C
:10489000662251A8672252A86E22DAA16F22DBA1FC
:1048A000952292A89922D1A1A522CDA1BF2253A8D9
:1048B0001223D0A16024D9A26124DAA26224DBA24F
:1048C0006324DCA26424DDA26524DEA26624DFA2C8
:1048D0006724E0A26824E1A26924E2A27424C5A2AC
:1048E0007524C6A27624C7A27724C8A27824C9A2B8
:1048F0007924CAA27A24CBA27B24CCA27C24CDA288
:104900007D24CEA27E24CFA27F24D0A28024D1A257
:104910008124D2A28224D3A28324D4A28424D5A227
:104920008524D6A28624D7A28724D8A28824B1A21F
:104930008924B2A28A24B3A28B24B4A28C24B5A267
:104940008D24B6A28E24B7A28F24B8A29024B9A237
:104950009124BAA29224BBA29324BCA29424BDA207
:104960009524BEA29624BFA29724C0A29824C1A2D7
:104970009924C2A29A24C3A29B24C4A20025A4A95C
:104980000125A5A90225A6A90325A7A90425A8A94B
:104990000525A9A90625AAA90725ABA90825ACA91B
:1049A0000925ADA90A25AEA90B25AFA90C25B0A9EB
:1049B0000D25B1A90E25B2A90F25B3A91025B4A9BB
:1049C0001125B5A91225B6A91325B7A91425B8A98B
:1049D0001525B9A91625BAA91725BBA91825BCA95B
:1049E0001925BDA91A25BEA91B25BFA91C25C0A92B
:1049F0001D25C1A91E25C2A91F25C3A92025C4A9FB
:104A00002125C5A92225C6A92325C7A92425C8A9CA
:104A10002525C9A92625CAA92725CBA92825CCA99A
:104A20002925CDA92A25CEA92B25CFA92C25D0A96A
:104A30002D25D1A92E25D2A92F25D3A93025D4A93A
:104A40003125D5A93225D6A93325D7A93425D8A90A
:104A50003525D9A93625DAA93725DBA93825DCA9DA
:104A60003925DDA93A25DEA93B25DFA93C25E0A9AA
:104A70003D25E1A93E25E2A93F25E3A94025E4A97A
:104A80004125E5A94225E6A94325E7A94425E8A94A
:104A90004525E9A94625EAA94725EBA94825ECA91A
:104AA0004925EDA94A25EEA94B25EFA9502554A883
:104AB000512555A8522556A8532557A8542558A81E
:104AC000552559A856255AA857255BA858255CA8EE
:104AD00059255DA85A255EA85B255FA85C2560A8BE
:104AE0005D2561A85E2562A85F2563A8602564A88E
:104AF000612565A8622566A8632567A8642568A85E
:104B0000652569A866256AA867256BA868256CA82D
:104B100069256DA86A256EA86B256FA86C2570A8FD
:104B20006D2571A86E2572A86F2573A8702574A8CD
:104B3000712575A8722576A8732577A8812578A890
:104B4000822579A883257AA884257BA885257CA839
:104B500086257DA887257EA8882580A8892581A807
:104B60008A2582A88B2583A88C2584A88D2585A8D5
:104B70008E2586A88F2587A8932588A8942589A89F
:104B800095258AA8A025F6A1A125F5A1B225F8A111
:104B9000B325F7A1BC258BA8BD258CA8C625F4A1FB
:104BA000C725F3A1CB25F0A1CE25F2A1CF25F1A1F8
:104BB000E2258DA8E3258EA8E4258FA8E52590A8F9
:104BC0000526EFA10626EEA1092691A84026E2A11E
:104BD0004226E1A10030A1A10130A2A10230A3A18F
:104BE0000330A8A10530A9A1063065A9073096A910
:104BF0000830B4A10930B5A10A30B6A10B30B7A175
:104C00000C30B8A10D30B9A10E30BAA10F30BBA144
:104C10001030BEA11130BFA1123093A81330FEA1F5
:104C20001430B2A11530B3A11630BCA11730BDA10C
:104C30001D3094A81E3095A8213040A9223041A9EA
:104C4000233042A9243043A9253044A9263045A960
:104C5000273046A9283047A9293048A94130A1A4C6
:104C60004230A2A44330A3A44430A4A44530A5A458
:104C70004630A6A44730A7A44830A8A44930A9A428
:104C80004A30AAA44B30ABA44C30ACA44D30ADA4F8
:104C90004E30AEA44F30AFA45030B0A45130B1A4C8
:104CA0005230B2A45330B3A45430B4A45530B5A498
:104CB0005630B6A45730B7A45830B8A45930B9A468
:104CC0005A30BAA45B30BBA45C30BCA45D30BDA438
:104CD0005E30BEA45F30BFA46030C0A46130C1A408
:104CE0006230C2A46330C3A46430C4A46530C5A4D8
:104CF0006630C6A46730C7A46830C8A46930C9A4A8
:104D00006A30CAA46B30CBA46C30CCA46D30CDA477
:104D10006E30CEA46F30CFA47030D0A47130D1A447
:104D20007230D2A47330D3A47430D4A47530D5A417
:104D30007630D6A47730D7A47830D8A47930D9A4E7
:104D40007A30DAA47B30DBA47C30DCA47D30DDA4B7
:104D50007E30DEA47F30DFA48030E0A48130E1A487
:104D60008230E2A48330E3A48430E4A48530E5A457
:104D70008630E6A48730E7A48830E8A48930E9A427
:104D80008A30EAA48B30EBA48C30ECA48D30EDA4F7
:104D90008E30EEA48F30EFA49030F0A49130F1A4C7
:104DA0009230F2A49330F3A49B3061A99C3062A9A5
:104DB0009D3066A99E3067A9A130A1A5A230A2A509
:104DC000A330A3A5A430A4A5A530A5A5A630A6A56B
:104DD000A730A7A5A830A8A5A930A9A5AA30AAA53B
:104DE000AB30ABA5AC30ACA5AD30ADA5AE30AEA50B
:104DF000AF30AFA5B030B0A5B130B1A5B230B2A5DB
:104E0000B330B3A5B430B4A5B530B5A5B630B6A5AA
:104E1000B730B7A5B830B8A5B930B9A5BA30BAA57A
:104E2000BB30BBA5BC30BCA5BD30BDA5BE30BEA54A
:104E3000BF30BFA5C030C0A5C130C1A5C230C2A51A
:104E4000C330C3A5C430C4A5C530C5A5C630C6A5EA
:104E5000C730C7A5C830C8A5C930C9A5CA30CAA5BA
:104E6000CB30CBA5CC30CCA5CD30CDA5CE30CEA58A
:104E7000CF30CFA5D030D0A5D130D1A5D230D2A55A
:104E8000D330D3A5D430D4A5D530D5A5D630D6A52A
:104E9000D730D7A5D830D8A5D930D9A5DA30DAA5FA
:104EA000DB30DBA5DC30DCA5DD30DDA5DE30DEA5CA
:104EB000DF30DFA5E030E0A5E130E1A5E230E2A59A
:104EC000E330E3A5E430E4A5E530E5A5E630E6A56A
:104ED000E730E7A5E830E8A5E930E9A5EA30EAA53A
:104EE000EB30EBA5EC30ECA5ED30EDA5EE30EEA50A
:104EF000EF30EFA5F030F0A5F130F1A5F230F2A5DA
:104F0000F330F3A5F430F4A5F530F5A5F630F6A5A9
:104F1000FC3060A9FD3063A9FE3064A90531C5A845
:104F20000631C6A80731C7A80831C8A80931C9A8E1
:104F30000A31CAA80B31CBA80C31CCA80D31CDA8B1
:104F40000E31CEA80F31CFA81031D0A81131D1A881
:104F50001231D2A81331D3A81431D4A81531D5A851
:104F60001631D6A81731D7A81831D8A81931D9A821
:104F70001A31DAA81B31DBA81C31DCA81D31DDA8F1
:104F80001E31DEA81F31DFA82031E0A82131E1A8C1
:104F90002231E2A82331E3A82431E4A82531E5A891
:104FA0002631E6A82731E7A82831E8A82931E9A861
:104FB0002032E5A22132E6A22232E7A22332E8A281
:104FC0002432E9A22532EAA22632EBA22732ECA251
:104FD0002832EDA22932EEA231325AA9A33249A9D0
:104FE0008E334AA98F334BA99C334CA99D334DA9CD
:104FF0009E334EA9A1334FA9C43350A9CE3351A932
:10500000D13352A9D23353A9D53354A9004EBBD2C0
:10501000014EA1B6024E4081034EDFC6044E4181CF
:10502000054E4281064E4381074EF2CD084EC9D54A
:10503000094EFDC80A4ECFC90B4EC2CF0C4EA2D8A6
:105040000D4EBBB20E4EEBD30F4E4481104EA4D882
:10505000114EF3B3124E4581134EA8D7144ED2C74A
:10506000154EA7D8164EC0CA174E4681184EF0C727
:10507000194EFBB11A4EB5D21B4ED4B41C4EABB672
:105080001D4EBFCB1E4EA9D81F4E4781204E4881D2
:10509000214E4981224EAAB6234E4A81244EBDC1DB
:1050A000254ECFD1264E4B81274EA5C9284EADD8CF
:1050B000294E4C812A4EF6B82B4EBED12C4EDCE345
:1050C0002D4ED0D62E4E4D812F4E4E81304EE1B713
:1050D000314E4F81324EAEB4334E5081344ED9C131
:1050E000354E5181364EBCD8374E5281384EE8CDC0
:1050F000394EA4B53A4EAACE3B4EF7D63C4E53811C
:105100003D4EF6C03E4ED9BE3F4EAFD8404E5481C4
:10511000414E5581424E5681434ECBC4444E578139
:10512000454EC3BE464E5881474EB1D8484EB4C3D3
:10513000494EE5D24A4E59814B4EAED64C4EDACE50
:105140004D4EA7D54E4EF5BA4F4EA6B7504ED6C0CF
:10515000514E5A81524EB9C6534ED2C5544EC7C74E
:10516000554E5B81564ED4B9574E5C81584ECBB3E9
:10517000594ED2D25A4E5D815B4E5E815C4EBFD895
:105180005D4EC5BE5E4EF2C65F4EB2D2604EB0CF2F
:10519000614EE7CF624E5F81634E6081644E6181F4
:1051A000654E6281664EE9CA674E6381684E6481CE
:1051B000694EC0D86A4E65816B4E66816C4E6781C0
:1051C0006D4E68816E4E69816F4E6A81704EF2C27B
:1051D000714ED2C2724E6B81734EE9C8744E6C81AF
:1051E000754E6D81764E6E81774E6F81784E7081EF
:1051F000794E71817A4E72817B4E73817C4E7481BF
:105200007D4E75817E4EACC77F4E7681804E778114
:10521000814E7881824E7981834E7A81844E7B8162
:10522000854E7C81864ECBC1874E7D81884EE8D3EA
:10523000894EF9D58A4E7E818B4EC2CA8C4EFEB6FF
:105240008D4EA1D88E4EDAD38F4EF7BF904E80810F
:10525000914EC6D4924EA5BB934EC1D8944EE5CE86
:10526000954EAEBE964E8181974E8281984EA8D8BB
:10527000994E83819A4EC7D19B4EA9D09C4E848172
:105280009D4E85819E4E86819F4EBDD8A04EEFD902
:10529000A14EF6CDA24EBABFA34E8781A44EBBBD90
:1052A000A54EA5BAA64EE0D2A74EFAB2A84EE0BAD5
:1052B000A94EB6C4AA4E8881AB4EEDCFAC4EA9BE66
:1052C000AD4EA4CDAE4EC1C1AF4E8981B04E8A81E4
:1052D000B14E8B81B24ED7C7B34EF1D9B44E8C814B
:1052E000B54EF4D9B64E8D81B74E8E81B84E8F81B2
:1052F000B94E9081BA4ECBC8BB4EE9D8BC4E918115
:10530000BD4E9281BE4E9381BF4EDAD2C04EB2CA1C
:10531000C14ECAC8C24EECD8C34EEAD8C44EC6D895
:10532000C54EF6BDC64ECDC6C74EF0B3C84E94812D
:10533000C94EEBD8CA4EF1BDCB4EE9BDCC4E9581DE
:10534000CD4ED4C8CE4ED3B4CF4E9681D04E978199
:10535000D14ED8C2D24E9881D34ED6B2D44ED0D7E9
:10536000D54ECBCAD64EFBCBD74ECCD5D84EB6B841
:10537000D94EC9CFDA4E9981DB4E9A81DC4E9B81A2
:10538000DD4EDAD9DE4EF0D8DF4EAAC7E04E9C8162
:10539000E14EEED8E24E9D81E34EFAB4E44EEEC10A
:1053A000E54ED4D2E64E9E81E74E9F81E84EEDD881
:1053B000E94EA081EA4EC7D2EB4EEFD8EC4EC7C300
:1053C000ED4EA181EE4EA281EF4EA381F04EF6D1BB
:1053D000F14EA481F24ED9D6F34EF2D8F44EA58107
:1053E000F54EF5D8F64EFEBCF74EDBBCF84EA68166
:1053F000F94EA781FA4EA881FB4ECEC8FC4EA9817A
:10540000FD4EDDB7FE4EAA81FF4EC2B7004FAB8105
:10541000014FF3C6024FAC81034FAD81044FAE8103
:10542000054FAF81064FB081074FB181084FB28160
:10543000094FF8D80A4FC1D20B4FB3810C4FB4813A
:105440000D4FE9CE0E4FBFBC0F4FFCB7104FA5B7A5
:10545000114FDDD0124FB581134FB681144FB78174
:10546000154FB881164FB981174FDAD6184FC5D3EB
:10547000194FEFBB1A4FE1BB1B4FF1D81C4FBA813C
:105480001D4FBB811E4FA1C91F4FB0CE204FABB4E3
:10549000214FBC81224FF3D8234FBD81244FCBC96C
:1054A000254FF6D8264FD7C2274FF7D8284FBE81B1
:1054B000294FBF812A4FB1CE2B4FF9D82C4FC08135
:1054C0002D4FC1812E4FC2812F4FAEB2304FC0B988
:1054D000314FC381324FA3D9334FC481344FE9B028
:1054E000354FC581364FE6C1374FC681384FECC9BD
:1054F000394FC7813A4FC5CB3B4FC8813C4FC6CBD4
:105500003D4FA4D93E4FC9813F4FCA81404FCB8107
:10551000414FCC81424FCD81434FE8B5444FCE81BE
:10552000454FCF81464FABB5474FD081484FD181D2
:10553000494FD2814A4FD3814B4FD4814C4FD581B3
:105540004D4FBBCE4E4FCDB54F4FA1D7504FF4D797
:10555000514FD3D3524FD681534FE5CC544FD781BF
:10556000554FCEBA564FD881574FA2D9584FDCD994
:10557000594FE0D35A4FFDD85B4FF0B75C4FF7D788
:105580005D4FFED85E4FFAD85F4FA1D9604FE3C49C
:10559000614FD981624FDA81634FB6D3644FF4D83B
:1055A000654FDDD9664FDB81674FFBD8684FDC81E3
:1055B000694FE5C56A4FDD816B4FDE816C4FD0C00E
:1055C0006D4FDF816E4FE0816F4FF0D1704FDBB0D8
:1055D000714FE181724FE281734FD1BC744FA6D9F4
:1055E000754FE381764FA5D9774FE481784FE581F8
:1055F000794FE6817A4FE7817B4FACD97C4FAED9AA
:105600007D4FE8817E4FABD97F4FB9CA804FE9818A
:10561000814FEA81824FEB81834FA9D9844FB6D65F
:10562000854FEC81864FED81874FEE81884FDEB349
:10563000894FA8D98A4FEF818B4FFDC08C4FF081E5
:105640008D4FCCCA8E4FF1818F4FAAD9904FF281E6
:10565000914FA7D9924FF381934FF481944FB0D9D2
:10566000954FF581964FF681974FB1B6984FF781D8
:10567000994FF8819A4FF9819B4FA9B99C4FFA81B4
:105680009D4FC0D29E4FFB819F4FFC81A04FC0CF4A
:10569000A14FFD81A24FFE81A34FC2C2A44F408201
:1056A000A54FC4BDA64FECD5A74FE0B2A84FC8C7C1
:1056B000A94FEBBFAA4FADD9AB4F4182AC4FAFD989
:1056C000AD4F4282AE4FEACEAF4FEEBAB04F4382FB
:1056D000B14F4482B24F4582B34F4682B44F4782A6
:1056E000B54FD6C7B64F4882B74F4982B84F4A82A6
:1056F000B94F4B82BA4F4C82BB4F4D82BC4F4E824A
:10570000BD4F4F82BE4F5082BF4FE3B1C04F518259
:10571000C14F5282C24F5382C34FD9B4C44FEDB66A
:10572000C54FB4D9C64F5482C74F5582C84F568211
:10573000C94F5782CA4FA1BFCB4F5882CC4F598215
:10574000CD4F5A82CE4FDED9CF4FCEC7D04FFEC0FD
:10575000D14FB8D9D24F5B82D34F5C82D44F5D8298
:10576000D54F5E82D64F5F82D74FD7CBD84FFDB78C
:10577000D94F6082DA4FB5D9DB4F6182DC4FB7D9A0
:10578000DD4FA3B1DE4FE1D3DF4FB9D9E04F6282E5
:10579000E14FC5D0E24F6382E34FB6D9E44F648254
:1057A000E54F6582E64FB1D9E74F6682E84FB2D93F
:1057B000E94FA9C1EA4FB3D9EB4F6782EC4F68823A
:1057C000ED4FF3BCEE4FDED0EF4FA9B8F04F69823A
:1057D000F14FE3BEF24F6A82F34FBDD9F44F6B82B3
:1057E000F54F6C82F64F6D82F74F6E82F84FBAD943
:1057F000F94F6F82FA4FB3B0FB4F7082FC4F71824A
:10580000FD4F7282FE4FC2D9FF4F738200507482E7
:10581000015075820250768203507782045078825C
:105820000550798206507A8207507B8208507C822C
:1058300009507D820A507E820B5080820C50C4D960
:105840000D50B6B10E5081820F50BFD910508282D8
:10585000115083821250B9B5135084821450F3BE94
:105860001550858216508682175087821850C8CCF2
:105870001950F2BA1A50D0D21B5088821C50C3D98A
:105880001D5089821E508A821F50E8BD20508B8295
:105890002150ABB322508C8223508D8224508E82B3
:1058A0002550C5D92650EBBE27508F822850C6D927
:1058B0002950BBD92A50DFC42B5090822C50BED91E
:1058C0002D50C1D92E50C0D92F5091823050928284
:1058D0003150938232509482335095823450968264
:1058E00035509782365098823750998238509A8234
:1058F00039509B823A50AED53B509C823C50B5D635
:105900003D509D823E50E3C73F509E8240509F8253
:105910004150A0824250A1824350C8D94450A28233
:105920004550A3824650A4824750D9BC4850CAD99A
:105930004950A5824A50A6824B50A7824C50BCD9F0
:105940004D50A8824E50CBD94F50ABC65050A98273
:105950005150AA825250AB825350AC825450AD8207
:105960005550C9D95650AE825750AF825850B08268
:105970005950B1825A50F6D75B50B2825C50A3CDD9
:105980005D50B3825E50B4825F50B5826050B68283
:105990006150B7826250B8826350B9826450BA8253
:1059A0006550A1BD6650BB826750BC826850BD8205
:1059B0006950BE826A50BF826B50C0826C50CCD995
:1059C0006D50C1826E50C2826F50C3827050C482CB
:1059D0007150C5827250C6827350C7827450C8829B
:1059E0007550C9827650BCC57750B5CD7850CA8203
:1059F0007950CB827A50CC827B50CDD97C50CD82ED
:105A00007D50CE827E50C7D97F50A5B38050FEBF57
:105A10008150CF828250D0828350D1828450D282F2
:105A20008550B5B88650D3828750D4828850FCC048
:105A30008950D5828A50D6828B50D7828C50D8829A
:105A40008D50F8B08E50D9828F50DA829050DB8220
:105A50009150DC829250DD829350DE829450DF823E
:105A60009550E0829650E1829750E2829850E3820E
:105A70009950E4829A50E5829B50E6829C50E782DE
:105A80009D50E8829E50E9829F50EA82A050EB82AE
:105A9000A150EC82A250ED82A350F6B4A450EE8245
:105AA000A550CED9A650EF82A750CFD9A850A2B406
:105AB000A950D0D9AA50F082AB50F182AC50DFB4DB
:105AC000AD50F282AE50F382AF50F482B050F58206
:105AD000B150F682B250C1B0B350F782B450F882E0
