:020000040800F2
:10000000E06B0020350200080F3600080D320008B2
:100010000D360008210A00080556000800000000FF
:100020000000000000000000000000009D0100082A
:10003000990B000800000000E1010008FD380008ED
:100040004F0200084F0200084F0200084F0200084C
:100050004F0200084F0200084F0200084F0200083C
:100060004F0200084F0200084F0200084F0200082C
:100070004F0200084F0200084F0200084F0200081C
:10008000B90A0008C50A0008DD0800084F02000888
:100090004F0200084F0200084F020008450C0008FC
:1000A0004F0200084F0200084F0200084F020008EC
:1000B000913900084F0200084F0200084F02000863
:1000C0004F0200084F0200084F0200084F020008CC
:1000D0004F0200085D3E0008B53E00084F020008D0
:1000E0004F0200084F0200084F0200084F020008AC
:1000F0004F0200084F0200084F0200084F0200089C
:100100004F0200084F0200084F0200084F0200088B
:100110004F0200084F0200084F0200084F0200087B
:10012000D10A00084F020008DD0A00084F0200084B
:100130004F02000800000000000000004F0200080D
:100140004F0200084F0200084F0200081136000855
:100150004F0200084F020008E90A00084F02000899
:100160004F0200084F0200084F0200084F0200082B
:100170004F0200084F0200080000000000000000CD
:100180004F020008DFF810D000F024FB00480047C1
:10019000A55F0008AFF30080E06B0020224B1968D8
:1001A0000868B0E8F00F80F30988BFF36F8F4FF055
:1001B000000080F311884EF00D0E70470000000023
:1001C00006480068006880F3088862B661B6BFF32D
:1001D0004F8FBFF36F8F00DF00BF00BF08ED00E05F
:1001E000EFF30980BFF36F8F0F4B1A6820E9F00F10
:1001F000106008B54FF0500080F31188BFF34F8FA7
:10020000BFF36F8F06F0E8FB4FF0000080F311881A
:10021000BDE8084019680868B0E8F00F80F3098865
:10022000BFF36F8F704700BF58000020EFF30580C9
:10023000704700000648804706480047FEE7FEE793
:10024000FEE7FEE7FEE7FEE7FEE7FEE7FEE7FEE786
:100250008F390008850100082DE9F05F0546002070
:1002600092469B4688460646814640241BE0284627
:1002700041464746224600F0FEF953465A46C01A08
:10028000914110D311461846224600F0E5F92D1A87
:1002900067EB01084F4622460120002100F0DCF9FF
:1002A00017EB00094E41201EA4F10104DFDC484693
:1002B00031462A464346BDE8F09F40EA01039B07CA
:1002C00003D009E008C9121F08C0042AFAD203E0CB
:1002D00011F8013B00F8013B521EF9D27047D2B22F
:1002E00001E000F8012B491EFBD270470022F6E71F
:1002F00010B513460A4604461946FFF7F0FF20469C
:1003000010BD2DE9FE4F804681EA0300C00F0C4668
:10031000009021F0004123F00045B8EB0200A94114
:1003200005D24046214690461C460B46024623F025
:100330000040104347D0270DC7F30A00C3F30A510A
:100340000290401A019040286BDAC3F3130040F486
:10035000801B0098924620B10023D2EB030A63EB86
:100360000B0B01985946C0F14002504600F074F959
:1003700006460D4650465946019A00F08CF910EB9E
:1003800008006141002487EA115284EAE7731A43A6
:1003900040D0009A62B3019A012A4FEA075215DC55
:1003A000001B61EB02014FF0004202EA0752CDE967
:1003B0000042001C41F5801132462B4600F08CF9BA
:1003C00003B0BDE8F08F40462146F9E7001B61EB22
:1003D0000201001C41F5801300185B412018A2F5B2
:1003E000001747EB030140EAD570B6196D4111E0E3
:1003F0006D084FEA360645EAC0754FEA0752001B02
:1004000061EB0201001C41F5801149084FEA300000
:100410000019514132462B4603B0BDE8F04F00F0C1
:100420004CB90098012240000023D0EB020263EB9C
:10043000E073009821464FEAE074B8EB000061EBEE
:100440000401E9E783F000435BE781F0004158E7EE
:100450002DE9FE4F81EA030404F0004421F000413D
:1004600000944FF0000B23F0004350EA01045ED0EB
:1004700052EA03045BD0C3F30A54C1F30A552C4477
:10048000A4F2F3340194A0FB0254C1F3130141F42C
:100490008011C3F3130343F4801301FB024400FBF8
:1004A000034E840A970A44EA815447EA8357A4FB1F
:1004B000076802958D0A05FB07854FEA932C04FB1C
:1004C0000C542705029D4FEA065847EA1637B5EB4C
:1004D00008056EEB070C870E920E47EA811742EA79
:1004E0008312A7FB0201B6EB0B0164EB00042B0D9A
:1004F00043EA0C335E1844EB1C50DA465146E7FBE6
:100500000201C5F313044FEA0B3343EA14534FEAD5
:100510000432019C43EA0603A4F10C040294009CFB
:10052000CDE900B400F0D8F803B0BDE8F08F0020AA
:100530000146F9E72DE9F04D81EA030404F0004B90
:1005400021F0004514464FF0000A23F0004150EA24
:10055000050220D054EA01021DD0C5F30A57024615
:10056000C5F31303C1F31300C1F30A5640F4801519
:1005700043F48013A7EB0608101BD64608F2FD389B
:1005800073EB050002D308F1010801E092185B410A
:10059000B8F1000F03DA00200146BDE8F08D00201D
:1005A0004FF48011064684460EE0171B73EB0507D7
:1005B00005D3121B63EB050306434CEA010C490803
:1005C0004FEA300092185B4150EA0107EDD152EA40
:1005D000030012D082EA040083EA0501084305D033
:1005E000101BAB4106D20122002306E000224FF08F
:1005F000004302E06FF0010253101AEB06004CEBCF
:10060000085110EB0A0041EB0B01BDE8F04D00F082
:1006100054B80EB540F2334102910021CDE90011EA
:100620000A460B4600F058F803B000BD30B50B4643
:10063000014600202022012409E021FA02F59D4212
:1006400005D303FA02F5491B04FA02F52844151EE6
:10065000A2F10102F1DC30BD202A04DB203A00FACD
:1006600002F1002070479140C2F1200320FA03F309
:10067000194390407047202A04DB203A21FA02F007
:100680000021704721FA02F3D040C2F120029140CC
:10069000084319467047202A06DBCB17203A41FA57
:1006A00002F043EAE07306E041FA02F3D040C2F1FF
:1006B0002002914008431946704710B5141E73F18B
:1006C000000408DA401C41F1000192185B411A4312
:1006D00001D120F0010010BD2DE9F04D92469B465E
:1006E00011B1B1FA81F202E0B0FA80F22032904604
:1006F000FFF7B2FF04460F4640EA0A0041EA0B0149
:1007000053465A46084313D0114653EA010019D004
:10071000C8F140025046FFF7AEFF05460E46504670
:1007200059464246FFF798FF084305D0012004E0F0
:1007300020463946BDE8F08D0020054346EAE076C4
:100740002C4337430A986305E40AA0EB0800002213
:10075000FD0A44EA47540A3002D500200146E9E781
:10076000010510196941DDE9084500196941BDE835
:10077000F04DA2E7C1F30A52C1F3130140F2FF3377
:1007800041F480119A4202DA00200146704740F29B
:1007900033439A42A2F2334202DC5242FFF76BBF6C
:1007A000FFF75ABF30B5041E71F1000404DB4FF0AF
:1007B0000044404264EB0101141E73F1000405DBA8
:1007C0001C464FF00043524263EB0403994208BFBA
:1007D000904230BD064C074D06E0E06840F0010352
:1007E00094E8070098471034AC42F6D3FFF7CEFCEC
:1007F000747000089470000870B58C1810F8015BD4
:1008000015F0070301D110F8013B2A1106D110F8A9
:10081000012B03E010F8016B01F8016B5B1EF9D1AD
:100820002B0705D40023521E0DD401F8013BFAE733
:1008300010F8013BCB1A921C03E013F8015B01F89E
:10084000015B521EF9D5A142D8D3002070BD10B56E
:100850000146806B026C12F0500F05D0026CD2067C
:1008600026D500F0CAFA10BD016C41F40071016494
:1008700001688A6812F0405F17D1027EAAB9CA6A7D
:1008800012F4700F02D08A6852050ED44A6822F022
:1008900020024A60016C21F480710164016CC9047A
:1008A00003D4016C41F00101016400F099FA10BD1C
:1008B000806BC26CBDE810400846104710B5806BD5
:1008C00040210164416C41F00401416400F095FA5B
:1008D00010BD10B5806B00F08FFA10BD014800F01C
:1008E0008DBA00009C0400204B4910B5D1F80423B8
:1008F00022F44032C1F80423D1F8042343681A4398
:10090000C1F8042301684A6822F480724A600168D1
:100910004A68036942EA03224A6001684A6822F091
:1009200040724A6001684A6883681A434A600168F5
:100930008A6822F400628A6001688A68C3681A4380
:100940008A60816A6FF07062D14201688A6822F021
:1009500070628A6001688A680CD0836A1A438A6070
:1009600001688A6822F040528A6001688A68C36A16
:100970001A4301E022F040528A6001688A6822F03E
:1009800002028A6001688A68037E42EA43028A6042
:1009900090F82010002901684A6815D042F40062DE
:1009A0004A6001684A6822F460424A6001684B6804
:1009B0004FF46044426A94FAA4F4B4FA84F4521EE8
:1009C000A24013434B6002E022F400624A600168D7
:1009D000CA6A22F47002CA620168CA6A838B0F4C29
:1009E00004EB03531A43CA6201688A6822F4007256
:1009F0008A6001688A6890F8303042EA43228A604F
:100A000001688A6822F480628A6001688A684069A5
:100A100042EA8020886010BD002001400000F0FF05
:100A2000FEE70020704700207047000010B500224C
:100A30000449054803F038FB0449034803F02EFB42
:100A4000002010BDDC51002018450020DC490020AA
:100A500010B50146034803F021FB024803F002FBF6
:100A6000002010BD184500200C4A10B5D2F8B8225D
:100A7000D2F8142242B10AA34FF48F720D4900201C
:100A800000F08CF8012010BD0A460146034803F02F
:100A90000BFBBDE81040014803F064BB1845002083
:100AA000686364632D3E5478537461746520213DFE
:100AB00020300A002C700008014800F071BC0000D2
:100AC000A0060020014800F06BBC000000070020D9
:100AD000014800F065BC0000E4040020014800F07B
:100AE0005FBC0000E0050020014800F059BC000098
:100AF0004006002001681823CAB2103AB2FBF3F294
:100B0000054B6FF30901032A9B5CC36500D9091DDE
:100B100081650846704700000C70000810B501465A
:100B200000208B698A6A4FF0C07453B1B3F5005F3F
:100B300015D072B1012A0CD0022A0AD0032A09D199
:100B400004E01AB1012A06D0022A03D1C96AC901F8
:100B500000D5012010BDC96AA142FAD010BD002AFB
:100B6000F7D0012AF2D0022AF3D0032AF3D010BD25
:100B700030B50468256825F4802525600468636025
:100B80008368402B036803D099600068C26030BD61
:100B90009A600068C16030BD704700000FB4F0B5C6
:100BA0008FB00E460746154618AC342101A8FFF752
:100BB0009DFB2346322101A8179A04F035FD002F32
:100BC0000ADB384600F018F8014601A800902B46D1
:100BD000324603A004F018FD0FB0F0BC5DF814FB22
:100BE0005B252D35735D205B252D313073253464F5
:100BF0005D202573200D0A0038B1012807D0022896
:100C000007D0032807D005A0704706A0704707A0AB
:100C1000704708A0704709A070470000554E4C4E21
:100C20004F5700004445425547000000494E464F8B
:100C3000000000005741524E000000004552524F44
:100C4000520000004FF4807000F054BD72B6FEE711
:100C50002DE9F041054680890E46C0F30B00FFF7F1
:100C6000D8FC074635F826000C46C0F30B00FFF70A
:100C7000D0FC0022044BFFF7EBFB3A462346BDE8CD
:100C8000F041FFF757BC000000C0924070470000E1
:100C900078B50024009490F83C20012A19D0012254
:100CA00080F83C200A6807230568092A13D9EE68F2
:100CB0000A3A02EB420293409E43EE600B788A6848
:100CC0000A3B03EB43039A400368DD682A43DA607A
:100CD00010E0022078BD2E6902EB420293409E4351
:100CE0002E610A788B6802EB420293400268156914
:100CF0002B4313614A681F23072A13D205686E6BC2
:100D0000521E02EB820293409E436E630B790A8867
:100D10005B1E92B203EB83039A4003685D6B2A4328
:100D20005A6327E005680D2A12D22E6BD21F02EB00
:100D3000820293409E432E630B790A88DB1F92B296
:100D400003EB83039A4003681D6B2A431A6311E087
:100D5000EE6A0D3A02EB820293409E43EE620B79FB
:100D60000A880D3B92B203EB83039A400368DD6A65
:100D70002A43DA62174A0368934208D10B68122BA0
:100D800005D1D2F8043343F48003C2F80433036876
:100D900093421AD10B68102B01D0112B15D1D2F828
:100DA000043343F40003C2F80433096810290CD15A
:100DB00009490A4A0968B1FBF2F101EB81014900D6
:100DC00000E0491E00910029FBD180F83C40002042
:100DD00078BD0000002001405400002040420F0078
:100DE0000349884203D103480168491C01607047E8
:100DF0009C040020380000207047704770B50446FE
:100E0000006801684268C1F34001C2F3401251B367
:100E10004AB3216CC90603D4216C41F400712164EA
:100E2000816811F0405F17D1217EA9B9C16A11F420
:100E3000700F02D0816849050ED4416821F020016D
:100E40004160206C20F480702064206CC00403D4C6
:100E5000206C40F0010020642046FFF7C1FF2168AC
:100E60006FF012000860206801684268C1F38001D9
:100E7000C2F3C01289B382B3216CC90603D4216CBA
:100E800041F400512164816811F4401F1ED1816B2F
:100E900011F4401F02D08168490517D44168490503
:100EA00014D4816811F0405F10D1217E71B941687E
:100EB00021F080014160206C20F480502064206C7F
:100EC000C00503D4206C40F0010020642046FFF7E9
:100ED000DDFE21686FF00C00086020680168426840
:100EE00011F0010FC2F380120ED06AB10068C00782
:100EF0000AD0206C40F480302064204600F046F890
:100F000021686FF001000860206801684268C1F341
:100F10004011C2F3806200290DD0002A0BD0616C11
:100F200041F0020161646FF0200505602046FFF783
:100F300064FF2068056070BD70B504004FF00005C7
:100F400003D0206C002610B107E0012070BD2046C0
:100F500000F01EF8666484F83C60206CC00610D473
:100F6000206C20F4885040F0020020642046FFF7F7
:100F7000BBFC6664206C20F0020040F0010020649D
:100F800000E0012584F83C60284670BD70470000F1
:100F900070B586B0064614216846FFF7A7F92149C7
:100FA000306888423BD120480025016841F48071B7
:100FB0000160006800F4807005901B4814380168D7
:100FC00041F0010101600068694600F001000590F0
:100FD00003200090CDE90105144800F097FB154C63
:100FE0001348C4E900050015A560C4E9035080005A
:100FF00060618000A0618011C4E907052046656238
:1010000000F09EFA08B1FFF721FEB463002205212B
:101010001220A66300F05CFD122000F04BFD06B02C
:1010200070BD000000200140443802400000024032
:1010300010640240E4040020F8B50D460021044687
:10104000009190F83C00012807D0012084F83C0072
:1010500020688368DB0702D011E00220F8BD8368B6
:1010600043F0010383603248324B0068B0FBF3F079
:1010700000EB400000E0401E00900028FBD12068FB
:101080008368DB0749D0236C40F20166B34343F425
:10109000807323644068400505D5206C20F400501F
:1010A00040F480502064206CC00404D5606C20F0B3
:1010B0000600606400E0616484F83C10A16B1E4887
:1010C000C863A16B1D480864A16B1D48C8642168F2
:1010D0006FF0220008602068416841F08061416043
:1010E0002068816841F480718160216813462A4636
:1010F0004C31A06B00F08EFA1249D1F80403C006FF
:10110000206801D0884210D1816811F0405F0CD175
:10111000816841F08041816007E0206C40F0100060
:101120002064606C40F0010060640020F8BD0000A5
:101130005400002040420F004F080008D308000868
:10114000BD0800080020014010B5040002D06079FD
:1011500010B106E0012010BD00202071204600F0F3
:1011600005F801206071002010BD000008B500687E
:101170000649884208D10648016841F4805101605F
:10118000006800F48050009008BD0000003002406C
:101190003038024070B54379012B1CD001264671CE
:1011A0000223037105682B6802F0100440F6FE72FA
:1011B000A2409343D1E900210A43A2401A432A6086
:1011C00001680A68C023A3409A430A60067100219F
:1011D0004171084670BD022070BD007970470068FB
:1011E00009B1006B7047C06A704770B5040003D046
:1011F0002079002510B105E0012070BD6571204601
:1012000000F008F8022020712561012020710020E3
:1012100070BD000010B586B0044614216846FFF783
:1012200065F81149206888421CD1104800210268E5
:1012300042F000520260006800F0005005900B4838
:101240001038026842F001020260006800F00100FC
:101250000590102000900320CDE901016946044863
:1012600000F054FA06B010BD00740040403802404F
:101270000000024018B5046800940068104421B1D1
:10128000143000900360002018BD0830F9E770B5F5
:101290004279012A1ED0012242710223037104689F
:1012A000266801F0100302FA03F52E432660002998
:1012B000016811D00C6804F470153C249C40A542D0
:1012C00003D14B6843F002034B600271002141716E
:1012D000084670BD022070BD0B68C3F383030F2B5B
:1012E000F3D14B6843F00103EEE72DE9F0410446EA
:1012F000876D00F061FB064694F835000025022852
:1013000006D08020606584F834500120BDE8F0816B
:101310002068016821F0160101602068416921F010
:1013200080014161206C08B9A06C20B1206801687F
:1013300021F0080101602068016821F001010160CD
:101340000CE000F039FB801B052807D920206065E0
:10135000032084F8350084F83450D7E7206800680B
:10136000C007EED194F85C103F208840B86001209F
:1013700084F8350084F834500020C7E790F8351021
:10138000022903D08021416501207047052180F8A2
:1013900035100068016821F00101016000207047EC
:1013A0002DE9F84304464FF00009CDF8009063485A
:1013B0004FF41651A56D0068B0FBF1F72E6894F854
:1013C0005C10082000FA01F131420FD021680A6850
:1013D00052070BD50A6822F004020A6094F85C10E8
:1013E0008840A860606D40F00100606594F85C1072
:1013F0004FF0010808FA01F0304208D0216849692D
:10140000090604D5A860606D40F00200606594F89C
:101410005C1004208840304208D0216809688907A0
:1014200004D5A860606D40F00400606594F85C101D
:1014300010208840304218D021680968090714D567
:10144000A86020680168490304D50068000308D536
:10145000A16C07E00168C90503D4016821F0080107
:101460000160216C09B12046884794F85C10202067
:101470008840304231D021680968C9062DD5A8605E
:1014800094F8350005282068016806D0490347D53F
:10149000006800031DD4616C1CE021F0160101609E
:1014A0002068416921F080014161206C08B9A06C7D
:1014B00020B12068016821F00801016094F85C10F7
:1014C0003F208840A86084F8358084F83490216DEE
:1014D0001FE0E16B09B120468847606D00282BD0E2
:1014E000606DC00714D0052084F8350020680168BD
:1014F00021F0010101600098401C0090B84203D81F
:1015000020680068C007F6D184F8358084F83490EC
:10151000E16C002910D001B02046BDE8F043084737
:101520000168C905D5D4016821F01001016084F873
:10153000358084F83490CCE7BDE8F883540000206F
:101540002DE9F041044600F037FA06465CB102206E
:1015500084F83500002584F834502068016821F0B3
:10156000010101600DE00120BDE8F08100F024FAE6
:10157000801B052805D920206065032084F83500EC
:10158000F2E720680068C007F0D12268116820489F
:101590000140D4E901031843D4E903363343184327
:1015A00063691843A3691843E3691843236A18431E
:1015B0000843616A042903D1D4E90B131943084392
:1015C000106020684069666A20F0070130460E43CB
:1015D000012704280CD1A06A0643E06A40B12046E6
:1015E000FFF79CFA20B14020606584F83570BAE7B7
:1015F000206846612046FFF77DFA94F85C203F2181
:1016000091408160656584F835700020ACE700008A
:101610003F8010F02DE9F0410446866D90F83400CB
:10162000002501280DD0012084F8340094F835708D
:101630000020012F07D084F8340002252846BDE899
:10164000F0810220FBE7022784F8357060652046B0
:10165000FFF78EFA94F85C103F208840B060206855
:10166000016841F016010160206C20B1206801681A
:1016700041F0080101602068016841F0010101604A
:10168000DCE7000031B500F097F9009C0546601CCE
:1016900002D004480078044400F08EF9401BA042B8
:1016A000FAD338BD4800002070B54FF48074A042D2
:1016B0001AD10E4D2146284600F06CF9002813D1AE
:1016C0000120FFF7DFFF21462E46284600F062F991
:1016D000074D40B10120FFF7D5FF2146304600F00D
:1016E00059F9012800D1287070BD000000000240A7
:1016F00004000020044910B50A68024202D00860C4
:10170000FFF7D2FF10BD0000143C01402DE9F04F5F
:10171000DFF85092002309F1040A012603250AF19B
:10172000040B85B00F270BF1040E12E1224606FAD6
:1017300003F422407ED091F804C00CF0030CBCF1FD
:10174000010F02D0BCF1020F26D1D0F80880CDF8ED
:1017500000804FEA430805FA08FCCDF81080DDF858
:10176000008028EA0C08CDF80080D1F80CC0DDF824
:1017700010800CFA08FCDDF800804CEA080CC0F878
:1017800008C0D0F804C02CEA040C0C79C4F300148F
:101790009C4044EA0C0444600C79E443A40712D052
:1017A000C4684FEA430CCDF808C005FA0CFC24EAE3
:1017B0000C04D1F80880DDF808C008FA0CF848EAF3
:1017C0000408C0F80C800C7904F00304022C16D134
:1017D000DC0800EB840CCDF808C0DCF820C05C0706
:1017E0004FEAD46807FA08F42CEA040C0C6904FAEE
:1017F00008F444EA0C04DDF808C0CCF82040046882
:101800004FEA430805FA08FC24EA0C0491F804C0E6
:101810000CF0030C0CFA08FC4CEA040CC0F800C0F5
:101820004C6814F4403F05D04F4CD4F800C04CF441
:10183000804C00E08CE0C4F800C0246823F0030C66
:1018400004F480440094494C64440294D4F8084859
:101850004FEA837C4FEA1C7807FA08FC24EA0C0460
:10186000DFF80CC1604502D14FF0000C39E0DFF821
:1018700004C1604502D14FF0010C32E0DFF8F8C03E
:10188000604502D14FF0020C2BE0DFF8F0C060455C
:1018900002D14FF0030C24E0DFF8E4C0604502D130
:1018A0004FF0040C1DE0DFF8DCC0604502D14FF0C2
:1018B000050C16E0DFF8D0C0604502D14FF0060CF1
:1018C0000FE0DFF8C8C0604502D14FF0070C08E018
:1018D000DFF8BCC0604502D14FF0080C01E04FF0CA
:1018E000090C0CFA08FC4CEA040C029CC4F808C869
:1018F000D9F80040CC46D1F8048094435FEAC83858
:1019000000D51443CCF80040DAF80040D446D1F8B2
:10191000048094435FEA883800D51443CCF8004033
:10192000DBF80040DC46D1F8048094435FEAC82825
:1019300000D51443CCF80040DEF80040F446D1F85E
:10194000048094435FEA882800D51443CCF8004013
:101950005B1C0A681446DA407FF4E8AE05B0BDE8C7
:10196000F08F0000003C014044380240003001404C
:10197000000002400004024000080240000C024047
:10198000001002400014024000180240001C0240F7
:10199000002002400069084000D0012070474269E1
:1019A00021EA02030A4043EA0241816170470AB119
:1019B000816170470904FBE70148806870470000B7
:1019C0004800002002488168027811448160704715
:1019D000480000200B4810B5016841F40071016017
:1019E000016841F480610160016841F48071016027
:1019F000032000F08DF8002000F006F800F03EF81B
:101A0000002010BD003C024010B5014688B0002205
:101A10001C2000F05DF81C2000F04CF81448002455
:101A2000016841F001010160006805A900F00100B2
:101A30000690684600F098FD00F0BCFD0D4940009E
:101A4000B0FBF1F10C484FF08042491E026040F2B9
:101A5000E732C0E90324C0E9011400F0A9FF10B186
:101A6000012008B010BD044800F0D0FFF9E70000E5
:101A70004038024040420F00E00700200C4882B08E
:101A8000016841F480410160006800F480400090EA
:101A90000748001F016841F0805101600068002282
:101AA00000F0805000900F21901E02B000F010B89E
:101AB00044380240002809DB00F01F020121914058
:101AC0004009800000F1E020C0F8001170470000DC
:101AD000F0B40E4B1B680C46C3F30223C3F1070599
:101AE000042D00D90425191D072901D2002300E087
:101AF000DB1E012606FA05F1491E214099409E4051
:101B0000761E16403143F0BC03F0A8BD0CED00E09A
:101B1000064900F0070208684FF6FF03184040EA44
:101B20000220034A10430860704700000CED00E0FB
:101B30000000FA050068416200207047F0B50368B4
:101B4000586A39B19C6A4FF4827600EB1444002045
:101B50004D1E0AE040EA024098620FE006EB800763
:101B6000DF59401C04EB1744C0B2A842F6D344EA44
:101B700002404FF4807202EB810158500020F0BD0A
:101B8000D0F8FC0302F041BDC1EBC10200EB8202C0
:101B9000D0F8FC03926C02F094BCC1EBC10200EBE4
:101BA0008202D0F8FC03D2F8082202F0EDBCD0F893
:101BB000FC0302F02CBD70B504460B0601F00F00CB
:101BC000C0EBC00104EB81014FF001024FF00005B2
:101BD00003D581F83D203C3103E081F8FD5101F54A
:101BE000FE71087094F8BC03012808D084F8BC2367
:101BF000206803F075F884F8BC53002070BD022003
:101C000070BD70B5044601F00F006268904201D9C2
:101C1000012070BD0B0601F00F01C1EBC10104EB07
:101C200081014FF001024FF0000503D581F83D20FE
:101C30003C3103E081F8FD5101F5FE718D700870B3
:101C400094F8BC03012808D084F8BC23206803F072
:101C500041FA84F8BC53002070BD022070BD01F031
:101C60000F01C1EBC10100EB8100D0F814027047F5
:101C70002DE9F04104460F0601F00F00C0EBC00152
:101C800004EB81014FF001064FF0000503D581F808
:101C90003D603C3103E081F8FD5101F5FE710870B3
:101CA0008A60CB704A7802B1C880022B00D10D71D6
:101CB00094F8BC03012809D084F8BC63206802F0C2
:101CC0006FFF284684F8BC53BDE8F0810220FBE793
:101CD00070B50C4601F00F05C5EBC50100EB8101A5
:101CE000C1F81032C1F808220023C1F8143281F87B
:101CF000FD3181F8FC51036901F5FE71012B00D122
:101D00000A612207027C006803D003F03BFA00203E
:101D100070BD03F027F9FAE770B504460D4601F0EF
:101D20000F006168884201D9012070BD29064FF07B
:101D300000064FF0010207D5C0EBC00104EB8101A2
:101D400081F83D203C3107E0C5EBC50104EB810182
:101D500081F8FD6101F5FE718A70087094F8BC038A
:101D6000012807D084F8BC23206803F0DFF9280796
:101D700002D007E0022070BD217C04F5717220685A
:101D800003F07CF984F8BC63002070BD70B50C468C
:101D900001F00F05C5EBC50100EB81010B658A64FD
:101DA00000234B65012381F83D3001F83C5F036956
:101DB000012B00D10A612207027C006803D003F0E6
:101DC000E1F9002070BD03F0CDF8FAE72DE9FC5FE2
:101DD00005680446284603F0FEFA00287ED12068F4
:101DE00003F025FB002879D0206803F020FB800752
:101DF00004D52068416901F002014161206803F0C7
:101E000016FBC10604F57170009034D52068816915
:101E100021F0100181612F6A07F00F00C0EBC000B4
:101E200004EB8006C7F3434006F5FE76022802D095
:101E3000062811D01AE047F6F070074216D0C7F313
:101E40000A1217462846F16803F0F5FAF06838449C
:101E5000F060B069384408E008222846009903F091
:101E6000EAFAB069C7F30A110844B06121688869C9
:101E700040F010008861206803F0D9FA00034FF0A9
:101E800001094FF0080A4FF0100B5AD500262068C0
:101E900003F0ACFA074652E0F8074ED0F1B22068E2
:101EA00003F0BDFA8046C00707D005EB4611C1F824
:101EB000089B3146204601F0B1FB5FEA087024D54B
:101EC00005EB4611C1F808AB2068026C00EB461028
:101ED0000192D0F8081BC34B9A4200E07FE105D97C
:101EE000090403D54FF40041C0F8081B204600F058
:101EF00069FABC490198884207D92069012804D1B0
:101F000020680121009A03F0B9F85FEAC86003D5A0
:101F100005EB4611C1F808BB5FEA886004D505EB04
:101F200046112020C1F8080B5FEA884005D505EB73
:101F300046114FF40050C1F8080B7F08761C002FA3
:101F4000AAD1206803F073FA40035BD5206803F040
:101F500046FA0746002653E0F8074FD0F1B2206852
:101F600003F04BFA8046C00723D006F00F0209FAAF
:101F700002F0D5F834288243C5F8342805EB461022
:101F8000C0F80899206901280FD1C6EBC60004EB00
:101F90008000D0E911121144816436B9206D20B956
:101FA00020680121009A03F069F8F1B22046FFF79A
:101FB000EBFD5FEA087003D505EB4611C1F808A9EF
:101FC0005FEAC86003D505EB4611C1F808B95FEABE
:101FD000486004D505EB46114020C1F808095FEAC6
:101FE000887004D505EB46110220C1F808095FEAA4
:101FF000086003D53146204601F076FB7F08761C49
:10200000002FA9D1206803F012FA00280DDAD5F8C4
:10201000040820F00100C5F80408204600F0B6F9D5
:102020002068416901F000414161206803F0FFF937
:1020300000050BD5D5F80808C00702D0204600F0EF
:10204000DDF92168486900F400604861206803F008
:10205000EEF9C00462D5D5F8040820F00100C5F8F7
:1020600004081021206803F097F9002121E000BF47
:1020700005EB41104FF67F32C0F80829D0F800393F
:1020800023F40013C0F80039D0F8003943F000639E
:10209000C0F80039C0F8082BD0F8002B22F4001249
:1020A000C0F8002BD0F8002B42F00062C0F8002BE3
:1020B000491C60688842DBD8D5F81C0840F0011044
:1020C000C5F81C08206B60B1D5F8840840F00B00FF
:1020D000C5F88408D5F8440840F00B00C5F844085A
:1020E0000CE0D5F8140842F22B010843C5F8140897
:1020F000D5F8100840F00B00C5F81008D5F8000816
:1021000020F4FE60C5F80008217C2068009A02F0E7
:10211000B5FF2068416901F480514161206803F0F6
:1021200086F9800415D5206802F07AFD206803F056
:1021300045F9E06000F038FA0146227B206803F0A0
:10214000D9F9204600F00CF92068416901F40051EA
:102150004161206803F06BF9000707D5204600F0C5
:1021600019F92068416901F008014161206803F014
:102170005EF9C00208D50021204600F035F820683D
:10218000416901F480114161206803F050F9800237
:1021900008D50021204600F02BF82068416901F4A1
:1021A00000114161206803F042F9400007D5204644
:1021B000FFF7E6FC2068416901F080414161206839
:1021C00003F035F940070AD520684568680702D54D
:1021D0002046FFF7ECFC2068416829434160BDE8D8
:1021E000FC9F00000A30544FD0F8FC0302F05CBAA8
:1021F000D0F8FC0302F05ABA2DE9F0418AB004008D
:1022000005D094F8BD032668002520B108E0012020
:102210000AB0BDE8F08184F8BC53204600F05EF8B7
:10222000032084F8BD03F06BC00500D4256120684D
:1022300002F092FE04F11001282288466846FEF75B
:102240003CF894E80F0002F0F9FC0226C8BB00211C
:10225000206803F00FF9002001270EE0C0EBC00159
:1022600004EB810181F83D7001F83C0FC880CD700E
:102270008D60CD60401CC0B24D6161688142EDD877
:10228000002011E0C0EBC00104EB810181F8FD5199
:1022900081F8FC0181F8FF51C1F80452C1F80852DD
:1022A000401CC0B2C1F8105261688142EAD82822AD
:1022B00041466846FEF701F894E80F0002F092FDEF
:1022C00010B184F8BD63A2E784F8385084F8BD7378
:1022D000206802F079FD00209AE7000010B586B072
:1022E000044614216846FEF701F82068B0F1A04FBB
:1022F0002FD119480021026842F0010202600068F3
:1023000000F0010005904FF4C05000900220CDE98C
:102310000101032003900A20049069460F48FFF74B
:10232000F5F90D48001D016841F0800101600A487F
:102330001430016841F4804101600068002200F41B
:102340008040059005214320FFF7C2FB4320FFF7A3
:10235000B1FB06B010BD0000303802400000024062
:1023600070B50446C068012570B1022801D0FEF79F
:102370006DFC2946D4F8FC0302F0EDF9D4F8FC0317
:10238000BDE8704002F0A9B90025F2E7D0F8FC03DF
:1023900002F0CBB9D0F8FC0302F0D1B910B5044675
:1023A00090F8BC0301280BD0012084F8BC0384F80A
:1023B0003810206803F08CF8002084F8BC0310BDAE
:1023C000022010BDD0F8FC2300F57171104602F018
:1023D000CEB910B5044690F8BC0301280CD00120FA
:1023E00084F8BC03206802F0C1FF206802F0DEFC24
:1023F000002084F8BC0310BD022010BD10B50446B7
:10240000D0F8FC0302F0F2F92068D0F8001E41F089
:102410000101C0F8001E206A002804D002480168AB
:1024200041F00601016010BD10ED00E02DE9F0471C
:102430000E46050063D0DFF81C81D8F80000F7B223
:1024400000F00F00B04207D288F80070D8F8000002
:1024500000F00F00B04252D128683F4C810712D5DE
:10246000400703D5206840F4E0502060287800073A
:1024700003D5206840F4604020602068A96820F0FF
:10248000F000084320602878C0072BD032496868E4
:102490000839012810D00968022810D089070029BE
:1024A0002DDA216821F0030101432160FFF784FA4E
:1024B000814641F2883A0EE009688903EFE7890115
:1024C000EDE700BFFFF778FAA0EB0901514502D90B
:1024D0000320BDE8F0872068696800F00C00B0EBCD
:1024E000810FEFD1D8F80010404601F00F01B14242
:1024F00007D90770006800F00F00B04201D001203A
:10250000E7E72878400705D52068E96820F4E0501F
:10251000084320602878000706D52068296920F440
:10252000604040EAC100206000F074F82168F022A9
:1025300092FAA2F201F0F001B2FA82F2D140074A17
:10254000515CC8400649086006480068FFF75CFA1D
:102550000020BEE7003C024008380240147000082A
:10256000540000204C0000200F2202600C4A136827
:1025700003F003034360136803F0F0038360136800
:1025800003F4E053C36012684FF4E05303EAD2024D
:1025900002610448006800F00F0008607047000006
:1025A00008380240003C02400148006870470000C3
:1025B0005400002008480949006809684FF4E052B7
:1025C00092FAA2F201F4E051B2FA82F2D140044A46
:1025D000515CC84070470000540000200838024099
:1025E0002470000808480949006809684FF46042EF
:1025F00092FAA2F201F46041B2FA82F2D140044AA6
:10260000515CC84070470000540000200838024068
:1026100024700008154810B5006810F00C0214482A
:1026200013D04110042A0FD0082A0ED10F4C241FBA
:102630002268236802F03F025B0207D52068C0F3DE
:102640008810A0FB010106E0084610BD2168C1F317
:102650008811A1FB00010023FDF7FEFD2168C1F3F5
:102660000141491C4900B0FBF1F010BD083802409F
:102670000024F4002DE9F84F04007BD0DFF814B3F8
:102680002078ABF10406C007A6F1040536D0DBF8CC
:1026900000105846C1F38101012907D00068C0F33A
:1026A0008100022809D13068400206D528688003DD
:1026B00024D560680028E0D020E0B6492079891F41
:1026C0000870606868B1FFF777F9074605E000BF5A
:1026D000FFF772F9C01B642876D828688003F7D505
:1026E0000CE0FFF769F9074605E000BFFFF764F962
:1026F000C01B6428F0D828688003F7D42078DFF85E
:10270000988280074FF0000944D5DBF80010584646
:1027100011F00C0F4FF0F80A07D00068C0F38100E9
:10272000022809D13068400206D42868800715D5F0
:10273000E06801281ED111E0E068E0B10120C8F88E
:102740000000FFF739F9074605E000BFFFF734F94D
:10275000C01B0228C0D828688007F7D528689AFAD5
:10276000AAF22169B2FA82F220F0F80091400843FF
:1027700028600FE00AE1C8F80090FFF71DF907464E
:1027800005E000BFFFF718F9C01B02281CD8286815
:102790008007F7D42078000727D5DFF8F8A17F4815
:1027A00061690AF16C0A81B101210160FFF704F946
:1027B000074604E0FFF700F9C01B022804D8DAF846
:1027C00000008007F6D510E082E0C0F80090FFF727
:1027D000F3F8074605E000BFFFF7EEF8C01B02283C
:1027E00076D8DAF800008007F6D4207840075FD565
:1027F000DFF8A0A100270AF1380ADAF80000C000CB
:102800000BD4DAF8001041F08051CAF80010DAF861
:102810000000012700F0805000906148016841F4F9
:10282000807101600168C90512D4016841F48071AA
:102830000160FFF7C1F8009006E000BFFFF7BCF8A9
:102840000099401A02287ED855480068C005F5D581
:102850005049207A68310870A06888B1FFF7ACF859
:10286000009007E0FFF7A8F80099411A41F288307C
:10287000814268D84748683000688007F2D510E088
:10288000FFF79AF8009007E0FFF796F80099411AD1
:1028900041F28830814256D83E486830006880074F
:1028A000F2D42FB1DAF8001021F08051CAF80010EC
:1028B000A069B8B3DBF80010C1F38101022949D047
:1028C0000228C8F8609004D0FFF776F804463DE08F
:1028D00039E0FFF771F8074605E000BFFFF76CF835
:1028E000C01B64282FD828688001F7D4D4E90701D9
:1028F0000843616A94F82C20890141EA0261084387
:10290000A16A284A490802EB014108433168264A76
:102910001140084330600120C8F86000FFF74CF810
:10292000044606E034E000BFFFF746F8001B6428C9
:1029300009D828688001F7D52AE000BFFFF73CF8E6
:10294000001B642802D90320BDE8F88F28688001A5
:10295000F4D41DE00128F7D03068E26900F480016A
:10296000914213D1226A00F03F0191420ED1616A77
:10297000C0F38812914209D1A26A00F44031914219
:1029800004D1E16A00F07060884201D00120DBE7E9
:102990000020D9E70838024000004742800E474235
:1029A000007000400000FFFF0080BCF070477047DF
:1029B00010B5040003D094F83D0010B107E00120E9
:1029C00010BD002084F83C00204600F01EF80220D4
:1029D00084F83D00211D206800F0E0FF012084F80C
:1029E000460084F83E0084F83F0084F8400084F8F4
:1029F000410084F8420084F8430084F8440084F8DD
:102A0000450084F83D00002010BD704790F83D104F
:102A1000012901D001207047022180F83D10016892
:102A2000CA6842F00102CA6000681149884214D0A5
:102A3000B0F1804F11D00F4988420ED00E49884224
:102A40000BD00E49884208D00D49884205D00D4967
:102A5000884202D00C49884204D1816801F0070104
:102A6000062903D0016841F0010101600020704790
:102A7000000001400004004000080040000C00403D
:102A8000000401400040014000180040704770B54C
:102A90000446006801694FF00005C943890715D451
:102AA000C168C943890711D4E91E0161012020775B
:102AB000206880698007204602D0FFF7E7FF04E026
:102AC00000F098F8204600F096F825772068016914
:102AD000C943490717D4C168C943490713D46FF0E4
:102AE00004010161022020772068806910F4407F92
:102AF000204602D0FFF7CAFF04E000F07BF8204632
:102B000000F079F8257720680169C943090716D4D0
:102B1000C168C943090712D46FF00801016104209C
:102B200020772068C0698007204602D0FFF7AEFFFB
:102B300004E000F05FF8204600F05DF8257720689B
:102B40000169C943C90617D4C168C943C90613D46A
:102B50006FF010010161082020772068C06910F42F
:102B6000407F204602D0FFF791FF04E000F042F8DA
:102B7000204600F040F8257720680169C943C9075D
:102B800008D1C168C943C90704D1891E0161204623
:102B900000F032F820680169C943090609D4C16808
:102BA000C943090605D46FF0800101612046FFF793
:102BB000FDFE20680169C943490609D4C168C943BB
:102BC000490605D46FF040010161204600F01BF872
:102BD00020680169C94389060BD4C168C9438906C5
:102BE00007D46FF0200101612046BDE87040FFF777
:102BF000DEBE70BD704770470068B0F1804F01D1F4
:102C0000FEF7E0BE70477047704710B50446006895
:102C1000416994F83D20C1F3C011212A0BD151B173
:102C2000416921F080014161606B08B1FEF75DFBF5
:102C3000204600F0B2FF2068416994F83E20C1F3BD
:102C40008011222A0BD151B1416921F0400141612B
:102C5000A06B08B1FEF749FB204600F086FF00207C
:102C600010BD7047F8B5026804461068D168536912
:102C700010F00F0F4FF0000553D003F0010601F4E0
:102C8000907737435FD0C20705D0CA0503D5226CC1
:102C900042F001022264420705D5DA0703D0226C14
:102CA00042F002022264820705D5DA0703D0226CC3
:102CB00042F004022264020707D501F020023243E9
:102CC00003D0226C42F008022264226C002A34D025
:102CD000800604D5880602D5204600F067FF2068EC
:102CE0004069216CC0F38010090700D430B320463E
:102CF00000F03BFF2068416949061BD5416921F07E
:102D000040014161A06BA8B159490165A06BFEF774
:102D100035FB002811D0A06B016D01B0BDE8F0407B
:102D2000084783060FD58B060DD52046BDE8F84031
:102D300000F03CBF2046FFF794FFF8BD2046FFF7A8
:102D400090FF2564F8BD266B2023012E53D1C606C3
:102D500051D5CE064FD51068506800905069400696
:102D60002BD5A16B086840680004000CEAD0A68D42
:102D70008642E7D9E085C869B0F5807F18D0D06871
:102D800020F48070D0602068416921F00101416128
:102D90002068416921F04001416184F83E3025639B
:102DA0002068C16821F01001C160A06BFEF79DFA98
:102DB000A08DE18D401A81B219E0A08DE18D401AFD
:102DC00081B2E08D0028BDD00029BBD0D06820F4AE
:102DD0009070D0602068426922F00102426184F85C
:102DE0003E3025632068C26822F01002C26020468F
:102DF000FFF70AFFF8BD05062BD50D0629D594F877
:102E00003D002128F6D1A068B0F5805F01D120698E
:102E1000B0B1206A411C2162216800784860E08CD2
:102E2000401E0004000CE084E4D12068C16821F059
:102E30008001C1602068C16841F04001C160F8BDF7
:102E4000206A0088C0F308005060206A801C20625D
:102E5000E5E74006F3D54806F1D5D168204621F0D4
:102E60004001D16084F83D3000F0CEF9F8BD00009B
:102E7000653A000870B5040004D094F83D000025C0
:102E800010B106E0012070BD84F83C50204600F0EF
:102E900023F8242084F83D002068C16821F4005103
:102EA000C160204600F0DEFE2068016921F49041F7
:102EB00001612068416921F02A0141612068C168EF
:102EC00041F40051C1602564202084F83D0084F85D
:102ED0003E00002070BD00002DE9F04F87B0044691
:102EE00014216846FDF702FADFF894C123686548AB
:102EF000022703260721644A00254FF0006A4FF499
:102F0000806B4FF0400963454FD15E4B1433D3F8CB
:102F100000C04CF0100CC3F800C01B6803F0100395
:102F20000593036843F0010303600068029500F015
:102F300001000590CDE903617002CDE90007694603
:102F40001046FEF7E3FB524E504857463060C6E944
:102F500001A5C6E9035B7561B561F5613562D846C7
:102F600030467562FEF7ECFA08B1FDF76FFEA66316
:102F7000B463474E454860367830C6E903587561FA
:102F8000B561F5613562756286E881023046FEF70B
:102F9000D7FA08B1FDF75AFE666300220521252005
:102FA000B463FEF795FD252064E0DFF8E8C06345D3
:102FB00062D1344B1033D3F800C04CF4003CC3F85A
:102FC00000C01B6803F400330593036843F001035A
:102FD0000360036803F001030593036843F00803EB
:102FE00003600068884600F0080005900420CDE9E1
:102FF000000702AB694683E860011046FEF786FBD6
:1030000002AB694683E86001CDE900972248FEF7EC
:103010007DFB1F4E2148C036D0463060C6E901A571
:10302000C6E9035B7561B561F56135625F4630469F
:103030007562FEF785FA08B1FDF708FEA663B46372
:10304000174E1648C6E903577561B561F5613562DB
:103050001830756286E801033046FEF771FA08B150
:10306000FDF7F4FD6663002205212620B463FEF718
:103070002FFD2620FEF71EFD07B0BDE8F08F0000F3
:10308000001001403038024000000240406402401D
:10309000E005002000440040000C0240886002402F
:1030A0000007002090F83E30202B0ED159B152B1CC
:1030B00090F83C30012B08D0012380F83C300023ED
:1030C000036300F061BE0120704702207047704723
:1030D000704700002DE9F843044690F83D001F4674
:1030E00016460D4620284CD1C5B1BEB194F83C001F
:1030F000012846D0012084F83C004FF00008C4F8B5
:103100004080212084F83D00FEF756FCA6848146CD
:10311000E684A068B0F5805F03D004E00120BDE83C
:10312000F883206928B12E465FF0000584F83C80C2
:103130000EE00026FAE78021204600F05DFEA0B9EF
:10314000AEB116F8010B21684860E08C401EE084A7
:10315000E08C4B464FF0000200970028EBD14FF077
:103160004001204600F048FE30B10320D7E735F893
:10317000020BC0F30800E6E7202084F83D000020A1
:10318000CDE70220CBE7000070B5044690F83D0083
:10319000202830D169B362B394F83C0001282AD0CA
:1031A000012084F83C002162A284E2840025256489
:1031B000212084F83D00636B1048D863636B10488E
:1031C0001864636B0F48D864606B13460565266806
:1031D000606B321DFEF71EFA21686FF04000086038
:1031E00084F83C502068416941F080014161002031
:1031F00070BD012070BD022070BD0000333B00088F
:10320000613B0008753A000870477047FEE7000010
:10321000F0B500230A24302537261F4611E000BFF1
:10322000B4EB107F02D905EB107C01E006EB107CBB
:1032300001F813C001EB430C00015B1C8CF801701A
:10324000DBB29342ECD3F0BD0D4C0E4D02264FF491
:103250007A77207810B1012807D00DE0686803F074
:1032600055FB686903F052FB05E0686803F0DAFA81
:10327000686903F0D7FA2670384602F05BFFE8E78A
:1032800004000020080000207FB500252548009597
:103290000195029522490395016001244FF4803184
:1032A0000461C0E90115047680F820501E49C0E988
:1032B0000A150426C661C56080F830404461FDF7F8
:1032C0003BFE08B1FDF7C2FCCDE900540325694679
:1032D00014480295FDF7DCFC08B1FDF7B7FC0220AD
:1032E000CDE9004069460F48FDF7D2FC08B1FDF773
:1032F000ADFC1020CDE9000569460A48FDF7C8FC81
:1033000008B1FDF7A3FC1120CDE900066946054888
:10331000FDF7BEFC002801D0FDF798FC7FBD000042
:10332000002001409C0400200100000F074910B557
:10333000054808600846FDF707FF002803D0BDE8F0
:103340001040FDF783BC10BD003002403C0000205F
:103350001CB500200D49009001900B4808600846FC
:10336000FDF743FF08B1FDF771FC3C2000900220FF
:103370000190002269460548FDF70CFF002801D0A6
:10338000FDF764FC1CBD00000074004044050020F3
:103390001D4808B5016841F480010160016801F42D
:1033A00080010091016841F4001101600068002271
:1033B00000F40010009005211020FEF789FB10207A
:1033C000FEF778FB002205211120FEF781FB11207A
:1033D000FEF770FB002205213820FEF779FB38202C
:1033E000FEF768FB002205213A20FEF771FB3A2028
:1033F000FEF760FB002205214620FEF769FBBDE8D1
:1034000008404620FEF756BB3038024010B5224B2C
:10341000A8B023AC0FCB84E80F00002123A802F052
:1034200095FE1E4C1C491C22A06110316846FCF719
:1034300044FF0021684602F09CFE174960601C2290
:103440002C3107A8FCF739FF002107A802F091FEF4
:103450001149A0601C2248310EA8FCF72EFF002164
:103460000EA802F086FE0C49E0601C22643115A80B
:10347000FCF723FF002115A802F07BFE064920611E
:103480001C2280311CA8FCF718FF00211CA802F0A8
:1034900070FE606128B010BDCC6E000808000020EE
:1034A00070B586B014216846FCF720FF234800253C
:1034B000016841F004010160016801F00401059117
:1034C000016841F080010160016801F0800105910F
:1034D000016841F001010160016801F001010591FD
:1034E000016841F0080101600068154E00F0080015
:1034F0004FF400540590002221463046FEF757FA5B
:1035000000940124694630460194CDE90245FEF756
:10351000FDF8200200904FF44410CDE90104694603
:103520000848FEF7F3F8002205211720FEF7D0FA2D
:103530001720FEF7BFFA06B070BD00003038024019
:1035400000080240000002400C4810B50A49016022
:103550004FF4E1314160002181600C22C160C0E97B
:1035600004128161C161FFF785FC002803D0BDE82A
:103570001040FDF76BBB10BD001001405805002046
:103580000C4810B50A4901604FF4E1314160002157
:1035900081600C22C160C0E904128161C161FFF742
:1035A00069FC002803D0BDE81040FDF74FBB10BDFB
:1035B000004400409C05002010B500220F4910482F
:1035C00000F058FF08B1FDF741FB0E490C4801F02F
:1035D00033F908B1FDF73AFB0B49094800F056FDF5
:1035E00008B1FDF733FB064801F07CF9002803D051
:1035F000BDE81040FDF72ABB10BD0000B800002058
:1036000018450020F401002008010020FEE7FEE735
:103610000148FEF7DBBB0000DC5900202DE9F0413A
:1036200003680D4604461E6C03EB4511D1F8080BE8
:10363000D4F810E04FF400474FF0200C04F57172FD
:10364000BEF1010F09D0DFF898E0764539D10204C8
:1036500032D500BFC1F8087B3FE0224B5FEA007E15
:1036600004D59E4239D90004F4D436E05FEA806E76
:1036700002D5C1F808CB30E010F0280F2DD19E42C2
:1036800001D90004E6D4C5EBC50004EB8000D1F8F5
:10369000101BD0F80432C1F31201591AC0F81412E9
:1036A000D0F808121944C0F8081295B9D4F81002DD
:1036B00078B9012120680AE080060AD5C1F808CB54
:1036C00007E035B9D4F8100218B90021184601F006
:1036D000D5FCE9B22046FEF760FA0020BDE8F08193
:1036E0000A31544F0A30544F2DE9F84F0E46C1EBC2
:1036F000C60100EB810481460568D4E914103C340E
:10370000884202D90120BDE8F88F081AA1688142D9
:1037100000D20846C01C870805EB46181BE000BF16
:10372000A0EB010AA068504500D282460AF10300CE
:10373000870899F8100000901FFA8AF3F2B2284621
:10374000E16801F04BFFE16801EB0A00E060A1696C
:1037500001EB0A00A061D8F8180980B2B84205D37D
:10376000D4E90501814201D20028D9D1D4E905016B
:10377000884208D806F00F0101208840D5F8341897
:103780008143C5F834180020BDE700009AB06422D8
:10379000254901A8FCF791FD244C0025002124486F
:1037A000FDF756FAC4E9080102460B46D4E90A01BE
:1037B000FCF7A7FDC4E90A012268521C2260642AB2
:1037C0000ED100221B4BFCF7B5FEC4E908010246EE
:1037D0000B4619A001F018FF00212560C4E90A1169
:1037E00020788DF80E004FF47A7640F265170EE0DF
:1037F000304602F09FFC642101A8FDF735F90A4923
:10380000009013A33A460E390020FDF7C7F9642152
:1038100001A8FDF729F90028EAD1124805600A201D
:1038200002F088FCBAE70000A86F0008080000203A
:103830008C04002000005940494E3020B5E7D1B932
:10384000203D20252E336620206D560A0000000002
:10385000B7A2CBCDD6D00AB7B5BBD8D6B525640AAA
:103860000000000038000020FFF7A6FE064D4FF4D0
:1038700000544FF47A7621462846FEF790F83046F9
:1038800002F058FCF7E70000000802400B4D0C4C1A
:103890000026208800040DD52878012809D109A028
:1038A00001F0B2FE2879E97800EB012107A001F0D0
:1038B000ABFE2680642002F03DFCEAE760070020B2
:1038C00044000020B5D8D6B7310A000025640A00AC
:1038D0008EB0342207496846FCF7EFFC4FF47A7447
:1038E000322269460448FFF74FFC204602F022FCD2
:1038F000F6E70000686F00089C05002010B5502016
:1039000080F31188BFF34F8FBFF36F8F03F0DAF9A5
:1039100018B104494FF080500860002080F31188EE
:1039200010BD000004ED00E010B592B030216846F3
:10393000FCF7DCFC14210CA8FCF7D8FC012000905B
:10394000019002248005CDE9064008200890F0206F
:10395000CDE9090405200B906846FEF78BFE08B1FF
:1039600072B6FEE70F20CDE90C0400200E904FF454
:10397000A0500F904FF48050109003210CA8FEF738
:1039800055FD002801D072B6FEE712B010BD704799
:103990000148FFF77CB80000E0070020F0B502689E
:1039A000254C264D264E274F274B4FF0804CA042EA
:1039B00009D0604507D0A84205D0B04203D0B84234
:1039C00001D0984204D122F0700E4A6842EA0E02F9
:1039D000A0421BD0604519D0A84217D0B04215D0E4
:1039E000B84213D0984211D0184DA8420ED0184DAD
:1039F000A8420BD0174DA84208D0174DA84205D0B9
:103A0000164DA84202D0164DA84203D122F44075AB
:103A1000CA682A434D6922F080022A4302608A68FC
:103A2000C2620A688262A04201D0984201D109694B
:103A3000016301214161F0BD00000140000400402C
:103A400000080040000C004000040140004001401C
:103A5000004401400048014000180040001C0040A4
:103A60000020004010B5806B0021C185C184FFF7A4
:103A7000F8F810BD70B5846B2068406994F83D106B
:103A8000C0F3C0100025212904D118B1E5842046D7
:103A900000F083F82068406994F83E10C0F380106D
:103AA000222904D118B1E585204600F05EF8206C8B
:103AB00040F0100020642046FFF7D3F870BD10B529
:103AC0000146806B09680968C9051BD40021C185BE
:103AD0000168CA6822F48072CA6001684A6922F0EB
:103AE00001024A6101684A6922F040024A612021CC
:103AF00080F83E10016B012904D10168CA6822F0E8
:103B00001002CA60016B012902D0FFF7E0FA10BD74
:103B1000818DFFF779F810BD10B5806B016B01291D
:103B200002D0FFF7D5FA10BD818D4908FFF76CF878
:103B300010BD10B50146806B09680968C9050CD431
:103B40000021C18401684A6922F080024A6100684C
:103B5000C16841F04001C16010BDFFF755FB10BDC9
:103B600010B5806BFFF751FB10BD0168CA6822F4E5
:103B70009072CA6001684A6922F001024A61016BD1
:103B8000012904D10168CA6822F01002CA6020210C
:103B900080F83E100021016370470168CA6822F076
:103BA000C002CA60202180F83D10704708B590F827
:103BB0003E10222901D0022008BD82684FF48053B4
:103BC0009A4201D1016921B1816A9A421BD04AB15E
:103BD0000AE00268816A5268C2F308020A80816AB8
:103BE000891C08E0026972B10268526802F07F0223
:103BF0000A70816A491C8162C18D491E0904090C41
:103C0000C18503D019E002685268F1E70168CA680B
:103C100022F02002CA600168CA6822F48072CA6079
:103C200001684A6922F001024A61202180F83E10B1
:103C3000016B012903D0FFF74AFA002008BD0021DB
:103C400001630168CA6822F01002CA6001680A684C
:103C5000D20602D50A6849680091818DFEF7D4FF2B
:103C6000EBE700002DE9F041044600680169E268D5
:103C700021F44051114301612169A068E2690843C0
:103C80006169114322680843D16849F20C63994382
:103C90000143D16020684169A26921F44071114358
:103CA000416137492068884202D03649884202D1B2
:103CB000FEF798FC01E0FEF77DFC0246E369642014
:103CC0003221B3F5004F02EBC20303EB021362682B
:103CD0002BD09200B3FBF2F5B5FBF0F5B3FBF2F697
:103CE0006FF018077D4306EB8505B3FBF2F601EB99
:103CF0000515B5FBF0F5B6FBF0F605F0F00505EBA4
:103D00000615B3FBF2F6B3FBF2F2B2FBF0F27A4324
:103D100006EB820201EB0211B1FBF0F000F00F00A4
:103D2000216828448860BDE8F0815200B3FBF2F6B8
:103D3000B6FBF0F6B3FBF2F7B3FBF2F56FF0180C3D
:103D400006FB0CF607EB860601EBC606B5FBF0F5A5
:103D5000B6FBF0F62D0106F0F80605EB4605B3FBC1
:103D6000F2F6B3FBF2F2B2FBF0F202FB0CF206EB5E
:103D7000820201EBC201B1FBF0F000F00700CFE7D7
:103D8000001001400014014038B581628285002591
:103D9000134604460564222084F83E00A26B1348B3
:103DA000D063A26B12481064A26B1248D064A06B5F
:103DB0000A4605652168A06B091DFDF72BFC2068EC
:103DC00001684168009184F83C50C16841F48071F9
:103DD000C1602068416941F0010141612068416989
:103DE00041F040014161002038BD0000BF3A0008A9
:103DF000193B0008753A00082DE9F041984617462E
:103E00000E460446069D1DE0681C1BD02DB1FDF733
:103E1000D3FDA0EB0800A84214D92068C16821F4A2
:103E2000D071C1602068416921F001014161202009
:103E300084F83D0084F83E00002084F83C00032014
:103E4000BDE8F0812068006836EA000004D0002058
:103E5000B842D9D00020F3E70120F9E738B5124C79
:103E600020680168C943C90619D401680025406863
:103E700000902046FEF7C9FEA06B00684068C0F1C4
:103E800080010A4801800A4902888D54018841F462
:103E900000410180802206492046FFF703F9BDE872
:103EA00038400148FEF7DEBE5805002044000020DF
:103EB000600700200148FEF7D5BE00009C050020E9
:103EC0002DE9F041D0F8C032D0F8B822DAB101EBD8
:103ED000810400EB84040025E6694EB1C1EBC10703
:103EE00003EB87035B6CB6FBF3F703FB176323B1AC
:103EF000C2F814520020BDE8F08100231A46E561A3
:103F000000F07DFCF6E70220F5E770B50546D0F835
:103F1000B84200F087FBC4F80C02D5F8B80248B1EB
:103F2000D5F8BC12D4F80402CA6804F503719047AE
:103F3000002070BD022070BD70B5044600268121AE
:103F400000F0B6FA002501212046E56200F0B0FA43
:103F500082212046C4F86C5100F0AAFA2564D4F8F6
:103F6000B80248B1D4F8BC0204F52E74406880470A
:103F7000206801F0EFFF2560304670BD10B5D0E934
:103F8000AE4159B194F80002FF2807D08B6894F82D
:103F9000012221469847FF2084F80002002010BD2E
:103FA0000A210180004870471C0100204321018044
:103FB000004870476C010020432101800048704791
:103FC000280100204321018000487047B0010020F3
:103FD0002DE9F04104460026007C4FF400770125CE
:103FE00090B3402302228121204600F061FB402350
:103FF000E56202220121204600F05AFB0823032239
:1040000082212046C4F86C5100F052FB4FF4077037
:10401000256402F059F8C4F8B802F8B10546D4F89E
:10402000BC02006880470020C5F81402C5F81802D9
:10403000207CD5F8042298B140230121204600F0CD
:1040400043FB3046BDE8F081FFE73B460222812179
:10405000204600F02DFB3B46E562CAE70126F0E76B
:104060003B46EAE710B5D0F8B81269B1027C002AE5
:10407000D1F8042205D04023012100F025FB0020C7
:1040800010BD4FF40073F7E7022010BD0246022076
:10409000002902D00020C2F8BC127047D0F8B80244
:1040A000C0F8041200207047D0F8B802C0F81022FF
:1040B000C0F80812002070472DE9FC410546D0F8F1
:1040C000B87200208DF80000ADF8040006460878AC
:1040D0000C4610F0600121D020293BD1E288AAB122
:1040E0000006607807D5D5F8BC128B68394698472A
:1040F000E288394626E087F80002A07987F80102B5
:10410000E2883946284600F06AF828E0D5F8BC1263
:10411000607800228B682146984720E0607820B1C3
:104120000A2809D00B2815D110E095F89C02032825
:1041300010D1022201A905E095F89C02032809D1BB
:1041400001226946284600F064F808E095F89C02D0
:10415000032804D02146284600F036F802263046CF
:10416000BDE8FC8110B5D0F8B812A1B1D1F8142285
:104170000AB1012010BD0122C1F81422D1F8102289
:104180000263B1F8102293B2D1F80822812100F025
:1041900036FB002010BD022010BD10B5D0F8B422AF
:1041A00052689047002010BD134610B50A46002102
:1041B00000F08AFA002010BD134610B50A4600210F
:1041C00000F01DFB002010BD10B50446802100F05A
:1041D000FBFA2046BDE81040002100F0F5BA10B50A
:1041E0000323C0F85C21C0F89432C0F86021134664
:1041F0000A46002100F068FA002010BD10B5052124
:104200000023C0F894121A46194600F05DFA002007
:1042100010BD10B50223C261C0F894320262134689
:104220000A46002100F0EBFA002010BD10B5042171
:104230000023C0F894121A46194600F0E0FA002054
:1042400010BD000010B50A46024903A000F0E2F8D4
:10425000004810BDDC47002043444320436F6E6696
:10426000696700001220088000487047D8000020CD
:1042700010B50A46024903A000F0CCF8004810BD72
:10428000DC47002043444320496E746572666163D5
:10429000650000000420088000487047D40000201A
:1042A00010B50A46024903A000F0B4F8004810BD5A
:1042B000DC47002053544D6963726F656C6563740D
:1042C000726F6E696373000010B50A46024903A05D
:1042D00000F0A0F8004810BDDC47002053544D33D7
:1042E00032205669727475616C20436F6D506F7225
:1042F0007400000010B51A2008800A480168001DEB
:104300000468001D0068081809D008220649FEF755
:104310007FFF0549042210312046FEF779FF02484D
:10432000801E10BD107AFF1FEE000020F8B5044675
:104330000020ADF8000048880D46010A082948D23F
:10434000DFE801F04704091747473C45D4F8B012AD
:10435000207C0A6819E0207C02260028D4F8B402E8
:1043600005D0C16A68468847014646703EE0816ACA
:10437000F8E7C0B206282CD2DFE800F0030A1014D8
:10438000181CD4F8B002426805E0694690471CE06A
:10439000D4F8B0028268E2B1207CF6E7D4F8B0022B
:1043A000C268F8E7D4F8B0020269F4E7D4F8B002C2
:1043B0004269F0E7D4F8B0028269ECE7207C40B9AA
:1043C000D4F8B402416B6846884701460EE0207C71
:1043D00020B129462046FFF7F7FEF8BDD4F8B40215
:1043E000016B68468847014607204870BDF8000009
:1043F00048B1EA8852B1824200D90246ADF80020A5
:104400002046FFF706FFE8880028E6D12046FFF7A0
:104410000DFFF8BD70B5002300281ED0044600250E
:1044200002E06D1CEDB2641C2678002EF9D1022446
:1044300004EB450414801278CA545B1C0322CA544E
:1044400000245B1C06E0CA545B1CDAB28C54521C7C
:10445000D3B2401C0278002AF5D170BD01004FF0A4
:10446000000004D0012901D0022901D002207047A8
:104470000120704710B580B1D0F8B43213B10023D9
:10448000C0F8B43209B1C0F8B012012180F89C1212
:10449000027000F0CBF8002010BD022010BD10B556
:1044A000D0F8C002FDF7ADFBBDE81040FFF7D6BF66
:1044B00010B5D0F8C002FDF77EFBBDE81040FFF755
:1044C000CDBF2DE9F0411746044651B1D4F8B402EE
:1044D00042691AB194F89C02032851D00220BDE829
:1044E000F081D4F89432002504F11400022B03D09B
:1044F000042B3AD0C3B33CE0D0E903639E4207D912
:10450000F11AC1608AB239462046FFF755FE12E023
:104510008068B0FBF3F103FB110199B9984211D304
:10452000D4F8981288420DD2002211462046FFF797
:1045300043FEC4F8985200231A461946204600F05C
:10454000C3F816E0D4F8B402C16829B194F89C020B
:10455000032801D1204688478021204600F034F905
:104560002046FFF74BFE04E0FFE78021204600F0E5
:104570002BF994F8A002012804D184F8A05201E09C
:10458000204690470020AAE770B51546044649B179
:10459000D4F8B40282691AB194F89C02032830D08E
:1045A000022070BDD4F8941204F5AA70032902D039
:1045B00005291ED027E0D0E903218A420BD9531ADE
:1045C000C3600846834200D303469AB22946204678
:1045D000FFF7EAFD17E0D4F8B402016929B194F8B5
:1045E0009C02032801D1204688472046FFF71EFE83
:1045F00009E000200146C4F89402204600F0E4F8E7
:1046000001E020469047002070BD0020704710B5A3
:10461000012180F89C12D0F8B422017952689047A9
:10462000002010BDD0F8C002FDF719BB10B501780D
:1046300031BB14490222C1F8FC03C0F8C0124FF08C
:10464000A0400860042048600020C1E90320C1E9BF
:1046500006200862C86208630846FDF7CDFD08B170
:10466000FCF7F4FA80210748FDF764FA40220021A4
:104670000448FDF763FA802201210248FDF75EFA43
:10468000002010BDDC5900200A0601F07F01D0F89F
:10469000C002C1EBC10100EB810002D590F83E00E1
:1046A000704790F8FE017047002070470020704767
:1046B00010B51C461346D0F8C0022246FDF7D8FAC2
:1046C000BDE81040FFF7CABE10B5D0F8C002FDF734
:1046D000FFFABDE81040FFF7C1BE70B500220446E6
:1046E00040231146FFF7E4FF40260125C4F864612A
:1046F0003346002280212046C4F85851FFF7D8FFE6
:104700006662A56184F89C520020C4F8940260603F
:10471000C4F8A402D4F8B80228B1D4F8B402002135
:10472000426820469047002070BD90F89C120429F2
:1047300003D190F89D1280F89C120020704710B5AC
:1047400090F89C12032904D1D0F8B412C96901B1C0
:104750008847002010BD01740020704710B5D0F8C4
:10476000C002FDF71BFEBDE81040FFF777BE70B535
:10477000044600F52A70054600F04AF80120C4F806
:104780009402B4F8AE02C4F8980294F8A80210F0AB
:104790001F010AD001290DD0022910D000F080019C
:1047A000204600F011F8002070BD2946204600F098
:1047B0009EF8F8E72946204600F0CAF9F3E72946B3
:1047C000204600F01DF9EEE710B5D0F8C002FDF765
:1047D000A3FABDE81040FFF741BE10B5D0F8C00203
:1047E000FDF7F7FDBDE81040FFF738BE90F89C12CA
:1047F00080F89D12042180F89C120020704710B5AB
:10480000D0F8C002FDF7C2FABDE81040FFF726BE9F
:104810000A7802704A7842708A78CB7802EB0322D9
:1048200042800A794B7902EB032282808A79C97926
:1048300002EB0121C18070470246002011B1C2F88D
:10484000B41270470220704710B5D0F8B422022489
:104850001AB11268904700B90024204610BD00002C
:1048600070B50E461E4D897804462970012931D84D
:1048700094F89C0202280BD003280FD03146204622
:10488000FFF7A2FC29782046BDE87040FFF785BC01
:10489000D9B10320616084F89C0209E071B16068BD
:1048A000884212D0C1B22046FFF777FC29786160B8
:1048B0002046FFF7C9FF02280CD006E0022084F84A
:1048C0009C0220466160FFF768FC2046BDE870400E
:1048D000FFF7ACBC31462046BDE87040FFF774BC22
:1048E0001801002010B5FFF778FF002010BD2DE95A
:1048F000F0410A78002612F0600208D0202A01D088
:10490000402A70D1D0F8B422926890476DE04B787D
:10491000002201250A2B66D2DFE803F0405D6557CF
:10492000650805652C29FFF701FD5EE004468888CF
:10493000D8B9C888C8B94888802816D200F07F073F
:1049400094F89C02032810D084F89E7239462046C1
:10495000FFF704FF2046FFF769FC1FB1022084F82F
:104960009C0242E084F89C523FE020463BE0FFF787
:1049700077FF3AE0CB88012B35D190F89C32012BA0
:1049800004D0022B02D0032B2DD104E0826001223F
:1049900000F1080116E00122011D13E090F89C22AD
:1049A000012A03D0022A01D0032A1CD1CA88022A74
:1049B00019D1C560D0F8A41209B10321C160022247
:1049C00000F10C01FFF725FC0FE0498801290CD10B
:1049D000C0F8A45211E090F89C32012B08D0022BB1
:1049E00006D0032B04D0FFF7EFFB3046BDE8F08183
:1049F00049880129F9D1C0F8A422FFF717FCF4E790
:104A00002DE9F0410A46044610780027097910F094
:104A100060030AD0202B01D0402B50D1D4F8B4022F
:104A200011468368204698478FE0C0F34110012863
:104A300006D05078D0B301282AD003283FD107E010
:104A4000D4F8B402114683682046BDE8F041184707
:104A500094F89C02022802D0032872D10AE071B3B4
:104A600080296ED02046FFF7AFFE80212046FFF759
:104A7000ABFE6AE0508838B931B1802904D0D088C3
:104A800010B92046FFF7A0FE2046FFF7CFFB5CE001
:104A900094F89C020228E2D0032852D1508898BB97
:104AA0004806F1D02046FFF7FAFCEDE7FFE794F85F
:104AB0009C020026022803D0032842D112E040E0E5
:104AC00009B180293DD1080601F07F0000EB80008C
:104AD00004EB800101D5143101E001F5AA71022235
:104AE0000E602AE0080601F00F0000EB800004EBE6
:104AF00080000AD5806920B301F07F0000EB8000C0
:104B000004EB800514350BE01FE0D0F85801C0B16C
:104B100001F07F0000EB800004EB800505F5AA752D
:104B200041B1802906D02046FFF7AEFD10B101202B
:104B3000286000E02E60022229462046FFF769FB2C
:104B400003E011462046FFF73FFB3846BDE8F08101
:104B500070B5054608780C4610F0600003D0202898
:104B600001D0402816D195F89C02012803D00228D4
:104B700001D003280ED1207901280BD8D5F8B40232
:104B8000826828469047E188014306D12846FFF70E
:104B90004DFB02E02846FFF717FB002070BD000028
:104BA00070B50A78012302F00F054E78AB401B4C1C
:104BB000D0F81C58012E17D045EA0343C0F81C3822
:104BC00000EB4210D0F8002B12040BD4D0F8002BCD
:104BD0000B89C978C3F30A031A4344EA81410A43A3
:104BE000C0F8002B002070BD9BB21D43C0F81C58BC
:104BF00000EB4210D0F800391B04F3D4D0F8003990
:104C00000D89C978C5F30A0589042B4341EA82510D
:104C10000B432343C0F80039E4E700000080001094
:104C2000D0F800196FF30A01C0F80019D0F8041881
:104C300041F48071C0F804180020704770B5044634
:104C40000699049D0D98012915D0E06840F04000B8
:104C5000E060204600F028F8A16B41F48031A163A8
:104C6000012D07D1A16841F00601A160A16841F0C2
:104C70002001A16070BDA16B21F48031A163E168C6
:104C8000084A1140E160E16821F44011E160012827
:104C900003D1E06840F48010E060204600F004F8A2
:104CA000DEE70000BFFFBDFF01220C4902E0521CFD
:104CB0008A420BD80369002BF9DA026942F001023B
:104CC0000261012204E0521C8A4201D9032070478C
:104CD0000369DB07F7D1002070470000400D030097
:104CE00030B54C780A78012300EB4212012C2CD00D
:104CF000D2F8004B002C0BDAD2F8004B44F00064E1
:104D0000C2F8004BD2F8004B44F08044C2F8004B8C
:104D1000D0F83C580C7804F00F0403FA04F425EAA8
:104D20000444C0F83C48D0F81C48097801F00F0151
:104D30008B4024EA0341C0F81C18D2F8000B194933
:104D40000840C2F8000B002030BDD2F80049002C0A
:104D50000BDAD2F8004944F00064C2F80049D2F8F6
:104D6000004944F08044C2F80049D0F83C480D782E
:104D700005F00F0503FA05F5ADB2AC43C0F83C48A9
:104D8000D0F81C48097801F00F018B4099B28C4390
:104D9000C0F81C48D2F8000903490840C2F80009CD
:104DA000D1E700000078F3EF007833ECD0F8001E74
:104DB00021F00301C0F8001ED0F8041821F0020110
:104DC000C0F8041800207047D0F8001E21F003013D
:104DD000C0F8001ED0F8041841F00201C0F8041811
:104DE000002070472DE9F04F00250E460446DDF8FF
:104DF0002CC0DDF824B0109F2846294604EB800221
:104E0000C2F80411401C0F28F8D32046C7B1806BAC
:104E100020F40012A263A06B40F40022A2630846B3
:104E20008846C4F8000ED4F800182046C4F80018CC
:104E3000BCF1010F16D0D0F8001841F0030116E0C4
:104E4000D0F8040840F00202C4F80428A06B40F433
:104E50000012A263A06B20F40022A263A06B20F4D6
:104E60008022DBE7D0F800180BB141F00101C0F857
:104E70000018102100F090FA00B10125204600F042
:104E80007BFA00B101254046C4F81088C4F81488A4
:104E9000C4F81C8800214FF000694FF0904A4FF68B
:104EA0007F3314E004EB4112D2F800C9BCF1000FCB
:104EB00006DA11B1C2F800A904E0C4F8009901E0D3
:104EC000C2F80009C2F81009C2F80839491C8E421C
:104ED000E8D8002115E000BF04EB4112D2F800CB66
:104EE000BCF1000F06DA11B1C2F800AB04E0C4F85F
:104EF000009B01E0C2F8000BC2F8100BC2F8083B9F
:104F0000491C8E42E8D8D4F8101821F48072C4F8F5
:104F10001028A0616FF080406061BBF1000F03D1E9
:104F2000A06940F01000A061A06909490843A06190
:104F30000C9818B1A06940F00800A061012F03D1BE
:104F4000A06904490843A0612846BDE8F08F00002D
:104F500000383C8004000040816821F0010181603C
:104F60000020704770B50D784E78434CEBB200EBE3
:104F70004313012E1FD0D3F8100B6FF31200C3F8A8
:104F8000100BD3F8100B2040C3F8100B486908B180
:104F900088684861D3F8100B40F40020C3F8100B68
:104FA000D3F8100B8C68C4F312042043C3F8100B21
:104FB000012A55D058E04E69002ED3F8106932D03E
:104FC0006FF31206C3F81069D3F810692640C3F8CE
:104FD00010694E698C68A64200D94C61D3F810491B
:104FE00044F40024C3F81049D3F810494E69C6F3BD
:104FF00012063443C3F81049012A22D000EB4512AF
:10500000D2F8003943F00443C2F800394A6932B398
:10501000D0F83428097801F00F03012199400A43A0
:10502000C0F8342826E02640C3F81069D3F81049A8
:1050300044F40024C3F81049D3F810496FF3120464
:10504000D8E7096919B100EB4512C2F8141900EB51
:105050004510D0F8001941F00441C0F8001909E0EA
:10506000C86808B1C3F8140BD3F8000B40F0044033
:10507000C3F8000B002070BDFFFF07E010B5036C04
:10508000134CA34203D9D0F8003B002B1EDB0023B6
:10509000C0F8103BD0F8103B43F40023C0F8103B9D
:1050A000D0F8103B43F01803C0F8103BD0F8103B89
:1050B00043F0C043C0F8103B012907D1C0F8142BBE
:1050C000D0F8001B41F08021C0F8001B002010BD6B
:1050D0000A30544F4A780B78012A00EB43100BD06A
:1050E000D0F8002B22F40012C0F8002BC978032955
:1050F00014D0022912D017E0D0F8002922F40012AF
:10510000C0F80029C978032901D002290CD1D0F8B0
:10511000001941F08051C0F8001905E0D0F8001BDB
:1051200041F08051C0F8001B002070470A784B788E
:10513000D1B200EB4110012B12D0D0F8001B002996
:1051400006DB2AB1D0F8001B21F08041C0F8001B1B
:10515000D0F8001B41F40011C0F8001B002070477C
:10516000D0F80019002906DB2AB1D0F8001921F087
:105170008041C0F80019D0F8001941F40011C0F8BE
:105180000019EBE7F8B50C784F78774DE3B26FF084
:10519000604600EB4313012F26D0D3F8104B6FF37A
:1051A0001204C3F8104BD3F8104B2C40C3F8104B2B
:1051B0004C69002C74D08D682C44641EB4FBF5F44B
:1051C000D3F8105BA4B206EAC4463543C3F8105BBB
:1051D000D3F8105B8E686643C6F312042543C3F808
:1051E000105B012A71D0A6E04F691FB3D3F8107984
:1051F0006FF31207C3F81079D3F810792F40C3F872
:1052000010794F698D682F447F1EB7FBF5F506EACC
:10521000C545D3F810693543C3F81059D3F8105970
:105220004E69C6F312063543C3F81059CD78012DE7
:1052300010D01BE0D3F810692E40C3F81069D3F8E2
:10524000105945F40025C3F81059D3F810596FF3DD
:10525000120509E0D3F8105925F0C045C3F81059DC
:10526000D3F8105945F00055C3F81059012A18D049
:1052700000EB4413D3F8004944F00444C3F8004958
:10528000CC78012C2FD04A6962B3D0F83428097841
:1052900001F00F03012199400A43C0F8342860E06F
:1052A00036E00A691AB100EB4413C3F81429C9782F
:1052B00001290FD1D0F80818C90500EB4411D1F825
:1052C000002903D442F0005202E030E042F0805264
:1052D000C1F8002900EB4410D0F8001941F0044156
:1052E000C0F800193DE0D0F80848E405D3F80049BB
:1052F00002D444F0005401E044F08054C3F8004963
:1053000000928A8A93B20A78C96800F067F928E0A7
:10531000D3F8104B8D68C5F312052C43C3F8104B1E
:10532000D3F8104B44F40024C3F8104B59E7CA6873
:105330000AB1C3F8142BC97801290CD1D0F8080898
:10534000C005D3F8000B02D440F0005001E040F05B
:105350008050C3F8000BD3F8000B40F00440C3F8B2
:10536000000B0020F8BD0000FFFF07E0816841F05E
:105370000101816000207047002110220261054A6E
:10538000491C914201D9032070470369DB06F7D419
:1053900000207047400D03000022202343EA8111C2
:1053A00001610549521C8A4201D9032070470369F3
:1053B0009B06F7D400207047400D0300D0F8080882
:1053C00010F0060004D0022803D0062801D00F20D8
:1053D000704702207047406900F001007047D0F824
:1053E0001818D0F81C08084080B27047D0F8181878
:1053F000D0F81C080840000C704710B5D0F81038E1
:10540000D0F8342801F00F0400EB4110E24002F024
:105410000102D0F8080943EAC212104010BD00EBA7
:105420004111D1F8081BD0F81408084070474169B1
:1054300080690840704730B503460846940802F07A
:105440000301002203F5805303E01D6840F8045B6C
:10545000521CA242F9D300290BD01C680022D500AF
:1054600024FA05F3491E521C090400F8013B090CFB
:10547000F5D130BD70B50446C068002520F0C040AD
:10548000E060012901D079B120E0E06840F00050EF
:10549000E0600120FCF7F6F860696D1C10F0010F68
:1054A00010D1322DF5D30DE0E06840F08040E0608F
:1054B0000120FCF7E7F860696D1C10F0010F01D0C6
:1054C000322DF5D3322D01D0002070BD012070BDEA
:1054D000D0F8002822F4FE62C0F80028D0F8002896
:1054E0004FF4FE6303EA01110A43C0F800280020CC
:1054F00070470000022A3ED1264A274B0A449A42AE
:1055000001D20F2138E0254A254B0A449A4201D2A4
:105510000E2131E0234A244B0A449A4201D20D2144
:105520002AE0224A224B0A449A4201D20C2123E06B
:10553000204A214B0A449A4201D20B211CE01F4A07
:105540001F4B0A449A4201D20A2115E01D4A1E4B04
:105550000A449A420FD31D4A1D4B0A449A4201D273
:10556000082109E01B4A11441B4A914201D207213C
:1055700002E0062100E00921C26822F47052C260F4
:10558000C2684FF4705303EA81210A43C2600020CD
:1055900070470000405327FF00350C00401E1BFFE2
:1055A00040420F0000DC0BFF804F1200808CF9FEA0
:1055B00020D6130060B6E5FE60E3160000D3CEFEF1
:1055C00040771B00C05BB3FEC091210000CA91FE72
:1055D00020753800E05459FEE09C410010B5029C53
:1055E00074B9DB1C9C0800EB0230002300F58050EE
:1055F00004E000BF51F8042B02605B1CA342F9D306
:10560000002010BDFEE700000FB4054B10B503A944
:10561000044A029800F004F910BC5DF814FB000085
:105620003D5F00082C0200207CB50C001D4616468C
:10563000014601D0601E00E00020CDE90010064BBD
:105640006A462946304600F0EBF8002C02D0009A5A
:10565000002111707CBD0000275F00080907090EBA
:10566000002804DB00F1E02080F80014704700F00F
:105670000F0000F1E02080F8141D704702E008C818
:10568000121F08C1002AFAD170477047002001E0BC
:1056900001C1121F002AFBD1704700002DE9FF5FF6
:1056A00082B00021DDE90430020DDDF840B0034393
:1056B00018D044F61050A2F2FF324243151411984C
:1056C00001281FD0A5EB0B00401C5FEA000A4FF039
:1056D00000064E4FDFF83891B046504615D5CAF156
:1056E000000413E0119801244AA3012801D16FEAB4
:1056F0000B010298119AC0E90031C0E9024206B0DC
:10570000BDE8F09FCBF10000DFE704460021404AEE
:10571000491842EB0450CDE9001012E0E00707D031
:1057200032463B4640464946FAF792FE8046894655
:1057300032463B4610461946FAF78AFE06460F46A1
:105740006410002CEAD1DDE90401DDE90023BAF19F
:10575000000F06DAFAF77CFE42464B46FAF778FE6F
:1057600005E0FAF7E7FE42464B46FAF7E3FE044649
:105770000E460022284BFBF715F803D84FF0FF30F8
:10578000014607E00022254B20463146FAF7B9FDD5
:10579000FAF7F0FF102409E0002C0ADB0A220023AC
:1057A000FAF75AFD039B30321A55641E50EA010283
:1057B000F2D1641C039AC4F111031444119A012A12
:1057C00003D0012208430DD10AE0084304D0002091
:1057D0004FF0110B119072E7A3EB0B056D1E0DE05E
:1057E0005B4504DD4FF0000205F1010504E003DA3A
:1057F0004FF00002A5F10105002AECD002981199A2
:10580000C0E90231C0E9004579E70000000014401A
:105810000000F03F300000000000F0430000E03FD7
:105820002DE9FF4F95B09A46884606460025EEE1E1
:10583000252877D100242746F94A0121039400E066
:10584000044316F8013F203B01FA03F01042F7D160
:1058500030782A2811D06FF02F033078A0F1300271
:10586000092A16D8039A44F0020402EB820203EBE1
:1058700042021044761C0390EFE758F8042B039281
:10588000002A03DA504244F40054039044F0020426
:10589000761C30782E2816D116F8010F44F0040437
:1058A0002A280DD06FF02F023078A0F13003092B99
:1058B00009D807EB870302EB4303C718761CF3E70D
:1058C00058F8047B761C30786C280FD006DC4C2806
:1058D00017D068280DD06A2814D104E0742810D09D
:1058E0007A280FD10DE044F400140AE044F4801447
:1058F00001E044F440147278824202D104F580142D
:10590000761C761C307866280BD013DC582877D0AC
:1059100009DC002875D04528F6D04628F4D0472861
:105920001AD193E118E0632835D0642879D065282E
:1059300012D18BE1702873D008DC6728F1D0692878
:105940006FD06E280DD06F2806D1ACE073282CD014
:10595000752874D0782853D05246179990476D1CFB
:1059600054E1C4F30250022809D003280DD0D8F81E
:10597000001004280DD00D6008F1040846E1D8F8A5
:105980000010EA17C1E90052F6E7D8F800100D80C0
:10599000F2E70D70F0E718F8041B8DF800100020F6
:1059A0008DF80100EB46012003E058F804BB4FF0EE
:1059B000FF3061074FF0000102D40DE009F1010151
:1059C0008946B9420FDA8145F8DB1BF80910002936
:1059D000F4D108E009F1010189468142FADB1BF8A4
:1059E00009100029F6D103985346A0EB0907214678
:1059F0003846179A00F080FA284400EB090507E0C2
:105A000044E008E10DE01BF8010B5246179990475E
:105A1000B9F10109F7D2534621463846179AF2E008
:105A200039E00A21C4F302524FF0000B0091022A20
:105A300006D058F8040BC117032A09D00AE023E066
:105A400008F1070020F00702F2E80201904605E0A5
:105A500000B2C117042A01D140B2C117002906DAE9
:105A60000A460021404261EB02012D2202E022059C
:105A700004D52B228DF80420012203E0E20701D097
:105A80002022F7E7914657E00A2100E010214FF06D
:105A9000000B00910BE010214FF0000B44F00404C8
:105AA0000827009103E008204FF0000B0090C4F39A
:105AB0000252022A05D058F8040B0021032A08D00C
:105AC00008E008F1070020F00702F2E80201904622
:105AD00003E080B2042A00D1C0B24FF000092207CF
