:020000040800F2
:10000000204E002035020008AB3D00084D350008A9
:10001000A93D00089D0D00082D4A000800000000C1
:100020000000000000000000000000009D0100082A
:10003000A510000800000000E1010008954200083A
:100040004F0200084F0200084F0200084F0200084C
:100050004F0200084F0200084F0200084F0200083C
:100060004F0200084F0200084F0200084F0200082C
:100070004F0200084F0200084F0200084F0200081C
:10008000C50F0008D10F0008650A00084F020008DC
:100090004F0200084F0200084F02000851110008EB
:1000A0004F0200084F0200084F0200084F020008EC
:1000B0002D4300084F0200084F0200084F020008BD
:1000C0004F0200084F0200084F0200084F020008CC
:1000D0004F020008C9490008214A00084F020008E1
:1000E0004F0200084F0200084F0200084F020008AC
:1000F0004F0200084F0200084F0200084F0200089C
:100100004F0200084F0200084F0200084F0200088B
:100110004F0200084F0200084F0200084F0200087B
:10012000DD0F00084F020008E90F00084F02000829
:100130004F02000800000000000000004F0200080D
:100140004F0200084F0200084F0200084F0200084B
:100150004F0200084F020008F50F00084F02000888
:100160004F0200084F0200084F0200084F0200082B
:100170004F0200084F0200080000000000000000CD
:100180004F020008DFF810D000F012FC00480047D2
:1001900091530008AFF30080204E0020224B1968D5
:1001A0000868B0E8F00F80F30988BFF36F8F4FF055
:1001B000000080F311884EF00D0E70470000000023
:1001C00006480068006880F3088862B661B6BFF32D
:1001D0004F8FBFF36F8F00DF00BF00BF08ED00E05F
:1001E000EFF30980BFF36F8F0F4B1A6820E9F00F10
:1001F000106008B54FF0500080F31188BFF34F8FA7
:10020000BFF36F8F05F078FD4FF0000080F3118889
:10021000BDE8084019680868B0E8F00F80F3098865
:10022000BFF36F8F704700BF38000020EFF30580E9
:10023000704700000648804706480047FEE7FEE793
:10024000FEE7FEE7FEE7FEE7FEE7FEE7FEE7FEE786
:1002500029430008850100082DE9F05F05460020CC
:1002600092469B4688460646814640241BE0284627
:1002700041464746224600F0CCFA53465A46C01A39
:10028000914110D311461846224600F0B3FA2D1AB8
:1002900067EB01084F4622460120002100F0AAFA30
:1002A00017EB00094E41201EA4F10104DFDC484693
:1002B00031462A464346BDE8F09F40EA01039B07CA
:1002C00003D009E008C9121F08C0042AFAD203E0CB
:1002D00011F8013B00F8013B521EF9D27047D2B22F
:1002E00001E000F8012B491EFBD270470022F6E71F
:1002F00010B513460A4604461946FFF7F0FF20469C
:1003000010BD10B5002200E0521C835C8C5CA3423F
:1003100001D1002BF8D1D8B2E1B2401A10BD2DE9BD
:10032000FE4F804681EA0300C00F0C46009021F08A
:10033000004123F00045B8EB0200A94105D2404638
:10034000214690461C460B46024623F000401043CF
:1003500047D0270DC7F30A00C3F30A510290401A91
:10036000019040286BDAC3F3130040F4801B00981F
:10037000924620B10023D2EB030A63EB0B0B0198EA
:100380005946C0F14002504600F034FA06460D4688
:1003900050465946019A00F04CFA10EB08006141B2
:1003A000002487EA115284EAE7731A4340D0009A86
:1003B00062B3019A012A4FEA075215DC001B61EB78
:1003C00002014FF0004202EA0752CDE90042001C50
:1003D00041F5801132462B4600F083FA03B0BDE8A8
:1003E000F08F40462146F9E7001B61EB0201001C3B
:1003F00041F5801300185B412018A2F5001747EB68
:10040000030140EAD570B6196D4111E06D084FEA5D
:10041000360645EAC0754FEA0752001B61EB020140
:10042000001C41F5801149084FEA30000019514184
:1004300032462B4603B0BDE8F04F00F043BA0098B7
:10044000012240000023D0EB020263EBE07300982E
:1004500021464FEAE074B8EB000061EB0401E9E7E4
:1004600083F000435BE781F0004158E72DE9FE4F40
:1004700081EA030404F0004421F0004100944FF0AD
:10048000000B23F0004350EA01045ED052EA03045B
:100490005BD0C3F30A54C1F30A552C44A4F2F334DD
:1004A0000194A0FB0254C1F3130141F48011C3F382
:1004B000130343F4801301FB024400FB034E840A40
:1004C000970A44EA815447EA8357A4FB07680295D8
:1004D0008D0A05FB07854FEA932C04FB0C54270576
:1004E000029D4FEA065847EA1637B5EB08056EEB52
:1004F000070C870E920E47EA811742EA8312A7FB88
:100500000201B6EB0B0164EB00042B0D43EA0C3344
:100510005E1844EB1C50DA465146E7FB0201C5F376
:1005200013044FEA0B3343EA14534FEA0432019C9D
:1005300043EA0603A4F10C040294009CCDE900B444
:1005400000F0CFF903B0BDE8F08F00200146F9E7D5
:100550002DE9F04D81EA030404F0004B21F0004541
:1005600014464FF0000A23F0004150EA050220D063
:1005700054EA01021DD0C5F30A570246C5F313031E
:10058000C1F31300C1F30A5640F4801543F48013FD
:10059000A7EB0608101BD64608F2FD3873EB0500E2
:1005A00002D308F1010801E092185B41B8F1000F95
:1005B00003DA00200146BDE8F08D00204FF48011E1
:1005C000064684460EE0171B73EB050705D3121B86
:1005D00063EB050306434CEA010C49084FEA30007F
:1005E00092185B4150EA0107EDD152EA030012D0A4
:1005F00082EA040083EA0501084305D0101BAB41E1
:1006000006D20122002306E000224FF0004302E060
:100610006FF0010253101AEB06004CEB085110EB7F
:100620000A0041EB0B01BDE8F04D00F04BB970B58D
:1006300021F0004303430CD0C1F30A550024D5EB4D
:10064000040564EB0403D617AD1AB34102DB0020A6
:10065000014670BD201841EB025170BD0EB5C10FAF
:1006600080EAE0700844CA07002140F233438DE875
:100670000E000A460B4600F034F903B000BD0EB57B
:1006800040F2334102910021CDE900110A460B46A8
:1006900000F027F903B000BD70B5C1F30A5201F0B4
:1006A00000450024C1F3130140F2FF3341F48011EF
:1006B0009A4201DA002070BD40F233439A42A2F21E
:1006C000334203DC524200F0A4F800E090402C4397
:1006D000F1D0404270BDC1F30A5210B5C1F313010D
:1006E00040F2FF3341F480119A4201DA002010BD3C
:1006F00040F233439A42A2F2334203DC524200F00A
:1007000088F810BD904010BD00F0004230F000406D
:100710000AD0C10D01F56071C0F3160042EA015123
:10072000C20840071143704700200146704700008F
:1007300030B5041E71F1000404DB4FF00044404268
:1007400064EB0101141E73F1000405DB1C464FF03D
:100750000043524263EB04038B4208BF824230BD28
:1007600030B5041E71F1000404DB4FF00044404238
:1007700064EB0101141E73F1000405DB1C464FF00D
:100780000043524263EB0403994208BF904230BDDC
:1007900001F0004330B421F0004150EA010206D0DC
:1007A0000A0DA2F56072C1F31301002A02DC30BC0D
:1007B00000207047440F44EAC104C100E01830BC77
:1007C00000EBC25000F047B830B50B4601460020A0
:1007D0002022012409E021FA02F59D4205D303FA03
:1007E00002F5491B04FA02F52844151EA2F1010284
:1007F000F1DC30BD202A04DB203A00FA02F10020AF
:1008000070479140C2F1200320FA03F3194390404E
:100810007047202A04DB203A21FA02F000217047B9
:1008200021FA02F3D040C2F1200291400843194658
:100830007047202A06DBCB17203A41FA02F043EA40
:10084000E07306E041FA02F3D040C2F12002914089
:100850000843194670470029A8BF7047401C49004B
:1008600008BF20F00100704710B4B0FA80FC00FA15
:100870000CF050EA010404BF10BC704749B1CCF140
:10088000200421FA04F411FA0CF118BF01212143CC
:100890000843A3EB0C01CB1D4FEA00614FEA102087
:1008A00042BF002010BC704700EBC3501044002929
:1008B000A4BF10BC7047401C490008BF20F00100D5
:1008C00010BC704710B5141E73F1000408DA401C08
:1008D00041F1000192185B411A4301D120F001005F
:1008E00010BD2DE9F04D92469B4611B1B1FA81F24F
:1008F00002E0B0FA80F220329046FFF77BFF044618
:100900000F4640EA0A0041EA0B0153465A460843A3
:1009100013D0114653EA010019D0C8F140025046E5
:10092000FFF777FF05460E46504659464246FFF709
:1009300061FF084305D0012004E020463946BDE8A8
:10094000F08D0020054346EAE0762C4337430A98B1
:100950006305E40AA0EB08000022FD0A44EA4754BC
:100960000A3002D500200146E9E701051019694166
:10097000DDE9084500196941BDE8F04DA2E7C1F382
:100980000A52C1F3130140F2FF3341F480119A423D
:1009900002DA00200146704740F233439A42A2F245
:1009A000334202DC5242FFF734BFFFF723BF00009F
:1009B000064C074D06E0E06840F0010394E80700AC
:1009C00098471034AC42F6D3FFF7E0FB3C630008D5
:1009D0005C63000810B50146806B026C12F0500F8A
:1009E00005D0026CD20626D500F0C3FC10BD016C08
:1009F00041F40071016401688A6812F0405F17D108
:100A0000027EAAB9CA6A12F4700F02D08A6852052F
:100A10000ED44A6822F020024A60016C21F48071F1
:100A20000164016CC90403D4016C41F0010101644B
:100A300000F090FC10BD806BC26CBDE81040084611
:100A4000104710B5806B40210164416C41F00401F6
:100A5000416400F08EFC10BD10B5806B00F088FC86
:100A600010BD0000014800F085BC000034070020E4
:100A70004B4910B5D1F8042322F44032C1F80423C5
:100A8000D1F8042343681A43C1F8042301684A6873
:100A900022F480724A6001684A68036942EA0322CC
:100AA0004A6001684A6822F040724A6001684A68F8
:100AB00083681A434A6001688A6822F400628A6087
:100AC00001688A68C3681A438A60816A6FF070623D
:100AD000D14201688A6822F070628A6001688A687F
:100AE0000CD0836A1A438A6001688A6822F04052F7
:100AF0008A6001688A68C36A1A4301E022F04052A2
:100B00008A6001688A6822F002028A6001688A6845
:100B1000037E42EA43028A6090F8201000290168AF
:100B20004A6815D042F400624A6001684A6822F4BB
:100B300060424A6001684B684FF46044426A94FA2C
:100B4000A4F4B4FA84F4521EA24013434B6002E0B2
:100B500022F400624A600168CA6A22F47002CA6222
:100B60000168CA6A838B0F4C04EB03531A43CA62B1
:100B700001688A6822F400728A6001688A6890F8C5
:100B8000303042EA43228A6001688A6822F4806237
:100B90008A6001688A68406942EA8020886010BDE6
:100BA000002001400000F0FF1CB501884288C38886
:100BB000114482881A441144028903231144428952
:100BC000114482891144C289008A114408440121D8
:100BD0008DF80410010A8DF805108DF806006420C8
:100BE000009001AA9021024801F08CFA01201CBD5E
:100BF000A408002008B5684600F046F8BDF90000DA
:100C000000F002F808BD00001D4910B58988B1F553
:100C1000C06F1CD007DC49B3B1F5007F21D0B1F51E
:100C2000806F06D118E0B1F5006F09D0B1F5206FE3
:100C300001D0002010BDFFF711FD6FF0060203E0A8
:100C4000FFF70CFD6FF00502FFF7F1FC14E0FFF772
:100C500005FD6FF00402F7E7FFF700FD6FF00302F8
:100C6000F2E7FFF7FBFC6FF00202EDE7FFF7F6FC9F
:100C70000022044BFFF7FAFBBDE81040FFF788BDE8
:100C8000F84900200000C83F3EB5044600208DF81A
:100C900008006425032302AA90210848009501F06A
:100CA00031FA022301AA90210448009501F03AF993
:100CB000BDF8040040BA208001203EBDA4080020F9
:100CC00038B50024ADF800406846FFF7DDFF684600
:100CD000FFF7DAFF6846FFF7D7FF094928B10B781D
:100CE0008A1CBDF8000022F813000878401CC0B22E
:100CF0000870032800D90C70087800F003F838BD9C
:100D0000E80000200B4930B1012807D002280BD0A1
:100D1000032806D10BE04FF4804001E04FF4A040DF
:100D200048800448FFF740BF4FF4C040F8E74FF455
:100D3000E040F5E7F84900200021C181418181812F
:100D4000C02101814FF48071C18089014180490037
:100D5000018089118180FFF727BF0000F0B50024D2
:100D60004B1E18E000270D1B3A466D1E0EE000BF1B
:100D700000EB820E50F82260DEF804C0664504D90C
:100D800040F822C00127CEF80460521C9542EFD8EB
:100D9000002F02D0641C9C42E4D3F0BDFEE70000AB
:100DA0002DE9FC471646054600296ED0654C207893
:100DB00064280FD200FB02F1642291FBF2F6401C82
:100DC000C0B22070CDE900065FA36622684900200A
:100DD00000F06AF9674F002D5BD0D7E90C5222F082
:100DE00000473046FFF73AFC2A463B4600F0E0F861
:100DF000C4E91201DFF87C8160784FF00009A8F1A6
:100E00002808E8B301286FD10B46A26CD4E90A0187
:100E100015461E46FFF783FAA77808EBC7039846E6
:100E20000CCBFFF71DFB0022534BC4E90A01FFF76F
:100E30008FFBC4E90C01C8E900567F1CFAB24F4F82
:100E40004F4DA2704FF06636032A06D384F8029005
:100E500084F801900022C4E90A224A4A4A4BC4E9B4
:100E60000E01FFF703FBD4E91023FFF758FA002225
:100E70001346C4E91001FFF75BFC37D8002001E0FE
:100E80000FE002E0C4E910004DE0BDE8FC4703F0CC
:100E900035B83046FFF7E2FBD7E90A2303F0C8FD77
:100EA000A6E7A0780B4608EBC001A26C401CC1E984
:100EB0000023C7B2A770D4E90A01FFF730FAC4E9EA
:100EC0000A0105460E463846FFF7D9FB02460B4697
:100ED00028463146FFF73CFB032FC4E90C0103D33E
:100EE0000120607084F80290BDE8FC87E868FFF795
:100EF000C6FB32463B46FFF7B9FAD4E91023FFF7A9
:100F000017FC10D8E868FFF7BAFB32463B46FFF7FC
:100F1000ADFAC4E91001CDE900011CA39B221449DC
:100F2000022000F0C1F8D4E91001FFF7D4FB6060A3
:100F30002968486300901AA3A2220D49002000F0FE
:100F4000B3F8D1E798000020536F66745F53746163
:100F5000725F466C6167203D202564200A536574EA
:100F60005F56616C7565203D202564200A000000F5
:100F7000EB62000898490020000008406666EE3FDA
:100F8000F8080020B81E85EB51B8064050574D5F59
:100F900050756C7365203E20252E336600000000DE
:100FA00050574D5F50756C7365203D2025640000DF
:100FB00030B4034CC4E90001204630BC02F0F6BE58
:100FC00000490020014800F0D7BB0000880A00203B
:100FD000014800F0D1BB0000E80A0020014800F001
:100FE000CBBB00007C070020014800F0C5BB00001F
:100FF000C8090020014800F0BFBB0000280A0020FB
:1010000001681823CAB2103AB2FBF3F2054B6FF332
:101010000901032A9B5CC36500D9091D8165084647
:1010200070470000CB62000810B5014600208B69B4
:101030008A6A4FF0C07453B1B3F5005F15D072B136
:10104000012A0CD0022A0AD0032A09D104E01AB1DD
:10105000012A06D0022A03D1C96AC90100D501209C
:1010600010BDC96AA142FAD010BD002AF7D0012AEA
:10107000F2D0022AF3D0032AF3D010BD30B50468B1
:10108000256825F480252560046863608368402B0B
:10109000036803D099600068C26030BD9A60006840
:1010A000C16030BD704700000FB4F0B58FB00E4680
:1010B0000746154618AC342101A8FFF717F9234657
:1010C000322101A8179A03F0CDFC002F0ADB384625
:1010D00000F018F8014601A800902B46324603A004
:1010E00003F0B0FC0FB0F0BC5DF814FB5B252D35B0
:1010F000735D205B252D3130732534645D202573AD
:10110000200D0A0038B1012807D0022807D0032893
:1011100007D005A0704706A0704707A0704708A039
:10112000704709A070470000554E4C4E4F570000C5
:101130004445425547000000494E464F000000001C
:101140005741524E000000004552524F52000000DD
:101150004FF4807000F0BABC72B6FEE72DE9F041A2
:101160000024254E074625460A462046A6F5487324
:101170000EE000BF53F822C047F820C0A2EB010CDC
:1011800003EB8C0CDCF80CC046F820C0401C121D90
:10119000C82AEFDB32213846FFF7E0FD5FF014008C
:1011A00057F82010401C0C441E28F9DB322112484D
:1011B000FFF7D4FD5FF0140056F82010401C0D44DA
:1011C0001E28F9DB0A20B4FBF0F6B5FBF0F0C0F303
:1011D0000B00FFF754FA04460D46C6F30B00FFF769
:1011E0004EFA0022054BFFF741F922462B46BDE897
:1011F000F041FFF7ADB900006C06002000C092403E
:101200007047000078B50024009490F83C20012A33
:1012100019D0012280F83C200A6807230568092AB2
:1012200013D9EE680A3A02EB420293409E43EE6005
:101230000B788A680A3B03EB43039A400368DD6836
:101240002A43DA6010E0022078BD2E6902EB4202E8
:1012500093409E432E610A788B6802EB42029340D2
:10126000026815692B4313614A681F23072A13D2AA
:1012700005686E6B521E02EB820293409E436E63C2
:101280000B790A885B1E92B203EB83039A400368D2
:101290005D6B2A435A6327E005680D2A12D22E6B34
:1012A000D21F02EB820293409E432E630B790A8881
:1012B000DB1F92B203EB83039A4003681D6B2A4342
:1012C0001A6311E0EE6A0D3A02EB820293409E43EC
:1012D000EE620B790A880D3B92B203EB83039A40CE
:1012E0000368DD6A2A43DA62174A0368934208D129
:1012F0000B68122B05D1D2F8043343F48003C2F8F3
:101300000433036893421AD10B68102B01D0112BC0
:1013100015D1D2F8043343F40003C2F8043309684A
:1013200010290CD109490A4A0968B1FBF2F101EB15
:101330008101490000E0491E00910029FBD180F89D
:101340003C40002078BD0000002001403400002017
:1013500040420F000449884204D14FF480510348B1
:1013600000F009BD7047000034070020000402406F
:101370007047704770B50446006801684268C1F361
:101380004001C2F3401251B34AB3216CC90603D4E1
:10139000216C41F400712164816811F0405F17D124
:1013A000217EA9B9C16A11F4700F02D08168490584
:1013B0000ED4416821F020014160206C20F480703F
:1013C0002064206CC00403D4206C40F00100206431
:1013D0002046FFF7BFFF21686FF012000860206809
:1013E00001684268C1F38001C2F3C01289B382B3BD
:1013F000216CC90603D4216C41F400512164816839
:1014000011F4401F1ED1816B11F4401F02D081687E
:10141000490517D44168490514D4816811F0405F2B
:1014200010D1217E71B9416821F080014160206CAA
:1014300020F480502064206CC00503D4206C40F060
:10144000010020642046FFF7DBFE21686FF00C00EE
:10145000086020680168426811F0010FC2F3801231
:101460000ED06AB10068C0070AD0206C40F480300A
:101470002064204600F046F821686FF00100086003
:10148000206801684268C1F34011C2F380620029FC
:101490000DD0002A0BD0616C41F0020161646FF045
:1014A000200505602046FFF764FF2068056070BDD9
:1014B00070B504004FF0000503D0206C002610B179
:1014C00007E0012070BD204600F01EF8666484F835
:1014D0003C60206CC00610D4206C20F4885040F092
:1014E000020020642046FFF7C3FA6664206C20F0F7
:1014F000020040F00100206400E0012584F83C6017
:10150000284670BD7047000070B586B006461421AD
:101510006846FEF7EBFE2149306888423BD12048FF
:101520000025016841F480710160006800F480705A
:1015300005901B481438016841F001010160006802
:10154000694600F00100059003200090CDE90105F7
:10155000144800F0C7FA154C1348C4E900050015FB
:10156000A560C4E90350800060618000A061801123
:10157000C4E907052046656200F0CEF908B1FFF71F
:10158000EBFDB463002205211220A66300F00AFFE0
:10159000122000F0F9FE06B070BD000000200140EE
:1015A0004438024000000240106402407C070020E2
:1015B000F8B50D4600210446009190F83C00012842
:1015C00007D0012084F83C0020688368DB0702D044
:1015D00011E00220F8BD836843F0010383603248C4
:1015E000324B0068B0FBF3F000EB400000E0401E1F
:1015F00000900028FBD120688368DB0749D0236C6A
:1016000040F20166B34343F48073236440684005AD
:1016100005D5206C20F4005040F480502064206CEC
:10162000C00404D5606C20F00600606400E06164D2
:1016300084F83C10A16B1E48C863A16B1D48086468
:10164000A16B1D48C86421686FF022000860206803
:10165000416841F0806141602068816841F4807197
:101660008160216813462A464C31A06B00F0BEF918
:101670001249D1F80403C006206801D0884210D175
:10168000816811F0405F0CD1816841F08041816038
:1016900007E0206C40F010002064606C40F0010016
:1016A00060640020F8BD00003400002040420F00BC
:1016B000D5090008590A0008430A00080020014023
:1016C0002DE9F0410446876D00F062FB064694F870
:1016D00035000025022806D08020606584F834504B
:1016E0000120BDE8F0812068016821F01601016049
:1016F0002068416921F080014161206C08B9A06C2B
:1017000020B12068016821F00801016020680168AB
:1017100021F0010101600CE000F03AFB801B05287C
:1017200007D920206065032084F8350084F8345000
:10173000D7E720680068C007EED194F85C103F201E
:101740008840B860012084F8350084F834500020C7
:10175000C7E790F83510022903D0802141650120A8
:101760007047052180F835100068016821F00101FB
:1017700001600020704700002DE9F84304464FF057
:101780000009CDF8009063484FF41651A56D00682C
:10179000B0FBF1F72E6894F85C10082000FA01F114
:1017A00031420FD021680A6852070BD50A6822F02F
:1017B00004020A6094F85C108840A860606D40F0F4
:1017C0000100606594F85C104FF0010808FA01F020
:1017D000304208D021684969090604D5A860606DC7
:1017E00040F00200606594F85C10042088403042AC
:1017F00008D021680968890704D5A860606D40F0A9
:101800000400606594F85C1010208840304218D0C5
:1018100021680968090714D5A86020680168490390
:1018200004D50068000308D5A16C07E00168C9056C
:1018300003D4016821F008010160216C09B1204640
:10184000884794F85C1020208840304231D02168CD
:101850000968C9062DD5A86094F8350005282068C8
:10186000016806D0490347D5006800031DD4616CA8
:101870001CE021F0160101602068416921F080011F
:101880004161206C08B9A06C20B12068016821F08A
:101890000801016094F85C103F208840A86084F83B
:1018A000358084F83490216D1FE0E16B09B120464A
:1018B0008847606D00282BD0606DC00714D00520CC
:1018C00084F835002068016821F00101016000986A
:1018D000401C0090B84203D820680068C007F6D1C9
:1018E00084F8358084F83490E16C002910D001B080
:1018F0002046BDE8F04308470168C905D5D4016812
:1019000021F01001016084F8358084F83490CCE730
:10191000BDE8F883340000202DE9F041044600F0D2
:1019200037FA06465CB1022084F83500002584F8B9
:1019300034502068016821F0010101600DE00120B0
:10194000BDE8F08100F024FA801B052805D920208D
:101950006065032084F83500F2E720680068C0075E
:10196000F0D12268116820480140D4E901031843EE
:10197000D4E903363343184363691843A369184312
:10198000E3691843236A18430843616A042903D1B1
:10199000D4E90B1319430843106020684069666A54
:1019A00020F0070130460E43012704280CD1A06A1D
:1019B0000643E06A40B12046FFF736FB20B14020E5
:1019C000606584F83570BAE7206846612046FFF705
:1019D00017FB94F85C203F2191408160656584F895
:1019E00035700020ACE700003F8010F02DE9F04199
:1019F0000446866D90F83400002501280DD00120A2
:101A000084F8340094F835700020012F07D084F852
:101A1000340002252846BDE8F0810220FBE70227BA
:101A200084F8357060652046FFF728FB94F85C1059
:101A30003F208840B0602068016841F016010160D5
:101A4000206C20B12068016841F008010160206825
:101A5000016841F001010160DCE7000031B500F0F0
:101A600097F9009C0546601C02D0044800780444A5
:101A700000F08EF9401BA042FAD338BD28000020A8
:101A800070B54FF48074A0421AD10E4D21462846FD
:101A900000F06CF9002813D10120FFF7DFFF214689
:101AA0002E46284600F062F9074D40B10120FFF7AD
:101AB000D5FF2146304600F059F9012800D12870A1
:101AC00070BD00000000024004000020044910B571
:101AD0000A68024202D00860FFF7D2FF10BD000082
:101AE000143C01402DE9F04FDFF85092002309F13A
:101AF000040A012603250AF1040B85B00F270BF118
:101B0000040E12E1224606FA03F422407ED091F838
:101B100004C00CF0030CBCF1010F02D0BCF1020FA9
:101B200026D1D0F80880CDF800804FEA430805FAA6
:101B300008FCCDF81080DDF8008028EA0C08CDF80C
:101B40000080D1F80CC0DDF810800CFA08FCDDF83C
:101B500000804CEA080CC0F808C0D0F804C02CEA99
:101B6000040C0C79C4F300149C4044EA0C04446057
:101B70000C79E443A40712D0C4684FEA430CCDF8B3
:101B800008C005FA0CFC24EA0C04D1F80880DDF842
:101B900008C008FA0CF848EA0408C0F80C800C7970
:101BA00004F00304022C16D1DC0800EB840CCDF801
:101BB00008C0DCF820C05C074FEAD46807FA08F4D4
:101BC0002CEA040C0C6904FA08F444EA0C04DDF86D
:101BD00008C0CCF8204004684FEA430805FA08FC26
:101BE00024EA0C0491F804C00CF0030C0CFA08FC75
:101BF0004CEA040CC0F800C04C6814F4403F05D017
:101C00004F4CD4F800C04CF4804C00E08CE0C4F899
:101C100000C0246823F0030C04F480440094494C71
:101C200064440294D4F808484FEA837C4FEA1C7855
:101C300007FA08FC24EA0C04DFF80CC1604502D165
:101C40004FF0000C39E0DFF804C1604502D14FF0DD
:101C5000010C32E0DFF8F8C0604502D14FF0020C11
:101C60002BE0DFF8F0C0604502D14FF0030C24E018
:101C7000DFF8E4C0604502D14FF0040C1DE0DFF84E
:101C8000DCC0604502D14FF0050C16E0DFF8D0C093
:101C9000604502D14FF0060C0FE0DFF8C8C0604588
:101CA00002D14FF0070C08E0DFF8BCC0604502D15C
:101CB0004FF0080C01E04FF0090C0CFA08FC4CEA5C
:101CC000040C029CC4F808C8D9F80040CC46D1F8EE
:101CD000048094435FEAC83800D51443CCF8004030
:101CE000DAF80040D446D1F8048094435FEA88389B
:101CF00000D51443CCF80040DBF80040DC46D1F8B6
:101D0000048094435FEAC82800D51443CCF800400F
:101D1000DEF80040F446D1F8048094435FEA882856
:101D200000D51443CCF800405B1C0A681446DA4026
:101D30007FF4E8AE05B0BDE8F08F0000003C014044
:101D400044380240003001400000024000040240DC
:101D500000080240000C0240001002400014024043
:101D600000180240001C02400020024000690840A8
:101D700000D001207047426921EA02030A4043EA89
:101D80000241816170470AB1816170470904FBE734
:101D900001488068704700002800002070B50400EA
:101DA00025D094F83D00002520B984F83C50204609
:101DB00000F03EFA242084F83D002068016821F0FC
:101DC000010101602068016841F400410160206860
:101DD000016821F40041016000F0D4FB4D4A6168C4
:101DE000914201D84C4900E04C49884201D201207F
:101DF00070BD4B492368B0FBF1F15E6826F03F06E9
:101E00000E435E606368934206D94FF4967359435C
:101E10004FF47A73B1FBF3F12368491C1E6A26F074
:101E20003F06314319626168914210D84900401E53
:101E3000B0FBF1F2521CC2F30B02042A01D20420BF
:101E400022E0B0FBF1F0401CC0F30B001CE0A268E4
:101E5000F2B301EBC10303EB0116431EB3FBF6F330
:101E60005B1C43F480431B0549D092B301EBC102D4
:101E700002EB0111401EB0FBF1F0401CC0F30B005F
:101E800040F4804040F400402168CA694CF6FF737A
:101E90009A431043C861D4E90710014320680268DF
:101EA00022F0C00211430160D4E90301014320681C
:101EB000826848F2FF339A4311438160D4E90501F7
:101EC00008432168CA6822F0FF021043C86001E09D
:101ED0000EE016E02068016841F001010160256410
:101EE000202084F83D00256384F83E50002070BD1A
:101EF00001EB4106431EB3FBF6F35B1CB3E7012085
:101F0000C2E701EB4101401EB0FBF1F0401CC0F301
:101F10000B00B7E7A086010080841E0000093D0089
:101F200040420F002DE9F84F1F4690468A4604466E
:101F3000DDF82890FFF72CFF054694F83D00202897
:101F400075D1192301226C492046009501F000FC4F
:101F50000028F5D194F83C00012868D0012084F8CD
:101F60003C0020680168C90703D1016841F0010104
:101F700001602068016821F400610160222084F87A
:101F80003D00102084F83E0000262664C4F824801A
:101F90006785608D20855948E0622B464A46514648
:101FA000204601F0EBFA002878D1208D544F68B11B
:101FB000012814D002282068016816D041F48061FD
:101FC0000160206841698069009087E0206841696C
:101FD00081690091016841F4007101607EE0206830
:101FE000016821F480610160F0E721F48061016003
:101FF0002068016841F40061E2E7032848D801281D
:102000000AD0022814D04B460022394620460095BB
:1020100001F09EFBD8BB27E02A464946204601F046
:1020200016FCA0BB20680069616A08704DE061E0A1
:102030004B46002239462046009501F089FB30BB13
:102040002068016841F40071016020680069616ADC
:102050000870606A401C6062218D491E2185618D77
:10206000491E618521682EE02068016821F48061A5
:10207000016020680069616A0870606A401C6062E3
:10208000208D401E2085608D401E6085D0E705E0D4
:102090002A464946204601F0DAFB10B10120BDE88E
:1020A000F88F20680069616A0870606A401C60628D
:1020B000218D491E2185618D491E618521684A69EE
:1020C000D24352070AD409690170606A401C6062F9
:1020D000208D401E2085608D401E6085208D00284B
:1020E0008BD1202084F83D0084F83E6084F83C6069
:1020F0000020D4E70220D2E7020010000000FFFF1A
:10210000040001002DE9F84F1F4690468A46044618
:10211000DDF82890FFF73CFE054694F83D002028A6
:102120007FD11923012240492046009501F010FB80
:10213000002876D194F83C00012872D0012084F860
:102140003C0020680168C90703D1016841F0010122
:1021500001602068016821F400610160212084F899
:102160003D00102084F83E0000262664C4F8248038
:102170006785608D20852D48E0622B464A46514692
:10218000204601F071FA90B9206841698069009099
:1021900036E02A464946204601F08CFB50B1206CBF
:1021A000042804D12068016841F400710160012015
:1021B000BDE8F88F606A216800780861606A401C99
:1021C0006062618D491E6185218D491E89B221851C
:1021D00022685369DB435B070BD451B1007810616F
:1021E000606A401C6062608D401E6085208D401ECC
:1021F00020852A464946204601F084FA0028CED19F
:10220000208D0028C5D154F83D0B016841F40071C0
:102210000160202004F81E09E67766770020C7E7F2
:10222000FFE70220C4E70000020010000000FFFFEB
:1022300010B586B0044614216846FEF757F81349D6
:102240002068884220D11248016841F002010160F3
:102250000068694600F002000590C020009012203E
:10226000019001200290032003900420049009486B
:10227000FFF738FC06481030016841F40011016096
:10228000006800F40010059006B010BD0054004036
:10229000303802400004024002488168027811444C
:1022A00081607047280000200B4810B5016841F498
:1022B00000710160016841F480610160016841F4CE
:1022C00080710160032000F08DF8002000F006F816
:1022D00000F03EF8002010BD003C024010B5014661
:1022E00088B000221C2000F05DF81C2000F04CF8A3
:1022F00014480024016841F001010160006805A94B
:1023000000F001000690684600F01CF900F03AF970
:102310000D494000B0FBF1F10C484FF08042491EDE
:10232000026040F2E732C0E90324C0E9011400F082
:1023300099FB10B1012008B010BD044800F0D4FB97
:10234000F9E700004038024040420F00C80B00206F
:102350000C4882B0016841F480410160006800F4DB
:10236000804000900748001F016841F080510160E3
:102370000068002200F0805000900F21901E02B0F3
:1023800000F010B844380240002809DB00F01F02BA
:10239000012191404009800000F1E020C0F80011C7
:1023A00070470000F0B40E4B1B680C46C3F30223C9
:1023B000C3F10705042D00D90425191D072901D2F1
:1023C000002300E0DB1E012606FA05F1491E21402C
:1023D00099409E40761E16403143F0BC02F05CBB33
:1023E0000CED00E0064900F0070208684FF6FF0315
:1023F000184040EA0220034A10430860704700007A
:102400000CED00E00000FA052DE9F0470E4605004E
:1024100063D0DFF81C81D8F80000F7B200F00F009D
:10242000B04207D288F80070D8F8000000F00F0022
:10243000B04252D128683F4C810712D5400703D5DE
:10244000206840F4E05020602878000703D5206819
:1024500040F4604020602068A96820F0F000084344
:1024600020602878C0072BD03249686808390128D5
:1024700010D00968022810D0890700292DDA2168B8
:1024800021F0030101432160FFF782FC814641F204
:10249000883A0EE009688903EFE78901EDE700BF9C
:1024A000FFF776FCA0EB0901514502D90320BDE8F6
:1024B000F0872068696800F00C00B0EB810FEFD165
:1024C000D8F80010404601F00F01B14207D907705B
:1024D000006800F00F00B04201D00120E7E7287843
:1024E000400705D52068E96820F4E05008432060E3
:1024F0002878000706D52068296920F4604040EA62
:10250000C100206000F06EF82168F02292FAA2F279
:1025100001F0F001B2FA82F2D140074A515CC840A2
:102520000649086006480068FFF7D8FE0020BEE7AD
:10253000003C024008380240D3620008340000200A
:102540002C0000200F2202600C4A136803F00303E2
:102550004360136803F0F0038360136803F4E053EF
:10256000C36012684FF4E05303EAD20202610448E8
:10257000006800F00F000860704700000838024053
:10258000003C024008480949006809684FF4E052DD
:1025900092FAA2F201F4E051B2FA82F2D140044A76
:1025A000515CC840704700003400002008380240E9
:1025B000E362000808480949006809684FF460426E
:1025C00092FAA2F201F46041B2FA82F2D140044AD6
:1025D000515CC840704700003400002008380240B9
:1025E000E3620008154810B5006810F00C021448AA
:1025F00013D04110042A0FD0082A0ED10F4C241FEB
:102600002268236802F03F025B0207D52068C0F30E
:102610008810A0FB010106E0084610BD2168C1F347
:102620008811A1FB00010023FDF716FE2168C1F30C
:102630000141491C4900B0FBF1F010BD08380240CF
:102640000024F4002DE9F84F04007BD0DFF814B328
:102650002078ABF10406C007A6F1040536D0DBF8FC
:1026600000105846C1F38101012907D00068C0F36A
:102670008100022809D13068400206D5286880030D
:1026800024D560680028E0D020E0B6492079891F71
:102690000870606868B1FFF77BFB074605E000BF84
:1026A000FFF776FBC01B642876D828688003F7D52F
:1026B0000CE0FFF76DFB074605E000BFFFF768FB86
:1026C000C01B6428F0D828688003F7D42078DFF88E
:1026D000988280074FF0000944D5DBF80010584677
:1026E00011F00C0F4FF0F80A07D00068C0F381001A
:1026F000022809D13068400206D42868800715D521
:10270000E06801281ED111E0E068E0B10120C8F8BE
:102710000000FFF73DFB074605E000BFFFF738FB71
:10272000C01B0228C0D828688007F7D528689AFA05
:10273000AAF22169B2FA82F220F0F800914008432F
:1027400028600FE00AE1C8F80090FFF721FB074678
:1027500005E000BFFFF71CFBC01B02281CD828683F
:102760008007F7D42078000727D5DFF8F8A17F4845
:1027700061690AF16C0A81B101210160FFF708FB70
:10278000074604E0FFF704FBC01B022804D8DAF870
:1027900000008007F6D510E082E0C0F80090FFF757
:1027A000F7FA074605E000BFFFF7F2FAC01B022860
:1027B00076D8DAF800008007F6D4207840075FD595
:1027C000DFF8A0A100270AF1380ADAF80000C000FB
:1027D0000BD4DAF8001041F08051CAF80010DAF892
:1027E0000000012700F0805000906148016841F42A
:1027F000807101600168C90512D4016841F48071DB
:102800000160FFF7C5FA009006E000BFFFF7C0FACD
:102810000099401A02287ED855480068C005F5D5B1
:102820005049207A68310870A06888B1FFF7B0FA83
:10283000009007E0FFF7ACFA0099411A41F28830A6
:10284000814268D84748683000688007F2D510E0B8
:10285000FFF79EFA009007E0FFF79AFA0099411AF5
:1028600041F28830814256D83E486830006880077F
:10287000F2D42FB1DAF8001021F08051CAF800101C
:10288000A069B8B3DBF80010C1F38101022949D077
:102890000228C8F8609004D0FFF77AFA04463DE0B9
:1028A00039E0FFF775FA074605E000BFFFF770FA59
:1028B000C01B64282FD828688001F7D4D4E9070109
:1028C0000843616A94F82C20890141EA02610843B7
:1028D000A16A284A490802EB014108433168264AA7
:1028E0001140084330600120C8F86000FFF750FA3B
:1028F000044606E034E000BFFFF74AFA001B6428F4
:1029000009D828688001F7D52AE000BFFFF740FA10
:10291000001B642802D90320BDE8F88F28688001D5
:10292000F4D41DE00128F7D03068E26900F480019A
:10293000914213D1226A00F03F0191420ED1616AA7
:10294000C0F38812914209D1A26A00F44031914249
:1029500004D1E16A00F07060884201D00120DBE719
:102960000020D9E70838024000004742800E474265
:10297000007000400000FFFF0080BCF0704770470F
:1029800010B590F83C20012A22D0012280F83C208A
:10299000CA688C6822F4407222434C6822F4806238
:1029A00022430C6822F4006222430C6922F4805214
:1029B00022434C6922F400522243C969002322F4C5
:1029C00080420A4301684A6480F83C30002010BD10
:1029D000022010BD70B590F83C20012A32D00124AD
:1029E00080F83C40022280F83D2003685A689D68C8
:1029F00022F070060A6832435A60134B02689A420A
:102A000014D0B2F1804F11D0104B9A420ED0104B1F
:102A10009A420BD00F4B9A4208D00F4B9A4205D0E6
:102A20000E4B9A4202D00E4B9A4204D1496825F0CF
:102A300080031943916080F83D40002180F83C10EC
:102A4000084670BD022070BD000001400004004037
:102A500000080040000C004000040140004001401C
:102A60000018004010B5040003D094F83D0010B1E8
:102A700007E0012010BD002084F83C00204600F053
:102A80001FF8022084F83D00211D206801F054FC4D
:102A9000012084F8460084F83E0084F83F0084F862
:102AA000400084F8410084F8420084F8430084F830
:102AB000440084F8450084F83D00002010BD00006B
:102AC00008B500680649884208D10648016841F007
:102AD00001010160006800F00100009008BD0000E5
:102AE000000001404438024090F83D10012901D017
:102AF00001207047022180F83D100168CA6842F049
:102B00000102CA6000681149884214D0B0F1804FB8
:102B100011D00F4988420ED00E4988420BD00E4981
:102B2000884208D00D49884205D00D49884202D01C
:102B30000C49884204D1816801F00701062903D0BD
:102B4000016841F001010160002070470000014070
:102B50000004004000080040000C00400004014058
:102B6000004001400018004070B5044690F83C0059
:102B7000012817D0012584F83C50022084F83D003C
:102B80002068826822F0770222F47F42826008681F
:102B9000502830D00DDC20284DD005DC98B310280B
:102BA0003BD148E0022070BD302844D0402834D1C9
:102BB00039E0602828D0702806D0B0F5805F2CD08E
:102BC000B0F5005F29D10AE0CB68D1E90121206886
:102BD00001F023FC2068816841F0770109E0CB68AF
:102BE000D1E90121206801F018FC2068816841F4D6
:102BF0008041816011E0CA684968206801F0E2FC08
:102C00005021206807E016E0CA684968206801F092
:102C1000EAFC6021206801F00AFC84F83D500020A5
:102C200084F83C0070BDCA684968206801F0CAFC9D
:102C300040212068EFE7226801461046EBE7704725
:102C400070B50446006801694FF00005C943890763
:102C500015D4C168C943890711D4E91E0161012057
:102C60002077206880698007204602D0FFF7E7FFC1
:102C700004E000F0C3F8204600F052F92577206800
:102C80000169C943490717D4C168C943490713D427
:102C90006FF004010161022020772068806910F440
:102CA000407F204602D0FFF7CAFF04E000F0A6F8FC
:102CB000204600F035F9257720680169C9430907E6
:102CC00016D4C168C943090712D46FF00801016125
:102CD000042020772068C0698007204602D0FFF7D3
:102CE000AEFF04E000F08AF8204600F019F92577DD
:102CF00020680169C943C90617D4C168C943C90618
:102D000013D46FF010010161082020772068C0699A
:102D100010F4407F204602D0FFF791FF04E000F05E
:102D20006DF8204600F0FCF8257720680169C9435A
:102D3000C90708D1C168C943C90704D1891E016107
:102D4000204600F053F920680169C943090609D4F7
:102D5000C168C943090605D46FF0800101612046AE
:102D6000FFF70CFE20680169C943490609D4C16810
:102D7000C943490605D46FF040010161204600F0C7
:102D80003CF920680169C94389060BD4C168C9436D
:102D9000890607D46FF0200101612046BDE870402C
:102DA000FFF7EDBD70BD000010B586B004461421DC
:102DB0006846FDF79BFA0E492068884216D10D48F7
:102DC0000021026842F010020260006800F010006A
:102DD00005904FF4007000900220CDE90101012020
:102DE000CDE9031069460448FEF77CFE06B010BD2D
:102DF000000001403038024000100240704770B5BA
:102E0000044690F83C000D4601280AD0012084F8C1
:102E10003C0042B1042A18D0082A2AD00C2A4DD1ED
:102E200039E0022070BD206801F00AFB206881694A
:102E300041F0080181612068816921F0040181610C
:102E4000206881692A69114311E0206801F028FB9C
:102E50002068816941F4006181612068816921F401
:102E600080618161206881692A6941EA022181616A
:102E700024E0206801F04AFB2068C16941F00801A4
:102E8000C1612068C16921F00401C1612068C16984
:102E90002A69114311E0206801F06CFB2068C169C8
:102EA00041F40061C1612068C16921F48061C161A0
:102EB0002068C1692A6941EA0221C161002084F8C1
:102EC0003C0070BD10B5040003D094F83D0010B173
:102ED00007E0012010BD002084F83C00204600F0EF
:102EE0001EF8022084F83D00211D206801F024FA1C
:102EF000012084F8460084F83E0084F83F0084F8FE
:102F0000400084F8410084F8420084F8430084F8CB
:102F1000440084F8450084F83D00002010BD70474F
:102F20007047000010B50446022249B104290ED0B2
:102F3000082913D094F84100012816D0012010BDB3
:102F400094F83E000128F9D184F83E200FE094F86F
:102F50003F000128F2D184F83F2008E094F84000B7
:102F60000128EBD184F8402001E084F841200122BF
:102F7000206801F045FA16492068164A884201D0B7
:102F8000904203D1436C43F4004343642068884279
:102F900013D0B0F1804F10D00F4988420DD00F49A7
:102FA00088420AD00E49884207D0904205D00D4988
:102FB000884202D00C49884204D1816801F007019F
:102FC000062903D0016841F001010160002010BD15
:102FD00000000140000401400004004000080040DF
:102FE000000C004000400140001800400068B0F1B3
:102FF000804F01D1FFF750B970477047704710B547
:1030000004460068416994F83D20C1F3C011212AAB
:103010000BD151B1416921F080014161606B08B170
:10302000FEF74EFB204601F06FFB2068416994F8E3
:103030003E20C1F38011222A0BD151B1416921F008
:1030400040014161A06B08B1FEF73AFB204601F058
:1030500043FB002010BD7047F8B5026804461068B5
:10306000D168536910F00F0F4FF0000553D003F0F3
:10307000010601F4907737435FD0C20705D0CA0537
:1030800003D5226C42F001022264420705D5DA071B
:1030900003D0226C42F002022264820705D5DA07CF
:1030A00003D0226C42F004022264020707D501F02B
:1030B0002002324303D0226C42F008022264226CC8
:1030C000002A34D0800604D5880602D5204601F0B7
:1030D00024FB20684069216CC0F38010090700D4EC
:1030E00030B3204601F0F8FA2068416949061BD543
:1030F000416921F040014161A06BA8B159490165C6
:10310000A06BFEF726FB002811D0A06B016D01B06B
:10311000BDE8F040084783060FD58B060DD5204645
:10312000BDE8F84001F0F9BA2046FFF794FFF8BD7A
:103130002046FFF790FF2564F8BD266B2023012E63
:1031400053D1C60651D5CE064FD5106850680090B1
:10315000506940062BD5A16B086840680004000C3C
:10316000EAD0A68D8642E7D9E085C869B0F5807FB0
:1031700018D0D06820F48070D0602068416921F0B8
:10318000010141612068416921F04001416184F8F9
:103190003E3025632068C16821F01001C160A06B3A
:1031A000FEF78EFAA08DE18D401A81B219E0A08D54
:1031B000E18D401A81B2E08D0028BDD00029BBD03E
:1031C000D06820F49070D0602068426922F001023B
:1031D000426184F83E3025632068C26822F0100204
:1031E000C2602046FFF70AFFF8BD05062BD50D0685
:1031F00029D594F83D002128F6D1A068B0F5805F6C
:1032000001D12069B0B1206A411C21622168007897
:103210004860E08C401E0004000CE084E4D120688B
:10322000C16821F08001C1602068C16841F040019F
:10323000C160F8BD206A0088C0F308005060206AB1
:10324000801C2062E5E74006F3D54806F1D5D16839
:10325000204621F04001D16084F83D3000F075F93E
:10326000F8BD00000B46000870B5040004D094F8C7
:103270003D00002510B106E0012070BD84F83C50EF
:10328000204600F023F8242084F83D002068C1681F
:1032900021F40051C160204601F09AFA20680169CA
:1032A00021F4904101612068416921F02A014161C6
:1032B0002068C16841F40051C1602564202084F871
:1032C0003D0084F83E00002070BD00002DE9F0476D
:1032D00086B0044614216846FDF708F8DFF864C19B
:1032E0000221266858480322072300258F064FF045
:1032F000400A4FF4806966454DD1534E1436D6F8D6
:1033000000C04CF0100CC6F800C0366806F010067D
:103310000596066846F001060660006800F00100A8
:10332000059050028DE8230069464848CDE9032303
:10333000FEF7D8FB474E4648C8463060C6E90175DF
:10334000C6E903597561B561F5613562304675624C
:10335000FEF7E2FA08B1FDF7FFFEA663B4633D4E47
:103360003B4860367830C6E903587561B561F56150
:103370003562756286E881043046FEF7CDFA08B101
:10338000FDF7EAFE6663002205212520B463FFF7FE
:1033900009F8252051E0DFF8C0C066454FD12A4E1C
:1033A0001036D6F800C04CF4003CC6F800C03668B1
:1033B00006F400360596066846F0080606600068C2
:1033C00000F00800059060208DE82300694623483E
:1033D000CDE90323FEF786FB1E4E2148C036B846D2
:1033E0003060C6E90175C6E903597561B561F561DB
:1033F00035624F4630467562FEF78EFA08B1FDF72A
:10340000ABFEA663B463174E1548C6E90357756152
:10341000B561F56135621830756286E801053046A0
:10342000FEF77AFA08B1FDF797FE666300220521E0
:103430002620B463FEF7B6FF2620FEF7A5FF06B0F0
:10344000BDE8F08700100140303802400000024023
:1034500040640240C809002000440040000C0240C3
:1034600088600240E80A002090F83E30202B0ED100
:1034700059B152B190F83C30012B08D0012380F8AB
:103480003C300023036301F035BA0120704702206D
:1034900070477047704700002DE9F843044690F8E4
:1034A0003D001F4616460D4620284CD1C5B1BEB181
:1034B00094F83C00012846D0012084F83C004FF0ED
:1034C0000008C4F84080212084F83D00FEF760FC2D
:1034D000A6848146E684A068B0F5805F03D004E04E
:1034E0000120BDE8F883206928B12E465FF0000571
:1034F00084F83C800EE00026FAE78021204601F0A7
:1035000031FAA0B9AEB116F8010B21684860E08C21
:10351000401EE084E08C4B464FF0000200970028EC
:10352000EBD14FF04001204601F01CFA30B10320EE
:10353000D7E735F8020BC0F30800E6E7202084F84F
:103540003D000020CDE70220CBE77047FEE7016891
:103550004A69D24352050FD46FF480624A61002158
:1035600040F8301F202242738173026942F0040246
:103570000261017301207047002070472DE9F84F68
:103580000446C06A1E4693460D4621680A6842F406
:1035900080620A60082807D0012805D010F5803F16
:1035A00002D0206B112804D12068016841F4807199
:1035B00001604FF001195B46002249462046009603
:1035C00000F0C6F84FF4007840B120680068C005EC
:1035D00001D5C4F840800320BDE8F88F2069DFF8EA
:1035E00084A0B0F5804F0FD00620216800EAD517DF
:1035F00047F0F000086133465A460AF106012046BA
:1036000000F0DAF858BB03E0E8B240F001001CE03B
:103610002168E8B2086133465A465146204600F018
:10362000CBF8E0B92068416981690091016841F4F3
:10363000807101605B46002249462046009600F0FA
:1036400087F80028C1D147F0F100216808613346AE
:103650005A465146204600F0AFF80028BCD0012061
:10366000BAE7000002000100F8B50446C06A1E4631
:103670000D461746082807D0012805D010F5803FD1
:1036800002D0206B122804D12068016841F48071B7
:103690000160134600224FF001112046009600F011
:1036A00057F840B120680068C00502D54FF400709B
:1036B00020640320F8BD2069B0F5804F0ED00620AD
:1036C000216800EAD51040F0F000086133463A4620
:1036D0000B49204600F070F878B902E005F0FE00D2
:1036E00000E0E8B221680861054933463A46891F7F
:1036F000204600F061F80028DCD00120F8BD000071
:103700000800010070B516460D4604460DE020463F
:10371000FFF71DFF08B1012070BD681C05D0FEF742
:1037200037FB801BA84207D835B120684069C043E9
:103730004007ECD4002070BD002044F8300F202159
:103740006173A073216941F0200121612073E2E7D8
:103750002DE9F0471E4690460D460446C1F3074743
:10376000DDF8209008E0701C06D0FEF711FBA0EBFE
:103770000900B0420FD876B12068012F18D08069B7
:1037800025EA00000004000C14D000214145EAD0D5
:103790000020BDE8F087002044F8300F202161733D
:1037A000A073216941F02001216120730120F0E71D
:1037B0004069E5E70121E9E72DE9F0479A4691469E
:1037C0000E46044600254FF02008C1F3074725E0C8
:1037D00020684069C043400514D42068016841F462
:1037E0000071016021686FF480604861256384F88E
:1037F0003D8084F83E50206C40F00400206484F842
:103800003C501FE0B9F1FF3F08D0FEF7C1FAA0EB32
:103810000A0149450CD8B9F1000F09D02068012FE1
:1038200013D0806926EA00000004000C0BD0CFE71B
:1038300044F8305F84F80D80A573206940F02000C3
:10384000206125730120BDE8F0874069EAE72DE992
:10385000F041002590460E460446202717E04069B7
:10386000C043C0060CD454F8301B6FF01000486100
:1038700044F810596777A577206A2062257717E00A
:10388000FEF786FAA0EB0800B04208D83EB12068E7
:103890004169C9434906E2D40020BDE8F08144F8FB
:1038A000305F6773A573206940F0200020612573A5
:1038B0000120F2E770B516460D4604460DE020469D
:1038C000FFF745FE08B1012070BD681C05D0FEF76A
:1038D0005FFA801BA84207D835B120684069C04311
:1038E0000006ECD4002070BD002044F8300F2021E9
:1038F0006173A073216941F0200121612073E2E727
:103900000D4C0E4D02264FF47A77207810B1012825
:1039100007D00DE0286802F089F9286902F086F9DD
:1039200005E0286802F00EF9286902F00BF926700C
:10393000384601F08FFDE8E7040000200800002071
:103940007FB50025254800950195029522490395EC
:10395000016001244FF440310461C0E9011505768E
:1039600080F820502107C1620426C661C910C560D5
:10397000816280F830404461FDF79AFD08B1FDF79F
:10398000EBFBCDE900540325694614480295FDF789
:1039900039FC08B1FDF7E0FB0220CDE900406946A3
:1039A0000E48FDF72FFC08B1FDF7D6FB1020CDE93E
:1039B000000569460948FDF725FC08B1FDF7CCFB79
:1039C0001120CDE9000669460448FDF71BFC0028DC
:1039D00001D0FDF7C1FB7FBD00200140340700206E
:1039E0001D4808B5016841F480010160016801F4D7
:1039F00080010091016841F400110160006800221B
:103A000000F40010009005211020FEF7CBFC1020E0
:103A1000FEF7BAFC002205211120FEF7C3FC11209D
:103A2000FEF7B2FC002205213820FEF7BBFC38204F
:103A3000FEF7AAFC002205213A20FEF7B3FC3A204B
:103A4000FEF7A2FC002205214620FEF7ABFCBDE8F4
:103A500008404620FEF798BC3038024010B5284B8D
:103A6000AEB02AAC0FCB84E80F0000212AA801F0E9
:103A7000FDFC244C22491C22A06110316846FCF751
:103A80001CFC0021684601F004FD1D4920601C2239
:103A90002C3107A8FCF711FC002107A801F0F9FC64
:103AA000174960601C2248310EA8FCF706FC002173
:103AB0000EA801F0EEFC1249A0601C22643115A88A
:103AC000FCF7FBFB002115A801F0E3FC0C49E060CA
:103AD0001C2280311CA8FCF7F0FB00211CA801F07F
:103AE000D8FC074920611C229C3123A8FCF7E5FB88
:103AF000002123A801F0CDFC60612EB010BD0000B4
:103B0000EC610008080000202DE9F04387B0142183
:103B10006846FCF7EBFB3E480025016841F00401D4
:103B20000160016801F004010591016841F0800124
:103B30000160016801F080010591016841F0010117
:103B40000160016801F001010591016841F0100177
:103B50000160016801F010010591016841F0020166
:103B60000160016801F002010591016841F008015E
:103B700001600068DFF89C8000F008004FF40054FA
:103B80000590002221464046FEF7FDF8DFF88890B8
:103B90006710002239464846FEF7F5F800940124E4
:103BA000694640460194CDE90245FDF79BFF082098
:103BB0000326CDE90006694602954046FDF792FFCF
:103BC0000C200090CDE90165144D69462846FDF7AB
:103BD00089FF02200097CDE90140694648460394D9
:103BE000FDF780FF200200904FF44410CDE901045E
:103BF00069462846FDF776FF002205211720FEF7CB
:103C0000D1FB1720FEF7C0FB07B0BDE8F083000032
:103C10003038024000080240000402400000024028
:103C20000D4810B50B4901606421416000214FF43B
:103C300080428160C0E9031241618161C16101621A
:103C4000FEF7ACF8002803D0BDE81040FDF784BAB9
:103C500010BD000000540040A408002010B596B02C
:103C600000240F9410941194129413941C2168460C
:103C70001494FCF73BFB202107A8FCF737FB2D48E9
:103C80002B49C0E9001442F6E061C0E90241046139
:103C900044618461FEF7E6FE08B1FDF75DFA4FF47A
:103CA00080500F900FA92348FEF75EFF08B1FDF783
:103CB00053FA2048FFF706F908B1FDF74DFA1394BF
:103CC00013A91C481494FEF785FE08B1FDF744FAC9
:103CD0006020CDE90004029403940494059400222A
:103CE000694614480694FFF78AF808B1FDF734FADC
:103CF00041F270700190082269460E48FFF77FF884
:103D000008B1FDF729FA0794089409944FF400507C
:103D10000A94CDE90B4007A906480E94FEF730FE41
:103D200008B1FDF719FA0348FFF73EF816B010BDC9
:103D300000000140F80800200C4810B50A49016055
:103D40004FF4E1314160002181600C22C160C0E983
:103D500004128161C161FFF787FA002803D0BDE832
:103D60001040FDF7F9B910BD0010014040090020D6
:103D70000C4810B50A4901604FF4E131416000215F
:103D800081600C22C160C0E904128161C161FFF74A
:103D90006BFA002803D0BDE81040FDF7DDB910BD77
:103DA0000044004084090020FEE7FEE72DE9F84FBB
:103DB0000446D4E90001FCF753FB05460246D4E96A
:103DC0000C0C0E460B466146FCF7A9FAC4E90C013F
:103DD000009104F12401276A0EC9834688463846BB
:103DE000FCF73EFB8A4604F12001814681E8E001B0
:103DF00000221A4B58460099FCF7B2FC02D2002070
:103E0000164908E0D4E90C010022154BFCF790FCA0
:103E100003D213490020C4E90C01D4E906014A4643
:103E20005346FCF723FB81468A46D4E90401D4E9D2
:103E30000C23FCF71BFB07468846D4E902012A46FF
:103E40003346FCF713FB3A464346FCF768FA01B0E9
:103E50004A465346BDE8F04FFCF761BA0070974000
:103E6000007097C01CB50020CDE900000246034653
:103E7000064900F079F807490548CDE90001064AEE
:103E8000064B074900F066F81CBD00000000F03F3B
:103E90007B14AE47E17A743FFCA9F1D24D62403FFA
:103EA000E17AA43F70B51349012408704C700024D6
:103EB000C1E90C44C1E90A440F4CD4E90256C1E9F6
:103EC0001256D4E90456C1E91456D4E90656C1E99C
:103ED0000E56D4E90854C1E9105428B1C1E90423AD
:103EE0000020C1E9020070BDC1E902230020C1E940
:103EF000040070BD984900209800002010B5074CC0
:103F00000749002020700968486300F00BF800F0B2
:103F100015F80020C4E9100010BD00009800002032
:103F2000F808002004480021C0E90811C0E90A117E
:103F3000C0E90C117047000000490020044800212E
:103F4000C0E90811C0E90A11C0E90C11704700006E
:103F50003849002070B5034CDDE9045684E86F0051
:103F600070BD00000849002070B5034CDDE904561F
:103F700084E86F0070BD000040490020C822144949
:103F80001448FDF715FB08211348FEF7CBFF134833
:103F9000FCF7D2FE124D00241248FCF775FEFCF728
:103FA00029FE45F82400FCF78BFE55F82400FCF7A9
:103FB000ABFB02460B4621460BA000F043FD641C00
:103FC000E4B2032C00D90024642001F043FAE3E7B3
:103FD0004C03002034070020F8080020F849002096
:103FE0000C4A0020EA0000200A0A204348202564E9
:103FF00020766F6C203D20252E336620200A0A0093
:10400000064D4FF400544FF47A7621462846FDF7CA
:10401000B2FE304601F01EFAF7E700000008024049
:1040200008B500252E4EDFF8BCB00095FFF71AFF4B
:10403000002233461046FFF735FF00212A48FEF7DD
:1040400071FF2A4C00212A48FDF788F8C4E90601CF
:1040500001212748FDF782F8C4E9080107468A468E
:10406000D4E90E01D4E90623FCF700FAD4E91023C1
:10407000FCF755F9C4E90A0180468946D4E91201E2
:104080003A465346FCF7F2F9D4E91423FCF747F912
:10409000C4E90C012A46334640464946FCF748FB32
:1040A00009D214A000F0CEFC012727700098C4E9C3
:1040B000040B594608E011A000F0C4FC002727704B
:1040C000C4E9025628463146FCF7E6FA0246617812
:1040D0003846FCF765FE4FF47A7001F0BBF9B1E7A2
:1040E000007CD54000409F40F808002098490020FF
:1040F000DC070020BAE3C1F70A000000BAE3D1B937
:104100000A00000008B51C4C208800042FD51B496C
:104110001BA0FCF7F6F850B118491BA0FCF7F1F80A
:1041200090B116491CA0FCF7ECF8A8B11DE01EA048
:1041300000F088FC114800901CA340F215121D49A4
:104140000020FCF7B1FF10E000211B48FDF706F846
:1041500002460B4619A006E001211748FCF7FEFFB6
:1041600002460B4619A000F06DFC002020800120C3
:1041700001F070F9C8E7000024000020480B00207F
:1041800041540D0A0000000041542B47657441441E
:1041900043314348300D0A0041542B476574414474
:1041A00043314348310D0A004F4B0A00CAD5B5BD13
:1041B00025730A00B6620008DC0700204144433141
:1041C000434830203D20252E33660A0041444331C8
:1041D000434831203D20252E33660A00134C86B01B
:1041E0004FF47A75D4E90A01CDE90401D4E9060156
:1041F000CDE90201207800900DA3C82218490020C3
:10420000FCF752FFD4E90C01CDE90401D4E908011F
:10421000CDE902012078009012A3C92210490020A4
:10422000FCF742FF284601F015F9DBE7984900202A
:104230006D6F6465203D2025642020566F75745F86
:10424000414443203D20252E3366202020566F75A3
:10425000745F43616C203D20252E33660A00000008
:10426000A46200086D6F6465203D2025642020490C
:104270006F75745F414443203D20252E3366202016
:1042800020496F75745F43616C203D20252E336695
:104290000A00000010B5502080F31188BFF34F8F43
:1042A000BFF36F8F01F09EFE18B104494FF08050AC
:1042B0000860002080F3118810BD000004ED00E0CC
:1042C00030B591B030216846FCF710F814210CA8E5
:1042D000FCF70CF8012003900224102004900094B5
:1042E000002506940D20CDE90750C320CDE909042F
:1042F00004200B906846FEF7A5F908B172B6FEE7F8
:104300000CA90F2081E831004FF4A0500F904FF41A
:104310008050109003210CA8FEF776F8002801D0F9
:1043200072B6FEE711B030BD704700000148FEF7DD
:1043300087BC0000C80B0020F0B50268254C264D54
:10434000264E274F274B4FF0804CA04209D06045A6
:1043500007D0A84205D0B04203D0B84201D098425D
:1043600004D122F0700E4A6842EA0E02A0421BD02D
:10437000604519D0A84217D0B04215D0B84213D02A
:10438000984211D0184DA8420ED0184DA8420BD01B
:10439000174DA84208D0174DA84205D0164DA84287
:1043A00002D0164DA84203D122F44075CA682A43B0
:1043B0004D6922F080022A4302608A68C2620A685C
:1043C0008262A04201D0984201D1096901630121B2
:1043D0004161F0BD000001400004004000080040C1
:1043E000000C004000040140004001400044014036
:1043F0000048014000180040001C00400020004020
:1044000010B501F01F030121046A99408C43046236
:10441000016A9A401143016210BD10B5846842EAF6
:10442000032224F47F440A432243826010BD826841
:1044300022F070020A4342F00701816070470000D9
:10444000F0B5026A22F001020262036A42688469DE
:10445000124E24F073050C682C4323F002058B6880
:104460002B430D4DA84201D0B04205D123F00807DF
:10447000CB683B4323F00403A84201D0B04205D1EE
:104480004D6922F4407215438A692A43426084616F
:10449000496841630362F0BD00000140000401402F
:1044A000F0B5026A22F010020262026A436884696F
:1044B0000D6824F4E64444EA05248D6822F02002C5
:1044C00042EA05120F4D104EA84201D0B04206D16B
:1044D000CF6822F0800242EA071222F04002A8428E
:1044E00001D0B04207D14D6923F4406343EA85030C
:1044F0008D6943EA85034360846149688163026290
:10450000F0BD00000000014000040140F0B5026A67
:1045100022F480720262026A4368C46922F4007263
:1045200024F073050C68124E2C438D6842EA052274
:104530000E4DA84201D0B04206D1CF6822F40062ED
:1045400042EA072222F48062A84201D0B04207D199
:104550004D6923F4405343EA05138D6943EA05137B
:104560004360C4614968C1630262F0BD000001405C
:104570000004014030B5026A22F480520262046AEB
:104580004268C3690D6823F4E64343EA05238D6856
:1045900024F4005444EA0534084DA84202D0084DE2
:1045A000A84204D14D6922F4804242EA8512426059
:1045B000C36149680164046230BD0000000001402D
:1045C0000004014010B5036A046A24F00104046287
:1045D000846924F0F00444EA021423F00A020A4336
:1045E0008461026210BD10B5036A23F010030362F8
:1045F0008369046A23F4704343EA023224F0A0037F
:1046000043EA01118261016210BD10B5806B002187
:10461000C185C184FEF71FFD10BD70B5846B206895
:10462000406994F83D10C0F3C0100025212904D141
:1046300018B1E584204600F067F82068406994F8D6
:104640003E10C0F38010222904D118B1E585204620
:1046500000F042F8206C40F0100020642046FEF785
:10466000FAFC70BD10B50146806B09680968C90580
:104670001BD40021C1850168CA6822F48072CA6017
:1046800001684A6922F001024A6101684A6922F020
:1046900040024A61202180F83E10016B012904D1BB
:1046A0000168CA6822F01002CA60016B012902D0B9
:1046B000FEF7EFFE10BD818DFEF7A0FC10BD10B51A
:1046C000806B016B012902D0FEF7E4FE10BD818DE5
:1046D0004908FEF793FC10BD0168CA6822F4907285
:1046E000CA6001684A6922F001024A61016B01292E
:1046F00004D10168CA6822F01002CA60202180F843
:104700003E100021016370470168CA6822F0C002B0
:10471000CA60202180F83D10704708B590F83E101F
:10472000222901D0022008BD82684FF480539A42AA
:1047300001D1016921B1816A9A421BD04AB10AE0D4
:104740000268816A5268C2F308020A80816A891C81
:1047500008E0026972B10268526802F07F020A70D2
:10476000816A491C8162C18D491E0904090CC185F9
:1047700003D019E002685268F1E70168CA6822F0C4
:104780002002CA600168CA6822F48072CA600168A7
:104790004A6922F001024A61202180F83E10016B33
:1047A000012903D0FEF775FE002008BD002101633A
:1047B0000168CA6822F01002CA6001680A68D2065D
:1047C00002D50A6849680091818DFEF717FCEBE776
:1047D0002DE9F041044600680169E26821F4405186
:1047E000114301612169A068E269084361691143CD
:1047F00022680843D16849F20C6399430143D160B0
:1048000020684169A26921F440711143416137492F
:104810002068884202D03649884202D1FDF7CAFE9C
:1048200001E0FDF7AFFE0246E36964203221B3F5F3
:10483000004F02EBC20303EB021362682BD092001D
:10484000B3FBF2F5B5FBF0F5B3FBF2F66FF018072A
:104850007D4306EB8505B3FBF2F601EB0515B5FBD1
:10486000F0F5B6FBF0F605F0F00505EB0615B3FB29
:10487000F2F6B3FBF2F2B2FBF0F27A4306EB8202FD
:1048800001EB0211B1FBF0F000F00F0021682844A9
:104890008860BDE8F0815200B3FBF2F6B6FBF0F69B
:1048A000B3FBF2F7B3FBF2F56FF0180C06FB0CF656
:1048B00007EB860601EBC606B5FBF0F5B6FBF0F696
:1048C0002D0106F0F80605EB4605B3FBF2F6B3FB47
:1048D000F2F2B2FBF0F202FB0CF206EB820201EB09
:1048E000C201B1FBF0F000F00700CFE7001001407B
:1048F0000014014038B581628285002513460446C4
:104900000564222084F83E00A26B1348D063A26B9A
:1049100012481064A26B1248D064A06B0A46056569
:104920002168A06B091DFDF761F8206801684168E6
:10493000009184F83C50C16841F48071C1602068E6
:10494000416941F0010141612068416941F0400144
:104950004161002038BD000065460008BF460008E0
:104960001B4600082DE9F041984617460E460446BE
:10497000069D1DE0681C1BD02DB1FDF709FAA0EBC8
:104980000800A84214D92068C16821F4D071C16020
:104990002068416921F001014161202084F83D0037
:1049A00084F83E00002084F83C000320BDE8F0813C
:1049B0002068006836EA000004D00020B842D9D050
:1049C0000020F3E70120F9E738B5124C20680168B0
:1049D000C943C90619D401680025406800902046E3
:1049E000FEF70DFBA06B00684068C0F180010A482B
:1049F00001800A4902888D54018841F400410180F8
:104A0000802206492046FEF72FFDBDE838400148C8
:104A1000FEF722BB4009002024000020480B0020A4
:104A20000148FEF719BB000084090020FEE70000E2
:104A300030B4034CC4E90001204630BCFFF7B6B9DE
:104A4000384900200FB4054B10B503A9044A029859
:104A500000F004F910BC5DF814FB00007953000865
:104A6000F40000207CB50C001D461646014601D01E
:104A7000601E00E00020CDE90010064B6A46294682
:104A8000304600F0EBF8002C02D0009A00211170A3
:104A90007CBD0000635300080907090E002804DBF1
:104AA00000F1E02080F80014704700F00F0000F1E2
:104AB000E02080F8141D704702E008C8121F08C1EA
:104AC000002AFAD170477047002001E001C1121F8F
:104AD000002AFBD1704700002DE9FF5F82B0002162
:104AE000DDE90430020DDDF840B0034318D044F690
:104AF0001050A2F2FF3242431514119801281FD022
:104B0000A5EB0B00401C5FEA000A4FF000064E4F79
:104B1000DFF83891B046504615D5CAF1000413E0CD
:104B2000119801244AA3012801D16FEA0B010298D0
:104B3000119AC0E90031C0E9024206B0BDE8F09F19
:104B4000CBF10000DFE704460021404A491842EB60
:104B50000450CDE9001012E0E00707D032463B4692
:104B600040464946FBF782FC8046894632463B4632
:104B700010461946FBF77AFC06460F466410002CD7
:104B8000EAD1DDE90401DDE90023BAF1000F06DA1C
:104B9000FBF76CFC42464B46FBF768FC05E0FBF775
:104BA000D7FC42464B46FBF7D3FC04460E46002298
:104BB000284BFBF7D5FD03D84FF0FF30014607E047
:104BC0000022254B20463146FBF7A9FBFBF7D7FE19
:104BD000102409E0002C0ADB0A220023FBF73CFB2F
:104BE000039B30321A55641E50EA0102F2D1641C54
:104BF000039AC4F111031444119A012A03D001222B
:104C000008430DD10AE0084304D000204FF0110BF7
:104C1000119072E7A3EB0B056D1E0DE05B4504DD03
:104C20004FF0000205F1010504E003DA4FF0000245
:104C3000A5F10105002AECD002981199C0E90231D2
:104C4000C0E9004579E70000000014400000F03F93
:104C5000300000000000F0430000E03F2DE9FF4F6E
:104C600095B09A46884606460025EEE1252877D17C
:104C700000242746F94A0121039400E0044316F872
:104C8000013F203B01FA03F01042F7D130782A2887
:104C900011D06FF02F033078A0F13002092A16D816
:104CA000039A44F0020402EB820203EB4202104436
:104CB000761C0390EFE758F8042B0392002A03DADE
:104CC000504244F40054039044F00204761C3078BF
:104CD0002E2816D116F8010F44F004042A280DD00E
:104CE0006FF02F023078A0F13003092B09D807EBC1
:104CF000870302EB4303C718761CF3E758F8047BDD
:104D0000761C30786C280FD006DC4C2817D0682829
:104D10000DD06A2814D104E0742810D07A280FD15D
:104D20000DE044F400140AE044F4801401E044F47B
:104D300040147278824202D104F58014761C761CED
:104D4000307866280BD013DC582877D009DC00288F
:104D500075D04528F6D04628F4D047281AD193E1DB
:104D600018E0632835D0642879D0652812D18BE10A
:104D7000702873D008DC6728F1D069286FD06E28BE
:104D80000DD06F2806D1ACE073282CD0752874D0D4
:104D9000782853D05246179990476D1C54E1C4F3BC
:104DA0000250022809D003280DD0D8F8001004289A
:104DB0000DD00D6008F1040846E1D8F80010EA179C
:104DC000C1E90052F6E7D8F800100D80F2E70D7047
:104DD000F0E718F8041B8DF8001000208DF8010092
:104DE000EB46012003E058F804BB4FF0FF306107A9
:104DF0004FF0000102D40DE009F101018946B942EA
:104E00000FDA8145F8DB1BF809100029F4D108E01E
:104E100009F1010189468142FADB1BF809100029DA
:104E2000F6D103985346A0EB090721463846179A56
:104E300000F080FA284400EB090507E044E008E1AF
:104E40000DE01BF8010B524617999047B9F1010983
:104E5000F7D2534621463846179AF2E039E00A2144
:104E6000C4F302524FF0000B0091022A06D058F80A
:104E7000040BC117032A09D00AE023E008F1070058
:104E800020F00702F2E80201904605E000B2C117E7
:104E9000042A01D140B2C117002906DA0A460021CE
:104EA000404261EB02012D2202E0220504D52B22B3
:104EB0008DF80420012203E0E20701D02022F7E769
:104EC000914657E00A2100E010214FF0000B0091BD
:104ED0000BE010214FF0000B44F004040827009170
:104EE00003E008204FF0000B0090C4F30252022AA6
:104EF00005D058F8040B0021032A08D008E008F177
:104F0000070020F00702F2E80201904603E080B2B9
:104F1000042A00D1C0B24FF0000922072AD5327806
:104F2000702A07D0DDF800C08CF0100C5CEA0B0C86
:104F300005D00EE040228DF80420012208E050EA5E
:104F4000010306D030238DF804308DF805200222AD
:104F50009146009B83F0080353EA0B030AD150EA01
:104F6000010201D1620705D530228DF804204FF0EF
:104F700001097F1E3278582A04D039A20C920CAA5B
:104F800002920BE03BA2F9E75B46009AFBF764F95B
:104F90000C9B9B5C029A521E0292137050EA010213
:104FA000F2D1029804A9081A00F1200B600702D57B
:104FB00024F4803400E001275F4502DDA7EB0B00FD
:104FC00000E0002000EB0B01009003984944401AD8
:104FD0000390E00306D453462146179A039800F045
:104FE000A9F90544002706E001A85246C05D1799BB
:104FF00090476D1C7F1C4F45F6DBE0030CD55346F4
:105000002146179A039800F095F9054404E03020F2
:105010005246179990476D1C0099481E0090002930
:10502000F5DC08E00298029952460078491C02918A
:10503000179990476D1CBBF10001ABF1010BF1DC3E
:105040005BE100F065F90544761C307800287FF4B8
:105050000DAE19B02846BDE8F08F00000928010008
:1050600030313233343536373839616263646566DE
:1050700000000000303132333435363738394142A0
:105080004344454600000000600700D4062708F1AD
:10509000070020F00700F0E80223804603F0004CF0
:1050A0005FEA0C0001D097A009E0200501D596A089
:1050B00005E0E00701D095A001E0AFF24C001390AD
:1050C000307823F0004365280CD006DC452809D051
:1050D00046281DD047287FD13BE0662818D0672896
:1050E0007AD136E00021112F01DB112000E0781C7D
:1050F000CDE9000104A90CA8FFF7EEFCDDE90D01E4
:105100000C9A4FF0000B07F10109109200914EE04C
:105110004FF000400097CDE9011004A90CA8FFF75B
:10512000DBFCDDE90D020C9B0F994FF0000B914663
:105130001093009211B9791C00EB0109B7EB09003B
:1051400003D4C0F1FF3B07F10109A9EB070001906F
:1051500042E0012F00DA01270021112F01DD11208B
:1051600000E03846CDE9000104A90CA8FFF7B4FC23
:10517000DDE90D010C9A00914FF0000BB946109239
:1051800021070FD4009A4A4503DA914601E0A9F1BC
:105190000109B9F1010F05DD109AA9F10101515C76
:1051A0003029F4D0B84202DA10F1040F03DA0121F9
:1051B000CDE9011010E0002803DC8344A9EB0001D5
:1051C00002E0411C494500DD8946A0EB0B00401C74
:1051D00001904FF000400290200705D40198484507
:1051E00002DB4FF0FF30019000208DF84B00029859
:1051F0000DF14B07B0F1004F25D002200C902B2071
:105200000D90029800280CDA404202902D200D905B
:1052100007E00A210298FBF7D7FA3031029007F82D
:10522000011D0C99481E0C900029F2DC0298002800
:10523000EFD1791E0D980870307800F0200040F012
:10524000450007F8020D11A8C01BC01D029013985D
:10525000007800B1012000EB0901019801EBE07139
:10526000029801440398401A401E0390E00306D4BC
:1052700053462146179A039800F05CF805441398AA
:10528000007818B15246179990476D1CE00323D55A
:1052900053462146179A039800F04CF805441BE04A
:1052A000BBF1000F07DB0098584504DD10981799F3
:1052B00010F80B0001E017993020524690470198F2
:1052C0000BF1010B401E05F10105019004D12E20C8
:1052D0005246179990476D1CB9F10001A9F10109D7
:1052E000DEDC05E017F8010B5246179990476D1C5C
:1052F0000299481E02900029F4DC53462146179A71
:1053000003989EE62D0000002B0000002000000006
:105310002DE9F041044600251E461746880404D4B2
:1053200005E039462020B0476D1C641EF9D528469B
:10533000BDE8F0812DE9F041044600251E46904667
:10534000C80301D5302700E02027880404D505E0F4
:1053500041463846B0476D1C641EF9D52846BDE865
:10536000F0814A68002A06D00A68531C0B6010704E
:105370004868401E4860704713B502230122694601
:105380000248FEF789F800981CBD00004009002083
:1053900008B5FCF789FFFEF793FFFEF7B5FBFEF7B4
:1053A0001FFBFEF7C9FCFEF7CBFAFEF7E1FCFEF7A8
:1053B00055FCFEF735FCC82218491948FCF7F8F8E7
:1053C00008211848FDF7AEFD00211648FDF7AAFD9B
:1053D000802215491548FEF747F814480068C1684F
:1053E00041F01001C16003220021012000F006FD00
:1053F0000F4910A37D22086011490020FBF754FEDD
:10540000094800900FA37E220D490020FBF74CFEB7
:10541000FEF724FB00F025F8FEE700004C03002017
:1054200034070020F8080020480B00204009002025
:1054300000000020B3F5CABCBBAFCDEAB3C9000081
:10544000E46100082573000001460020842900D093
:10545000C81C704710B500B9012000F04DFB0020BA
:1054600010BD10B500F0ACFB002010BD38B5D0E980
:10547000011204683AB1C3682BB1002000902046A5
:1054800000F0E0FC38BD2046BDE83840002200F0C6
:10549000B5BC7FB50D4604464169B0F9080081B13D
:1054A000A16971B1FFF7D0FFD4E905128DE80700BB
:1054B000D4E900102B46226900F069FD039004B086
:1054C00070BDFFF7C1FF03A9CDE90001208A2B467B
:1054D00082B2D4E9001000F02DFD012801D0002097
:1054E000EDE70398EBE700002DE9F041184C0F467B
:1054F000054666692068001D00F03AFA38B9206850
:1055000090F82C1001208840A1698143A161681C9A
:1055100007D137B12168BDE8F0410E48091D00F000
:105520006BBA20683544B5424560216805D2A06851
:10553000BDE8F041091D00F047BA6068091D00F0A0
:1055400043FA206B854200D22563BDE8F08100005C
:1055500038000020EC0C00202DE9F041054600F059
:1055600057FA2E4C2069401C206120682C4F10B146
:10557000E06940B32DE025602069012829D100268B
:1055800006EB860007EB800000F010FA761C072E71
:10559000F6D323488C3000F009FA2148A03000F0FF
:1055A00005FA1F48B43000F001FA1D48C83000F079
:1055B000FDF91B48DC3000F0F9F919488C306060C7
:1055C0001430A06005E02068E96AC06A884200D80B
:1055D0002560E06A401CE062E96A0120A269884017
:1055E0001043A06101EB810007EB8000291D00F052
:1055F00003FA00F02DFAE06900280CD02068E96A6F
:10560000C06A884207D207494FF080500860BFF354
:105610004F8FBFF36F8FBDE8F0810000380000208E
:10562000100C002004ED00E010B5044690F8510085
:1056300058B101280CD002280FD0502080F31188D7
:10564000BFF34F8FBFF36F8FFEE7206B00F014FAAC
:105650002046BDE8104000F00FBA10BD10484FF4CE
:105660007051420706D0C01D0D4920F00700411AB5
:10567000C1F570510B4A00230144C2E90003083907
:10568000103A21F0070111604B600B600B1AC0E962
:10569000001393604FF000405360D06070470000EB
:1056A000000D002084000020144E154CA6F1C80700
:1056B0004FF08058DFF84C9012E000BF00F0A8F9DE
:1056C000F068C568281D00F053F92069401E20616C
:1056D000E068401EE06000F0BBF92846FFF7A4FF39
:1056E000E0680028EAD138680128F9D9C9F80080B3
:1056F000BFF34F8FBFF36F8FF2E70000D80C00208D
:105700003800002004ED00E00346009829B1026053
:10571000C0E90F31012100F0C9BB0060F8E72DE9B5
:10572000F0479A46DDE9098481466FF00303206B58
:1057300003EB82021044089D20F00706700707D093
:10574000502080F31188BFF34F8FBFF36F8FFEE7B8
:1057500023180A5C83F834200A5C12B1401C10281C
:10576000F6D3002784F84370072D00D30625E562A1
:10577000C4E91157201D00F024F904F1180000F0CD
:1057800020F92461C5F107006462A061E76484F830
:10579000507052464946304600F0D8F82060B8F1C3
:1057A000000F01D0C8F80040BDE8F08730B51149BE
:1057B00000E011460A688242FBD34B685C188442C1
:1057C00003D1406818444860084643681C18944256
:1057D00009D1084C103C2468A24209D052681A44EE
:1057E00042600A6812680260814200D0086030BDE1
:1057F0000460F9E78400002006484168096829B17F
:105800004168C968C9684968016370474FF0FF3152
:10581000FAE700003800002008484068401C4FF0BC
:10582000500080F3118804D0BFF34F8FBFF36F8F08
:10583000FEE7BFF34F8FBFF36F8FFEE78C000020B2
:10584000002150B10A4B42699A420FD1806AA3F1FC
:10585000280290420AD040B108E0502080F311881D
:10586000BFF34F8FBFF36F8FFEE7012108467047EC
:10587000EC0C00202DE9F0410546002700F034FA39
:10588000314E306808B9FFF7E9FEF06805424BD1A8
:10589000C5B3083568070ED005F00700C0F1080051
:1058A0000544680707D0502080F31188BFF34F8F5D
:1058B000BFF36F8FFEE72DB37068854234D822485E
:1058C000103001460C6801E020460C466168A94290
:1058D00002D221680029F7D131688C4224D00768B0
:1058E0002168016060680837411B10290FD96019D1
:1058F000420708D0502080F31188BFF34F8FBFF3C9
:105900006F8FFEE710E041606560FFF74FFF616851
:105910007068401A7060B268904200D2B060F0685F
:1059200001430020C4E9000100F0FAFB780707D02A
:10593000502080F31188BFF34F8FBFF36F8FFEE7C6
:105940003846BDE8F08100007400002010B5031F48
:105950004FF080741C601B1F21F001011960191F9A
:10596000024B0B60143940380A6010BD195800080A
:10597000D0E9013201699A60D0E901235A604A688E
:10598000824201D182684A60002202610868401E9A
:105990000860086870470000034B036003F154007F
:1059A0000860802010607047F800002000F10801B6
:1059B0004FF0FF32C0E90112C160016100210160B6
:1059C000704700210161704730B50B685A1C02D046
:1059D00000F1080202E0026904E0224654682568EA
:1059E0009D42FAD953684B6099608A6051600861A2
:1059F0000168491C016030BD42684A6093688B6051
:105A000093685960916008610168491C01607047A2
:105A1000502080F31188BFF34F8FBFF36F8F0A4977
:105A20004868401C486001280CD10848006810F004
:105A3000FF0F07D0502080F31188BFF34F8FBFF3C3
:105A40006F8FFEE7704700008C00002004ED00E03F
:105A50000849486828B1401E486001D180F3118888
:105A60007047502080F31188BFF34F8FBFF36F8FC3
:105A7000FEE700008C00002070B5002827D0144DF0
:105A8000A0F108046168E868014207D1502080F362
:105A90001188BFF34F8FBFF36F8FFEE722683AB1D3
:105AA000502080F31188BFF34F8FBFF36F8FFEE755
:105AB0008143616000F018F96068696808446860B3
:105AC0002046FFF773FEBDE8704000F029BB70BDB3
:105AD000740000204FF0E020002101618161054940
